Archive member included to satisfy reference by file (symbol)

c:/program files (x86)/atollic/truestudio for stm32 9.3.0/armtools/bin/../lib/gcc/arm-atollic-eabi/6.3.1/../../../../arm-atollic-eabi/lib/armv6-m\libc_nano.a(lib_a-errno.o)
                              Core\Src\syscalls.o (__errno)
c:/program files (x86)/atollic/truestudio for stm32 9.3.0/armtools/bin/../lib/gcc/arm-atollic-eabi/6.3.1/../../../../arm-atollic-eabi/lib/armv6-m\libc_nano.a(lib_a-impure.o)
                              c:/program files (x86)/atollic/truestudio for stm32 9.3.0/armtools/bin/../lib/gcc/arm-atollic-eabi/6.3.1/../../../../arm-atollic-eabi/lib/armv6-m\libc_nano.a(lib_a-errno.o) (_impure_ptr)
c:/program files (x86)/atollic/truestudio for stm32 9.3.0/armtools/bin/../lib/gcc/arm-atollic-eabi/6.3.1/../../../../arm-atollic-eabi/lib/armv6-m\libc_nano.a(lib_a-init.o)
                              startup\startup_stm32l053xx.o (__libc_init_array)
c:/program files (x86)/atollic/truestudio for stm32 9.3.0/armtools/bin/../lib/gcc/arm-atollic-eabi/6.3.1/../../../../arm-atollic-eabi/lib/armv6-m\libc_nano.a(lib_a-memcpy-stub.o)
                              FreeRTOS\queue.o (memcpy)
c:/program files (x86)/atollic/truestudio for stm32 9.3.0/armtools/bin/../lib/gcc/arm-atollic-eabi/6.3.1/../../../../arm-atollic-eabi/lib/armv6-m\libc_nano.a(lib_a-memset.o)
                              Core\Src\gpio.o (memset)
c:/program files (x86)/atollic/truestudio for stm32 9.3.0/armtools/bin/../lib/gcc/arm-atollic-eabi/6.3.1/armv6-m\libgcc.a(_udivsi3.o)
                              Core\Src\system_stm32l0xx.o (__aeabi_uidiv)
c:/program files (x86)/atollic/truestudio for stm32 9.3.0/armtools/bin/../lib/gcc/arm-atollic-eabi/6.3.1/armv6-m\libgcc.a(_dvmd_tls.o)
                              c:/program files (x86)/atollic/truestudio for stm32 9.3.0/armtools/bin/../lib/gcc/arm-atollic-eabi/6.3.1/armv6-m\libgcc.a(_udivsi3.o) (__aeabi_idiv0)

Allocating common symbols
Common symbol       size              file

uwTick              0x4               Drivers\STM32L0xx_HAL_Driver\Src\stm32l0xx_hal.o
xQueueRegistry      0x40              FreeRTOS\queue.o
pFlash              0x18              Drivers\STM32L0xx_HAL_Driver\Src\stm32l0xx_hal_flash.o

Discarded input sections

 .text          0x00000000        0x0 c:/program files (x86)/atollic/truestudio for stm32 9.3.0/armtools/bin/../lib/gcc/arm-atollic-eabi/6.3.1/armv6-m/crti.o
 .data          0x00000000        0x0 c:/program files (x86)/atollic/truestudio for stm32 9.3.0/armtools/bin/../lib/gcc/arm-atollic-eabi/6.3.1/armv6-m/crti.o
 .bss           0x00000000        0x0 c:/program files (x86)/atollic/truestudio for stm32 9.3.0/armtools/bin/../lib/gcc/arm-atollic-eabi/6.3.1/armv6-m/crti.o
 .data          0x00000000        0x4 c:/program files (x86)/atollic/truestudio for stm32 9.3.0/armtools/bin/../lib/gcc/arm-atollic-eabi/6.3.1/armv6-m/crtbegin.o
 .text          0x00000000        0x0 Core\Src\gpio.o
 .data          0x00000000        0x0 Core\Src\gpio.o
 .bss           0x00000000        0x0 Core\Src\gpio.o
 .text.set_LED  0x00000000       0x14 Core\Src\gpio.o
 .text          0x00000000        0x0 Core\Src\main.o
 .data          0x00000000        0x0 Core\Src\main.o
 .bss           0x00000000        0x0 Core\Src\main.o
 .text          0x00000000        0x0 Core\Src\stm32l0xx_hal_msp.o
 .data          0x00000000        0x0 Core\Src\stm32l0xx_hal_msp.o
 .bss           0x00000000        0x0 Core\Src\stm32l0xx_hal_msp.o
 .text.HAL_MspInit
                0x00000000       0x1c Core\Src\stm32l0xx_hal_msp.o
 .debug_info    0x00000000      0x25e Core\Src\stm32l0xx_hal_msp.o
 .debug_abbrev  0x00000000       0xc9 Core\Src\stm32l0xx_hal_msp.o
Memory Configuration

Name             Origin             Length             Attributes
RAM              0x20000000         0x00002000         xrw
FLASH            0x08000000         0x00010000         xr
*default*        0x00000000         0xffffffff

Linker script and memory map

LOAD c:/program files (x86)/atollic/truestudio for stm32 9.3.0/armtools/bin/../lib/gcc/arm-atollic-eabi/6.3.1/armv6-m/crti.o
LOAD c:/program files (x86)/atollic/truestudio for stm32 9.3.0/armtools/bin/../lib/gcc/arm-atollic-eabi/6.3.1/armv6-m/crtbegin.o
LOAD Core\Src\gpio.o
LOAD Core\Src\main.o
LOAD Core\Src\stm32l0xx_hal_msp.o
LOAD Core\Src\syscalls.o
LOAD Core\Src\system_stm32l0xx.o
LOAD Drivers\STM32L0xx_HAL_Driver\Src\stm32l0xx_hal.o
LOAD Drivers\STM32L0xx_HAL_Driver\Src\stm32l0xx_hal_cortex.o
LOAD Drivers\STM32L0xx_HAL_Driver\Src\stm32l0xx_hal_dma.o
LOAD Drivers\STM32L0xx_HAL_Driver\Src\stm32l0xx_hal_flash.o
LOAD Drivers\STM32L0xx_HAL_Driver\Src\stm32l0xx_hal_flash_ex.o
LOAD Drivers\STM32L0xx_HAL_Driver\Src\stm32l0xx_hal_flash_ramfunc.o
LOAD Drivers\STM32L0xx_HAL_Driver\Src\stm32l0xx_hal_gpio.o
LOAD Drivers\STM32L0xx_HAL_Driver\Src\stm32l0xx_hal_i2c.o
LOAD Drivers\STM32L0xx_HAL_Driver\Src\stm32l0xx_hal_i2c_ex.o
LOAD Drivers\STM32L0xx_HAL_Driver\Src\stm32l0xx_hal_pwr.o
LOAD Drivers\STM32L0xx_HAL_Driver\Src\stm32l0xx_hal_pwr_ex.o
LOAD Drivers\STM32L0xx_HAL_Driver\Src\stm32l0xx_hal_rcc.o
LOAD Drivers\STM32L0xx_HAL_Driver\Src\stm32l0xx_hal_rcc_ex.o
LOAD Drivers\STM32L0xx_HAL_Driver\Src\stm32l0xx_hal_tim.o
LOAD Drivers\STM32L0xx_HAL_Driver\Src\stm32l0xx_hal_tim_ex.o
LOAD FreeRTOS\ARM_CM0\port.o
LOAD FreeRTOS\croutine.o
LOAD FreeRTOS\event_groups.o
LOAD FreeRTOS\heap_1.o
LOAD FreeRTOS\list.o
LOAD FreeRTOS\queue.o
LOAD FreeRTOS\stream_buffer.o
LOAD FreeRTOS\tasks.o
LOAD FreeRTOS\timers.o
LOAD HAL_Nucleo\hal.o
LOAD startup\startup_stm32l053xx.o
                0x00000080                malloc_getpagesize_P = 0x80
START GROUP
LOAD c:/program files (x86)/atollic/truestudio for stm32 9.3.0/armtools/bin/../lib/gcc/arm-atollic-eabi/6.3.1/../../../../arm-atollic-eabi/lib/armv6-m\libc_nano.a
LOAD c:/program files (x86)/atollic/truestudio for stm32 9.3.0/armtools/bin/../lib/gcc/arm-atollic-eabi/6.3.1/../../../../arm-atollic-eabi/lib/armv6-m\libm.a
END GROUP
START GROUP
LOAD c:/program files (x86)/atollic/truestudio for stm32 9.3.0/armtools/bin/../lib/gcc/arm-atollic-eabi/6.3.1/armv6-m\libgcc.a
LOAD c:/program files (x86)/atollic/truestudio for stm32 9.3.0/armtools/bin/../lib/gcc/arm-atollic-eabi/6.3.1/../../../../arm-atollic-eabi/lib/armv6-m\libc_nano.a
END GROUP
START GROUP
LOAD c:/program files (x86)/atollic/truestudio for stm32 9.3.0/armtools/bin/../lib/gcc/arm-atollic-eabi/6.3.1/armv6-m\libgcc.a
LOAD c:/program files (x86)/atollic/truestudio for stm32 9.3.0/armtools/bin/../lib/gcc/arm-atollic-eabi/6.3.1/../../../../arm-atollic-eabi/lib/armv6-m\libc_nano.a
LOAD c:/program files (x86)/atollic/truestudio for stm32 9.3.0/armtools/bin/../lib/gcc/arm-atollic-eabi/6.3.1/../../../../arm-atollic-eabi/lib/armv6-m\libnosys.a
END GROUP
START GROUP
LOAD c:/program files (x86)/atollic/truestudio for stm32 9.3.0/armtools/bin/../lib/gcc/arm-atollic-eabi/6.3.1/armv6-m\libgcc.a
LOAD c:/program files (x86)/atollic/truestudio for stm32 9.3.0/armtools/bin/../lib/gcc/arm-atollic-eabi/6.3.1/../../../../arm-atollic-eabi/lib/armv6-m\libc_nano.a
LOAD c:/program files (x86)/atollic/truestudio for stm32 9.3.0/armtools/bin/../lib/gcc/arm-atollic-eabi/6.3.1/../../../../arm-atollic-eabi/lib/armv6-m\libnosys.a
END GROUP
LOAD c:/program files (x86)/atollic/truestudio for stm32 9.3.0/armtools/bin/../lib/gcc/arm-atollic-eabi/6.3.1/armv6-m/crtend.o
LOAD c:/program files (x86)/atollic/truestudio for stm32 9.3.0/armtools/bin/../lib/gcc/arm-atollic-eabi/6.3.1/armv6-m/crtn.o
                0x20002000                _estack = 0x20002000
                0x00000200                _Min_Heap_Size = 0x200
                0x00000400                _Min_Stack_Size = 0x400

.isr_vector     0x08000000       0xc0
                0x08000000                . = ALIGN (0x4)
 *(.isr_vector)
 .isr_vector    0x08000000       0xc0 startup\startup_stm32l053xx.o
                0x08000000                g_pfnVectors
                0x080000c0                . = ALIGN (0x4)

.text           0x080000c0     0x27f4
                0x080000c0                . = ALIGN (0x4)
 *(.text)
 .text          0x080000c0       0x48 c:/program files (x86)/atollic/truestudio for stm32 9.3.0/armtools/bin/../lib/gcc/arm-atollic-eabi/6.3.1/armv6-m/crtbegin.o
 .text          0x08000108      0x114 c:/program files (x86)/atollic/truestudio for stm32 9.3.0/armtools/bin/../lib/gcc/arm-atollic-eabi/6.3.1/armv6-m\libgcc.a(_udivsi3.o)
                0x08000108                __aeabi_uidiv
                0x08000108                __udivsi3
                0x08000214                __aeabi_uidivmod
 .text          0x0800021c        0x4 c:/program files (x86)/atollic/truestudio for stm32 9.3.0/armtools/bin/../lib/gcc/arm-atollic-eabi/6.3.1/armv6-m\libgcc.a(_dvmd_tls.o)
                0x0800021c                __aeabi_idiv0
                0x0800021c                __aeabi_ldiv0
 *(.text*)
 .text.MX_GPIO_Init
                0x08000220       0xc8 Core\Src\gpio.o
                0x08000220                MX_GPIO_Init
 .text.set_debug_gpio
                0x080002e8       0x28 Core\Src\gpio.o
                0x080002e8                set_debug_gpio
 .text.v_Test_Task
                0x08000310       0x24 Core\Src\main.o
 .text.main     0x08000334       0x2c Core\Src\main.o
                0x08000334                main
 .text.SystemInit
                0x08000360       0x5c Core\Src\system_stm32l0xx.o
                0x08000360                SystemInit
 .text.HAL_Init
                0x080003bc       0x14 Drivers\STM32L0xx_HAL_Driver\Src\stm32l0xx_hal.o
                0x080003bc                HAL_Init
 .text.HAL_InitTick
                0x080003d0       0x30 Drivers\STM32L0xx_HAL_Driver\Src\stm32l0xx_hal.o
                0x080003d0                HAL_InitTick
 .text.HAL_GetTick
                0x08000400        0xc Drivers\STM32L0xx_HAL_Driver\Src\stm32l0xx_hal.o
                0x08000400                HAL_GetTick
 .text.HAL_NVIC_SetPriority
                0x0800040c       0x78 Drivers\STM32L0xx_HAL_Driver\Src\stm32l0xx_hal_cortex.o
                0x0800040c                HAL_NVIC_SetPriority
 .text.HAL_SYSTICK_Config
                0x08000484       0x38 Drivers\STM32L0xx_HAL_Driver\Src\stm32l0xx_hal_cortex.o
                0x08000484                HAL_SYSTICK_Config
 .text.HAL_GPIO_Init
                0x080004bc      0x2a8 Drivers\STM32L0xx_HAL_Driver\Src\stm32l0xx_hal_gpio.o
                0x080004bc                HAL_GPIO_Init
 .text.HAL_GPIO_WritePin
                0x08000764       0x88 Drivers\STM32L0xx_HAL_Driver\Src\stm32l0xx_hal_gpio.o
                0x08000764                HAL_GPIO_WritePin
 .text.HAL_RCC_GetSysClockFreq
                0x080007ec       0x94 Drivers\STM32L0xx_HAL_Driver\Src\stm32l0xx_hal_rcc.o
                0x080007ec                HAL_RCC_GetSysClockFreq
 .text.HAL_RCC_OscConfig
                0x08000880      0x7a0 Drivers\STM32L0xx_HAL_Driver\Src\stm32l0xx_hal_rcc.o
                0x08000880                HAL_RCC_OscConfig
 .text.HAL_RCC_ClockConfig
                0x08001020      0x278 Drivers\STM32L0xx_HAL_Driver\Src\stm32l0xx_hal_rcc.o
                0x08001020                HAL_RCC_ClockConfig
 .text.prvTaskExitError
                0x08001298       0x24 FreeRTOS\ARM_CM0\port.o
 *fill*         0x080012bc        0x4 
 .text.vPortStartFirstTask
                0x080012c0       0x34 FreeRTOS\ARM_CM0\port.o
 .text.pxPortInitialiseStack
                0x080012f4       0x20 FreeRTOS\ARM_CM0\port.o
                0x080012f4                pxPortInitialiseStack
 .text.SVC_Handler
                0x08001314        0x2 FreeRTOS\ARM_CM0\port.o
                0x08001314                SVC_Handler
 *fill*         0x08001316        0x2 
 .text.vPortYield
                0x08001318       0x18 FreeRTOS\ARM_CM0\port.o
                0x08001318                vPortYield
 .text.vPortEnterCritical
                0x08001330       0x18 FreeRTOS\ARM_CM0\port.o
                0x08001330                vPortEnterCritical
 .text.vPortExitCritical
                0x08001348       0x20 FreeRTOS\ARM_CM0\port.o
                0x08001348                vPortExitCritical
 .text.ulSetInterruptMaskFromISR
                0x08001368        0x8 FreeRTOS\ARM_CM0\port.o
                0x08001368                ulSetInterruptMaskFromISR
 .text.vClearInterruptMaskFromISR
                0x08001370        0x6 FreeRTOS\ARM_CM0\port.o
                0x08001370                vClearInterruptMaskFromISR
 *fill*         0x08001376        0xa 
 .text.PendSV_Handler
                0x08001380       0x44 FreeRTOS\ARM_CM0\port.o
                0x08001380                PendSV_Handler
 .text.xPortSysTickHandler
                0x080013c4       0x24 FreeRTOS\ARM_CM0\port.o
                0x080013c4                xPortSysTickHandler
 .text.vPortSetupTimerInterrupt
                0x080013e8       0x34 FreeRTOS\ARM_CM0\port.o
                0x080013e8                vPortSetupTimerInterrupt
 .text.xPortStartScheduler
                0x0800141c       0x3c FreeRTOS\ARM_CM0\port.o
                0x0800141c                xPortStartScheduler
 .text.pvPortMalloc
                0x08001458       0x64 FreeRTOS\heap_1.o
                0x08001458                pvPortMalloc
 .text.vPortFree
                0x080014bc        0xa FreeRTOS\heap_1.o
                0x080014bc                vPortFree
 .text.vListInitialise
                0x080014c6       0x16 FreeRTOS\list.o
                0x080014c6                vListInitialise
 .text.vListInitialiseItem
                0x080014dc        0x6 FreeRTOS\list.o
                0x080014dc                vListInitialiseItem
 .text.vListInsertEnd
                0x080014e2       0x18 FreeRTOS\list.o
                0x080014e2                vListInsertEnd
 .text.vListInsert
                0x080014fa       0x30 FreeRTOS\list.o
                0x080014fa                vListInsert
 .text.uxListRemove
                0x0800152a       0x28 FreeRTOS\list.o
                0x0800152a                uxListRemove
 .text.prvIsQueueFull
                0x08001552       0x1e FreeRTOS\queue.o
 .text.prvIsQueueEmpty
                0x08001570       0x1c FreeRTOS\queue.o
 .text.prvCopyDataToQueue
                0x0800158c       0x82 FreeRTOS\queue.o
 .text.prvCopyDataFromQueue
                0x0800160e       0x24 FreeRTOS\queue.o
 .text.prvUnlockQueue
                0x08001632       0x72 FreeRTOS\queue.o
 .text.xQueueGenericReset
                0x080016a4       0x6e FreeRTOS\queue.o
                0x080016a4                xQueueGenericReset
 .text.prvInitialiseNewQueue
                0x08001712       0x1c FreeRTOS\queue.o
 .text.xQueueGenericCreate
                0x0800172e       0x36 FreeRTOS\queue.o
                0x0800172e                xQueueGenericCreate
 .text.xQueueGenericSend
                0x08001764      0x140 FreeRTOS\queue.o
                0x08001764                xQueueGenericSend
 .text.xQueueGenericSendFromISR
                0x080018a4       0xb4 FreeRTOS\queue.o
                0x080018a4                xQueueGenericSendFromISR
 .text.xQueueReceive
                0x08001958      0x126 FreeRTOS\queue.o
                0x08001958                xQueueReceive
 *fill*         0x08001a7e        0x2 
 .text.vQueueAddToRegistry
                0x08001a80       0x24 FreeRTOS\queue.o
                0x08001a80                vQueueAddToRegistry
 .text.vQueueWaitForMessageRestricted
                0x08001aa4       0x50 FreeRTOS\queue.o
                0x08001aa4                vQueueWaitForMessageRestricted
 .text.prvResetNextTaskUnblockTime
                0x08001af4       0x2c FreeRTOS\tasks.o
 .text.prvDeleteTCB
                0x08001b20       0x12 FreeRTOS\tasks.o
 *fill*         0x08001b32        0x2 
 .text.prvInitialiseNewTask
                0x08001b34       0x94 FreeRTOS\tasks.o
 .text.prvInitialiseTaskLists
                0x08001bc8       0x68 FreeRTOS\tasks.o
 .text.prvAddNewTaskToReadyList
                0x08001c30       0xa0 FreeRTOS\tasks.o
 .text.prvCheckTasksWaitingTermination
                0x08001cd0       0x44 FreeRTOS\tasks.o
 .text.prvAddCurrentTaskToDelayedList
                0x08001d14       0x7c FreeRTOS\tasks.o
 .text.prvIdleTask
                0x08001d90       0x20 FreeRTOS\tasks.o
 .text.xTaskCreate
                0x08001db0       0x5e FreeRTOS\tasks.o
                0x08001db0                xTaskCreate
 *fill*         0x08001e0e        0x2 
 .text.vTaskStartScheduler
                0x08001e10       0x64 FreeRTOS\tasks.o
                0x08001e10                vTaskStartScheduler
 .text.vTaskSuspendAll
                0x08001e74       0x10 FreeRTOS\tasks.o
                0x08001e74                vTaskSuspendAll
 .text.xTaskGetTickCount
                0x08001e84        0xc FreeRTOS\tasks.o
                0x08001e84                xTaskGetTickCount
 .text.xTaskIncrementTick
                0x08001e90      0x128 FreeRTOS\tasks.o
                0x08001e90                xTaskIncrementTick
 .text.xTaskResumeAll
                0x08001fb8       0xec FreeRTOS\tasks.o
                0x08001fb8                xTaskResumeAll
 .text.vTaskDelay
                0x080020a4       0x34 FreeRTOS\tasks.o
                0x080020a4                vTaskDelay
 .text.vTaskSwitchContext
                0x080020d8       0x8c FreeRTOS\tasks.o
                0x080020d8                vTaskSwitchContext
 .text.vTaskPlaceOnEventList
                0x08002164       0x24 FreeRTOS\tasks.o
                0x08002164                vTaskPlaceOnEventList
 .text.vTaskPlaceOnEventListRestricted
                0x08002188       0x30 FreeRTOS\tasks.o
                0x08002188                vTaskPlaceOnEventListRestricted
 .text.xTaskRemoveFromEventList
                0x080021b8       0x84 FreeRTOS\tasks.o
                0x080021b8                xTaskRemoveFromEventList
 .text.vTaskInternalSetTimeOutState
                0x0800223c       0x18 FreeRTOS\tasks.o
                0x0800223c                vTaskInternalSetTimeOutState
 .text.xTaskCheckForTimeOut
                0x08002254       0x68 FreeRTOS\tasks.o
                0x08002254                xTaskCheckForTimeOut
 .text.vTaskMissedYield
                0x080022bc        0xc FreeRTOS\tasks.o
                0x080022bc                vTaskMissedYield
 .text.xTaskGetSchedulerState
                0x080022c8       0x24 FreeRTOS\tasks.o
                0x080022c8                xTaskGetSchedulerState
 .text.xTaskPriorityDisinherit
                0x080022ec       0x78 FreeRTOS\tasks.o
                0x080022ec                xTaskPriorityDisinherit
 .text.prvGetNextExpireTime
                0x08002364       0x24 FreeRTOS\timers.o
 .text.prvInsertTimerInActiveList
                0x08002388       0x48 FreeRTOS\timers.o
 .text.prvCheckForValidListAndQueue
                0x080023d0       0x60 FreeRTOS\timers.o
 .text.xTimerCreateTimerTask
                0x08002430       0x48 FreeRTOS\timers.o
                0x08002430                xTimerCreateTimerTask
 .text.xTimerGenericCommand
                0x08002478       0x60 FreeRTOS\timers.o
                0x08002478                xTimerGenericCommand
 .text.prvSwitchTimerLists
                0x080024d8       0x70 FreeRTOS\timers.o
 .text.prvSampleTimeNow
                0x08002548       0x2c FreeRTOS\timers.o
 .text.prvProcessExpiredTimer
                0x08002574       0x5c FreeRTOS\timers.o
 .text.prvProcessTimerOrBlockTask
                0x080025d0       0x70 FreeRTOS\timers.o
 .text.prvProcessReceivedCommands
                0x08002640       0xe0 FreeRTOS\timers.o
 .text.prvTimerTask
                0x08002720       0x16 FreeRTOS\timers.o
 .text.NMI_Handler
                0x08002736        0x2 HAL_Nucleo\hal.o
                0x08002736                NMI_Handler
 .text.HardFault_Handler
                0x08002738        0x2 HAL_Nucleo\hal.o
                0x08002738                HardFault_Handler
 .text.SysTick_Handler
                0x0800273a       0x18 HAL_Nucleo\hal.o
                0x0800273a                SysTick_Handler
 *fill*         0x08002752        0x2 
 .text.SystemClock_Config
                0x08002754       0x70 HAL_Nucleo\hal.o
                0x08002754                SystemClock_Config
 .text.init_hal
                0x080027c4       0x10 HAL_Nucleo\hal.o
                0x080027c4                init_hal
 .text.vApplicationTickHook
                0x080027d4        0x2 HAL_Nucleo\hal.o
                0x080027d4                vApplicationTickHook
 .text.vApplicationIdleHook
                0x080027d6        0x2 HAL_Nucleo\hal.o
                0x080027d6                vApplicationIdleHook
 .text.assert_failed
                0x080027d8        0x2 HAL_Nucleo\hal.o
                0x080027d8                assert_failed
 *fill*         0x080027da        0x2 
 .text.Reset_Handler
                0x080027dc       0x50 startup\startup_stm32l053xx.o
                0x080027dc                Reset_Handler
 .text.Default_Handler
                0x0800282c        0x2 startup\startup_stm32l053xx.o
                0x0800282c                TSC_IRQHandler
                0x0800282c                ADC1_COMP_IRQHandler
                0x0800282c                PVD_IRQHandler
                0x0800282c                I2C1_IRQHandler
                0x0800282c                RCC_CRS_IRQHandler
                0x0800282c                SPI1_IRQHandler
                0x0800282c                TIM6_DAC_IRQHandler
                0x0800282c                EXTI2_3_IRQHandler
                0x0800282c                I2C2_IRQHandler
                0x0800282c                RTC_IRQHandler
                0x0800282c                LCD_IRQHandler
                0x0800282c                DMA1_Channel4_5_6_7_IRQHandler
                0x0800282c                EXTI4_15_IRQHandler
                0x0800282c                DMA1_Channel1_IRQHandler
                0x0800282c                Default_Handler
                0x0800282c                TIM22_IRQHandler
                0x0800282c                EXTI0_1_IRQHandler
                0x0800282c                USB_IRQHandler
                0x0800282c                SPI2_IRQHandler
                0x0800282c                TIM21_IRQHandler
                0x0800282c                WWDG_IRQHandler
                0x0800282c                TIM2_IRQHandler
                0x0800282c                DMA1_Channel2_3_IRQHandler
                0x0800282c                USART2_IRQHandler
                0x0800282c                FLASH_IRQHandler
                0x0800282c                USART1_IRQHandler
                0x0800282c                RNG_LPUART1_IRQHandler
                0x0800282c                LPTIM1_IRQHandler
 *fill*         0x0800282e        0x2 
 .text.__libc_init_array
                0x08002830       0x48 c:/program files (x86)/atollic/truestudio for stm32 9.3.0/armtools/bin/../lib/gcc/arm-atollic-eabi/6.3.1/../../../../arm-atollic-eabi/lib/armv6-m\libc_nano.a(lib_a-init.o)
                0x08002830                __libc_init_array
 .text.memcpy   0x08002878       0x12 c:/program files (x86)/atollic/truestudio for stm32 9.3.0/armtools/bin/../lib/gcc/arm-atollic-eabi/6.3.1/../../../../arm-atollic-eabi/lib/armv6-m\libc_nano.a(lib_a-memcpy-stub.o)
                0x08002878                memcpy
 .text.memset   0x0800288a       0x10 c:/program files (x86)/atollic/truestudio for stm32 9.3.0/armtools/bin/../lib/gcc/arm-atollic-eabi/6.3.1/../../../../arm-atollic-eabi/lib/armv6-m\libc_nano.a(lib_a-memset.o)
                0x0800288a                memset
 *(.glue_7)
 .glue_7        0x0800289a        0x0 linker stubs
 *(.glue_7t)
 .glue_7t       0x0800289a        0x0 linker stubs
 *(.eh_frame)
 *fill*         0x0800289a        0x2 
 .eh_frame      0x0800289c        0x0 c:/program files (x86)/atollic/truestudio for stm32 9.3.0/armtools/bin/../lib/gcc/arm-atollic-eabi/6.3.1/armv6-m/crtbegin.o
 *(.init)
 .init          0x0800289c        0x4 c:/program files (x86)/atollic/truestudio for stm32 9.3.0/armtools/bin/../lib/gcc/arm-atollic-eabi/6.3.1/armv6-m/crti.o
                0x0800289c                _init
 .init          0x080028a0        0x8 c:/program files (x86)/atollic/truestudio for stm32 9.3.0/armtools/bin/../lib/gcc/arm-atollic-eabi/6.3.1/armv6-m/crtn.o
 *(.fini)
 .fini          0x080028a8        0x4 c:/program files (x86)/atollic/truestudio for stm32 9.3.0/armtools/bin/../lib/gcc/arm-atollic-eabi/6.3.1/armv6-m/crti.o
                0x080028a8                _fini
 .fini          0x080028ac        0x8 c:/program files (x86)/atollic/truestudio for stm32 9.3.0/armtools/bin/../lib/gcc/arm-atollic-eabi/6.3.1/armv6-m/crtn.o
                0x080028b4                . = ALIGN (0x4)
                0x080028b4                _etext = .

.vfp11_veneer   0x080028b4        0x0
 .vfp11_veneer  0x080028b4        0x0 linker stubs

.v4_bx          0x080028b4        0x0
 .v4_bx         0x080028b4        0x0 linker stubs

.iplt           0x080028b4        0x0
 .iplt          0x080028b4        0x0 c:/program files (x86)/atollic/truestudio for stm32 9.3.0/armtools/bin/../lib/gcc/arm-atollic-eabi/6.3.1/armv6-m/crtbegin.o

.rodata         0x080028b4      0x114
                0x080028b4                . = ALIGN (0x4)
 *(.rodata)
 *(.rodata*)
 .rodata.main.str1.4
                0x080028b4        0x5 Core\Src\main.o
 *fill*         0x080028b9        0x3 
 .rodata.AHBPrescTable
                0x080028bc       0x10 Core\Src\system_stm32l0xx.o
                0x080028bc                AHBPrescTable
 .rodata.PLLMulTable
                0x080028cc        0x9 Core\Src\system_stm32l0xx.o
                0x080028cc                PLLMulTable
 *fill*         0x080028d5        0x3 
 .rodata.HAL_NVIC_SetPriority.str1.4
                0x080028d8       0x3b Drivers\STM32L0xx_HAL_Driver\Src\stm32l0xx_hal_cortex.o
 *fill*         0x08002913        0x1 
 .rodata.HAL_GPIO_Init.str1.4
                0x08002914       0x39 Drivers\STM32L0xx_HAL_Driver\Src\stm32l0xx_hal_gpio.o
 *fill*         0x0800294d        0x3 
 .rodata.HAL_RCC_MCOConfig.str1.4
                0x08002950       0x38 Drivers\STM32L0xx_HAL_Driver\Src\stm32l0xx_hal_rcc.o
 .rodata.vTaskStartScheduler.str1.4
                0x08002988        0x5 FreeRTOS\tasks.o
 *fill*         0x0800298d        0x3 
 .rodata.prvProcessReceivedCommands
                0x08002990       0x28 FreeRTOS\timers.o
 .rodata.prvCheckForValidListAndQueue.str1.4
                0x080029b8        0x5 FreeRTOS\timers.o
 *fill*         0x080029bd        0x3 
 .rodata.xTimerCreateTimerTask.str1.4
                0x080029c0        0x8 FreeRTOS\timers.o
                0x080029c8                . = ALIGN (0x4)

.rel.dyn        0x080029c8        0x0
 .rel.iplt      0x080029c8        0x0 c:/program files (x86)/atollic/truestudio for stm32 9.3.0/armtools/bin/../lib/gcc/arm-atollic-eabi/6.3.1/armv6-m/crtbegin.o

.ARM.extab
 *(.ARM.extab* .gnu.linkonce.armextab.*)

.ARM            0x080029c8        0x0
                0x080029c8                __exidx_start = .
 *(.ARM.exidx*)
                0x080029c8                __exidx_end = .

.preinit_array  0x080029c8        0x0
                0x080029c8                PROVIDE (__preinit_array_start, .)
 *(.preinit_array*)
                0x080029c8                PROVIDE (__preinit_array_end, .)

.init_array     0x080029c8        0x4
                0x080029c8                PROVIDE (__init_array_start, .)
 *(SORT(.init_array.*))
 *(.init_array*)
 .init_array    0x080029c8        0x4 c:/program files (x86)/atollic/truestudio for stm32 9.3.0/armtools/bin/../lib/gcc/arm-atollic-eabi/6.3.1/armv6-m/crtbegin.o
                0x080029cc                PROVIDE (__init_array_end, .)

.fini_array     0x080029cc        0x4
                [!provide]                PROVIDE (__fini_array_start, .)
 *(SORT(.fini_array.*))
 *(.fini_array*)
 .fini_array    0x080029cc        0x4 c:/program files (x86)/atollic/truestudio for stm32 9.3.0/armtools/bin/../lib/gcc/arm-atollic-eabi/6.3.1/armv6-m/crtbegin.o
                [!provide]                PROVIDE (__fini_array_end, .)
                0x080029d0                _sidata = LOADADDR (.data)

.data           0x20000000        0x8 load address 0x080029d0
                0x20000000                . = ALIGN (0x4)
                0x20000000                _sdata = .
 *(.data)
 *(.data*)
 .data.SystemCoreClock
                0x20000000        0x4 Core\Src\system_stm32l0xx.o
                0x20000000                SystemCoreClock
 .data.uxCriticalNesting
                0x20000004        0x4 FreeRTOS\ARM_CM0\port.o
                0x20000008                . = ALIGN (0x4)
                0x20000008                _edata = .

.igot.plt       0x20000008        0x0 load address 0x080029d8
 .igot.plt      0x20000008        0x0 c:/program files (x86)/atollic/truestudio for stm32 9.3.0/armtools/bin/../lib/gcc/arm-atollic-eabi/6.3.1/armv6-m/crtbegin.o
                0x20000008                . = ALIGN (0x4)

.bss            0x20000008     0x1174 load address 0x080029d8
                0x20000008                _sbss = .
                0x20000008                __bss_start__ = _sbss
 *(.bss)
 .bss           0x20000008       0x1c c:/program files (x86)/atollic/truestudio for stm32 9.3.0/armtools/bin/../lib/gcc/arm-atollic-eabi/6.3.1/armv6-m/crtbegin.o
 *(.bss*)
 .bss.led_state.5888
                0x20000024        0x1 Core\Src\main.o
 *fill*         0x20000025        0x3 
 .bss.pucAlignedHeap.5114
                0x20000028        0x4 FreeRTOS\heap_1.o
 .bss.ucHeap    0x2000002c      0xfa0 FreeRTOS\heap_1.o
 .bss.xNextFreeByte
                0x20000fcc        0x4 FreeRTOS\heap_1.o
 .bss.pxCurrentTCB
                0x20000fd0        0x4 FreeRTOS\tasks.o
                0x20000fd0                pxCurrentTCB
 .bss.pxDelayedTaskList
                0x20000fd4        0x4 FreeRTOS\tasks.o
 .bss.pxOverflowDelayedTaskList
                0x20000fd8        0x4 FreeRTOS\tasks.o
 .bss.pxReadyTasksLists
                0x20000fdc       0x8c FreeRTOS\tasks.o
 .bss.uxCurrentNumberOfTasks
                0x20001068        0x4 FreeRTOS\tasks.o
 .bss.uxDeletedTasksWaitingCleanUp
                0x2000106c        0x4 FreeRTOS\tasks.o
 .bss.uxSchedulerSuspended
                0x20001070        0x4 FreeRTOS\tasks.o
 .bss.uxTaskNumber
                0x20001074        0x4 FreeRTOS\tasks.o
 .bss.uxTopReadyPriority
                0x20001078        0x4 FreeRTOS\tasks.o
 .bss.xDelayedTaskList1
                0x2000107c       0x14 FreeRTOS\tasks.o
 .bss.xDelayedTaskList2
                0x20001090       0x14 FreeRTOS\tasks.o
 .bss.xIdleTaskHandle
                0x200010a4        0x4 FreeRTOS\tasks.o
 .bss.xNextTaskUnblockTime
                0x200010a8        0x4 FreeRTOS\tasks.o
 .bss.xNumOfOverflows
                0x200010ac        0x4 FreeRTOS\tasks.o
 .bss.xPendedTicks
                0x200010b0        0x4 FreeRTOS\tasks.o
 .bss.xPendingReadyList
                0x200010b4       0x14 FreeRTOS\tasks.o
 .bss.xSchedulerRunning
                0x200010c8        0x4 FreeRTOS\tasks.o
 .bss.xSuspendedTaskList
                0x200010cc       0x14 FreeRTOS\tasks.o
 .bss.xTasksWaitingTermination
                0x200010e0       0x14 FreeRTOS\tasks.o
 .bss.xTickCount
                0x200010f4        0x4 FreeRTOS\tasks.o
 .bss.xYieldPending
                0x200010f8        0x4 FreeRTOS\tasks.o
 .bss.pxCurrentTimerList
                0x200010fc        0x4 FreeRTOS\timers.o
 .bss.pxOverflowTimerList
                0x20001100        0x4 FreeRTOS\timers.o
 .bss.xActiveTimerList1
                0x20001104       0x14 FreeRTOS\timers.o
 .bss.xActiveTimerList2
                0x20001118       0x14 FreeRTOS\timers.o
 .bss.xLastTime.5431
                0x2000112c        0x4 FreeRTOS\timers.o
 .bss.xTimerQueue
                0x20001130        0x4 FreeRTOS\timers.o
 .bss.xTimerTaskHandle
                0x20001134        0x4 FreeRTOS\timers.o
 *(COMMON)
 COMMON         0x20001138        0x4 Drivers\STM32L0xx_HAL_Driver\Src\stm32l0xx_hal.o
                0x20001138                uwTick
 COMMON         0x2000113c       0x40 FreeRTOS\queue.o
                0x2000113c                xQueueRegistry
                0x2000117c                . = ALIGN (0x4)
                0x2000117c                _ebss = .
                0x2000117c                __bss_end__ = _ebss

._user_heap_stack
                0x2000117c      0x600 load address 0x080029d8
                0x2000117c                . = ALIGN (0x4)
                0x2000117c                PROVIDE (end, .)
                [!provide]                PROVIDE (_end, .)
                0x2000137c                . = (. + _Min_Heap_Size)
 *fill*         0x2000117c      0x200 
                0x2000177c                . = (. + _Min_Stack_Size)
 *fill*         0x2000137c      0x400 
                0x2000177c                . = ALIGN (0x4)

/DISCARD/
 libc.a(*)
 libm.a(*)
 libgcc.a(*)

.ARM.attributes
                0x00000000       0x28
 *(.ARM.attributes)
 .ARM.attributes
                0x00000000       0x1e c:/program files (x86)/atollic/truestudio for stm32 9.3.0/armtools/bin/../lib/gcc/arm-atollic-eabi/6.3.1/armv6-m/crti.o
 .ARM.attributes
                0x0000001e       0x2c c:/program files (x86)/atollic/truestudio for stm32 9.3.0/armtools/bin/../lib/gcc/arm-atollic-eabi/6.3.1/armv6-m/crtbegin.o
 .ARM.attributes
                0x0000004a       0x32 Core\Src\gpio.o
 .ARM.attributes
                0x0000007c       0x32 Core\Src\main.o
 .ARM.attributes
                0x000000ae       0x32 Core\Src\system_stm32l0xx.o
 .ARM.attributes
                0x000000e0       0x32 Drivers\STM32L0xx_HAL_Driver\Src\stm32l0xx_hal.o
 .ARM.attributes
                0x00000112       0x32 Drivers\STM32L0xx_HAL_Driver\Src\stm32l0xx_hal_cortex.o
 .ARM.attributes
                0x00000144       0x32 Drivers\STM32L0xx_HAL_Driver\Src\stm32l0xx_hal_gpio.o
 .ARM.attributes
                0x00000176       0x32 Drivers\STM32L0xx_HAL_Driver\Src\stm32l0xx_hal_rcc.o
 .ARM.attributes
                0x000001a8       0x32 FreeRTOS\ARM_CM0\port.o
 .ARM.attributes
                0x000001da       0x32 FreeRTOS\heap_1.o
 .ARM.attributes
                0x0000020c       0x32 FreeRTOS\list.o
 .ARM.attributes
                0x0000023e       0x32 FreeRTOS\queue.o
 .ARM.attributes
                0x00000270       0x32 FreeRTOS\tasks.o
 .ARM.attributes
                0x000002a2       0x32 FreeRTOS\timers.o
 .ARM.attributes
                0x000002d4       0x32 HAL_Nucleo\hal.o
 .ARM.attributes
                0x00000306       0x22 startup\startup_stm32l053xx.o
 .ARM.attributes
                0x00000328       0x2c c:/program files (x86)/atollic/truestudio for stm32 9.3.0/armtools/bin/../lib/gcc/arm-atollic-eabi/6.3.1/../../../../arm-atollic-eabi/lib/armv6-m\libc_nano.a(lib_a-init.o)
 .ARM.attributes
                0x00000354       0x2c c:/program files (x86)/atollic/truestudio for stm32 9.3.0/armtools/bin/../lib/gcc/arm-atollic-eabi/6.3.1/../../../../arm-atollic-eabi/lib/armv6-m\libc_nano.a(lib_a-memcpy-stub.o)
 .ARM.attributes
                0x00000380       0x2c c:/program files (x86)/atollic/truestudio for stm32 9.3.0/armtools/bin/../lib/gcc/arm-atollic-eabi/6.3.1/../../../../arm-atollic-eabi/lib/armv6-m\libc_nano.a(lib_a-memset.o)
 .ARM.attributes
                0x000003ac       0x1e c:/program files (x86)/atollic/truestudio for stm32 9.3.0/armtools/bin/../lib/gcc/arm-atollic-eabi/6.3.1/armv6-m\libgcc.a(_udivsi3.o)
 .ARM.attributes
                0x000003ca       0x1e c:/program files (x86)/atollic/truestudio for stm32 9.3.0/armtools/bin/../lib/gcc/arm-atollic-eabi/6.3.1/armv6-m\libgcc.a(_dvmd_tls.o)
 .ARM.attributes
                0x000003e8       0x1e c:/program files (x86)/atollic/truestudio for stm32 9.3.0/armtools/bin/../lib/gcc/arm-atollic-eabi/6.3.1/armv6-m/crtn.o
OUTPUT(PD_Makinac.elf elf32-littlearm)

.debug_info     0x00000000     0xb0d3
 .debug_info    0x00000000      0x57d Core\Src\gpio.o
 .debug_info    0x0000057d      0x23d Core\Src\main.o
 .debug_info    0x000007ba      0x398 Core\Src\system_stm32l0xx.o
 .debug_info    0x00000b52      0x864 Drivers\STM32L0xx_HAL_Driver\Src\stm32l0xx_hal.o
 .debug_info    0x000013b6      0xb20 Drivers\STM32L0xx_HAL_Driver\Src\stm32l0xx_hal_cortex.o
 .debug_info    0x00001ed6      0x838 Drivers\STM32L0xx_HAL_Driver\Src\stm32l0xx_hal_gpio.o
 .debug_info    0x0000270e      0xf34 Drivers\STM32L0xx_HAL_Driver\Src\stm32l0xx_hal_rcc.o
 .debug_info    0x00003642      0x2d7 FreeRTOS\ARM_CM0\port.o
 .debug_info    0x00003919      0x9cd FreeRTOS\heap_1.o
 .debug_info    0x000042e6      0xacb FreeRTOS\list.o
 .debug_info    0x00004db1     0x206d FreeRTOS\queue.o
 .debug_info    0x00006e1e     0x261b FreeRTOS\tasks.o
 .debug_info    0x00009439     0x1754 FreeRTOS\timers.o
 .debug_info    0x0000ab8d      0x4a9 HAL_Nucleo\hal.o
 .debug_info    0x0000b036       0x9d startup\startup_stm32l053xx.o

.debug_abbrev   0x00000000     0x1d00
 .debug_abbrev  0x00000000      0x191 Core\Src\gpio.o
 .debug_abbrev  0x00000191      0x123 Core\Src\main.o
 .debug_abbrev  0x000002b4      0x10e Core\Src\system_stm32l0xx.o
 .debug_abbrev  0x000003c2      0x235 Drivers\STM32L0xx_HAL_Driver\Src\stm32l0xx_hal.o
 .debug_abbrev  0x000005f7      0x28f Drivers\STM32L0xx_HAL_Driver\Src\stm32l0xx_hal_cortex.o
 .debug_abbrev  0x00000886      0x1ff Drivers\STM32L0xx_HAL_Driver\Src\stm32l0xx_hal_gpio.o
 .debug_abbrev  0x00000a85      0x26e Drivers\STM32L0xx_HAL_Driver\Src\stm32l0xx_hal_rcc.o
 .debug_abbrev  0x00000cf3      0x1b3 FreeRTOS\ARM_CM0\port.o
 .debug_abbrev  0x00000ea6      0x222 FreeRTOS\heap_1.o
 .debug_abbrev  0x000010c8      0x1ea FreeRTOS\list.o
 .debug_abbrev  0x000012b2      0x2e9 FreeRTOS\queue.o
 .debug_abbrev  0x0000159b      0x303 FreeRTOS\tasks.o
 .debug_abbrev  0x0000189e      0x2b4 FreeRTOS\timers.o
 .debug_abbrev  0x00001b52      0x19c HAL_Nucleo\hal.o
 .debug_abbrev  0x00001cee       0x12 startup\startup_stm32l053xx.o

.debug_loc      0x00000000     0x541a
 .debug_loc     0x00000000       0x8e Core\Src\gpio.o
 .debug_loc     0x0000008e       0x21 Core\Src\main.o
 .debug_loc     0x000000af      0x1a2 Core\Src\system_stm32l0xx.o
 .debug_loc     0x00000251      0x143 Drivers\STM32L0xx_HAL_Driver\Src\stm32l0xx_hal.o
 .debug_loc     0x00000394      0x448 Drivers\STM32L0xx_HAL_Driver\Src\stm32l0xx_hal_cortex.o
 .debug_loc     0x000007dc      0x50e Drivers\STM32L0xx_HAL_Driver\Src\stm32l0xx_hal_gpio.o
 .debug_loc     0x00000cea      0x5ff Drivers\STM32L0xx_HAL_Driver\Src\stm32l0xx_hal_rcc.o
 .debug_loc     0x000012e9       0xa6 FreeRTOS\ARM_CM0\port.o
 .debug_loc     0x0000138f       0x5f FreeRTOS\heap_1.o
 .debug_loc     0x000013ee       0x70 FreeRTOS\list.o
 .debug_loc     0x0000145e     0x180c FreeRTOS\queue.o
 .debug_loc     0x00002c6a     0x1b0f FreeRTOS\tasks.o
 .debug_loc     0x00004779      0xca1 FreeRTOS\timers.o

.debug_aranges  0x00000000      0x7e8
 .debug_aranges
                0x00000000       0x30 Core\Src\gpio.o
 .debug_aranges
                0x00000030       0x28 Core\Src\main.o
 .debug_aranges
                0x00000058       0x28 Core\Src\system_stm32l0xx.o
 .debug_aranges
                0x00000080       0xf8 Drivers\STM32L0xx_HAL_Driver\Src\stm32l0xx_hal.o
 .debug_aranges
                0x00000178       0x90 Drivers\STM32L0xx_HAL_Driver\Src\stm32l0xx_hal_cortex.o
 .debug_aranges
                0x00000208       0x58 Drivers\STM32L0xx_HAL_Driver\Src\stm32l0xx_hal_gpio.o
 .debug_aranges
                0x00000260       0x80 Drivers\STM32L0xx_HAL_Driver\Src\stm32l0xx_hal_rcc.o
 .debug_aranges
                0x000002e0       0x88 FreeRTOS\ARM_CM0\port.o
 .debug_aranges
                0x00000368       0x38 FreeRTOS\heap_1.o
 .debug_aranges
                0x000003a0       0x40 FreeRTOS\list.o
 .debug_aranges
                0x000003e0      0x100 FreeRTOS\queue.o
 .debug_aranges
                0x000004e0      0x1b8 FreeRTOS\tasks.o
 .debug_aranges
                0x00000698       0xc8 FreeRTOS\timers.o
 .debug_aranges
                0x00000760       0x60 HAL_Nucleo\hal.o
 .debug_aranges
                0x000007c0       0x28 startup\startup_stm32l053xx.o

.debug_ranges   0x00000000      0x910
 .debug_ranges  0x00000000       0x20 Core\Src\gpio.o
 .debug_ranges  0x00000020       0x18 Core\Src\main.o
 .debug_ranges  0x00000038       0x18 Core\Src\system_stm32l0xx.o
 .debug_ranges  0x00000050       0xe8 Drivers\STM32L0xx_HAL_Driver\Src\stm32l0xx_hal.o
 .debug_ranges  0x00000138       0xc8 Drivers\STM32L0xx_HAL_Driver\Src\stm32l0xx_hal_cortex.o
 .debug_ranges  0x00000200       0x48 Drivers\STM32L0xx_HAL_Driver\Src\stm32l0xx_hal_gpio.o
 .debug_ranges  0x00000248       0xa0 Drivers\STM32L0xx_HAL_Driver\Src\stm32l0xx_hal_rcc.o
 .debug_ranges  0x000002e8       0x78 FreeRTOS\ARM_CM0\port.o
 .debug_ranges  0x00000360       0x28 FreeRTOS\heap_1.o
 .debug_ranges  0x00000388       0x30 FreeRTOS\list.o
 .debug_ranges  0x000003b8      0x1e0 FreeRTOS\queue.o
 .debug_ranges  0x00000598      0x250 FreeRTOS\tasks.o
 .debug_ranges  0x000007e8       0xb8 FreeRTOS\timers.o
 .debug_ranges  0x000008a0       0x50 HAL_Nucleo\hal.o
 .debug_ranges  0x000008f0       0x20 startup\startup_stm32l053xx.o

.debug_line     0x00000000     0x46a2
 .debug_line    0x00000000      0x210 Core\Src\gpio.o
 .debug_line    0x00000210      0x28c Core\Src\main.o
 .debug_line    0x0000049c      0x223 Core\Src\system_stm32l0xx.o
 .debug_line    0x000006bf      0x485 Drivers\STM32L0xx_HAL_Driver\Src\stm32l0xx_hal.o
 .debug_line    0x00000b44      0x483 Drivers\STM32L0xx_HAL_Driver\Src\stm32l0xx_hal_cortex.o
 .debug_line    0x00000fc7      0x552 Drivers\STM32L0xx_HAL_Driver\Src\stm32l0xx_hal_gpio.o
 .debug_line    0x00001519      0x736 Drivers\STM32L0xx_HAL_Driver\Src\stm32l0xx_hal_rcc.o
 .debug_line    0x00001c4f      0x36f FreeRTOS\ARM_CM0\port.o
 .debug_line    0x00001fbe      0x333 FreeRTOS\heap_1.o
 .debug_line    0x000022f1      0x3aa FreeRTOS\list.o
 .debug_line    0x0000269b      0x98d FreeRTOS\queue.o
 .debug_line    0x00003028      0xd1f FreeRTOS\tasks.o
 .debug_line    0x00003d47      0x646 FreeRTOS\timers.o
 .debug_line    0x0000438d      0x292 HAL_Nucleo\hal.o
 .debug_line    0x0000461f       0x83 startup\startup_stm32l053xx.o

.debug_str      0x00000000     0x2cfd
 .debug_str     0x00000000      0x36d Core\Src\gpio.o
                                0x3c0 (size before relaxing)
 .debug_str     0x0000036d       0x62 Core\Src\main.o
                                0x28d (size before relaxing)
 .debug_str     0x000003cf       0x90 Core\Src\system_stm32l0xx.o
                                0x326 (size before relaxing)
 .debug_str     0x0000045f      0x566 Drivers\STM32L0xx_HAL_Driver\Src\stm32l0xx_hal.o
                                0x809 (size before relaxing)
 .debug_str     0x000009c5      0x2b2 Drivers\STM32L0xx_HAL_Driver\Src\stm32l0xx_hal_cortex.o
                                0x7a0 (size before relaxing)
 .debug_str     0x00000c77      0x10a Drivers\STM32L0xx_HAL_Driver\Src\stm32l0xx_hal_gpio.o
                                0x4dd (size before relaxing)
 .debug_str     0x00000d81      0x322 Drivers\STM32L0xx_HAL_Driver\Src\stm32l0xx_hal_rcc.o
                                0x735 (size before relaxing)
 .debug_str     0x000010a3      0x1eb FreeRTOS\ARM_CM0\port.o
                                0x3b8 (size before relaxing)
 .debug_str     0x0000128e      0x4bd FreeRTOS\heap_1.o
                                0x6c9 (size before relaxing)
 .debug_str     0x0000174b      0x149 FreeRTOS\list.o
                                0x753 (size before relaxing)
 .debug_str     0x00001894      0x700 FreeRTOS\queue.o
                                0xea5 (size before relaxing)
 .debug_str     0x00001f94      0x8cc FreeRTOS\tasks.o
                               0x132b (size before relaxing)
 .debug_str     0x00002860      0x435 FreeRTOS\timers.o
                                0xd14 (size before relaxing)
 .debug_str     0x00002c95       0x68 HAL_Nucleo\hal.o
                                0x482 (size before relaxing)

.comment        0x00000000       0x7c
 .comment       0x00000000       0x7c Core\Src\gpio.o
                                 0x7d (size before relaxing)
 .comment       0x0000007c       0x7d Core\Src\main.o
 .comment       0x0000007c       0x7d Core\Src\system_stm32l0xx.o
 .comment       0x0000007c       0x7d Drivers\STM32L0xx_HAL_Driver\Src\stm32l0xx_hal.o
 .comment       0x0000007c       0x7d Drivers\STM32L0xx_HAL_Driver\Src\stm32l0xx_hal_cortex.o
 .comment       0x0000007c       0x7d Drivers\STM32L0xx_HAL_Driver\Src\stm32l0xx_hal_gpio.o
 .comment       0x0000007c       0x7d Drivers\STM32L0xx_HAL_Driver\Src\stm32l0xx_hal_rcc.o
 .comment       0x0000007c       0x7d FreeRTOS\ARM_CM0\port.o
 .comment       0x0000007c       0x7d FreeRTOS\heap_1.o
 .comment       0x0000007c       0x7d FreeRTOS\list.o
 .comment       0x0000007c       0x7d FreeRTOS\queue.o
 .comment       0x0000007c       0x7d FreeRTOS\tasks.o
 .comment       0x0000007c       0x7d FreeRTOS\timers.o
 .comment       0x0000007c       0x7d HAL_Nucleo\hal.o

.debug_frame    0x00000000     0x13b8
 .debug_frame   0x00000000       0x60 Core\Src\gpio.o
 .debug_frame   0x00000060       0x40 Core\Src\main.o
 .debug_frame   0x000000a0       0x38 Core\Src\system_stm32l0xx.o
 .debug_frame   0x000000d8      0x204 Drivers\STM32L0xx_HAL_Driver\Src\stm32l0xx_hal.o
 .debug_frame   0x000002dc      0x134 Drivers\STM32L0xx_HAL_Driver\Src\stm32l0xx_hal_cortex.o
 .debug_frame   0x00000410       0xf4 Drivers\STM32L0xx_HAL_Driver\Src\stm32l0xx_hal_gpio.o
 .debug_frame   0x00000504      0x14c Drivers\STM32L0xx_HAL_Driver\Src\stm32l0xx_hal_rcc.o
 .debug_frame   0x00000650      0x114 FreeRTOS\ARM_CM0\port.o
 .debug_frame   0x00000764       0x5c FreeRTOS\heap_1.o
 .debug_frame   0x000007c0       0x6c FreeRTOS\list.o
 .debug_frame   0x0000082c      0x2f0 FreeRTOS\queue.o
 .debug_frame   0x00000b1c      0x510 FreeRTOS\tasks.o
 .debug_frame   0x0000102c      0x23c FreeRTOS\timers.o
 .debug_frame   0x00001268       0xbc HAL_Nucleo\hal.o
 .debug_frame   0x00001324       0x2c c:/program files (x86)/atollic/truestudio for stm32 9.3.0/armtools/bin/../lib/gcc/arm-atollic-eabi/6.3.1/../../../../arm-atollic-eabi/lib/armv6-m\libc_nano.a(lib_a-init.o)
 .debug_frame   0x00001350       0x28 c:/program files (x86)/atollic/truestudio for stm32 9.3.0/armtools/bin/../lib/gcc/arm-atollic-eabi/6.3.1/../../../../arm-atollic-eabi/lib/armv6-m\libc_nano.a(lib_a-memcpy-stub.o)
 .debug_frame   0x00001378       0x20 c:/program files (x86)/atollic/truestudio for stm32 9.3.0/armtools/bin/../lib/gcc/arm-atollic-eabi/6.3.1/../../../../arm-atollic-eabi/lib/armv6-m\libc_nano.a(lib_a-memset.o)
 .debug_frame   0x00001398       0x20 c:/program files (x86)/atollic/truestudio for stm32 9.3.0/armtools/bin/../lib/gcc/arm-atollic-eabi/6.3.1/armv6-m\libgcc.a(_udivsi3.o)
