###############################################################################
#
# IAR ANSI C/C++ Compiler V7.40.7.9843/W32 for ARM        18/Dec/2019  15:12:37
# Copyright 1999-2015 IAR Systems AB.
#
#    Cpu mode     =  thumb
#    Endian       =  little
#    Source file  =  
#        C:\Users\Ian\Desktop\Projects\hub
#        project\hub\clang\source\FreeRTOS\event_groups.c
#    Command line =  
#        "C:\Users\Ian\Desktop\Projects\hub
#        project\hub\clang\source\FreeRTOS\event_groups.c" -D RESISTANCE_TRIMS
#        -D AFE_TRIMS -D USB_TRIMS -D NDEBUG -lC
#        "C:\Users\Ian\Desktop\Projects\hub
#        project\hub\toolchain\iar\project\Release\List" -o
#        "C:\Users\Ian\Desktop\Projects\hub
#        project\hub\toolchain\iar\project\Release\Obj" --endian=little
#        --cpu=Cortex-M0 -e --fpu=None --dlib_config "C:\Program Files
#        (x86)\IAR Systems\Embedded Workbench
#        7.2\arm\INC\c\DLib_Config_Normal.h" -I
#        "C:\Users\Ian\Desktop\Projects\hub
#        project\hub\toolchain\iar\project\..\..\..\clang\include\" -I
#        "C:\Users\Ian\Desktop\Projects\hub
#        project\hub\toolchain\iar\project\..\..\..\clang\include\superior\clough\"
#        -I "C:\Users\Ian\Desktop\Projects\hub
#        project\hub\toolchain\iar\project\..\..\..\clang\include\superior\sfr\"
#        -I "C:\Users\Ian\Desktop\Projects\hub
#        project\hub\toolchain\iar\project\..\..\..\clang\include\superior\" -I
#        "C:\Users\Ian\Desktop\Projects\hub
#        project\hub\toolchain\iar\project\..\SEGGER_RTT_V640\RTT\" -I
#        "C:\Users\Ian\Desktop\Projects\hub
#        project\hub\toolchain\iar\project\..\..\..\clang\source\FreeRTOS\" -Oh
#        -I "C:\Program Files (x86)\IAR Systems\Embedded Workbench
#        7.2\arm\CMSIS\Include\"
#    List file    =  
#        C:\Users\Ian\Desktop\Projects\hub
#        project\hub\toolchain\iar\project\Release\List\event_groups.lst
#    Object file  =  
#        C:\Users\Ian\Desktop\Projects\hub
#        project\hub\toolchain\iar\project\Release\Obj\event_groups.o
#
###############################################################################

C:\Users\Ian\Desktop\Projects\hub project\hub\clang\source\FreeRTOS\event_groups.c
      1          /*
      2           * FreeRTOS Kernel V10.2.0
      3           * Copyright (C) 2019 Amazon.com, Inc. or its affiliates.  All Rights Reserved.
      4           *
      5           * Permission is hereby granted, free of charge, to any person obtaining a copy of
      6           * this software and associated documentation files (the "Software"), to deal in
      7           * the Software without restriction, including without limitation the rights to
      8           * use, copy, modify, merge, publish, distribute, sublicense, and/or sell copies of
      9           * the Software, and to permit persons to whom the Software is furnished to do so,
     10           * subject to the following conditions:
     11           *
     12           * The above copyright notice and this permission notice shall be included in all
     13           * copies or substantial portions of the Software.
     14           *
     15           * THE SOFTWARE IS PROVIDED "AS IS", WITHOUT WARRANTY OF ANY KIND, EXPRESS OR
     16           * IMPLIED, INCLUDING BUT NOT LIMITED TO THE WARRANTIES OF MERCHANTABILITY, FITNESS
     17           * FOR A PARTICULAR PURPOSE AND NONINFRINGEMENT. IN NO EVENT SHALL THE AUTHORS OR
     18           * COPYRIGHT HOLDERS BE LIABLE FOR ANY CLAIM, DAMAGES OR OTHER LIABILITY, WHETHER
     19           * IN AN ACTION OF CONTRACT, TORT OR OTHERWISE, ARISING FROM, OUT OF OR IN
     20           * CONNECTION WITH THE SOFTWARE OR THE USE OR OTHER DEALINGS IN THE SOFTWARE.
     21           *
     22           * http://www.FreeRTOS.org
     23           * http://aws.amazon.com/freertos
     24           *
     25           * 1 tab == 4 spaces!
     26           */
     27          
     28          /* Standard includes. */
     29          #include <stdlib.h>
     30          
     31          /* Defining MPU_WRAPPERS_INCLUDED_FROM_API_FILE prevents task.h from redefining
     32          all the API functions to use the MPU wrappers.  That should only be done when
     33          task.h is included from an application file. */
     34          #define MPU_WRAPPERS_INCLUDED_FROM_API_FILE
     35          
     36          /* FreeRTOS includes. */
     37          #include "FreeRTOS.h"
     38          #include "task.h"
     39          #include "timers.h"
     40          #include "event_groups.h"
     41          
     42          /* Lint e961, e750 and e9021 are suppressed as a MISRA exception justified
     43          because the MPU ports require MPU_WRAPPERS_INCLUDED_FROM_API_FILE to be defined
     44          for the header files above, but not in this file, in order to generate the
     45          correct privileged Vs unprivileged linkage and placement. */
     46          #undef MPU_WRAPPERS_INCLUDED_FROM_API_FILE /*lint !e961 !e750 !e9021 See comment above. */
     47          
     48          /* The following bit fields convey control information in a task's event list
     49          item value.  It is important they don't clash with the
     50          taskEVENT_LIST_ITEM_VALUE_IN_USE definition. */
     51          #if configUSE_16_BIT_TICKS == 1
     52          	#define eventCLEAR_EVENTS_ON_EXIT_BIT	0x0100U
     53          	#define eventUNBLOCKED_DUE_TO_BIT_SET	0x0200U
     54          	#define eventWAIT_FOR_ALL_BITS			0x0400U
     55          	#define eventEVENT_BITS_CONTROL_BYTES	0xff00U
     56          #else
     57          	#define eventCLEAR_EVENTS_ON_EXIT_BIT	0x01000000UL
     58          	#define eventUNBLOCKED_DUE_TO_BIT_SET	0x02000000UL
     59          	#define eventWAIT_FOR_ALL_BITS			0x04000000UL
     60          	#define eventEVENT_BITS_CONTROL_BYTES	0xff000000UL
     61          #endif
     62          
     63          typedef struct EventGroupDef_t
     64          {
     65          	EventBits_t uxEventBits;
     66          	List_t xTasksWaitingForBits;		/*< List of tasks waiting for a bit to be set. */
     67          
     68          	#if( configUSE_TRACE_FACILITY == 1 )
     69          		UBaseType_t uxEventGroupNumber;
     70          	#endif
     71          
     72          	#if( ( configSUPPORT_STATIC_ALLOCATION == 1 ) && ( configSUPPORT_DYNAMIC_ALLOCATION == 1 ) )
     73          		uint8_t ucStaticallyAllocated; /*< Set to pdTRUE if the event group is statically allocated to ensure no attempt is made to free the memory. */
     74          	#endif
     75          } EventGroup_t;
     76          
     77          /*-----------------------------------------------------------*/
     78          
     79          /*
     80           * Test the bits set in uxCurrentEventBits to see if the wait condition is met.
     81           * The wait condition is defined by xWaitForAllBits.  If xWaitForAllBits is
     82           * pdTRUE then the wait condition is met if all the bits set in uxBitsToWaitFor
     83           * are also set in uxCurrentEventBits.  If xWaitForAllBits is pdFALSE then the
     84           * wait condition is met if any of the bits set in uxBitsToWait for are also set
     85           * in uxCurrentEventBits.
     86           */
     87          static BaseType_t prvTestWaitCondition( const EventBits_t uxCurrentEventBits, const EventBits_t uxBitsToWaitFor, const BaseType_t xWaitForAllBits ) PRIVILEGED_FUNCTION;
     88          
     89          /*-----------------------------------------------------------*/
     90          
     91          #if( configSUPPORT_STATIC_ALLOCATION == 1 )
     92          
     93          	EventGroupHandle_t xEventGroupCreateStatic( StaticEventGroup_t *pxEventGroupBuffer )
     94          	{
     95          	EventGroup_t *pxEventBits;
     96          
     97          		/* A StaticEventGroup_t object must be provided. */
     98          		configASSERT( pxEventGroupBuffer );
     99          
    100          		#if( configASSERT_DEFINED == 1 )
    101          		{
    102          			/* Sanity check that the size of the structure used to declare a
    103          			variable of type StaticEventGroup_t equals the size of the real
    104          			event group structure. */
    105          			volatile size_t xSize = sizeof( StaticEventGroup_t );
    106          			configASSERT( xSize == sizeof( EventGroup_t ) );
    107          		} /*lint !e529 xSize is referenced if configASSERT() is defined. */
    108          		#endif /* configASSERT_DEFINED */
    109          
    110          		/* The user has provided a statically allocated event group - use it. */
    111          		pxEventBits = ( EventGroup_t * ) pxEventGroupBuffer; /*lint !e740 !e9087 EventGroup_t and StaticEventGroup_t are deliberately aliased for data hiding purposes and guaranteed to have the same size and alignment requirement - checked by configASSERT(). */
    112          
    113          		if( pxEventBits != NULL )
    114          		{
    115          			pxEventBits->uxEventBits = 0;
    116          			vListInitialise( &( pxEventBits->xTasksWaitingForBits ) );
    117          
    118          			#if( configSUPPORT_DYNAMIC_ALLOCATION == 1 )
    119          			{
    120          				/* Both static and dynamic allocation can be used, so note that
    121          				this event group was created statically in case the event group
    122          				is later deleted. */
    123          				pxEventBits->ucStaticallyAllocated = pdTRUE;
    124          			}
    125          			#endif /* configSUPPORT_DYNAMIC_ALLOCATION */
    126          
    127          			traceEVENT_GROUP_CREATE( pxEventBits );
    128          		}
    129          		else
    130          		{
    131          			/* xEventGroupCreateStatic should only ever be called with
    132          			pxEventGroupBuffer pointing to a pre-allocated (compile time
    133          			allocated) StaticEventGroup_t variable. */
    134          			traceEVENT_GROUP_CREATE_FAILED();
    135          		}
    136          
    137          		return pxEventBits;
    138          	}
    139          
    140          #endif /* configSUPPORT_STATIC_ALLOCATION */
    141          /*-----------------------------------------------------------*/
    142          
    143          #if( configSUPPORT_DYNAMIC_ALLOCATION == 1 )
    144          

   \                                 In section .text, align 2, keep-with-next
    145          	EventGroupHandle_t xEventGroupCreate( void )
    146          	{
   \                     xEventGroupCreate: (+1)
   \   00000000   0xB510             PUSH     {R4,LR}
    147          	EventGroup_t *pxEventBits;
    148          
    149          		/* Allocate the event group.  Justification for MISRA deviation as
    150          		follows:  pvPortMalloc() always ensures returned memory blocks are
    151          		aligned per the requirements of the MCU stack.  In this case
    152          		pvPortMalloc() must return a pointer that is guaranteed to meet the
    153          		alignment requirements of the EventGroup_t structure - which (if you
    154          		follow it through) is the alignment requirements of the TickType_t type
    155          		(EventBits_t being of TickType_t itself).  Therefore, whenever the
    156          		stack alignment requirements are greater than or equal to the
    157          		TickType_t alignment requirements the cast is safe.  In other cases,
    158          		where the natural word size of the architecture is less than
    159          		sizeof( TickType_t ), the TickType_t variables will be accessed in two
    160          		or more reads operations, and the alignment requirements is only that
    161          		of each individual read. */
    162          		pxEventBits = ( EventGroup_t * ) pvPortMalloc( sizeof( EventGroup_t ) ); /*lint !e9087 !e9079 see comment above. */
   \   00000002   0x2018             MOVS     R0,#+24
   \   00000004   0x.... 0x....      BL       pvPortMalloc
   \   00000008   0x0004             MOVS     R4,R0
    163          
    164          		if( pxEventBits != NULL )
   \   0000000A   0xD004             BEQ      ??xEventGroupCreate_0
    165          		{
    166          			pxEventBits->uxEventBits = 0;
   \   0000000C   0x2000             MOVS     R0,#+0
   \   0000000E   0x6020             STR      R0,[R4, #+0]
    167          			vListInitialise( &( pxEventBits->xTasksWaitingForBits ) );
   \   00000010   0x1D20             ADDS     R0,R4,#+4
   \   00000012   0x.... 0x....      BL       vListInitialise
    168          
    169          			#if( configSUPPORT_STATIC_ALLOCATION == 1 )
    170          			{
    171          				/* Both static and dynamic allocation can be used, so note this
    172          				event group was allocated statically in case the event group is
    173          				later deleted. */
    174          				pxEventBits->ucStaticallyAllocated = pdFALSE;
    175          			}
    176          			#endif /* configSUPPORT_STATIC_ALLOCATION */
    177          
    178          			traceEVENT_GROUP_CREATE( pxEventBits );
    179          		}
    180          		else
    181          		{
    182          			traceEVENT_GROUP_CREATE_FAILED(); /*lint !e9063 Else branch only exists to allow tracing and does not generate code if trace macros are not defined. */
    183          		}
    184          
    185          		return pxEventBits;
   \                     ??xEventGroupCreate_0: (+1)
   \   00000016   0x0020             MOVS     R0,R4
   \   00000018   0xBD10             POP      {R4,PC}          ;; return
    186          	}
    187          
    188          #endif /* configSUPPORT_DYNAMIC_ALLOCATION */
    189          /*-----------------------------------------------------------*/
    190          

   \                                 In section .text, align 4, keep-with-next
    191          EventBits_t xEventGroupSync( EventGroupHandle_t xEventGroup, const EventBits_t uxBitsToSet, const EventBits_t uxBitsToWaitFor, TickType_t xTicksToWait )
    192          {
   \                     xEventGroupSync: (+1)
   \   00000000   0xB5F2             PUSH     {R1,R4-R7,LR}
   \   00000002   0x0007             MOVS     R7,R0
   \   00000004   0x0016             MOVS     R6,R2
   \   00000006   0x001C             MOVS     R4,R3
    193          EventBits_t uxOriginalBitValue, uxReturn;
    194          EventGroup_t *pxEventBits = xEventGroup;
    195          BaseType_t xAlreadyYielded;
    196          BaseType_t xTimeoutOccurred = pdFALSE;
    197          
    198          	configASSERT( ( uxBitsToWaitFor & eventEVENT_BITS_CONTROL_BYTES ) == 0 );
   \   00000008   0x0E30             LSRS     R0,R6,#+24
   \   0000000A   0x0600             LSLS     R0,R0,#+24
   \   0000000C   0x2800             CMP      R0,#+0
   \   0000000E   0xD001             BEQ      ??xEventGroupSync_0
   \   00000010   0xB672             cpsid i
   \                     ??xEventGroupSync_1: (+1)
   \   00000012   0xE7FE             B        ??xEventGroupSync_1
    199          	configASSERT( uxBitsToWaitFor != 0 );
   \                     ??xEventGroupSync_0: (+1)
   \   00000014   0x2E00             CMP      R6,#+0
   \   00000016   0xD101             BNE      ??xEventGroupSync_2
   \   00000018   0xB672             cpsid i
   \                     ??xEventGroupSync_3: (+1)
   \   0000001A   0xE7FE             B        ??xEventGroupSync_3
    200          	#if ( ( INCLUDE_xTaskGetSchedulerState == 1 ) || ( configUSE_TIMERS == 1 ) )
    201          	{
    202          		configASSERT( !( ( xTaskGetSchedulerState() == taskSCHEDULER_SUSPENDED ) && ( xTicksToWait != 0 ) ) );
   \                     ??xEventGroupSync_2: (+1)
   \   0000001C   0x.... 0x....      BL       xTaskGetSchedulerState
   \   00000020   0x2800             CMP      R0,#+0
   \   00000022   0xD101             BNE      ??xEventGroupSync_4
   \   00000024   0x2C00             CMP      R4,#+0
   \   00000026   0xD112             BNE      ??xEventGroupSync_5
    203          	}
    204          	#endif
    205          
    206          	vTaskSuspendAll();
   \                     ??xEventGroupSync_4: (+1)
   \   00000028   0x.... 0x....      BL       vTaskSuspendAll
    207          	{
    208          		uxOriginalBitValue = pxEventBits->uxEventBits;
   \   0000002C   0x683D             LDR      R5,[R7, #+0]
    209          
    210          		( void ) xEventGroupSetBits( xEventGroup, uxBitsToSet );
   \   0000002E   0x9900             LDR      R1,[SP, #+0]
   \   00000030   0x0038             MOVS     R0,R7
   \   00000032   0x.... 0x....      BL       xEventGroupSetBits
    211          
    212          		if( ( ( uxOriginalBitValue | uxBitsToSet ) & uxBitsToWaitFor ) == uxBitsToWaitFor )
   \   00000036   0x9800             LDR      R0,[SP, #+0]
   \   00000038   0x4328             ORRS     R0,R0,R5
   \   0000003A   0x0031             MOVS     R1,R6
   \   0000003C   0x4001             ANDS     R1,R1,R0
   \   0000003E   0x42B1             CMP      R1,R6
   \   00000040   0xD107             BNE      ??xEventGroupSync_6
    213          		{
    214          			/* All the rendezvous bits are now set - no need to block. */
    215          			uxReturn = ( uxOriginalBitValue | uxBitsToSet );
   \   00000042   0x0005             MOVS     R5,R0
    216          
    217          			/* Rendezvous always clear the bits.  They will have been cleared
    218          			already unless this is the only task in the rendezvous. */
    219          			pxEventBits->uxEventBits &= ~uxBitsToWaitFor;
   \   00000044   0x6838             LDR      R0,[R7, #+0]
   \   00000046   0x43B0             BICS     R0,R0,R6
   \   00000048   0x6038             STR      R0,[R7, #+0]
    220          
    221          			xTicksToWait = 0;
   \   0000004A   0x2400             MOVS     R4,#+0
   \   0000004C   0xE00D             B        ??xEventGroupSync_7
    222          		}
   \                     ??xEventGroupSync_5: (+1)
   \   0000004E   0xB672             cpsid i
   \                     ??xEventGroupSync_8: (+1)
   \   00000050   0xE7FE             B        ??xEventGroupSync_8
    223          		else
    224          		{
    225          			if( xTicksToWait != ( TickType_t ) 0 )
   \                     ??xEventGroupSync_6: (+1)
   \   00000052   0x2C00             CMP      R4,#+0
   \   00000054   0xD008             BEQ      ??xEventGroupSync_9
    226          			{
    227          				traceEVENT_GROUP_SYNC_BLOCK( xEventGroup, uxBitsToSet, uxBitsToWaitFor );
    228          
    229          				/* Store the bits that the calling task is waiting for in the
    230          				task's event list item so the kernel knows when a match is
    231          				found.  Then enter the blocked state. */
    232          				vTaskPlaceOnUnorderedEventList( &( pxEventBits->xTasksWaitingForBits ), ( uxBitsToWaitFor | eventCLEAR_EVENTS_ON_EXIT_BIT | eventWAIT_FOR_ALL_BITS ), xTicksToWait );
   \   00000056   0x0022             MOVS     R2,R4
   \   00000058   0x21A0             MOVS     R1,#+160
   \   0000005A   0x04C9             LSLS     R1,R1,#+19       ;; #+83886080
   \   0000005C   0x4331             ORRS     R1,R1,R6
   \   0000005E   0x1D38             ADDS     R0,R7,#+4
   \   00000060   0x.... 0x....      BL       vTaskPlaceOnUnorderedEventList
    233          
    234          				/* This assignment is obsolete as uxReturn will get set after
    235          				the task unblocks, but some compilers mistakenly generate a
    236          				warning about uxReturn being returned without being set if the
    237          				assignment is omitted. */
    238          				uxReturn = 0;
   \   00000064   0x2500             MOVS     R5,#+0
   \   00000066   0xE000             B        ??xEventGroupSync_7
    239          			}
    240          			else
    241          			{
    242          				/* The rendezvous bits were not set, but no block time was
    243          				specified - just return the current event bit value. */
    244          				uxReturn = pxEventBits->uxEventBits;
   \                     ??xEventGroupSync_9: (+1)
   \   00000068   0x683D             LDR      R5,[R7, #+0]
    245          				xTimeoutOccurred = pdTRUE;
    246          			}
    247          		}
    248          	}
    249          	xAlreadyYielded = xTaskResumeAll();
   \                     ??xEventGroupSync_7: (+1)
   \   0000006A   0x.... 0x....      BL       xTaskResumeAll
    250          
    251          	if( xTicksToWait != ( TickType_t ) 0 )
   \   0000006E   0x2C00             CMP      R4,#+0
   \   00000070   0xD016             BEQ      ??xEventGroupSync_10
    252          	{
    253          		if( xAlreadyYielded == pdFALSE )
   \   00000072   0x2800             CMP      R0,#+0
   \   00000074   0xD101             BNE      ??xEventGroupSync_11
    254          		{
    255          			portYIELD_WITHIN_API();
   \   00000076   0x.... 0x....      BL       vPortYield
    256          		}
    257          		else
    258          		{
    259          			mtCOVERAGE_TEST_MARKER();
    260          		}
    261          
    262          		/* The task blocked to wait for its required bits to be set - at this
    263          		point either the required bits were set or the block time expired.  If
    264          		the required bits were set they will have been stored in the task's
    265          		event list item, and they should now be retrieved then cleared. */
    266          		uxReturn = uxTaskResetEventItemValue();
   \                     ??xEventGroupSync_11: (+1)
   \   0000007A   0x.... 0x....      BL       uxTaskResetEventItemValue
   \   0000007E   0x0004             MOVS     R4,R0
    267          
    268          		if( ( uxReturn & eventUNBLOCKED_DUE_TO_BIT_SET ) == ( EventBits_t ) 0 )
   \   00000080   0x01A0             LSLS     R0,R4,#+6
   \   00000082   0xD40B             BMI      ??xEventGroupSync_12
    269          		{
    270          			/* The task timed out, just return the current event bit value. */
    271          			taskENTER_CRITICAL();
   \   00000084   0x.... 0x....      BL       vPortEnterCritical
    272          			{
    273          				uxReturn = pxEventBits->uxEventBits;
   \   00000088   0x6838             LDR      R0,[R7, #+0]
   \   0000008A   0x0004             MOVS     R4,R0
    274          
    275          				/* Although the task got here because it timed out before the
    276          				bits it was waiting for were set, it is possible that since it
    277          				unblocked another task has set the bits.  If this is the case
    278          				then it needs to clear the bits before exiting. */
    279          				if( ( uxReturn & uxBitsToWaitFor ) == uxBitsToWaitFor )
   \   0000008C   0x0031             MOVS     R1,R6
   \   0000008E   0x4021             ANDS     R1,R1,R4
   \   00000090   0x42B1             CMP      R1,R6
   \   00000092   0xD101             BNE      ??xEventGroupSync_13
    280          				{
    281          					pxEventBits->uxEventBits &= ~uxBitsToWaitFor;
   \   00000094   0x43B0             BICS     R0,R0,R6
   \   00000096   0x6038             STR      R0,[R7, #+0]
    282          				}
    283          				else
    284          				{
    285          					mtCOVERAGE_TEST_MARKER();
    286          				}
    287          			}
    288          			taskEXIT_CRITICAL();
   \                     ??xEventGroupSync_13: (+1)
   \   00000098   0x.... 0x....      BL       vPortExitCritical
    289          
    290          			xTimeoutOccurred = pdTRUE;
    291          		}
    292          		else
    293          		{
    294          			/* The task unblocked because the bits were set. */
    295          		}
    296          
    297          		/* Control bits might be set as the task had blocked should not be
    298          		returned. */
    299          		uxReturn &= ~eventEVENT_BITS_CONTROL_BYTES;
   \                     ??xEventGroupSync_12: (+1)
   \   0000009C   0x0225             LSLS     R5,R4,#+8
   \   0000009E   0x0A2D             LSRS     R5,R5,#+8
    300          	}
    301          
    302          	traceEVENT_GROUP_SYNC_END( xEventGroup, uxBitsToSet, uxBitsToWaitFor, xTimeoutOccurred );
    303          
    304          	/* Prevent compiler warnings when trace macros are not used. */
    305          	( void ) xTimeoutOccurred;
    306          
    307          	return uxReturn;
   \                     ??xEventGroupSync_10: (+1)
   \   000000A0   0x0028             MOVS     R0,R5
   \   000000A2   0xBDF2             POP      {R1,R4-R7,PC}    ;; return
    308          }
    309          /*-----------------------------------------------------------*/
    310          

   \                                 In section .text, align 4, keep-with-next
    311          EventBits_t xEventGroupWaitBits( EventGroupHandle_t xEventGroup, const EventBits_t uxBitsToWaitFor, const BaseType_t xClearOnExit, const BaseType_t xWaitForAllBits, TickType_t xTicksToWait )
    312          {
   \                     xEventGroupWaitBits: (+1)
   \   00000000   0xB578             PUSH     {R3-R6,LR}
   \   00000002   0xB40D             PUSH     {R0,R2,R3}
   \   00000004   0x000C             MOVS     R4,R1
    313          EventGroup_t *pxEventBits = xEventGroup;
    314          EventBits_t uxReturn, uxControlBits = 0;
   \   00000006   0x2600             MOVS     R6,#+0
    315          BaseType_t xWaitConditionMet, xAlreadyYielded;
    316          BaseType_t xTimeoutOccurred = pdFALSE;
    317          
    318          	/* Check the user is not attempting to wait on the bits used by the kernel
    319          	itself, and that at least one bit is being requested. */
    320          	configASSERT( xEventGroup );
   \   00000008   0x2800             CMP      R0,#+0
   \   0000000A   0xD101             BNE      ??xEventGroupWaitBits_0
   \   0000000C   0xB672             cpsid i
   \                     ??xEventGroupWaitBits_1: (+1)
   \   0000000E   0xE7FE             B        ??xEventGroupWaitBits_1
    321          	configASSERT( ( uxBitsToWaitFor & eventEVENT_BITS_CONTROL_BYTES ) == 0 );
   \                     ??xEventGroupWaitBits_0: (+1)
   \   00000010   0x0E20             LSRS     R0,R4,#+24
   \   00000012   0x0600             LSLS     R0,R0,#+24
   \   00000014   0x2800             CMP      R0,#+0
   \   00000016   0xD001             BEQ      ??xEventGroupWaitBits_2
   \   00000018   0xB672             cpsid i
   \                     ??xEventGroupWaitBits_3: (+1)
   \   0000001A   0xE7FE             B        ??xEventGroupWaitBits_3
    322          	configASSERT( uxBitsToWaitFor != 0 );
   \                     ??xEventGroupWaitBits_2: (+1)
   \   0000001C   0x2C00             CMP      R4,#+0
   \   0000001E   0xD101             BNE      ??xEventGroupWaitBits_4
   \   00000020   0xB672             cpsid i
   \                     ??xEventGroupWaitBits_5: (+1)
   \   00000022   0xE7FE             B        ??xEventGroupWaitBits_5
   \                     ??xEventGroupWaitBits_4: (+1)
   \   00000024   0x9D08             LDR      R5,[SP, #+32]
    323          	#if ( ( INCLUDE_xTaskGetSchedulerState == 1 ) || ( configUSE_TIMERS == 1 ) )
    324          	{
    325          		configASSERT( !( ( xTaskGetSchedulerState() == taskSCHEDULER_SUSPENDED ) && ( xTicksToWait != 0 ) ) );
   \   00000026   0x.... 0x....      BL       xTaskGetSchedulerState
   \   0000002A   0x2800             CMP      R0,#+0
   \   0000002C   0xD101             BNE      ??xEventGroupWaitBits_6
   \   0000002E   0x2D00             CMP      R5,#+0
   \   00000030   0xD10E             BNE      ??xEventGroupWaitBits_7
    326          	}
    327          	#endif
    328          
    329          	vTaskSuspendAll();
   \                     ??xEventGroupWaitBits_6: (+1)
   \   00000032   0x.... 0x....      BL       vTaskSuspendAll
    330          	{
    331          		const EventBits_t uxCurrentEventBits = pxEventBits->uxEventBits;
   \   00000036   0x9800             LDR      R0,[SP, #+0]
   \   00000038   0x6801             LDR      R1,[R0, #+0]
    332          
    333          		/* Check to see if the wait condition is already met or not. */
    334          		xWaitConditionMet = prvTestWaitCondition( uxCurrentEventBits, uxBitsToWaitFor, xWaitForAllBits );
   \   0000003A   0x0022             MOVS     R2,R4
   \   0000003C   0x400A             ANDS     R2,R2,R1
   \   0000003E   0x9B02             LDR      R3,[SP, #+8]
   \   00000040   0x2B00             CMP      R3,#+0
   \   00000042   0xD107             BNE      ??xEventGroupWaitBits_8
   \   00000044   0x2A00             CMP      R2,#+0
   \   00000046   0xD107             BNE      ??xEventGroupWaitBits_9
    335          
    336          		if( xWaitConditionMet != pdFALSE )
    337          		{
    338          			/* The wait condition has already been met so there is no need to
    339          			block. */
    340          			uxReturn = uxCurrentEventBits;
    341          			xTicksToWait = ( TickType_t ) 0;
    342          
    343          			/* Clear the wait bits if requested to do so. */
    344          			if( xClearOnExit != pdFALSE )
    345          			{
    346          				pxEventBits->uxEventBits &= ~uxBitsToWaitFor;
    347          			}
    348          			else
    349          			{
    350          				mtCOVERAGE_TEST_MARKER();
    351          			}
    352          		}
    353          		else if( xTicksToWait == ( TickType_t ) 0 )
   \                     ??xEventGroupWaitBits_10: (+1)
   \   00000048   0x2D00             CMP      R5,#+0
   \   0000004A   0xD10E             BNE      ??xEventGroupWaitBits_11
    354          		{
    355          			/* The wait condition has not been met, but no block time was
    356          			specified, so just return the current value. */
    357          			uxReturn = uxCurrentEventBits;
   \   0000004C   0x000E             MOVS     R6,R1
    358          			xTimeoutOccurred = pdTRUE;
   \   0000004E   0xE01F             B        ??xEventGroupWaitBits_12
    359          		}
   \                     ??xEventGroupWaitBits_7: (+1)
   \   00000050   0xB672             cpsid i
   \                     ??xEventGroupWaitBits_13: (+1)
   \   00000052   0xE7FE             B        ??xEventGroupWaitBits_13
   \                     ??xEventGroupWaitBits_8: (+1)
   \   00000054   0x42A2             CMP      R2,R4
   \   00000056   0xD1F7             BNE      ??xEventGroupWaitBits_10
   \                     ??xEventGroupWaitBits_9: (+1)
   \   00000058   0x000E             MOVS     R6,R1
   \   0000005A   0x2500             MOVS     R5,#+0
   \   0000005C   0x9801             LDR      R0,[SP, #+4]
   \   0000005E   0x2800             CMP      R0,#+0
   \   00000060   0xD016             BEQ      ??xEventGroupWaitBits_12
   \   00000062   0x43A1             BICS     R1,R1,R4
   \   00000064   0x9800             LDR      R0,[SP, #+0]
   \   00000066   0x6001             STR      R1,[R0, #+0]
   \   00000068   0xE012             B        ??xEventGroupWaitBits_12
    360          		else
    361          		{
    362          			/* The task is going to block to wait for its required bits to be
    363          			set.  uxControlBits are used to remember the specified behaviour of
    364          			this call to xEventGroupWaitBits() - for use when the event bits
    365          			unblock the task. */
    366          			if( xClearOnExit != pdFALSE )
   \                     ??xEventGroupWaitBits_11: (+1)
   \   0000006A   0x9801             LDR      R0,[SP, #+4]
   \   0000006C   0x2800             CMP      R0,#+0
   \   0000006E   0xD001             BEQ      ??xEventGroupWaitBits_14
    367          			{
    368          				uxControlBits |= eventCLEAR_EVENTS_ON_EXIT_BIT;
   \   00000070   0x2680             MOVS     R6,#+128
   \   00000072   0x0476             LSLS     R6,R6,#+17       ;; #+16777216
    369          			}
    370          			else
    371          			{
    372          				mtCOVERAGE_TEST_MARKER();
    373          			}
    374          
    375          			if( xWaitForAllBits != pdFALSE )
   \                     ??xEventGroupWaitBits_14: (+1)
   \   00000074   0x2B00             CMP      R3,#+0
   \   00000076   0xD003             BEQ      ??xEventGroupWaitBits_15
    376          			{
    377          				uxControlBits |= eventWAIT_FOR_ALL_BITS;
   \   00000078   0x0030             MOVS     R0,R6
   \   0000007A   0x2680             MOVS     R6,#+128
   \   0000007C   0x04F6             LSLS     R6,R6,#+19       ;; #+67108864
   \   0000007E   0x4306             ORRS     R6,R6,R0
    378          			}
    379          			else
    380          			{
    381          				mtCOVERAGE_TEST_MARKER();
    382          			}
    383          
    384          			/* Store the bits that the calling task is waiting for in the
    385          			task's event list item so the kernel knows when a match is
    386          			found.  Then enter the blocked state. */
    387          			vTaskPlaceOnUnorderedEventList( &( pxEventBits->xTasksWaitingForBits ), ( uxBitsToWaitFor | uxControlBits ), xTicksToWait );
   \                     ??xEventGroupWaitBits_15: (+1)
   \   00000080   0x002A             MOVS     R2,R5
   \   00000082   0x4326             ORRS     R6,R6,R4
   \   00000084   0x0031             MOVS     R1,R6
   \   00000086   0x9800             LDR      R0,[SP, #+0]
   \   00000088   0x1D00             ADDS     R0,R0,#+4
   \   0000008A   0x.... 0x....      BL       vTaskPlaceOnUnorderedEventList
    388          
    389          			/* This is obsolete as it will get set after the task unblocks, but
    390          			some compilers mistakenly generate a warning about the variable
    391          			being returned without being set if it is not done. */
    392          			uxReturn = 0;
   \   0000008E   0x2600             MOVS     R6,#+0
    393          
    394          			traceEVENT_GROUP_WAIT_BITS_BLOCK( xEventGroup, uxBitsToWaitFor );
    395          		}
    396          	}
    397          	xAlreadyYielded = xTaskResumeAll();
   \                     ??xEventGroupWaitBits_12: (+1)
   \   00000090   0x.... 0x....      BL       xTaskResumeAll
    398          
    399          	if( xTicksToWait != ( TickType_t ) 0 )
   \   00000094   0x2D00             CMP      R5,#+0
   \   00000096   0xD021             BEQ      ??xEventGroupWaitBits_16
    400          	{
    401          		if( xAlreadyYielded == pdFALSE )
   \   00000098   0x2800             CMP      R0,#+0
   \   0000009A   0xD101             BNE      ??xEventGroupWaitBits_17
    402          		{
    403          			portYIELD_WITHIN_API();
   \   0000009C   0x.... 0x....      BL       vPortYield
    404          		}
    405          		else
    406          		{
    407          			mtCOVERAGE_TEST_MARKER();
    408          		}
    409          
    410          		/* The task blocked to wait for its required bits to be set - at this
    411          		point either the required bits were set or the block time expired.  If
    412          		the required bits were set they will have been stored in the task's
    413          		event list item, and they should now be retrieved then cleared. */
    414          		uxReturn = uxTaskResetEventItemValue();
   \                     ??xEventGroupWaitBits_17: (+1)
   \   000000A0   0x.... 0x....      BL       uxTaskResetEventItemValue
   \   000000A4   0x0005             MOVS     R5,R0
    415          
    416          		if( ( uxReturn & eventUNBLOCKED_DUE_TO_BIT_SET ) == ( EventBits_t ) 0 )
   \   000000A6   0x01A8             LSLS     R0,R5,#+6
   \   000000A8   0xD416             BMI      ??xEventGroupWaitBits_18
    417          		{
    418          			taskENTER_CRITICAL();
   \   000000AA   0x.... 0x....      BL       vPortEnterCritical
    419          			{
    420          				/* The task timed out, just return the current event bit value. */
    421          				uxReturn = pxEventBits->uxEventBits;
   \   000000AE   0x9800             LDR      R0,[SP, #+0]
   \   000000B0   0x6800             LDR      R0,[R0, #+0]
   \   000000B2   0x0005             MOVS     R5,R0
    422          
    423          				/* It is possible that the event bits were updated between this
    424          				task leaving the Blocked state and running again. */
    425          				if( prvTestWaitCondition( uxReturn, uxBitsToWaitFor, xWaitForAllBits ) != pdFALSE )
   \   000000B4   0x0021             MOVS     R1,R4
   \   000000B6   0x4029             ANDS     R1,R1,R5
   \   000000B8   0x9A02             LDR      R2,[SP, #+8]
   \   000000BA   0x2A00             CMP      R2,#+0
   \   000000BC   0xD102             BNE      ??xEventGroupWaitBits_19
   \   000000BE   0x2900             CMP      R1,#+0
   \   000000C0   0xD102             BNE      ??xEventGroupWaitBits_20
   \   000000C2   0xE007             B        ??xEventGroupWaitBits_21
   \                     ??xEventGroupWaitBits_19: (+1)
   \   000000C4   0x42A1             CMP      R1,R4
   \   000000C6   0xD105             BNE      ??xEventGroupWaitBits_21
    426          				{
    427          					if( xClearOnExit != pdFALSE )
   \                     ??xEventGroupWaitBits_20: (+1)
   \   000000C8   0x9901             LDR      R1,[SP, #+4]
   \   000000CA   0x2900             CMP      R1,#+0
   \   000000CC   0xD002             BEQ      ??xEventGroupWaitBits_21
    428          					{
    429          						pxEventBits->uxEventBits &= ~uxBitsToWaitFor;
   \   000000CE   0x43A0             BICS     R0,R0,R4
   \   000000D0   0x9900             LDR      R1,[SP, #+0]
   \   000000D2   0x6008             STR      R0,[R1, #+0]
    430          					}
    431          					else
    432          					{
    433          						mtCOVERAGE_TEST_MARKER();
    434          					}
    435          				}
    436          				else
    437          				{
    438          					mtCOVERAGE_TEST_MARKER();
    439          				}
    440          				xTimeoutOccurred = pdTRUE;
    441          			}
    442          			taskEXIT_CRITICAL();
   \                     ??xEventGroupWaitBits_21: (+1)
   \   000000D4   0x.... 0x....      BL       vPortExitCritical
    443          		}
    444          		else
    445          		{
    446          			/* The task unblocked because the bits were set. */
    447          		}
    448          
    449          		/* The task blocked so control bits may have been set. */
    450          		uxReturn &= ~eventEVENT_BITS_CONTROL_BYTES;
   \                     ??xEventGroupWaitBits_18: (+1)
   \   000000D8   0x022E             LSLS     R6,R5,#+8
   \   000000DA   0x0A36             LSRS     R6,R6,#+8
    451          	}
    452          	traceEVENT_GROUP_WAIT_BITS_END( xEventGroup, uxBitsToWaitFor, xTimeoutOccurred );
    453          
    454          	/* Prevent compiler warnings when trace macros are not used. */
    455          	( void ) xTimeoutOccurred;
    456          
    457          	return uxReturn;
   \                     ??xEventGroupWaitBits_16: (+1)
   \   000000DC   0x0030             MOVS     R0,R6
   \   000000DE   0xB004             ADD      SP,SP,#+16
   \   000000E0   0xBD70             POP      {R4-R6,PC}       ;; return
    458          }
    459          /*-----------------------------------------------------------*/
    460          

   \                                 In section .text, align 4, keep-with-next
    461          EventBits_t xEventGroupClearBits( EventGroupHandle_t xEventGroup, const EventBits_t uxBitsToClear )
    462          {
   \                     xEventGroupClearBits: (+1)
   \   00000000   0xB570             PUSH     {R4-R6,LR}
   \   00000002   0x0005             MOVS     R5,R0
   \   00000004   0x000C             MOVS     R4,R1
    463          EventGroup_t *pxEventBits = xEventGroup;
    464          EventBits_t uxReturn;
    465          
    466          	/* Check the user is not attempting to clear the bits used by the kernel
    467          	itself. */
    468          	configASSERT( xEventGroup );
   \   00000006   0x2D00             CMP      R5,#+0
   \   00000008   0xD101             BNE      ??xEventGroupClearBits_0
   \   0000000A   0xB672             cpsid i
   \                     ??xEventGroupClearBits_1: (+1)
   \   0000000C   0xE7FE             B        ??xEventGroupClearBits_1
    469          	configASSERT( ( uxBitsToClear & eventEVENT_BITS_CONTROL_BYTES ) == 0 );
   \                     ??xEventGroupClearBits_0: (+1)
   \   0000000E   0x0E20             LSRS     R0,R4,#+24
   \   00000010   0x0600             LSLS     R0,R0,#+24
   \   00000012   0x2800             CMP      R0,#+0
   \   00000014   0xD001             BEQ      ??xEventGroupClearBits_2
   \   00000016   0xB672             cpsid i
   \                     ??xEventGroupClearBits_3: (+1)
   \   00000018   0xE7FE             B        ??xEventGroupClearBits_3
    470          
    471          	taskENTER_CRITICAL();
   \                     ??xEventGroupClearBits_2: (+1)
   \   0000001A   0x.... 0x....      BL       vPortEnterCritical
    472          	{
    473          		traceEVENT_GROUP_CLEAR_BITS( xEventGroup, uxBitsToClear );
    474          
    475          		/* The value returned is the event group value prior to the bits being
    476          		cleared. */
    477          		uxReturn = pxEventBits->uxEventBits;
   \   0000001E   0x682E             LDR      R6,[R5, #+0]
    478          
    479          		/* Clear the bits. */
    480          		pxEventBits->uxEventBits &= ~uxBitsToClear;
   \   00000020   0x0030             MOVS     R0,R6
   \   00000022   0x43A0             BICS     R0,R0,R4
   \   00000024   0x6028             STR      R0,[R5, #+0]
    481          	}
    482          	taskEXIT_CRITICAL();
   \   00000026   0x.... 0x....      BL       vPortExitCritical
    483          
    484          	return uxReturn;
   \   0000002A   0x0030             MOVS     R0,R6
   \   0000002C   0xBD70             POP      {R4-R6,PC}       ;; return
    485          }
    486          /*-----------------------------------------------------------*/
    487          
    488          #if ( ( configUSE_TRACE_FACILITY == 1 ) && ( INCLUDE_xTimerPendFunctionCall == 1 ) && ( configUSE_TIMERS == 1 ) )
    489          
    490          	BaseType_t xEventGroupClearBitsFromISR( EventGroupHandle_t xEventGroup, const EventBits_t uxBitsToClear )
    491          	{
    492          		BaseType_t xReturn;
    493          
    494          		traceEVENT_GROUP_CLEAR_BITS_FROM_ISR( xEventGroup, uxBitsToClear );
    495          		xReturn = xTimerPendFunctionCallFromISR( vEventGroupClearBitsCallback, ( void * ) xEventGroup, ( uint32_t ) uxBitsToClear, NULL ); /*lint !e9087 Can't avoid cast to void* as a generic callback function not specific to this use case. Callback casts back to original type so safe. */
    496          
    497          		return xReturn;
    498          	}
    499          
    500          #endif
    501          /*-----------------------------------------------------------*/
    502          

   \                                 In section .text, align 2, keep-with-next
    503          EventBits_t xEventGroupGetBitsFromISR( EventGroupHandle_t xEventGroup )
    504          {
   \                     xEventGroupGetBitsFromISR: (+1)
   \   00000000   0xB510             PUSH     {R4,LR}
   \   00000002   0x0004             MOVS     R4,R0
    505          UBaseType_t uxSavedInterruptStatus;
    506          EventGroup_t const * const pxEventBits = xEventGroup;
    507          EventBits_t uxReturn;
    508          
    509          	uxSavedInterruptStatus = portSET_INTERRUPT_MASK_FROM_ISR();
   \   00000004   0x.... 0x....      BL       ulSetInterruptMaskFromISR
    510          	{
    511          		uxReturn = pxEventBits->uxEventBits;
   \   00000008   0x6824             LDR      R4,[R4, #+0]
    512          	}
    513          	portCLEAR_INTERRUPT_MASK_FROM_ISR( uxSavedInterruptStatus );
   \   0000000A   0x.... 0x....      BL       vClearInterruptMaskFromISR
    514          
    515          	return uxReturn;
   \   0000000E   0x0020             MOVS     R0,R4
   \   00000010   0xBD10             POP      {R4,PC}          ;; return
    516          } /*lint !e818 EventGroupHandle_t is a typedef used in other functions to so can't be pointer to const. */
    517          /*-----------------------------------------------------------*/
    518          

   \                                 In section .text, align 4, keep-with-next
    519          EventBits_t xEventGroupSetBits( EventGroupHandle_t xEventGroup, const EventBits_t uxBitsToSet )
    520          {
   \                     xEventGroupSetBits: (+1)
   \   00000000   0xB5F0             PUSH     {R4-R7,LR}
   \   00000002   0xB083             SUB      SP,SP,#+12
   \   00000004   0x0004             MOVS     R4,R0
   \   00000006   0x000F             MOVS     R7,R1
    521          ListItem_t *pxListItem, *pxNext;
    522          ListItem_t const *pxListEnd;
    523          List_t const * pxList;
    524          EventBits_t uxBitsToClear = 0, uxBitsWaitedFor, uxControlBits;
   \   00000008   0x2500             MOVS     R5,#+0
    525          EventGroup_t *pxEventBits = xEventGroup;
    526          BaseType_t xMatchFound = pdFALSE;
    527          
    528          	/* Check the user is not attempting to set the bits used by the kernel
    529          	itself. */
    530          	configASSERT( xEventGroup );
   \   0000000A   0x2C00             CMP      R4,#+0
   \   0000000C   0xD101             BNE      ??xEventGroupSetBits_0
   \   0000000E   0xB672             cpsid i
   \                     ??xEventGroupSetBits_1: (+1)
   \   00000010   0xE7FE             B        ??xEventGroupSetBits_1
    531          	configASSERT( ( uxBitsToSet & eventEVENT_BITS_CONTROL_BYTES ) == 0 );
   \                     ??xEventGroupSetBits_0: (+1)
   \   00000012   0x0E38             LSRS     R0,R7,#+24
   \   00000014   0x0600             LSLS     R0,R0,#+24
   \   00000016   0x2800             CMP      R0,#+0
   \   00000018   0xD001             BEQ      ??xEventGroupSetBits_2
   \   0000001A   0xB672             cpsid i
   \                     ??xEventGroupSetBits_3: (+1)
   \   0000001C   0xE7FE             B        ??xEventGroupSetBits_3
    532          
    533          	pxList = &( pxEventBits->xTasksWaitingForBits );
   \                     ??xEventGroupSetBits_2: (+1)
   \   0000001E   0x1D26             ADDS     R6,R4,#+4
    534          	pxListEnd = listGET_END_MARKER( pxList ); /*lint !e826 !e740 !e9087 The mini list structure is used as the list end to save RAM.  This is checked and valid. */
   \   00000020   0x0030             MOVS     R0,R6
   \   00000022   0x3008             ADDS     R0,R0,#+8
   \   00000024   0x9001             STR      R0,[SP, #+4]
    535          	vTaskSuspendAll();
   \   00000026   0x.... 0x....      BL       vTaskSuspendAll
    536          	{
    537          		traceEVENT_GROUP_SET_BITS( xEventGroup, uxBitsToSet );
    538          
    539          		pxListItem = listGET_HEAD_ENTRY( pxList );
   \   0000002A   0x68F0             LDR      R0,[R6, #+12]
    540          
    541          		/* Set the bits. */
    542          		pxEventBits->uxEventBits |= uxBitsToSet;
   \   0000002C   0x6821             LDR      R1,[R4, #+0]
   \   0000002E   0x430F             ORRS     R7,R7,R1
   \   00000030   0x6027             STR      R7,[R4, #+0]
   \   00000032   0x2680             MOVS     R6,#+128
   \   00000034   0x04F6             LSLS     R6,R6,#+19       ;; #+67108864
   \   00000036   0xE00B             B        ??xEventGroupSetBits_4
    543          
    544          		/* See if the new bit value should unblock any tasks. */
    545          		while( pxListItem != pxListEnd )
    546          		{
    547          			pxNext = listGET_NEXT( pxListItem );
    548          			uxBitsWaitedFor = listGET_LIST_ITEM_VALUE( pxListItem );
    549          			xMatchFound = pdFALSE;
    550          
    551          			/* Split the bits waited for from the control bits. */
    552          			uxControlBits = uxBitsWaitedFor & eventEVENT_BITS_CONTROL_BYTES;
    553          			uxBitsWaitedFor &= ~eventEVENT_BITS_CONTROL_BYTES;
    554          
    555          			if( ( uxControlBits & eventWAIT_FOR_ALL_BITS ) == ( EventBits_t ) 0 )
    556          			{
    557          				/* Just looking for single bit being set. */
    558          				if( ( uxBitsWaitedFor & pxEventBits->uxEventBits ) != ( EventBits_t ) 0 )
    559          				{
    560          					xMatchFound = pdTRUE;
    561          				}
    562          				else
    563          				{
    564          					mtCOVERAGE_TEST_MARKER();
    565          				}
    566          			}
    567          			else if( ( uxBitsWaitedFor & pxEventBits->uxEventBits ) == uxBitsWaitedFor )
   \                     ??xEventGroupSetBits_5: (+1)
   \   00000038   0x429F             CMP      R7,R3
   \   0000003A   0xD108             BNE      ??xEventGroupSetBits_6
    568          			{
    569          				/* All bits are set. */
    570          				xMatchFound = pdTRUE;
    571          			}
    572          			else
    573          			{
    574          				/* Need all bits to be set, but not all the bits were set. */
    575          			}
    576          
    577          			if( xMatchFound != pdFALSE )
    578          			{
    579          				/* The bits match.  Should the bits be cleared on exit? */
    580          				if( ( uxControlBits & eventCLEAR_EVENTS_ON_EXIT_BIT ) != ( EventBits_t ) 0 )
   \                     ??xEventGroupSetBits_7: (+1)
   \   0000003C   0x01C9             LSLS     R1,R1,#+7
   \   0000003E   0xD502             BPL      ??xEventGroupSetBits_8
    581          				{
    582          					uxBitsToClear |= uxBitsWaitedFor;
   \   00000040   0x0029             MOVS     R1,R5
   \   00000042   0x001D             MOVS     R5,R3
   \   00000044   0x430D             ORRS     R5,R5,R1
    583          				}
    584          				else
    585          				{
    586          					mtCOVERAGE_TEST_MARKER();
    587          				}
    588          
    589          				/* Store the actual event flag value in the task's event list
    590          				item before removing the task from the event list.  The
    591          				eventUNBLOCKED_DUE_TO_BIT_SET bit is set so the task knows
    592          				that is was unblocked due to its required bits matching, rather
    593          				than because it timed out. */
    594          				vTaskRemoveFromUnorderedEventList( pxListItem, pxEventBits->uxEventBits | eventUNBLOCKED_DUE_TO_BIT_SET );
   \                     ??xEventGroupSetBits_8: (+1)
   \   00000046   0x0871             LSRS     R1,R6,#+1
   \   00000048   0x4311             ORRS     R1,R1,R2
   \   0000004A   0x.... 0x....      BL       vTaskRemoveFromUnorderedEventList
    595          			}
    596          
    597          			/* Move onto the next list item.  Note pxListItem->pxNext is not
    598          			used here as the list item may have been removed from the event list
    599          			and inserted into the ready/pending reading list. */
    600          			pxListItem = pxNext;
   \                     ??xEventGroupSetBits_6: (+1)
   \   0000004E   0x9800             LDR      R0,[SP, #+0]
   \                     ??xEventGroupSetBits_4: (+1)
   \   00000050   0x6822             LDR      R2,[R4, #+0]
   \   00000052   0x9901             LDR      R1,[SP, #+4]
   \   00000054   0x4288             CMP      R0,R1
   \   00000056   0xD00D             BEQ      ??xEventGroupSetBits_9
   \   00000058   0x6841             LDR      R1,[R0, #+4]
   \   0000005A   0x9100             STR      R1,[SP, #+0]
   \   0000005C   0x6803             LDR      R3,[R0, #+0]
   \   0000005E   0x0E19             LSRS     R1,R3,#+24
   \   00000060   0x0609             LSLS     R1,R1,#+24
   \   00000062   0x021B             LSLS     R3,R3,#+8
   \   00000064   0x0A1B             LSRS     R3,R3,#+8
   \   00000066   0x0017             MOVS     R7,R2
   \   00000068   0x401F             ANDS     R7,R7,R3
   \   0000006A   0x4231             TST      R1,R6
   \   0000006C   0xD1E4             BNE      ??xEventGroupSetBits_5
   \   0000006E   0x2F00             CMP      R7,#+0
   \   00000070   0xD1E4             BNE      ??xEventGroupSetBits_7
   \   00000072   0xE7EC             B        ??xEventGroupSetBits_6
    601          		}
    602          
    603          		/* Clear any bits that matched when the eventCLEAR_EVENTS_ON_EXIT_BIT
    604          		bit was set in the control word. */
    605          		pxEventBits->uxEventBits &= ~uxBitsToClear;
   \                     ??xEventGroupSetBits_9: (+1)
   \   00000074   0x43AA             BICS     R2,R2,R5
   \   00000076   0x6022             STR      R2,[R4, #+0]
    606          	}
    607          	( void ) xTaskResumeAll();
   \   00000078   0x.... 0x....      BL       xTaskResumeAll
    608          
    609          	return pxEventBits->uxEventBits;
   \   0000007C   0x6820             LDR      R0,[R4, #+0]
   \   0000007E   0xB003             ADD      SP,SP,#+12
   \   00000080   0xBDF0             POP      {R4-R7,PC}       ;; return
    610          }
    611          /*-----------------------------------------------------------*/
    612          

   \                                 In section .text, align 4, keep-with-next
    613          void vEventGroupDelete( EventGroupHandle_t xEventGroup )
    614          {
   \                     vEventGroupDelete: (+1)
   \   00000000   0xB570             PUSH     {R4-R6,LR}
   \   00000002   0x0004             MOVS     R4,R0
    615          EventGroup_t *pxEventBits = xEventGroup;
    616          const List_t *pxTasksWaitingForBits = &( pxEventBits->xTasksWaitingForBits );
   \   00000004   0x1D25             ADDS     R5,R4,#+4
    617          
    618          	vTaskSuspendAll();
   \   00000006   0x.... 0x....      BL       vTaskSuspendAll
   \   0000000A   0x2680             MOVS     R6,#+128
   \   0000000C   0x04B6             LSLS     R6,R6,#+18       ;; #+33554432
   \   0000000E   0xE002             B        ??vEventGroupDelete_0
    619          	{
    620          		traceEVENT_GROUP_DELETE( xEventGroup );
    621          
    622          		while( listCURRENT_LIST_LENGTH( pxTasksWaitingForBits ) > ( UBaseType_t ) 0 )
    623          		{
    624          			/* Unblock the task, returning 0 as the event list is being deleted
    625          			and cannot therefore have any bits set. */
    626          			configASSERT( pxTasksWaitingForBits->xListEnd.pxNext != ( const ListItem_t * ) &( pxTasksWaitingForBits->xListEnd ) );
    627          			vTaskRemoveFromUnorderedEventList( pxTasksWaitingForBits->xListEnd.pxNext, eventUNBLOCKED_DUE_TO_BIT_SET );
   \                     ??vEventGroupDelete_1: (+1)
   \   00000010   0x0031             MOVS     R1,R6
   \   00000012   0x.... 0x....      BL       vTaskRemoveFromUnorderedEventList
   \                     ??vEventGroupDelete_0: (+1)
   \   00000016   0x6828             LDR      R0,[R5, #+0]
   \   00000018   0x2800             CMP      R0,#+0
   \   0000001A   0xD006             BEQ      ??vEventGroupDelete_2
   \   0000001C   0x68E8             LDR      R0,[R5, #+12]
   \   0000001E   0x0029             MOVS     R1,R5
   \   00000020   0x3108             ADDS     R1,R1,#+8
   \   00000022   0x4288             CMP      R0,R1
   \   00000024   0xD1F4             BNE      ??vEventGroupDelete_1
   \   00000026   0xB672             cpsid i
   \                     ??vEventGroupDelete_3: (+1)
   \   00000028   0xE7FE             B        ??vEventGroupDelete_3
    628          		}
    629          
    630          		#if( ( configSUPPORT_DYNAMIC_ALLOCATION == 1 ) && ( configSUPPORT_STATIC_ALLOCATION == 0 ) )
    631          		{
    632          			/* The event group can only have been allocated dynamically - free
    633          			it again. */
    634          			vPortFree( pxEventBits );
   \                     ??vEventGroupDelete_2: (+1)
   \   0000002A   0x0020             MOVS     R0,R4
   \   0000002C   0x.... 0x....      BL       vPortFree
    635          		}
    636          		#elif( ( configSUPPORT_DYNAMIC_ALLOCATION == 1 ) && ( configSUPPORT_STATIC_ALLOCATION == 1 ) )
    637          		{
    638          			/* The event group could have been allocated statically or
    639          			dynamically, so check before attempting to free the memory. */
    640          			if( pxEventBits->ucStaticallyAllocated == ( uint8_t ) pdFALSE )
    641          			{
    642          				vPortFree( pxEventBits );
    643          			}
    644          			else
    645          			{
    646          				mtCOVERAGE_TEST_MARKER();
    647          			}
    648          		}
    649          		#endif /* configSUPPORT_DYNAMIC_ALLOCATION */
    650          	}
    651          	( void ) xTaskResumeAll();
   \   00000030   0x.... 0x....      BL       xTaskResumeAll
    652          }
   \   00000034   0xBD70             POP      {R4-R6,PC}       ;; return
    653          /*-----------------------------------------------------------*/
    654          
    655          /* For internal use only - execute a 'set bits' command that was pended from
    656          an interrupt. */

   \                                 In section .text, align 2, keep-with-next
    657          void vEventGroupSetBitsCallback( void *pvEventGroup, const uint32_t ulBitsToSet )
    658          {
   \                     vEventGroupSetBitsCallback: (+1)
   \   00000000   0xB580             PUSH     {R7,LR}
    659          	( void ) xEventGroupSetBits( pvEventGroup, ( EventBits_t ) ulBitsToSet ); /*lint !e9079 Can't avoid cast to void* as a generic timer callback prototype. Callback casts back to original type so safe. */
   \   00000002   0x.... 0x....      BL       xEventGroupSetBits
    660          }
   \   00000006   0xBD01             POP      {R0,PC}          ;; return
    661          /*-----------------------------------------------------------*/
    662          
    663          /* For internal use only - execute a 'clear bits' command that was pended from
    664          an interrupt. */

   \                                 In section .text, align 2, keep-with-next
    665          void vEventGroupClearBitsCallback( void *pvEventGroup, const uint32_t ulBitsToClear )
    666          {
   \                     vEventGroupClearBitsCallback: (+1)
   \   00000000   0xB580             PUSH     {R7,LR}
    667          	( void ) xEventGroupClearBits( pvEventGroup, ( EventBits_t ) ulBitsToClear ); /*lint !e9079 Can't avoid cast to void* as a generic timer callback prototype. Callback casts back to original type so safe. */
   \   00000002   0x.... 0x....      BL       xEventGroupClearBits
    668          }
   \   00000006   0xBD01             POP      {R0,PC}          ;; return
    669          /*-----------------------------------------------------------*/
    670          
    671          static BaseType_t prvTestWaitCondition( const EventBits_t uxCurrentEventBits, const EventBits_t uxBitsToWaitFor, const BaseType_t xWaitForAllBits )
    672          {
    673          BaseType_t xWaitConditionMet = pdFALSE;
    674          
    675          	if( xWaitForAllBits == pdFALSE )
    676          	{
    677          		/* Task only has to wait for one bit within uxBitsToWaitFor to be
    678          		set.  Is one already set? */
    679          		if( ( uxCurrentEventBits & uxBitsToWaitFor ) != ( EventBits_t ) 0 )
    680          		{
    681          			xWaitConditionMet = pdTRUE;
    682          		}
    683          		else
    684          		{
    685          			mtCOVERAGE_TEST_MARKER();
    686          		}
    687          	}
    688          	else
    689          	{
    690          		/* Task has to wait for all the bits in uxBitsToWaitFor to be set.
    691          		Are they set already? */
    692          		if( ( uxCurrentEventBits & uxBitsToWaitFor ) == uxBitsToWaitFor )
    693          		{
    694          			xWaitConditionMet = pdTRUE;
    695          		}
    696          		else
    697          		{
    698          			mtCOVERAGE_TEST_MARKER();
    699          		}
    700          	}
    701          
    702          	return xWaitConditionMet;
    703          }
    704          /*-----------------------------------------------------------*/
    705          
    706          #if ( ( configUSE_TRACE_FACILITY == 1 ) && ( INCLUDE_xTimerPendFunctionCall == 1 ) && ( configUSE_TIMERS == 1 ) )
    707          
    708          	BaseType_t xEventGroupSetBitsFromISR( EventGroupHandle_t xEventGroup, const EventBits_t uxBitsToSet, BaseType_t *pxHigherPriorityTaskWoken )
    709          	{
    710          	BaseType_t xReturn;
    711          
    712          		traceEVENT_GROUP_SET_BITS_FROM_ISR( xEventGroup, uxBitsToSet );
    713          		xReturn = xTimerPendFunctionCallFromISR( vEventGroupSetBitsCallback, ( void * ) xEventGroup, ( uint32_t ) uxBitsToSet, pxHigherPriorityTaskWoken ); /*lint !e9087 Can't avoid cast to void* as a generic callback function not specific to this use case. Callback casts back to original type so safe. */
    714          
    715          		return xReturn;
    716          	}
    717          
    718          #endif
    719          /*-----------------------------------------------------------*/
    720          
    721          #if (configUSE_TRACE_FACILITY == 1)
    722          
    723          	UBaseType_t uxEventGroupGetNumber( void* xEventGroup )
    724          	{
    725          	UBaseType_t xReturn;
    726          	EventGroup_t const *pxEventBits = ( EventGroup_t * ) xEventGroup; /*lint !e9087 !e9079 EventGroupHandle_t is a pointer to an EventGroup_t, but EventGroupHandle_t is kept opaque outside of this file for data hiding purposes. */
    727          
    728          		if( xEventGroup == NULL )
    729          		{
    730          			xReturn = 0;
    731          		}
    732          		else
    733          		{
    734          			xReturn = pxEventBits->uxEventGroupNumber;
    735          		}
    736          
    737          		return xReturn;
    738          	}
    739          
    740          #endif /* configUSE_TRACE_FACILITY */
    741          /*-----------------------------------------------------------*/
    742          
    743          #if ( configUSE_TRACE_FACILITY == 1 )
    744          
    745          	void vEventGroupSetNumber( void * xEventGroup, UBaseType_t uxEventGroupNumber )
    746          	{
    747          		( ( EventGroup_t * ) xEventGroup )->uxEventGroupNumber = uxEventGroupNumber; /*lint !e9087 !e9079 EventGroupHandle_t is a pointer to an EventGroup_t, but EventGroupHandle_t is kept opaque outside of this file for data hiding purposes. */
    748          	}
    749          
    750          #endif /* configUSE_TRACE_FACILITY */
    751          /*-----------------------------------------------------------*/
    752          
    753          

   Maximum stack usage in bytes:

   .cstack Function
   ------- --------
       8   vEventGroupClearBitsCallback
         8   -> xEventGroupClearBits
      16   vEventGroupDelete
        16   -> vPortFree
        16   -> vTaskRemoveFromUnorderedEventList
        16   -> vTaskSuspendAll
        16   -> xTaskResumeAll
       8   vEventGroupSetBitsCallback
         8   -> xEventGroupSetBits
      16   xEventGroupClearBits
        16   -> vPortEnterCritical
        16   -> vPortExitCritical
       8   xEventGroupCreate
         8   -> pvPortMalloc
         8   -> vListInitialise
       8   xEventGroupGetBitsFromISR
         8   -> ulSetInterruptMaskFromISR
         8   -> vClearInterruptMaskFromISR
      32   xEventGroupSetBits
        32   -> vTaskRemoveFromUnorderedEventList
        32   -> vTaskSuspendAll
        32   -> xTaskResumeAll
      24   xEventGroupSync
        24   -> uxTaskResetEventItemValue
        24   -> vPortEnterCritical
        24   -> vPortExitCritical
        24   -> vPortYield
        24   -> vTaskPlaceOnUnorderedEventList
        24   -> vTaskSuspendAll
        24   -> xEventGroupSetBits
        24   -> xTaskGetSchedulerState
        24   -> xTaskResumeAll
      32   xEventGroupWaitBits
        32   -> uxTaskResetEventItemValue
        32   -> vPortEnterCritical
        32   -> vPortExitCritical
        32   -> vPortYield
        32   -> vTaskPlaceOnUnorderedEventList
        32   -> vTaskSuspendAll
        32   -> xTaskGetSchedulerState
        32   -> xTaskResumeAll


   Section sizes:

   Bytes  Function/Label
   -----  --------------
       8  vEventGroupClearBitsCallback
      54  vEventGroupDelete
       8  vEventGroupSetBitsCallback
      46  xEventGroupClearBits
      26  xEventGroupCreate
      18  xEventGroupGetBitsFromISR
     130  xEventGroupSetBits
     164  xEventGroupSync
     226  xEventGroupWaitBits

 
 680 bytes in section .text
 
 680 bytes of CODE memory

Errors: none
Warnings: none
