###############################################################################
#
# IAR ANSI C/C++ Compiler V7.40.7.9843/W32 for ARM        20/Dec/2019  16:54:30
# Copyright 1999-2015 IAR Systems AB.
#
#    Cpu mode     =  thumb
#    Endian       =  little
#    Source file  =  
#        C:\Users\Ian\Desktop\Projects\hub
#        project\hub\clang\source\initial_state.c
#    Command line =  
#        "C:\Users\Ian\Desktop\Projects\hub
#        project\hub\clang\source\initial_state.c" -D RESISTANCE_TRIMS -D
#        AFE_TRIMS -D USB_TRIMS -D NDEBUG -lC
#        "C:\Users\Ian\Desktop\Projects\hub
#        project\hub\toolchain\iar\project\Release\List" -o
#        "C:\Users\Ian\Desktop\Projects\hub
#        project\hub\toolchain\iar\project\Release\Obj" --endian=little
#        --cpu=Cortex-M0 -e --fpu=None --dlib_config "C:\Program Files
#        (x86)\IAR Systems\Embedded Workbench
#        7.2\arm\INC\c\DLib_Config_Normal.h" -I
#        "C:\Users\Ian\Desktop\Projects\hub
#        project\hub\toolchain\iar\project\..\..\..\clang\include\" -I
#        "C:\Users\Ian\Desktop\Projects\hub
#        project\hub\toolchain\iar\project\..\..\..\clang\include\superior\clough\"
#        -I "C:\Users\Ian\Desktop\Projects\hub
#        project\hub\toolchain\iar\project\..\..\..\clang\include\superior\sfr\"
#        -I "C:\Users\Ian\Desktop\Projects\hub
#        project\hub\toolchain\iar\project\..\..\..\clang\include\superior\" -I
#        "C:\Users\Ian\Desktop\Projects\hub
#        project\hub\toolchain\iar\project\..\SEGGER_RTT_V640\RTT\" -I
#        "C:\Users\Ian\Desktop\Projects\hub
#        project\hub\toolchain\iar\project\..\..\..\clang\source\FreeRTOS\" -Oh
#        -I "C:\Program Files (x86)\IAR Systems\Embedded Workbench
#        7.2\arm\CMSIS\Include\"
#    List file    =  
#        C:\Users\Ian\Desktop\Projects\hub
#        project\hub\toolchain\iar\project\Release\List\initial_state.lst
#    Object file  =  
#        C:\Users\Ian\Desktop\Projects\hub
#        project\hub\toolchain\iar\project\Release\Obj\initial_state.o
#
###############################################################################

C:\Users\Ian\Desktop\Projects\hub project\hub\clang\source\initial_state.c
      1          #include "states.h"
      2          

   \                                 In section .text, align 4, keep-with-next
      3          void *Initial_State( PD_Port_t *p_Context, Event_t *event )
      4          {
   \                     Initial_State: (+1)
   \   00000000   0xB580             PUSH     {R7,LR}
      5          	switch( event->Event_ID )
   \   00000002   0x7809             LDRB     R1,[R1, #+0]
   \   00000004   0x2900             CMP      R1,#+0
   \   00000006   0xD002             BEQ      ??Initial_State_0
   \   00000008   0x2901             CMP      R1,#+1
   \   0000000A   0xD003             BEQ      ??Initial_State_1
   \   0000000C   0xE004             B        ??Initial_State_2
      6          	{
      7          	case ENTRANCE:
      8                          v_Start_Timer( p_Context, 100 );
                                 ^
Warning[Pe223]: function "v_Start_Timer" declared implicitly
   \                     ??Initial_State_0: (+1)
   \   0000000E   0x2164             MOVS     R1,#+100
   \   00000010   0x.... 0x....      BL       v_Start_Timer
      9          		return (void *)0;
     10          		break;
     11          
     12          	case EXIT:
     13          		return (void *)0;
   \                     ??Initial_State_1: (+1)
   \   00000014   0x2000             MOVS     R0,#+0
   \   00000016   0xBD02             POP      {R1,PC}
     14          		break;
     15                          
     16                  case TIMEOUT_EVENT:
     17                          return (void *)state_1;
     18                          break;
     19          
     20          	default:
     21          		break;
     22          
     23          	}
     24          	return (void *)state_1;
   \                     ??Initial_State_2: (+1)
   \   00000018   0x4800             LDR      R0,??Initial_State_3
   \   0000001A   0xBD02             POP      {R1,PC}          ;; return
   \                     ??Initial_State_3:
   \   0000001C   0x........         DC32     state_1
     25          }

   Maximum stack usage in bytes:

   .cstack Function
   ------- --------
       8   Initial_State
         8   -> v_Start_Timer


   Section sizes:

   Bytes  Function/Label
   -----  --------------
      32  Initial_State

 
 32 bytes in section .text
 
 32 bytes of CODE memory

Errors: none
Warnings: 1
