###############################################################################
#
# IAR ANSI C/C++ Compiler V7.40.7.9843/W32 for ARM        20/Dec/2019  16:54:30
# Copyright 1999-2015 IAR Systems AB.
#
#    Cpu mode     =  thumb
#    Endian       =  little
#    Source file  =  
#        C:\Users\Ian\Desktop\Projects\hub project\hub\clang\source\phy.c
#    Command line =  
#        "C:\Users\Ian\Desktop\Projects\hub project\hub\clang\source\phy.c" -D
#        RESISTANCE_TRIMS -D AFE_TRIMS -D USB_TRIMS -D NDEBUG -lC
#        "C:\Users\Ian\Desktop\Projects\hub
#        project\hub\toolchain\iar\project\Release\List" -o
#        "C:\Users\Ian\Desktop\Projects\hub
#        project\hub\toolchain\iar\project\Release\Obj" --endian=little
#        --cpu=Cortex-M0 -e --fpu=None --dlib_config "C:\Program Files
#        (x86)\IAR Systems\Embedded Workbench
#        7.2\arm\INC\c\DLib_Config_Normal.h" -I
#        "C:\Users\Ian\Desktop\Projects\hub
#        project\hub\toolchain\iar\project\..\..\..\clang\include\" -I
#        "C:\Users\Ian\Desktop\Projects\hub
#        project\hub\toolchain\iar\project\..\..\..\clang\include\superior\clough\"
#        -I "C:\Users\Ian\Desktop\Projects\hub
#        project\hub\toolchain\iar\project\..\..\..\clang\include\superior\sfr\"
#        -I "C:\Users\Ian\Desktop\Projects\hub
#        project\hub\toolchain\iar\project\..\..\..\clang\include\superior\" -I
#        "C:\Users\Ian\Desktop\Projects\hub
#        project\hub\toolchain\iar\project\..\SEGGER_RTT_V640\RTT\" -I
#        "C:\Users\Ian\Desktop\Projects\hub
#        project\hub\toolchain\iar\project\..\..\..\clang\source\FreeRTOS\" -Oh
#        -I "C:\Program Files (x86)\IAR Systems\Embedded Workbench
#        7.2\arm\CMSIS\Include\"
#    List file    =  
#        C:\Users\Ian\Desktop\Projects\hub
#        project\hub\toolchain\iar\project\Release\List\phy.lst
#    Object file  =  
#        C:\Users\Ian\Desktop\Projects\hub
#        project\hub\toolchain\iar\project\Release\Obj\phy.o
#
###############################################################################

C:\Users\Ian\Desktop\Projects\hub project\hub\clang\source\phy.c
      1          #include "superior.h"
      2          #include "FreeRTOS.h"
      3          #include "task.h"
      4          #include "timers.h"
      5          #include "queue.h"
      6          #include <string.h>
      7          #include "events.h"
      8          #include "event_groups.h"
      9          #include "hw.h"
     10          #include "PD_Port.h"
     11          #include "debug_gpio.h"
     12          #include "phy.h"
     13          
     14          typedef enum
     15          {
     16            PHY_RESET,
     17            INITIALIZE
     18          
     19          } e_PHY_Command_t;
     20          

   \                                 In section .text, align 2, keep-with-next
     21          void *pv_PHY_Control( e_PHY_Command_t e_Command, PD_Port_t *port,  void *arg)
     22          {
   \                     pv_PHY_Control: (+1)
   \   00000000   0xB510             PUSH     {R4,LR}
     23           volatile TYPEC1_SFRS_t* p_Typec = (volatile TYPEC1_SFRS_t *)port->TypeC_Base;
   \   00000002   0x6E8C             LDR      R4,[R1, #+104]
     24           
     25              switch( e_Command )
   \   00000004   0x2800             CMP      R0,#+0
   \   00000006   0xD002             BEQ      ??pv_PHY_Control_0
   \   00000008   0x2801             CMP      R0,#+1
   \   0000000A   0xD00B             BEQ      ??pv_PHY_Control_1
   \   0000000C   0xE01D             B        ??pv_PHY_Control_2
     26              {
     27              case PHY_RESET:
     28                p_Typec->POWER.WORD = EN_AFE;
   \                     ??pv_PHY_Control_0: (+1)
   \   0000000E   0x2001             MOVS     R0,#+1
   \   00000010   0x6520             STR      R0,[R4, #+80]
     29                v_Delay_us( 10 );
   \   00000012   0x200A             MOVS     R0,#+10
   \   00000014   0x.... 0x....      BL       v_Delay_us
     30                
     31                p_Typec->TYPECCTL3.WORD = RST_PHY;
   \   00000018   0x2004             MOVS     R0,#+4
   \   0000001A   0x60E0             STR      R0,[R4, #+12]
     32                v_Delay_us( 10 );
   \   0000001C   0x200A             MOVS     R0,#+10
   \   0000001E   0x.... 0x....      BL       v_Delay_us
     33                  
     34                break;
   \   00000022   0xE012             B        ??pv_PHY_Control_2
     35                
     36              case INITIALIZE:
     37                if( port->e_Port_Role == PORT_ROLE_SOURCE )
   \                     ??pv_PHY_Control_1: (+1)
   \   00000024   0x7A08             LDRB     R0,[R1, #+8]
   \   00000026   0x2800             CMP      R0,#+0
   \   00000028   0xD107             BNE      ??pv_PHY_Control_3
     38                {
     39                     p_Typec->TYPECCTL1.WORD = port->Rp | MODE_SRC_STAY;
   \   0000002A   0x7A88             LDRB     R0,[R1, #+10]
   \   0000002C   0x2102             MOVS     R1,#+2
   \   0000002E   0x4301             ORRS     R1,R1,R0
   \   00000030   0x6061             STR      R1,[R4, #+4]
     40                     p_Typec->PDCFG2.WORD = CDR_VERSION | RX_SOP0 | RX_SOP1;
   \   00000032   0x2003             MOVS     R0,#+3
   \   00000034   0x66E0             STR      R0,[R4, #+108]
     41                     p_Typec->PDCFG3.WORD = 0x04 | PR_PROVIDER | DR_DFP;
   \   00000036   0x2007             MOVS     R0,#+7
   \   00000038   0xE006             B        ??pv_PHY_Control_4
     42                }
     43                else if( port->e_Port_Role == PORT_ROLE_SINK )
   \                     ??pv_PHY_Control_3: (+1)
   \   0000003A   0x2801             CMP      R0,#+1
   \   0000003C   0xD105             BNE      ??pv_PHY_Control_2
     44                {
     45                  p_Typec->TYPECCTL1.WORD = MODE_SNK;
   \   0000003E   0x2000             MOVS     R0,#+0
   \   00000040   0x6060             STR      R0,[R4, #+4]
     46                  p_Typec->PDCFG2.WORD = CDR_VERSION | RX_SOP0;
   \   00000042   0x2001             MOVS     R0,#+1
   \   00000044   0x66E0             STR      R0,[R4, #+108]
     47                  p_Typec->PDCFG3.WORD = 0x04 | PR_CONSUMER | DR_UFP;
   \   00000046   0x2004             MOVS     R0,#+4
   \                     ??pv_PHY_Control_4: (+1)
   \   00000048   0x6720             STR      R0,[R4, #+112]
     48                }
     49                else
     50                {
     51                }
     52                
     53                       
     54              default:
     55                break;
     56              }
     57              
     58              return (void *)0;
   \                     ??pv_PHY_Control_2: (+1)
   \   0000004A   0x2000             MOVS     R0,#+0
   \   0000004C   0xBD10             POP      {R4,PC}          ;; return
     59          }

   Maximum stack usage in bytes:

   .cstack Function
   ------- --------
       8   pv_PHY_Control
         8   -> v_Delay_us


   Section sizes:

   Bytes  Function/Label
   -----  --------------
      78  pv_PHY_Control

 
 78 bytes in section .text
 
 78 bytes of CODE memory

Errors: none
Warnings: none
