###############################################################################
#
# IAR ANSI C/C++ Compiler V7.40.7.9843/W32 for ARM        20/Dec/2019  16:54:30
# Copyright 1999-2015 IAR Systems AB.
#
#    Cpu mode     =  thumb
#    Endian       =  little
#    Source file  =  
#        C:\Users\Ian\Desktop\Projects\hub project\hub\clang\source\state2.c
#    Command line =  
#        "C:\Users\Ian\Desktop\Projects\hub project\hub\clang\source\state2.c"
#        -D RESISTANCE_TRIMS -D AFE_TRIMS -D USB_TRIMS -D NDEBUG -lC
#        "C:\Users\Ian\Desktop\Projects\hub
#        project\hub\toolchain\iar\project\Release\List" -o
#        "C:\Users\Ian\Desktop\Projects\hub
#        project\hub\toolchain\iar\project\Release\Obj" --endian=little
#        --cpu=Cortex-M0 -e --fpu=None --dlib_config "C:\Program Files
#        (x86)\IAR Systems\Embedded Workbench
#        7.2\arm\INC\c\DLib_Config_Normal.h" -I
#        "C:\Users\Ian\Desktop\Projects\hub
#        project\hub\toolchain\iar\project\..\..\..\clang\include\" -I
#        "C:\Users\Ian\Desktop\Projects\hub
#        project\hub\toolchain\iar\project\..\..\..\clang\include\superior\clough\"
#        -I "C:\Users\Ian\Desktop\Projects\hub
#        project\hub\toolchain\iar\project\..\..\..\clang\include\superior\sfr\"
#        -I "C:\Users\Ian\Desktop\Projects\hub
#        project\hub\toolchain\iar\project\..\..\..\clang\include\superior\" -I
#        "C:\Users\Ian\Desktop\Projects\hub
#        project\hub\toolchain\iar\project\..\SEGGER_RTT_V640\RTT\" -I
#        "C:\Users\Ian\Desktop\Projects\hub
#        project\hub\toolchain\iar\project\..\..\..\clang\source\FreeRTOS\" -Oh
#        -I "C:\Program Files (x86)\IAR Systems\Embedded Workbench
#        7.2\arm\CMSIS\Include\"
#    List file    =  
#        C:\Users\Ian\Desktop\Projects\hub
#        project\hub\toolchain\iar\project\Release\List\state2.lst
#    Object file  =  
#        C:\Users\Ian\Desktop\Projects\hub
#        project\hub\toolchain\iar\project\Release\Obj\state2.o
#
###############################################################################

C:\Users\Ian\Desktop\Projects\hub project\hub\clang\source\state2.c
      1          #include "states.h"
      2          

   \                                 In section .text, align 4, keep-with-next
      3          void *state_2( PD_Port_t *p_Context, Event_t *event )
      4          {
   \                     state_2: (+1)
   \   00000000   0xB580             PUSH     {R7,LR}
      5          	switch( event->Event_ID )
   \   00000002   0x7809             LDRB     R1,[R1, #+0]
   \   00000004   0x2900             CMP      R1,#+0
   \   00000006   0xD003             BEQ      ??state_2_0
   \   00000008   0x2902             CMP      R1,#+2
   \   0000000A   0xD007             BEQ      ??state_2_1
   \   0000000C   0xD304             BCC      ??state_2_2
   \   0000000E   0xE007             B        ??state_2_3
      6          	{
      7          	case ENTRANCE:
      8                          v_Start_Timer( p_Context, 2000 );
                                 ^
Warning[Pe223]: function "v_Start_Timer" declared implicitly
   \                     ??state_2_0: (+1)
   \   00000010   0x21FA             MOVS     R1,#+250
   \   00000012   0x00C9             LSLS     R1,R1,#+3        ;; #+2000
   \   00000014   0x.... 0x....      BL       v_Start_Timer
      9                          v_Set_Debug_GPIO( GPIO10_DEBUG, 0);
     10          		return (void *)0;
     11          		break;
     12          
     13          	case EXIT:
     14          		return (void *)0;
   \                     ??state_2_2: (+1)
   \   00000018   0x2000             MOVS     R0,#+0
   \   0000001A   0xBD02             POP      {R1,PC}
     15          		break;
     16                          
     17                  case TIMEOUT_EVENT:
     18                          return (void *)state_1;
   \                     ??state_2_1: (+1)
   \   0000001C   0x4801             LDR      R0,??state_2_4
   \   0000001E   0xBD02             POP      {R1,PC}
     19                          break;
     20          
     21          	default:
     22          		break;
     23          	}
     24          	return (void *)state_2;
   \                     ??state_2_3: (+1)
   \   00000020   0x4801             LDR      R0,??state_2_4+0x4
   \   00000022   0xBD02             POP      {R1,PC}          ;; return
   \                     ??state_2_4:
   \   00000024   0x........         DC32     state_1
   \   00000028   0x........         DC32     state_2
     25          }

   Maximum stack usage in bytes:

   .cstack Function
   ------- --------
       8   state_2
         8   -> v_Start_Timer


   Section sizes:

   Bytes  Function/Label
   -----  --------------
      44  state_2

 
 44 bytes in section .text
 
 44 bytes of CODE memory

Errors: none
Warnings: 1
