###############################################################################
#
# IAR ANSI C/C++ Compiler V7.40.7.9843/W32 for ARM        18/Dec/2019  15:12:38
# Copyright 1999-2015 IAR Systems AB.
#
#    Cpu mode     =  thumb
#    Endian       =  little
#    Source file  =  
#        C:\Users\Ian\Desktop\Projects\hub
#        project\hub\clang\source\FreeRTOS\tasks.c
#    Command line =  
#        "C:\Users\Ian\Desktop\Projects\hub
#        project\hub\clang\source\FreeRTOS\tasks.c" -D RESISTANCE_TRIMS -D
#        AFE_TRIMS -D USB_TRIMS -D NDEBUG -lC
#        "C:\Users\Ian\Desktop\Projects\hub
#        project\hub\toolchain\iar\project\Release\List" -o
#        "C:\Users\Ian\Desktop\Projects\hub
#        project\hub\toolchain\iar\project\Release\Obj" --endian=little
#        --cpu=Cortex-M0 -e --fpu=None --dlib_config "C:\Program Files
#        (x86)\IAR Systems\Embedded Workbench
#        7.2\arm\INC\c\DLib_Config_Normal.h" -I
#        "C:\Users\Ian\Desktop\Projects\hub
#        project\hub\toolchain\iar\project\..\..\..\clang\include\" -I
#        "C:\Users\Ian\Desktop\Projects\hub
#        project\hub\toolchain\iar\project\..\..\..\clang\include\superior\clough\"
#        -I "C:\Users\Ian\Desktop\Projects\hub
#        project\hub\toolchain\iar\project\..\..\..\clang\include\superior\sfr\"
#        -I "C:\Users\Ian\Desktop\Projects\hub
#        project\hub\toolchain\iar\project\..\..\..\clang\include\superior\" -I
#        "C:\Users\Ian\Desktop\Projects\hub
#        project\hub\toolchain\iar\project\..\SEGGER_RTT_V640\RTT\" -I
#        "C:\Users\Ian\Desktop\Projects\hub
#        project\hub\toolchain\iar\project\..\..\..\clang\source\FreeRTOS\" -Oh
#        -I "C:\Program Files (x86)\IAR Systems\Embedded Workbench
#        7.2\arm\CMSIS\Include\"
#    List file    =  
#        C:\Users\Ian\Desktop\Projects\hub
#        project\hub\toolchain\iar\project\Release\List\tasks.lst
#    Object file  =  
#        C:\Users\Ian\Desktop\Projects\hub
#        project\hub\toolchain\iar\project\Release\Obj\tasks.o
#
###############################################################################

C:\Users\Ian\Desktop\Projects\hub project\hub\clang\source\FreeRTOS\tasks.c
      1          /*
      2           * FreeRTOS Kernel V10.2.0
      3           * Copyright (C) 2019 Amazon.com, Inc. or its affiliates.  All Rights Reserved.
      4           *
      5           * Permission is hereby granted, free of charge, to any person obtaining a copy of
      6           * this software and associated documentation files (the "Software"), to deal in
      7           * the Software without restriction, including without limitation the rights to
      8           * use, copy, modify, merge, publish, distribute, sublicense, and/or sell copies of
      9           * the Software, and to permit persons to whom the Software is furnished to do so,
     10           * subject to the following conditions:
     11           *
     12           * The above copyright notice and this permission notice shall be included in all
     13           * copies or substantial portions of the Software.
     14           *
     15           * THE SOFTWARE IS PROVIDED "AS IS", WITHOUT WARRANTY OF ANY KIND, EXPRESS OR
     16           * IMPLIED, INCLUDING BUT NOT LIMITED TO THE WARRANTIES OF MERCHANTABILITY, FITNESS
     17           * FOR A PARTICULAR PURPOSE AND NONINFRINGEMENT. IN NO EVENT SHALL THE AUTHORS OR
     18           * COPYRIGHT HOLDERS BE LIABLE FOR ANY CLAIM, DAMAGES OR OTHER LIABILITY, WHETHER
     19           * IN AN ACTION OF CONTRACT, TORT OR OTHERWISE, ARISING FROM, OUT OF OR IN
     20           * CONNECTION WITH THE SOFTWARE OR THE USE OR OTHER DEALINGS IN THE SOFTWARE.
     21           *
     22           * http://www.FreeRTOS.org
     23           * http://aws.amazon.com/freertos
     24           *
     25           * 1 tab == 4 spaces!
     26           */
     27          
     28          /* Standard includes. */
     29          #include <stdlib.h>
     30          #include <string.h>
     31          
     32          /* Defining MPU_WRAPPERS_INCLUDED_FROM_API_FILE prevents task.h from redefining
     33          all the API functions to use the MPU wrappers.  That should only be done when
     34          task.h is included from an application file. */
     35          #define MPU_WRAPPERS_INCLUDED_FROM_API_FILE
     36          
     37          /* FreeRTOS includes. */
     38          #include "FreeRTOS.h"
     39          #include "task.h"
     40          #include "timers.h"
     41          #include "stack_macros.h"
     42          
     43          /* Lint e9021, e961 and e750 are suppressed as a MISRA exception justified
     44          because the MPU ports require MPU_WRAPPERS_INCLUDED_FROM_API_FILE to be defined
     45          for the header files above, but not in this file, in order to generate the
     46          correct privileged Vs unprivileged linkage and placement. */
     47          #undef MPU_WRAPPERS_INCLUDED_FROM_API_FILE /*lint !e961 !e750 !e9021. */
     48          
     49          /* Set configUSE_STATS_FORMATTING_FUNCTIONS to 2 to include the stats formatting
     50          functions but without including stdio.h here. */
     51          #if ( configUSE_STATS_FORMATTING_FUNCTIONS == 1 )
     52          	/* At the bottom of this file are two optional functions that can be used
     53          	to generate human readable text from the raw data generated by the
     54          	uxTaskGetSystemState() function.  Note the formatting functions are provided
     55          	for convenience only, and are NOT considered part of the kernel. */
     56          	#include <stdio.h>
     57          #endif /* configUSE_STATS_FORMATTING_FUNCTIONS == 1 ) */
     58          
     59          #if( configUSE_PREEMPTION == 0 )
     60          	/* If the cooperative scheduler is being used then a yield should not be
     61          	performed just because a higher priority task has been woken. */
     62          	#define taskYIELD_IF_USING_PREEMPTION()
     63          #else
     64          	#define taskYIELD_IF_USING_PREEMPTION() portYIELD_WITHIN_API()
     65          #endif
     66          
     67          /* Values that can be assigned to the ucNotifyState member of the TCB. */
     68          #define taskNOT_WAITING_NOTIFICATION	( ( uint8_t ) 0 )
     69          #define taskWAITING_NOTIFICATION		( ( uint8_t ) 1 )
     70          #define taskNOTIFICATION_RECEIVED		( ( uint8_t ) 2 )
     71          
     72          /*
     73           * The value used to fill the stack of a task when the task is created.  This
     74           * is used purely for checking the high water mark for tasks.
     75           */
     76          #define tskSTACK_FILL_BYTE	( 0xa5U )
     77          
     78          /* Bits used to recored how a task's stack and TCB were allocated. */
     79          #define tskDYNAMICALLY_ALLOCATED_STACK_AND_TCB 		( ( uint8_t ) 0 )
     80          #define tskSTATICALLY_ALLOCATED_STACK_ONLY 			( ( uint8_t ) 1 )
     81          #define tskSTATICALLY_ALLOCATED_STACK_AND_TCB		( ( uint8_t ) 2 )
     82          
     83          /* If any of the following are set then task stacks are filled with a known
     84          value so the high water mark can be determined.  If none of the following are
     85          set then don't fill the stack so there is no unnecessary dependency on memset. */
     86          #if( ( configCHECK_FOR_STACK_OVERFLOW > 1 ) || ( configUSE_TRACE_FACILITY == 1 ) || ( INCLUDE_uxTaskGetStackHighWaterMark == 1 ) || ( INCLUDE_uxTaskGetStackHighWaterMark2 == 1 ) )
     87          	#define tskSET_NEW_STACKS_TO_KNOWN_VALUE	1
     88          #else
     89          	#define tskSET_NEW_STACKS_TO_KNOWN_VALUE	0
     90          #endif
     91          
     92          /*
     93           * Macros used by vListTask to indicate which state a task is in.
     94           */
     95          #define tskRUNNING_CHAR		( 'X' )
     96          #define tskBLOCKED_CHAR		( 'B' )
     97          #define tskREADY_CHAR		( 'R' )
     98          #define tskDELETED_CHAR		( 'D' )
     99          #define tskSUSPENDED_CHAR	( 'S' )
    100          
    101          /*
    102           * Some kernel aware debuggers require the data the debugger needs access to be
    103           * global, rather than file scope.
    104           */
    105          #ifdef portREMOVE_STATIC_QUALIFIER
    106          	#define static
    107          #endif
    108          
    109          /* The name allocated to the Idle task.  This can be overridden by defining
    110          configIDLE_TASK_NAME in FreeRTOSConfig.h. */
    111          #ifndef configIDLE_TASK_NAME
    112          	#define configIDLE_TASK_NAME "IDLE"
    113          #endif
    114          
    115          #if ( configUSE_PORT_OPTIMISED_TASK_SELECTION == 0 )
    116          
    117          	/* If configUSE_PORT_OPTIMISED_TASK_SELECTION is 0 then task selection is
    118          	performed in a generic way that is not optimised to any particular
    119          	microcontroller architecture. */
    120          
    121          	/* uxTopReadyPriority holds the priority of the highest priority ready
    122          	state task. */
    123          	#define taskRECORD_READY_PRIORITY( uxPriority )														\
    124          	{																									\
    125          		if( ( uxPriority ) > uxTopReadyPriority )														\
    126          		{																								\
    127          			uxTopReadyPriority = ( uxPriority );														\
    128          		}																								\
    129          	} /* taskRECORD_READY_PRIORITY */
    130          
    131          	/*-----------------------------------------------------------*/
    132          
    133          	#define taskSELECT_HIGHEST_PRIORITY_TASK()															\
    134          	{																									\
    135          	UBaseType_t uxTopPriority = uxTopReadyPriority;														\
    136          																										\
    137          		/* Find the highest priority queue that contains ready tasks. */								\
    138          		while( listLIST_IS_EMPTY( &( pxReadyTasksLists[ uxTopPriority ] ) ) )							\
    139          		{																								\
    140          			configASSERT( uxTopPriority );																\
    141          			--uxTopPriority;																			\
    142          		}																								\
    143          																										\
    144          		/* listGET_OWNER_OF_NEXT_ENTRY indexes through the list, so the tasks of						\
    145          		the	same priority get an equal share of the processor time. */									\
    146          		listGET_OWNER_OF_NEXT_ENTRY( pxCurrentTCB, &( pxReadyTasksLists[ uxTopPriority ] ) );			\
    147          		uxTopReadyPriority = uxTopPriority;																\
    148          	} /* taskSELECT_HIGHEST_PRIORITY_TASK */
    149          
    150          	/*-----------------------------------------------------------*/
    151          
    152          	/* Define away taskRESET_READY_PRIORITY() and portRESET_READY_PRIORITY() as
    153          	they are only required when a port optimised method of task selection is
    154          	being used. */
    155          	#define taskRESET_READY_PRIORITY( uxPriority )
    156          	#define portRESET_READY_PRIORITY( uxPriority, uxTopReadyPriority )
    157          
    158          #else /* configUSE_PORT_OPTIMISED_TASK_SELECTION */
    159          
    160          	/* If configUSE_PORT_OPTIMISED_TASK_SELECTION is 1 then task selection is
    161          	performed in a way that is tailored to the particular microcontroller
    162          	architecture being used. */
    163          
    164          	/* A port optimised version is provided.  Call the port defined macros. */
    165          	#define taskRECORD_READY_PRIORITY( uxPriority )	portRECORD_READY_PRIORITY( uxPriority, uxTopReadyPriority )
    166          
    167          	/*-----------------------------------------------------------*/
    168          
    169          	#define taskSELECT_HIGHEST_PRIORITY_TASK()														\
    170          	{																								\
    171          	UBaseType_t uxTopPriority;																		\
    172          																									\
    173          		/* Find the highest priority list that contains ready tasks. */								\
    174          		portGET_HIGHEST_PRIORITY( uxTopPriority, uxTopReadyPriority );								\
    175          		configASSERT( listCURRENT_LIST_LENGTH( &( pxReadyTasksLists[ uxTopPriority ] ) ) > 0 );		\
    176          		listGET_OWNER_OF_NEXT_ENTRY( pxCurrentTCB, &( pxReadyTasksLists[ uxTopPriority ] ) );		\
    177          	} /* taskSELECT_HIGHEST_PRIORITY_TASK() */
    178          
    179          	/*-----------------------------------------------------------*/
    180          
    181          	/* A port optimised version is provided, call it only if the TCB being reset
    182          	is being referenced from a ready list.  If it is referenced from a delayed
    183          	or suspended list then it won't be in a ready list. */
    184          	#define taskRESET_READY_PRIORITY( uxPriority )														\
    185          	{																									\
    186          		if( listCURRENT_LIST_LENGTH( &( pxReadyTasksLists[ ( uxPriority ) ] ) ) == ( UBaseType_t ) 0 )	\
    187          		{																								\
    188          			portRESET_READY_PRIORITY( ( uxPriority ), ( uxTopReadyPriority ) );							\
    189          		}																								\
    190          	}
    191          
    192          #endif /* configUSE_PORT_OPTIMISED_TASK_SELECTION */
    193          
    194          /*-----------------------------------------------------------*/
    195          
    196          /* pxDelayedTaskList and pxOverflowDelayedTaskList are switched when the tick
    197          count overflows. */
    198          #define taskSWITCH_DELAYED_LISTS()																	\
    199          {																									\
    200          	List_t *pxTemp;																					\
    201          																									\
    202          	/* The delayed tasks list should be empty when the lists are switched. */						\
    203          	configASSERT( ( listLIST_IS_EMPTY( pxDelayedTaskList ) ) );										\
    204          																									\
    205          	pxTemp = pxDelayedTaskList;																		\
    206          	pxDelayedTaskList = pxOverflowDelayedTaskList;													\
    207          	pxOverflowDelayedTaskList = pxTemp;																\
    208          	xNumOfOverflows++;																				\
    209          	prvResetNextTaskUnblockTime();																	\
    210          }
    211          
    212          /*-----------------------------------------------------------*/
    213          
    214          /*
    215           * Place the task represented by pxTCB into the appropriate ready list for
    216           * the task.  It is inserted at the end of the list.
    217           */
    218          #define prvAddTaskToReadyList( pxTCB )																\
    219          	traceMOVED_TASK_TO_READY_STATE( pxTCB );														\
    220          	taskRECORD_READY_PRIORITY( ( pxTCB )->uxPriority );												\
    221          	vListInsertEnd( &( pxReadyTasksLists[ ( pxTCB )->uxPriority ] ), &( ( pxTCB )->xStateListItem ) ); \
    222          	tracePOST_MOVED_TASK_TO_READY_STATE( pxTCB )
    223          /*-----------------------------------------------------------*/
    224          
    225          /*
    226           * Several functions take an TaskHandle_t parameter that can optionally be NULL,
    227           * where NULL is used to indicate that the handle of the currently executing
    228           * task should be used in place of the parameter.  This macro simply checks to
    229           * see if the parameter is NULL and returns a pointer to the appropriate TCB.
    230           */
    231          #define prvGetTCBFromHandle( pxHandle ) ( ( ( pxHandle ) == NULL ) ? pxCurrentTCB : ( pxHandle ) )
    232          
    233          /* The item value of the event list item is normally used to hold the priority
    234          of the task to which it belongs (coded to allow it to be held in reverse
    235          priority order).  However, it is occasionally borrowed for other purposes.  It
    236          is important its value is not updated due to a task priority change while it is
    237          being used for another purpose.  The following bit definition is used to inform
    238          the scheduler that the value should not be changed - in which case it is the
    239          responsibility of whichever module is using the value to ensure it gets set back
    240          to its original value when it is released. */
    241          #if( configUSE_16_BIT_TICKS == 1 )
    242          	#define taskEVENT_LIST_ITEM_VALUE_IN_USE	0x8000U
    243          #else
    244          	#define taskEVENT_LIST_ITEM_VALUE_IN_USE	0x80000000UL
    245          #endif
    246          
    247          /*
    248           * Task control block.  A task control block (TCB) is allocated for each task,
    249           * and stores task state information, including a pointer to the task's context
    250           * (the task's run time environment, including register values)
    251           */
    252          typedef struct tskTaskControlBlock 			/* The old naming convention is used to prevent breaking kernel aware debuggers. */
    253          {
    254          	volatile StackType_t	*pxTopOfStack;	/*< Points to the location of the last item placed on the tasks stack.  THIS MUST BE THE FIRST MEMBER OF THE TCB STRUCT. */
    255          
    256          	#if ( portUSING_MPU_WRAPPERS == 1 )
    257          		xMPU_SETTINGS	xMPUSettings;		/*< The MPU settings are defined as part of the port layer.  THIS MUST BE THE SECOND MEMBER OF THE TCB STRUCT. */
    258          	#endif
    259          
    260          	ListItem_t			xStateListItem;	/*< The list that the state list item of a task is reference from denotes the state of that task (Ready, Blocked, Suspended ). */
    261          	ListItem_t			xEventListItem;		/*< Used to reference a task from an event list. */
    262          	UBaseType_t			uxPriority;			/*< The priority of the task.  0 is the lowest priority. */
    263          	StackType_t			*pxStack;			/*< Points to the start of the stack. */
    264          	char				pcTaskName[ configMAX_TASK_NAME_LEN ];/*< Descriptive name given to the task when created.  Facilitates debugging only. */ /*lint !e971 Unqualified char types are allowed for strings and single characters only. */
    265          
    266          	#if ( ( portSTACK_GROWTH > 0 ) || ( configRECORD_STACK_HIGH_ADDRESS == 1 ) )
    267          		StackType_t		*pxEndOfStack;		/*< Points to the highest valid address for the stack. */
    268          	#endif
    269          
    270          	#if ( portCRITICAL_NESTING_IN_TCB == 1 )
    271          		UBaseType_t		uxCriticalNesting;	/*< Holds the critical section nesting depth for ports that do not maintain their own count in the port layer. */
    272          	#endif
    273          
    274          	#if ( configUSE_TRACE_FACILITY == 1 )
    275          		UBaseType_t		uxTCBNumber;		/*< Stores a number that increments each time a TCB is created.  It allows debuggers to determine when a task has been deleted and then recreated. */
    276          		UBaseType_t		uxTaskNumber;		/*< Stores a number specifically for use by third party trace code. */
    277          	#endif
    278          
    279          	#if ( configUSE_MUTEXES == 1 )
    280          		UBaseType_t		uxBasePriority;		/*< The priority last assigned to the task - used by the priority inheritance mechanism. */
    281          		UBaseType_t		uxMutexesHeld;
    282          	#endif
    283          
    284          	#if ( configUSE_APPLICATION_TASK_TAG == 1 )
    285          		TaskHookFunction_t pxTaskTag;
    286          	#endif
    287          
    288          	#if( configNUM_THREAD_LOCAL_STORAGE_POINTERS > 0 )
    289          		void			*pvThreadLocalStoragePointers[ configNUM_THREAD_LOCAL_STORAGE_POINTERS ];
    290          	#endif
    291          
    292          	#if( configGENERATE_RUN_TIME_STATS == 1 )
    293          		uint32_t		ulRunTimeCounter;	/*< Stores the amount of time the task has spent in the Running state. */
    294          	#endif
    295          
    296          	#if ( configUSE_NEWLIB_REENTRANT == 1 )
    297          		/* Allocate a Newlib reent structure that is specific to this task.
    298          		Note Newlib support has been included by popular demand, but is not
    299          		used by the FreeRTOS maintainers themselves.  FreeRTOS is not
    300          		responsible for resulting newlib operation.  User must be familiar with
    301          		newlib and must provide system-wide implementations of the necessary
    302          		stubs. Be warned that (at the time of writing) the current newlib design
    303          		implements a system-wide malloc() that must be provided with locks. */
    304          		struct	_reent xNewLib_reent;
    305          	#endif
    306          
    307          	#if( configUSE_TASK_NOTIFICATIONS == 1 )
    308          		volatile uint32_t ulNotifiedValue;
    309          		volatile uint8_t ucNotifyState;
    310          	#endif
    311          
    312          	/* See the comments in FreeRTOS.h with the definition of
    313          	tskSTATIC_AND_DYNAMIC_ALLOCATION_POSSIBLE. */
    314          	#if( tskSTATIC_AND_DYNAMIC_ALLOCATION_POSSIBLE != 0 ) /*lint !e731 !e9029 Macro has been consolidated for readability reasons. */
    315          		uint8_t	ucStaticallyAllocated; 		/*< Set to pdTRUE if the task is a statically allocated to ensure no attempt is made to free the memory. */
    316          	#endif
    317          
    318          	#if( INCLUDE_xTaskAbortDelay == 1 )
    319          		uint8_t ucDelayAborted;
    320          	#endif
    321          
    322          	#if( configUSE_POSIX_ERRNO == 1 )
    323          		int iTaskErrno;
    324          	#endif
    325          
    326          } tskTCB;
    327          
    328          /* The old tskTCB name is maintained above then typedefed to the new TCB_t name
    329          below to enable the use of older kernel aware debuggers. */
    330          typedef tskTCB TCB_t;
    331          
    332          /*lint -save -e956 A manual analysis and inspection has been used to determine
    333          which static variables must be declared volatile. */

   \                                 In section .bss, align 4
    334          PRIVILEGED_DATA TCB_t * volatile pxCurrentTCB = NULL;
   \                     pxCurrentTCB:
   \   00000000                      DS8 4
   \   00000004                      DS8 100
   \   00000068                      DS8 4
   \   0000006C                      DS8 4
   \   00000070                      DS8 4
   \   00000074                      DS8 4
   \   00000078                      DS8 4
   \   0000007C                      DS8 4
   \   00000080                      DS8 4
   \   00000084                      DS8 20
   \   00000098                      DS8 20
    335          
    336          /* Lists for ready and blocked tasks. --------------------
    337          xDelayedTaskList1 and xDelayedTaskList2 could be move to function scople but
    338          doing so breaks some kernel aware debuggers and debuggers that rely on removing
    339          the static qualifier. */
    340          PRIVILEGED_DATA static List_t pxReadyTasksLists[ configMAX_PRIORITIES ];/*< Prioritised ready tasks. */
    341          PRIVILEGED_DATA static List_t xDelayedTaskList1;						/*< Delayed tasks. */
    342          PRIVILEGED_DATA static List_t xDelayedTaskList2;						/*< Delayed tasks (two lists are used - one for delays that have overflowed the current tick count. */
    343          PRIVILEGED_DATA static List_t * volatile pxDelayedTaskList;				/*< Points to the delayed task list currently being used. */
    344          PRIVILEGED_DATA static List_t * volatile pxOverflowDelayedTaskList;		/*< Points to the delayed task list currently being used to hold tasks that have overflowed the current tick count. */

   \                                 In section .bss, align 4
    345          PRIVILEGED_DATA static List_t xPendingReadyList;						/*< Tasks that have been readied while the scheduler was suspended.  They will be moved to the ready list when the scheduler is resumed. */
   \                     xPendingReadyList:
   \   00000000                      DS8 20
   \   00000014                      DS8 20
   \   00000028                      DS8 20
   \   0000003C                      DS8 4
   \   00000040                      DS8 4
   \   00000044                      DS8 4
   \   00000048                      DS8 4
   \   0000004C                      DS8 4
   \   00000050                      DS8 4
   \   00000054                      DS8 4
    346          
    347          #if( INCLUDE_vTaskDelete == 1 )
    348          
    349          	PRIVILEGED_DATA static List_t xTasksWaitingTermination;				/*< Tasks that have been deleted - but their memory not yet freed. */
    350          	PRIVILEGED_DATA static volatile UBaseType_t uxDeletedTasksWaitingCleanUp = ( UBaseType_t ) 0U;
    351          
    352          #endif
    353          
    354          #if ( INCLUDE_vTaskSuspend == 1 )
    355          
    356          	PRIVILEGED_DATA static List_t xSuspendedTaskList;					/*< Tasks that are currently suspended. */
    357          
    358          #endif
    359          
    360          /* Global POSIX errno. Its value is changed upon context switching to match
    361          the errno of the currently running task. */
    362          #if ( configUSE_POSIX_ERRNO == 1 )
    363          	int FreeRTOS_errno = 0;
    364          #endif
    365          
    366          /* Other file private variables. --------------------------------*/
    367          PRIVILEGED_DATA static volatile UBaseType_t uxCurrentNumberOfTasks 	= ( UBaseType_t ) 0U;
    368          PRIVILEGED_DATA static volatile TickType_t xTickCount 				= ( TickType_t ) configINITIAL_TICK_COUNT;
    369          PRIVILEGED_DATA static volatile UBaseType_t uxTopReadyPriority 		= tskIDLE_PRIORITY;
    370          PRIVILEGED_DATA static volatile BaseType_t xSchedulerRunning 		= pdFALSE;
    371          PRIVILEGED_DATA static volatile UBaseType_t uxPendedTicks 			= ( UBaseType_t ) 0U;
    372          PRIVILEGED_DATA static volatile BaseType_t xYieldPending 			= pdFALSE;
    373          PRIVILEGED_DATA static volatile BaseType_t xNumOfOverflows 			= ( BaseType_t ) 0;
    374          PRIVILEGED_DATA static UBaseType_t uxTaskNumber 					= ( UBaseType_t ) 0U;
    375          PRIVILEGED_DATA static volatile TickType_t xNextTaskUnblockTime		= ( TickType_t ) 0U; /* Initialised to portMAX_DELAY before the scheduler starts. */
    376          PRIVILEGED_DATA static TaskHandle_t xIdleTaskHandle					= NULL;			/*< Holds the handle of the idle task.  The idle task is created automatically when the scheduler is started. */
    377          
    378          /* Context switches are held pending while the scheduler is suspended.  Also,
    379          interrupts must not manipulate the xStateListItem of a TCB, or any of the
    380          lists the xStateListItem can be referenced from, if the scheduler is suspended.
    381          If an interrupt needs to unblock a task while the scheduler is suspended then it
    382          moves the task's event list item into the xPendingReadyList, ready for the
    383          kernel to move the task from the pending ready list into the real ready list
    384          when the scheduler is unsuspended.  The pending ready list itself can only be
    385          accessed from a critical section. */
    386          PRIVILEGED_DATA static volatile UBaseType_t uxSchedulerSuspended	= ( UBaseType_t ) pdFALSE;
    387          
    388          #if ( configGENERATE_RUN_TIME_STATS == 1 )
    389          
    390          	/* Do not move these variables to function scope as doing so prevents the
    391          	code working with debuggers that need to remove the static qualifier. */
    392          	PRIVILEGED_DATA static uint32_t ulTaskSwitchedInTime = 0UL;	/*< Holds the value of a timer/counter the last time a task was switched in. */
    393          	PRIVILEGED_DATA static uint32_t ulTotalRunTime = 0UL;		/*< Holds the total amount of execution time as defined by the run time counter clock. */
    394          
    395          #endif
    396          
    397          /*lint -restore */
    398          
    399          /*-----------------------------------------------------------*/
    400          
    401          /* Callback function prototypes. --------------------------*/
    402          #if(  configCHECK_FOR_STACK_OVERFLOW > 0 )
    403          
    404          	extern void vApplicationStackOverflowHook( TaskHandle_t xTask, char *pcTaskName );
    405          
    406          #endif
    407          
    408          #if( configUSE_TICK_HOOK > 0 )
    409          
    410          	extern void vApplicationTickHook( void ); /*lint !e526 Symbol not defined as it is an application callback. */
    411          
    412          #endif
    413          
    414          #if( configSUPPORT_STATIC_ALLOCATION == 1 )
    415          
    416          	extern void vApplicationGetIdleTaskMemory( StaticTask_t **ppxIdleTaskTCBBuffer, StackType_t **ppxIdleTaskStackBuffer, uint32_t *pulIdleTaskStackSize ); /*lint !e526 Symbol not defined as it is an application callback. */
    417          
    418          #endif
    419          
    420          /* File private functions. --------------------------------*/
    421          
    422          /**
    423           * Utility task that simply returns pdTRUE if the task referenced by xTask is
    424           * currently in the Suspended state, or pdFALSE if the task referenced by xTask
    425           * is in any other state.
    426           */
    427          #if ( INCLUDE_vTaskSuspend == 1 )
    428          
    429          	static BaseType_t prvTaskIsTaskSuspended( const TaskHandle_t xTask ) PRIVILEGED_FUNCTION;
    430          
    431          #endif /* INCLUDE_vTaskSuspend */
    432          
    433          /*
    434           * Utility to ready all the lists used by the scheduler.  This is called
    435           * automatically upon the creation of the first task.
    436           */
    437          static void prvInitialiseTaskLists( void ) PRIVILEGED_FUNCTION;
    438          
    439          /*
    440           * The idle task, which as all tasks is implemented as a never ending loop.
    441           * The idle task is automatically created and added to the ready lists upon
    442           * creation of the first user task.
    443           *
    444           * The portTASK_FUNCTION_PROTO() macro is used to allow port/compiler specific
    445           * language extensions.  The equivalent prototype for this function is:
    446           *
    447           * void prvIdleTask( void *pvParameters );
    448           *
    449           */
    450          static portTASK_FUNCTION_PROTO( prvIdleTask, pvParameters );
    451          
    452          /*
    453           * Utility to free all memory allocated by the scheduler to hold a TCB,
    454           * including the stack pointed to by the TCB.
    455           *
    456           * This does not free memory allocated by the task itself (i.e. memory
    457           * allocated by calls to pvPortMalloc from within the tasks application code).
    458           */
    459          #if ( INCLUDE_vTaskDelete == 1 )
    460          
    461          	static void prvDeleteTCB( TCB_t *pxTCB ) PRIVILEGED_FUNCTION;
    462          
    463          #endif
    464          
    465          /*
    466           * Used only by the idle task.  This checks to see if anything has been placed
    467           * in the list of tasks waiting to be deleted.  If so the task is cleaned up
    468           * and its TCB deleted.
    469           */
    470          static void prvCheckTasksWaitingTermination( void ) PRIVILEGED_FUNCTION;
    471          
    472          /*
    473           * The currently executing task is entering the Blocked state.  Add the task to
    474           * either the current or the overflow delayed task list.
    475           */
    476          static void prvAddCurrentTaskToDelayedList( TickType_t xTicksToWait, const BaseType_t xCanBlockIndefinitely ) PRIVILEGED_FUNCTION;
    477          
    478          /*
    479           * Fills an TaskStatus_t structure with information on each task that is
    480           * referenced from the pxList list (which may be a ready list, a delayed list,
    481           * a suspended list, etc.).
    482           *
    483           * THIS FUNCTION IS INTENDED FOR DEBUGGING ONLY, AND SHOULD NOT BE CALLED FROM
    484           * NORMAL APPLICATION CODE.
    485           */
    486          #if ( configUSE_TRACE_FACILITY == 1 )
    487          
    488          	static UBaseType_t prvListTasksWithinSingleList( TaskStatus_t *pxTaskStatusArray, List_t *pxList, eTaskState eState ) PRIVILEGED_FUNCTION;
    489          
    490          #endif
    491          
    492          /*
    493           * Searches pxList for a task with name pcNameToQuery - returning a handle to
    494           * the task if it is found, or NULL if the task is not found.
    495           */
    496          #if ( INCLUDE_xTaskGetHandle == 1 )
    497          
    498          	static TCB_t *prvSearchForNameWithinSingleList( List_t *pxList, const char pcNameToQuery[] ) PRIVILEGED_FUNCTION;
    499          
    500          #endif
    501          
    502          /*
    503           * When a task is created, the stack of the task is filled with a known value.
    504           * This function determines the 'high water mark' of the task stack by
    505           * determining how much of the stack remains at the original preset value.
    506           */
    507          #if ( ( configUSE_TRACE_FACILITY == 1 ) || ( INCLUDE_uxTaskGetStackHighWaterMark == 1 ) || ( INCLUDE_uxTaskGetStackHighWaterMark2 == 1 ) )
    508          
    509          	static configSTACK_DEPTH_TYPE prvTaskCheckFreeStackSpace( const uint8_t * pucStackByte ) PRIVILEGED_FUNCTION;
    510          
    511          #endif
    512          
    513          /*
    514           * Return the amount of time, in ticks, that will pass before the kernel will
    515           * next move a task from the Blocked state to the Running state.
    516           *
    517           * This conditional compilation should use inequality to 0, not equality to 1.
    518           * This is to ensure portSUPPRESS_TICKS_AND_SLEEP() can be called when user
    519           * defined low power mode implementations require configUSE_TICKLESS_IDLE to be
    520           * set to a value other than 1.
    521           */
    522          #if ( configUSE_TICKLESS_IDLE != 0 )
    523          
    524          	static TickType_t prvGetExpectedIdleTime( void ) PRIVILEGED_FUNCTION;
    525          
    526          #endif
    527          
    528          /*
    529           * Set xNextTaskUnblockTime to the time at which the next Blocked state task
    530           * will exit the Blocked state.
    531           */
    532          static void prvResetNextTaskUnblockTime( void );
    533          
    534          #if ( ( configUSE_TRACE_FACILITY == 1 ) && ( configUSE_STATS_FORMATTING_FUNCTIONS > 0 ) )
    535          
    536          	/*
    537          	 * Helper function used to pad task names with spaces when printing out
    538          	 * human readable tables of task information.
    539          	 */
    540          	static char *prvWriteNameToBuffer( char *pcBuffer, const char *pcTaskName ) PRIVILEGED_FUNCTION;
    541          
    542          #endif
    543          
    544          /*
    545           * Called after a Task_t structure has been allocated either statically or
    546           * dynamically to fill in the structure's members.
    547           */
    548          static void prvInitialiseNewTask( 	TaskFunction_t pxTaskCode,
    549          									const char * const pcName, 		/*lint !e971 Unqualified char types are allowed for strings and single characters only. */
    550          									const uint32_t ulStackDepth,
    551          									void * const pvParameters,
    552          									UBaseType_t uxPriority,
    553          									TaskHandle_t * const pxCreatedTask,
    554          									TCB_t *pxNewTCB,
    555          									const MemoryRegion_t * const xRegions ) PRIVILEGED_FUNCTION;
    556          
    557          /*
    558           * Called after a new task has been created and initialised to place the task
    559           * under the control of the scheduler.
    560           */
    561          static void prvAddNewTaskToReadyList( TCB_t *pxNewTCB ) PRIVILEGED_FUNCTION;
    562          
    563          /*
    564           * freertos_tasks_c_additions_init() should only be called if the user definable
    565           * macro FREERTOS_TASKS_C_ADDITIONS_INIT() is defined, as that is the only macro
    566           * called by the function.
    567           */
    568          #ifdef FREERTOS_TASKS_C_ADDITIONS_INIT
    569          
    570          	static void freertos_tasks_c_additions_init( void ) PRIVILEGED_FUNCTION;
    571          
    572          #endif
    573          
    574          /*-----------------------------------------------------------*/
    575          
    576          #if( configSUPPORT_STATIC_ALLOCATION == 1 )
    577          
    578          	TaskHandle_t xTaskCreateStatic(	TaskFunction_t pxTaskCode,
    579          									const char * const pcName,		/*lint !e971 Unqualified char types are allowed for strings and single characters only. */
    580          									const uint32_t ulStackDepth,
    581          									void * const pvParameters,
    582          									UBaseType_t uxPriority,
    583          									StackType_t * const puxStackBuffer,
    584          									StaticTask_t * const pxTaskBuffer )
    585          	{
    586          	TCB_t *pxNewTCB;
    587          	TaskHandle_t xReturn;
    588          
    589          		configASSERT( puxStackBuffer != NULL );
    590          		configASSERT( pxTaskBuffer != NULL );
    591          
    592          		#if( configASSERT_DEFINED == 1 )
    593          		{
    594          			/* Sanity check that the size of the structure used to declare a
    595          			variable of type StaticTask_t equals the size of the real task
    596          			structure. */
    597          			volatile size_t xSize = sizeof( StaticTask_t );
    598          			configASSERT( xSize == sizeof( TCB_t ) );
    599          			( void ) xSize; /* Prevent lint warning when configASSERT() is not used. */
    600          		}
    601          		#endif /* configASSERT_DEFINED */
    602          
    603          
    604          		if( ( pxTaskBuffer != NULL ) && ( puxStackBuffer != NULL ) )
    605          		{
    606          			/* The memory used for the task's TCB and stack are passed into this
    607          			function - use them. */
    608          			pxNewTCB = ( TCB_t * ) pxTaskBuffer; /*lint !e740 !e9087 Unusual cast is ok as the structures are designed to have the same alignment, and the size is checked by an assert. */
    609          			pxNewTCB->pxStack = ( StackType_t * ) puxStackBuffer;
    610          
    611          			#if( tskSTATIC_AND_DYNAMIC_ALLOCATION_POSSIBLE != 0 ) /*lint !e731 !e9029 Macro has been consolidated for readability reasons. */
    612          			{
    613          				/* Tasks can be created statically or dynamically, so note this
    614          				task was created statically in case the task is later deleted. */
    615          				pxNewTCB->ucStaticallyAllocated = tskSTATICALLY_ALLOCATED_STACK_AND_TCB;
    616          			}
    617          			#endif /* tskSTATIC_AND_DYNAMIC_ALLOCATION_POSSIBLE */
    618          
    619          			prvInitialiseNewTask( pxTaskCode, pcName, ulStackDepth, pvParameters, uxPriority, &xReturn, pxNewTCB, NULL );
    620          			prvAddNewTaskToReadyList( pxNewTCB );
    621          		}
    622          		else
    623          		{
    624          			xReturn = NULL;
    625          		}
    626          
    627          		return xReturn;
    628          	}
    629          
    630          #endif /* SUPPORT_STATIC_ALLOCATION */
    631          /*-----------------------------------------------------------*/
    632          
    633          #if( ( portUSING_MPU_WRAPPERS == 1 ) && ( configSUPPORT_STATIC_ALLOCATION == 1 ) )
    634          
    635          	BaseType_t xTaskCreateRestrictedStatic( const TaskParameters_t * const pxTaskDefinition, TaskHandle_t *pxCreatedTask )
    636          	{
    637          	TCB_t *pxNewTCB;
    638          	BaseType_t xReturn = errCOULD_NOT_ALLOCATE_REQUIRED_MEMORY;
    639          
    640          		configASSERT( pxTaskDefinition->puxStackBuffer != NULL );
    641          		configASSERT( pxTaskDefinition->pxTaskBuffer != NULL );
    642          
    643          		if( ( pxTaskDefinition->puxStackBuffer != NULL ) && ( pxTaskDefinition->pxTaskBuffer != NULL ) )
    644          		{
    645          			/* Allocate space for the TCB.  Where the memory comes from depends
    646          			on the implementation of the port malloc function and whether or
    647          			not static allocation is being used. */
    648          			pxNewTCB = ( TCB_t * ) pxTaskDefinition->pxTaskBuffer;
    649          
    650          			/* Store the stack location in the TCB. */
    651          			pxNewTCB->pxStack = pxTaskDefinition->puxStackBuffer;
    652          
    653          			#if( tskSTATIC_AND_DYNAMIC_ALLOCATION_POSSIBLE != 0 )
    654          			{
    655          				/* Tasks can be created statically or dynamically, so note this
    656          				task was created statically in case the task is later deleted. */
    657          				pxNewTCB->ucStaticallyAllocated = tskSTATICALLY_ALLOCATED_STACK_AND_TCB;
    658          			}
    659          			#endif /* tskSTATIC_AND_DYNAMIC_ALLOCATION_POSSIBLE */
    660          
    661          			prvInitialiseNewTask(	pxTaskDefinition->pvTaskCode,
    662          									pxTaskDefinition->pcName,
    663          									( uint32_t ) pxTaskDefinition->usStackDepth,
    664          									pxTaskDefinition->pvParameters,
    665          									pxTaskDefinition->uxPriority,
    666          									pxCreatedTask, pxNewTCB,
    667          									pxTaskDefinition->xRegions );
    668          
    669          			prvAddNewTaskToReadyList( pxNewTCB );
    670          			xReturn = pdPASS;
    671          		}
    672          
    673          		return xReturn;
    674          	}
    675          
    676          #endif /* ( portUSING_MPU_WRAPPERS == 1 ) && ( configSUPPORT_STATIC_ALLOCATION == 1 ) */
    677          /*-----------------------------------------------------------*/
    678          
    679          #if( ( portUSING_MPU_WRAPPERS == 1 ) && ( configSUPPORT_DYNAMIC_ALLOCATION == 1 ) )
    680          
    681          	BaseType_t xTaskCreateRestricted( const TaskParameters_t * const pxTaskDefinition, TaskHandle_t *pxCreatedTask )
    682          	{
    683          	TCB_t *pxNewTCB;
    684          	BaseType_t xReturn = errCOULD_NOT_ALLOCATE_REQUIRED_MEMORY;
    685          
    686          		configASSERT( pxTaskDefinition->puxStackBuffer );
    687          
    688          		if( pxTaskDefinition->puxStackBuffer != NULL )
    689          		{
    690          			/* Allocate space for the TCB.  Where the memory comes from depends
    691          			on the implementation of the port malloc function and whether or
    692          			not static allocation is being used. */
    693          			pxNewTCB = ( TCB_t * ) pvPortMalloc( sizeof( TCB_t ) );
    694          
    695          			if( pxNewTCB != NULL )
    696          			{
    697          				/* Store the stack location in the TCB. */
    698          				pxNewTCB->pxStack = pxTaskDefinition->puxStackBuffer;
    699          
    700          				#if( tskSTATIC_AND_DYNAMIC_ALLOCATION_POSSIBLE != 0 )
    701          				{
    702          					/* Tasks can be created statically or dynamically, so note
    703          					this task had a statically allocated stack in case it is
    704          					later deleted.  The TCB was allocated dynamically. */
    705          					pxNewTCB->ucStaticallyAllocated = tskSTATICALLY_ALLOCATED_STACK_ONLY;
    706          				}
    707          				#endif /* tskSTATIC_AND_DYNAMIC_ALLOCATION_POSSIBLE */
    708          
    709          				prvInitialiseNewTask(	pxTaskDefinition->pvTaskCode,
    710          										pxTaskDefinition->pcName,
    711          										( uint32_t ) pxTaskDefinition->usStackDepth,
    712          										pxTaskDefinition->pvParameters,
    713          										pxTaskDefinition->uxPriority,
    714          										pxCreatedTask, pxNewTCB,
    715          										pxTaskDefinition->xRegions );
    716          
    717          				prvAddNewTaskToReadyList( pxNewTCB );
    718          				xReturn = pdPASS;
    719          			}
    720          		}
    721          
    722          		return xReturn;
    723          	}
    724          
    725          #endif /* portUSING_MPU_WRAPPERS */
    726          /*-----------------------------------------------------------*/
    727          
    728          #if( configSUPPORT_DYNAMIC_ALLOCATION == 1 )
    729          

   \                                 In section .text, align 2, keep-with-next
    730          	BaseType_t xTaskCreate(	TaskFunction_t pxTaskCode,
    731          							const char * const pcName,		/*lint !e971 Unqualified char types are allowed for strings and single characters only. */
    732          							const configSTACK_DEPTH_TYPE usStackDepth,
    733          							void * const pvParameters,
    734          							UBaseType_t uxPriority,
    735          							TaskHandle_t * const pxCreatedTask )
    736          	{
   \                     xTaskCreate: (+1)
   \   00000000   0xB5FA             PUSH     {R1,R3-R7,LR}
   \   00000002   0xB085             SUB      SP,SP,#+20
   \   00000004   0x0005             MOVS     R5,R0
   \   00000006   0x0017             MOVS     R7,R2
   \   00000008   0x00B8             LSLS     R0,R7,#+2
    737          	TCB_t *pxNewTCB;
    738          	BaseType_t xReturn;
    739          
    740          		/* If the stack grows down then allocate the stack then the TCB so the stack
    741          		does not grow into the TCB.  Likewise if the stack grows up then allocate
    742          		the TCB then the stack. */
    743          		#if( portSTACK_GROWTH > 0 )
    744          		{
    745          			/* Allocate space for the TCB.  Where the memory comes from depends on
    746          			the implementation of the port malloc function and whether or not static
    747          			allocation is being used. */
    748          			pxNewTCB = ( TCB_t * ) pvPortMalloc( sizeof( TCB_t ) );
    749          
    750          			if( pxNewTCB != NULL )
    751          			{
    752          				/* Allocate space for the stack used by the task being created.
    753          				The base of the stack memory stored in the TCB so the task can
    754          				be deleted later if required. */
    755          				pxNewTCB->pxStack = ( StackType_t * ) pvPortMalloc( ( ( ( size_t ) usStackDepth ) * sizeof( StackType_t ) ) ); /*lint !e961 MISRA exception as the casts are only redundant for some ports. */
    756          
    757          				if( pxNewTCB->pxStack == NULL )
    758          				{
    759          					/* Could not allocate the stack.  Delete the allocated TCB. */
    760          					vPortFree( pxNewTCB );
    761          					pxNewTCB = NULL;
    762          				}
    763          			}
    764          		}
    765          		#else /* portSTACK_GROWTH */
    766          		{
    767          		StackType_t *pxStack;
    768          
    769          			/* Allocate space for the stack used by the task being created. */
    770          			pxStack = pvPortMalloc( ( ( ( size_t ) usStackDepth ) * sizeof( StackType_t ) ) ); /*lint !e9079 All values returned by pvPortMalloc() have at least the alignment required by the MCU's stack and this allocation is the stack. */
   \   0000000A   0x.... 0x....      BL       pvPortMalloc
   \   0000000E   0x0006             MOVS     R6,R0
    771          
    772          			if( pxStack != NULL )
   \   00000010   0xD01A             BEQ      ??xTaskCreate_0
    773          			{
    774          				/* Allocate space for the TCB. */
    775          				pxNewTCB = ( TCB_t * ) pvPortMalloc( sizeof( TCB_t ) ); /*lint !e9087 !e9079 All values returned by pvPortMalloc() have at least the alignment required by the MCU's stack, and the first member of TCB_t is always a pointer to the task's stack. */
   \   00000012   0x2054             MOVS     R0,#+84
   \   00000014   0x.... 0x....      BL       pvPortMalloc
   \   00000018   0x0004             MOVS     R4,R0
    776          
    777          				if( pxNewTCB != NULL )
   \   0000001A   0xD012             BEQ      ??xTaskCreate_1
    778          				{
    779          					/* Store the stack location in the TCB. */
    780          					pxNewTCB->pxStack = pxStack;
   \   0000001C   0x6326             STR      R6,[R4, #+48]
    781          				}
    782          				else
    783          				{
    784          					/* The stack cannot be used as the TCB was not created.  Free
    785          					it again. */
    786          					vPortFree( pxStack );
    787          				}
    788          			}
    789          			else
    790          			{
    791          				pxNewTCB = NULL;
    792          			}
    793          		}
    794          		#endif /* portSTACK_GROWTH */
    795          
    796          		if( pxNewTCB != NULL )
    797          		{
    798          			#if( tskSTATIC_AND_DYNAMIC_ALLOCATION_POSSIBLE != 0 ) /*lint !e9029 !e731 Macro has been consolidated for readability reasons. */
    799          			{
    800          				/* Tasks can be created statically or dynamically, so note this
    801          				task was created dynamically in case it is later deleted. */
    802          				pxNewTCB->ucStaticallyAllocated = tskDYNAMICALLY_ALLOCATED_STACK_AND_TCB;
    803          			}
    804          			#endif /* tskSTATIC_AND_DYNAMIC_ALLOCATION_POSSIBLE */
    805          
    806          			prvInitialiseNewTask( pxTaskCode, pcName, ( uint32_t ) usStackDepth, pvParameters, uxPriority, pxCreatedTask, pxNewTCB, NULL );
   \   0000001E   0x2000             MOVS     R0,#+0
   \   00000020   0x9003             STR      R0,[SP, #+12]
   \   00000022   0x9402             STR      R4,[SP, #+8]
   \   00000024   0x980D             LDR      R0,[SP, #+52]
   \   00000026   0x9001             STR      R0,[SP, #+4]
   \   00000028   0x980C             LDR      R0,[SP, #+48]
   \   0000002A   0x9000             STR      R0,[SP, #+0]
   \   0000002C   0x9B06             LDR      R3,[SP, #+24]
   \   0000002E   0x003A             MOVS     R2,R7
   \   00000030   0x9905             LDR      R1,[SP, #+20]
   \   00000032   0x0028             MOVS     R0,R5
   \   00000034   0x.... 0x....      BL       prvInitialiseNewTask
    807          			prvAddNewTaskToReadyList( pxNewTCB );
   \   00000038   0x0020             MOVS     R0,R4
   \   0000003A   0x.... 0x....      BL       prvAddNewTaskToReadyList
    808          			xReturn = pdPASS;
   \   0000003E   0x2001             MOVS     R0,#+1
   \   00000040   0xE004             B        ??xTaskCreate_2
    809          		}
   \                     ??xTaskCreate_1: (+1)
   \   00000042   0x0030             MOVS     R0,R6
   \   00000044   0x.... 0x....      BL       vPortFree
    810          		else
    811          		{
    812          			xReturn = errCOULD_NOT_ALLOCATE_REQUIRED_MEMORY;
   \                     ??xTaskCreate_0: (+1)
   \   00000048   0x2000             MOVS     R0,#+0
   \   0000004A   0x43C0             MVNS     R0,R0            ;; #-1
    813          		}
    814          
    815          		return xReturn;
   \                     ??xTaskCreate_2: (+1)
   \   0000004C   0xB007             ADD      SP,SP,#+28
   \   0000004E   0xBDF0             POP      {R4-R7,PC}       ;; return
    816          	}
    817          
    818          #endif /* configSUPPORT_DYNAMIC_ALLOCATION */
    819          /*-----------------------------------------------------------*/
    820          

   \                                 In section .text, align 4, keep-with-next
    821          static void prvInitialiseNewTask( 	TaskFunction_t pxTaskCode,
    822          									const char * const pcName,		/*lint !e971 Unqualified char types are allowed for strings and single characters only. */
    823          									const uint32_t ulStackDepth,
    824          									void * const pvParameters,
    825          									UBaseType_t uxPriority,
    826          									TaskHandle_t * const pxCreatedTask,
    827          									TCB_t *pxNewTCB,
    828          									const MemoryRegion_t * const xRegions )
    829          {
   \                     prvInitialiseNewTask: (+1)
   \   00000000   0xB5F9             PUSH     {R0,R3-R7,LR}
   \   00000002   0xB081             SUB      SP,SP,#+4
   \   00000004   0x000E             MOVS     R6,R1
   \   00000006   0x0015             MOVS     R5,R2
   \   00000008   0x9C0A             LDR      R4,[SP, #+40]
    830          StackType_t *pxTopOfStack;
    831          UBaseType_t x;
    832          
    833          	#if( portUSING_MPU_WRAPPERS == 1 )
    834          		/* Should the task be created in privileged mode? */
    835          		BaseType_t xRunPrivileged;
    836          		if( ( uxPriority & portPRIVILEGE_BIT ) != 0U )
    837          		{
    838          			xRunPrivileged = pdTRUE;
    839          		}
    840          		else
    841          		{
    842          			xRunPrivileged = pdFALSE;
    843          		}
    844          		uxPriority &= ~portPRIVILEGE_BIT;
    845          	#endif /* portUSING_MPU_WRAPPERS == 1 */
    846          
    847          	/* Avoid dependency on memset() if it is not required. */
    848          	#if( tskSET_NEW_STACKS_TO_KNOWN_VALUE == 1 )
    849          	{
    850          		/* Fill the stack with a known value to assist debugging. */
    851          		( void ) memset( pxNewTCB->pxStack, ( int ) tskSTACK_FILL_BYTE, ( size_t ) ulStackDepth * sizeof( StackType_t ) );
   \   0000000A   0x22A5             MOVS     R2,#+165
   \   0000000C   0x00A9             LSLS     R1,R5,#+2
   \   0000000E   0x6B20             LDR      R0,[R4, #+48]
   \   00000010   0x.... 0x....      BL       __aeabi_memset4
    852          	}
    853          	#endif /* tskSET_NEW_STACKS_TO_KNOWN_VALUE */
    854          
    855          	/* Calculate the top of stack address.  This depends on whether the stack
    856          	grows from high memory to low (as per the 80x86) or vice versa.
    857          	portSTACK_GROWTH is used to make the result positive or negative as required
    858          	by the port. */
    859          	#if( portSTACK_GROWTH < 0 )
    860          	{
    861          		pxTopOfStack = &( pxNewTCB->pxStack[ ulStackDepth - ( uint32_t ) 1 ] );
    862          		pxTopOfStack = ( StackType_t * ) ( ( ( portPOINTER_SIZE_TYPE ) pxTopOfStack ) & ( ~( ( portPOINTER_SIZE_TYPE ) portBYTE_ALIGNMENT_MASK ) ) ); /*lint !e923 !e9033 !e9078 MISRA exception.  Avoiding casts between pointers and integers is not practical.  Size differences accounted for using portPOINTER_SIZE_TYPE type.  Checked by assert(). */
   \   00000014   0x6B20             LDR      R0,[R4, #+48]
   \   00000016   0x00A9             LSLS     R1,R5,#+2
   \   00000018   0x1840             ADDS     R0,R0,R1
   \   0000001A   0x1F00             SUBS     R0,R0,#+4
   \   0000001C   0x2107             MOVS     R1,#+7
   \   0000001E   0x4388             BICS     R0,R0,R1
   \   00000020   0x9000             STR      R0,[SP, #+0]
    863          
    864          		/* Check the alignment of the calculated top of stack is correct. */
    865          		configASSERT( ( ( ( portPOINTER_SIZE_TYPE ) pxTopOfStack & ( portPOINTER_SIZE_TYPE ) portBYTE_ALIGNMENT_MASK ) == 0UL ) );
   \   00000022   0x0740             LSLS     R0,R0,#+29
    866          
    867          		#if( configRECORD_STACK_HIGH_ADDRESS == 1 )
    868          		{
    869          			/* Also record the stack's high address, which may assist
    870          			debugging. */
    871          			pxNewTCB->pxEndOfStack = pxTopOfStack;
    872          		}
    873          		#endif /* configRECORD_STACK_HIGH_ADDRESS */
    874          	}
    875          	#else /* portSTACK_GROWTH */
    876          	{
    877          		pxTopOfStack = pxNewTCB->pxStack;
    878          
    879          		/* Check the alignment of the stack buffer is correct. */
    880          		configASSERT( ( ( ( portPOINTER_SIZE_TYPE ) pxNewTCB->pxStack & ( portPOINTER_SIZE_TYPE ) portBYTE_ALIGNMENT_MASK ) == 0UL ) );
    881          
    882          		/* The other extreme of the stack space is required if stack checking is
    883          		performed. */
    884          		pxNewTCB->pxEndOfStack = pxNewTCB->pxStack + ( ulStackDepth - ( uint32_t ) 1 );
    885          	}
    886          	#endif /* portSTACK_GROWTH */
    887          
    888          	/* Store the task name in the TCB. */
    889          	if( pcName != NULL )
   \   00000024   0x0027             MOVS     R7,R4
   \   00000026   0x3734             ADDS     R7,R7,#+52
   \   00000028   0x2500             MOVS     R5,#+0
   \   0000002A   0x2E00             CMP      R6,#+0
   \   0000002C   0xD01B             BEQ      ??prvInitialiseNewTask_0
    890          	{
    891          		for( x = ( UBaseType_t ) 0; x < ( UBaseType_t ) configMAX_TASK_NAME_LEN; x++ )
   \   0000002E   0x0039             MOVS     R1,R7
    892          		{
    893          			pxNewTCB->pcTaskName[ x ] = pcName[ x ];
   \                     ??prvInitialiseNewTask_1: (+1)
   \   00000030   0x7832             LDRB     R2,[R6, #+0]
   \   00000032   0x700A             STRB     R2,[R1, #+0]
    894          
    895          			/* Don't copy all configMAX_TASK_NAME_LEN if the string is shorter than
    896          			configMAX_TASK_NAME_LEN characters just in case the memory after the
    897          			string is not accessible (extremely unlikely). */
    898          			if( pcName[ x ] == ( char ) 0x00 )
   \   00000034   0x7832             LDRB     R2,[R6, #+0]
   \   00000036   0x2A00             CMP      R2,#+0
   \   00000038   0xD013             BEQ      ??prvInitialiseNewTask_2
   \   0000003A   0x7872             LDRB     R2,[R6, #+1]
   \   0000003C   0x704A             STRB     R2,[R1, #+1]
   \   0000003E   0x7872             LDRB     R2,[R6, #+1]
   \   00000040   0x2A00             CMP      R2,#+0
   \   00000042   0xD00E             BEQ      ??prvInitialiseNewTask_2
   \   00000044   0x78B2             LDRB     R2,[R6, #+2]
   \   00000046   0x708A             STRB     R2,[R1, #+2]
   \   00000048   0x78B2             LDRB     R2,[R6, #+2]
   \   0000004A   0x2A00             CMP      R2,#+0
   \   0000004C   0xD009             BEQ      ??prvInitialiseNewTask_2
   \   0000004E   0x78F2             LDRB     R2,[R6, #+3]
   \   00000050   0x70CA             STRB     R2,[R1, #+3]
   \   00000052   0x78F2             LDRB     R2,[R6, #+3]
   \   00000054   0x2A00             CMP      R2,#+0
   \   00000056   0xD004             BEQ      ??prvInitialiseNewTask_2
    899          			{
    900          				break;
    901          			}
    902          			else
    903          			{
    904          				mtCOVERAGE_TEST_MARKER();
    905          			}
    906          		}
   \   00000058   0x1D00             ADDS     R0,R0,#+4
   \   0000005A   0x1D36             ADDS     R6,R6,#+4
   \   0000005C   0x1D09             ADDS     R1,R1,#+4
   \   0000005E   0x2810             CMP      R0,#+16
   \   00000060   0xD3E6             BCC      ??prvInitialiseNewTask_1
    907          
    908          		/* Ensure the name string is terminated in the case that the string length
    909          		was greater or equal to configMAX_TASK_NAME_LEN. */
    910          		pxNewTCB->pcTaskName[ configMAX_TASK_NAME_LEN - 1 ] = '\0';
   \                     ??prvInitialiseNewTask_2: (+1)
   \   00000062   0x73FD             STRB     R5,[R7, #+15]
   \   00000064   0xE000             B        ??prvInitialiseNewTask_3
    911          	}
    912          	else
    913          	{
    914          		/* The task has not been given a name, so just ensure there is a NULL
    915          		terminator when it is read out. */
    916          		pxNewTCB->pcTaskName[ 0 ] = 0x00;
   \                     ??prvInitialiseNewTask_0: (+1)
   \   00000066   0x703D             STRB     R5,[R7, #+0]
   \                     ??prvInitialiseNewTask_3: (+1)
   \   00000068   0x9E08             LDR      R6,[SP, #+32]
    917          	}
    918          
    919          	/* This is used as an array index so must ensure it's not too large.  First
    920          	remove the privilege bit if one is present. */
    921          	if( uxPriority >= ( UBaseType_t ) configMAX_PRIORITIES )
   \   0000006A   0x2E05             CMP      R6,#+5
   \   0000006C   0xD300             BCC      ??prvInitialiseNewTask_4
    922          	{
    923          		uxPriority = ( UBaseType_t ) configMAX_PRIORITIES - ( UBaseType_t ) 1U;
   \   0000006E   0x2604             MOVS     R6,#+4
    924          	}
    925          	else
    926          	{
    927          		mtCOVERAGE_TEST_MARKER();
    928          	}
    929          
    930          	pxNewTCB->uxPriority = uxPriority;
   \                     ??prvInitialiseNewTask_4: (+1)
   \   00000070   0x62E6             STR      R6,[R4, #+44]
    931          	#if ( configUSE_MUTEXES == 1 )
    932          	{
    933          		pxNewTCB->uxBasePriority = uxPriority;
   \   00000072   0x613E             STR      R6,[R7, #+16]
    934          		pxNewTCB->uxMutexesHeld = 0;
   \   00000074   0x617D             STR      R5,[R7, #+20]
    935          	}
    936          	#endif /* configUSE_MUTEXES */
    937          
    938          	vListInitialiseItem( &( pxNewTCB->xStateListItem ) );
   \   00000076   0x1D20             ADDS     R0,R4,#+4
   \   00000078   0x.... 0x....      BL       vListInitialiseItem
    939          	vListInitialiseItem( &( pxNewTCB->xEventListItem ) );
   \   0000007C   0x0020             MOVS     R0,R4
   \   0000007E   0x3018             ADDS     R0,R0,#+24
   \   00000080   0x.... 0x....      BL       vListInitialiseItem
    940          
    941          	/* Set the pxNewTCB as a link back from the ListItem_t.  This is so we can get
    942          	back to	the containing TCB from a generic item in a list. */
    943          	listSET_LIST_ITEM_OWNER( &( pxNewTCB->xStateListItem ), pxNewTCB );
   \   00000084   0x6124             STR      R4,[R4, #+16]
    944          
    945          	/* Event lists are always in priority order. */
    946          	listSET_LIST_ITEM_VALUE( &( pxNewTCB->xEventListItem ), ( TickType_t ) configMAX_PRIORITIES - ( TickType_t ) uxPriority ); /*lint !e961 MISRA exception as the casts are only redundant for some ports. */
   \   00000086   0x2005             MOVS     R0,#+5
   \   00000088   0x1B80             SUBS     R0,R0,R6
   \   0000008A   0x61A0             STR      R0,[R4, #+24]
    947          	listSET_LIST_ITEM_OWNER( &( pxNewTCB->xEventListItem ), pxNewTCB );
   \   0000008C   0x6264             STR      R4,[R4, #+36]
    948          
    949          	#if ( portCRITICAL_NESTING_IN_TCB == 1 )
    950          	{
    951          		pxNewTCB->uxCriticalNesting = ( UBaseType_t ) 0U;
    952          	}
    953          	#endif /* portCRITICAL_NESTING_IN_TCB */
    954          
    955          	#if ( configUSE_APPLICATION_TASK_TAG == 1 )
    956          	{
    957          		pxNewTCB->pxTaskTag = NULL;
    958          	}
    959          	#endif /* configUSE_APPLICATION_TASK_TAG */
    960          
    961          	#if ( configGENERATE_RUN_TIME_STATS == 1 )
    962          	{
    963          		pxNewTCB->ulRunTimeCounter = 0UL;
    964          	}
    965          	#endif /* configGENERATE_RUN_TIME_STATS */
    966          
    967          	#if ( portUSING_MPU_WRAPPERS == 1 )
    968          	{
    969          		vPortStoreTaskMPUSettings( &( pxNewTCB->xMPUSettings ), xRegions, pxNewTCB->pxStack, ulStackDepth );
    970          	}
    971          	#else
    972          	{
    973          		/* Avoid compiler warning about unreferenced parameter. */
    974          		( void ) xRegions;
    975          	}
    976          	#endif
    977          
    978          	#if( configNUM_THREAD_LOCAL_STORAGE_POINTERS != 0 )
    979          	{
    980          		for( x = 0; x < ( UBaseType_t ) configNUM_THREAD_LOCAL_STORAGE_POINTERS; x++ )
    981          		{
    982          			pxNewTCB->pvThreadLocalStoragePointers[ x ] = NULL;
    983          		}
    984          	}
    985          	#endif
    986          
    987          	#if ( configUSE_TASK_NOTIFICATIONS == 1 )
    988          	{
    989          		pxNewTCB->ulNotifiedValue = 0;
   \   0000008E   0x61BD             STR      R5,[R7, #+24]
    990          		pxNewTCB->ucNotifyState = taskNOT_WAITING_NOTIFICATION;
   \   00000090   0x773D             STRB     R5,[R7, #+28]
    991          	}
    992          	#endif
    993          
    994          	#if ( configUSE_NEWLIB_REENTRANT == 1 )
    995          	{
    996          		/* Initialise this task's Newlib reent structure. */
    997          		_REENT_INIT_PTR( ( &( pxNewTCB->xNewLib_reent ) ) );
    998          	}
    999          	#endif
   1000          
   1001          	#if( INCLUDE_xTaskAbortDelay == 1 )
   1002          	{
   1003          		pxNewTCB->ucDelayAborted = pdFALSE;
   1004          	}
   1005          	#endif
   1006          
   1007          	/* Initialize the TCB stack to look as if the task was already running,
   1008          	but had been interrupted by the scheduler.  The return address is set
   1009          	to the start of the task function. Once the stack has been initialised
   1010          	the top of stack variable is updated. */
   1011          	#if( portUSING_MPU_WRAPPERS == 1 )
   1012          	{
   1013          		/* If the port has capability to detect stack overflow,
   1014          		pass the stack end address to the stack initialization
   1015          		function as well. */
   1016          		#if( portHAS_STACK_OVERFLOW_CHECKING == 1 )
   1017          		{
   1018          			#if( portSTACK_GROWTH < 0 )
   1019          			{
   1020          				pxNewTCB->pxTopOfStack = pxPortInitialiseStack( pxTopOfStack, pxNewTCB->pxStack, pxTaskCode, pvParameters, xRunPrivileged );
   1021          			}
   1022          			#else /* portSTACK_GROWTH */
   1023          			{
   1024          				pxNewTCB->pxTopOfStack = pxPortInitialiseStack( pxTopOfStack, pxNewTCB->pxEndOfStack, pxTaskCode, pvParameters, xRunPrivileged );
   1025          			}
   1026          			#endif /* portSTACK_GROWTH */
   1027          		}
   1028          		#else /* portHAS_STACK_OVERFLOW_CHECKING */
   1029          		{
   1030          			pxNewTCB->pxTopOfStack = pxPortInitialiseStack( pxTopOfStack, pxTaskCode, pvParameters, xRunPrivileged );
   1031          		}
   1032          		#endif /* portHAS_STACK_OVERFLOW_CHECKING */
   1033          	}
   1034          	#else /* portUSING_MPU_WRAPPERS */
   1035          	{
   1036          		/* If the port has capability to detect stack overflow,
   1037          		pass the stack end address to the stack initialization
   1038          		function as well. */
   1039          		#if( portHAS_STACK_OVERFLOW_CHECKING == 1 )
   1040          		{
   1041          			#if( portSTACK_GROWTH < 0 )
   1042          			{
   1043          				pxNewTCB->pxTopOfStack = pxPortInitialiseStack( pxTopOfStack, pxNewTCB->pxStack, pxTaskCode, pvParameters );
   1044          			}
   1045          			#else /* portSTACK_GROWTH */
   1046          			{
   1047          				pxNewTCB->pxTopOfStack = pxPortInitialiseStack( pxTopOfStack, pxNewTCB->pxEndOfStack, pxTaskCode, pvParameters );
   1048          			}
   1049          			#endif /* portSTACK_GROWTH */
   1050          		}
   1051          		#else /* portHAS_STACK_OVERFLOW_CHECKING */
   1052          		{
   1053          			pxNewTCB->pxTopOfStack = pxPortInitialiseStack( pxTopOfStack, pxTaskCode, pvParameters );
   \   00000092   0x9A02             LDR      R2,[SP, #+8]
   \   00000094   0x9901             LDR      R1,[SP, #+4]
   \   00000096   0x9800             LDR      R0,[SP, #+0]
   \   00000098   0x.... 0x....      BL       pxPortInitialiseStack
   \   0000009C   0x6020             STR      R0,[R4, #+0]
   \   0000009E   0x9809             LDR      R0,[SP, #+36]
   1054          		}
   1055          		#endif /* portHAS_STACK_OVERFLOW_CHECKING */
   1056          	}
   1057          	#endif /* portUSING_MPU_WRAPPERS */
   1058          
   1059          	if( pxCreatedTask != NULL )
   \   000000A0   0x2800             CMP      R0,#+0
   \   000000A2   0xD000             BEQ      ??prvInitialiseNewTask_5
   1060          	{
   1061          		/* Pass the handle out in an anonymous way.  The handle can be used to
   1062          		change the created task's priority, delete the created task, etc.*/
   1063          		*pxCreatedTask = ( TaskHandle_t ) pxNewTCB;
   \   000000A4   0x6004             STR      R4,[R0, #+0]
   1064          	}
   1065          	else
   1066          	{
   1067          		mtCOVERAGE_TEST_MARKER();
   1068          	}
   1069          }
   \                     ??prvInitialiseNewTask_5: (+1)
   \   000000A6   0xB003             ADD      SP,SP,#+12
   \   000000A8   0xBDF0             POP      {R4-R7,PC}       ;; return
   1070          /*-----------------------------------------------------------*/
   1071          

   \                                 In section .text, align 2, keep-with-next
   1072          static void prvAddNewTaskToReadyList( TCB_t *pxNewTCB )
   1073          {
   \                     prvAddNewTaskToReadyList: (+1)
   \   00000000   0xB5F8             PUSH     {R3-R7,LR}
   \   00000002   0x0006             MOVS     R6,R0
   1074          	/* Ensure interrupts don't access the task lists while the lists are being
   1075          	updated. */
   1076          	taskENTER_CRITICAL();
   \   00000004   0x.... 0x....      BL       vPortEnterCritical
   1077          	{
   1078          		uxCurrentNumberOfTasks++;
   \   00000008   0x....             LDR      R4,??DataTable6
   \   0000000A   0x6BE0             LDR      R0,[R4, #+60]
   \   0000000C   0x1C40             ADDS     R0,R0,#+1
   \   0000000E   0x63E0             STR      R0,[R4, #+60]
   1079          		if( pxCurrentTCB == NULL )
   \   00000010   0x....             LDR      R5,??DataTable6_1
   \   00000012   0x6828             LDR      R0,[R5, #+0]
   \   00000014   0x2800             CMP      R0,#+0
   \   00000016   0xD12F             BNE      ??prvAddNewTaskToReadyList_0
   1080          		{
   1081          			/* There are no other tasks, or all the other tasks are in
   1082          			the suspended state - make this the current task. */
   1083          			pxCurrentTCB = pxNewTCB;
   \   00000018   0x602E             STR      R6,[R5, #+0]
   1084          
   1085          			if( uxCurrentNumberOfTasks == ( UBaseType_t ) 1 )
   \   0000001A   0x6BE0             LDR      R0,[R4, #+60]
   \   0000001C   0x2801             CMP      R0,#+1
   \   0000001E   0xD134             BNE      ??prvAddNewTaskToReadyList_1
   1086          			{
   1087          				/* This is the first task to be created so do the preliminary
   1088          				initialisation required.  We will not recover if this call
   1089          				fails, but we will report the failure. */
   1090          				prvInitialiseTaskLists();
   \   00000020   0x1D28             ADDS     R0,R5,#+4
   \   00000022   0x.... 0x....      BL       vListInitialise
   \   00000026   0x0028             MOVS     R0,R5
   \   00000028   0x3018             ADDS     R0,R0,#+24
   \   0000002A   0x.... 0x....      BL       vListInitialise
   \   0000002E   0x0028             MOVS     R0,R5
   \   00000030   0x302C             ADDS     R0,R0,#+44
   \   00000032   0x.... 0x....      BL       vListInitialise
   \   00000036   0x0028             MOVS     R0,R5
   \   00000038   0x3040             ADDS     R0,R0,#+64
   \   0000003A   0x.... 0x....      BL       vListInitialise
   \   0000003E   0x0028             MOVS     R0,R5
   \   00000040   0x3054             ADDS     R0,R0,#+84
   \   00000042   0x.... 0x....      BL       vListInitialise
   \   00000046   0x0028             MOVS     R0,R5
   \   00000048   0x3084             ADDS     R0,R0,#+132
   \   0000004A   0x9000             STR      R0,[SP, #+0]
   \   0000004C   0x.... 0x....      BL       vListInitialise
   \   00000050   0x002F             MOVS     R7,R5
   \   00000052   0x3798             ADDS     R7,R7,#+152
   \   00000054   0x0038             MOVS     R0,R7
   \   00000056   0x.... 0x....      BL       vListInitialise
   \   0000005A   0x0020             MOVS     R0,R4
   \   0000005C   0x.... 0x....      BL       vListInitialise
   \   00000060   0x0020             MOVS     R0,R4
   \   00000062   0x3014             ADDS     R0,R0,#+20
   \   00000064   0x.... 0x....      BL       vListInitialise
   \   00000068   0x0020             MOVS     R0,R4
   \   0000006A   0x3028             ADDS     R0,R0,#+40
   \   0000006C   0x.... 0x....      BL       vListInitialise
   \   00000070   0x9800             LDR      R0,[SP, #+0]
   \   00000072   0x66A8             STR      R0,[R5, #+104]
   \   00000074   0x66EF             STR      R7,[R5, #+108]
   1091          			}
   1092          			else
   1093          			{
   1094          				mtCOVERAGE_TEST_MARKER();
   1095          			}
   1096          		}
   \   00000076   0xE008             B        ??prvAddNewTaskToReadyList_1
   1097          		else
   1098          		{
   1099          			/* If the scheduler is not already running, make this task the
   1100          			current task if it is the highest priority task to be created
   1101          			so far. */
   1102          			if( xSchedulerRunning == pdFALSE )
   \                     ??prvAddNewTaskToReadyList_0: (+1)
   \   00000078   0x6C60             LDR      R0,[R4, #+68]
   \   0000007A   0x2800             CMP      R0,#+0
   \   0000007C   0xD105             BNE      ??prvAddNewTaskToReadyList_1
   1103          			{
   1104          				if( pxCurrentTCB->uxPriority <= pxNewTCB->uxPriority )
   \   0000007E   0x6AF0             LDR      R0,[R6, #+44]
   \   00000080   0x6829             LDR      R1,[R5, #+0]
   \   00000082   0x6AC9             LDR      R1,[R1, #+44]
   \   00000084   0x4288             CMP      R0,R1
   \   00000086   0xD300             BCC      ??prvAddNewTaskToReadyList_1
   1105          				{
   1106          					pxCurrentTCB = pxNewTCB;
   \   00000088   0x602E             STR      R6,[R5, #+0]
   1107          				}
   1108          				else
   1109          				{
   1110          					mtCOVERAGE_TEST_MARKER();
   1111          				}
   1112          			}
   1113          			else
   1114          			{
   1115          				mtCOVERAGE_TEST_MARKER();
   1116          			}
   1117          		}
   1118          
   1119          		uxTaskNumber++;
   \                     ??prvAddNewTaskToReadyList_1: (+1)
   \   0000008A   0x6D20             LDR      R0,[R4, #+80]
   \   0000008C   0x1C40             ADDS     R0,R0,#+1
   \   0000008E   0x6520             STR      R0,[R4, #+80]
   1120          
   1121          		#if ( configUSE_TRACE_FACILITY == 1 )
   1122          		{
   1123          			/* Add a counter into the TCB for tracing only. */
   1124          			pxNewTCB->uxTCBNumber = uxTaskNumber;
   1125          		}
   1126          		#endif /* configUSE_TRACE_FACILITY */
   1127          		traceTASK_CREATE( pxNewTCB );
   1128          
   1129          		prvAddTaskToReadyList( pxNewTCB );
   \   00000090   0x6AF0             LDR      R0,[R6, #+44]
   \   00000092   0x6F69             LDR      R1,[R5, #+116]
   \   00000094   0x4281             CMP      R1,R0
   \   00000096   0xD200             BCS      ??prvAddNewTaskToReadyList_2
   \   00000098   0x6768             STR      R0,[R5, #+116]
   \                     ??prvAddNewTaskToReadyList_2: (+1)
   \   0000009A   0x1D31             ADDS     R1,R6,#+4
   \   0000009C   0x6AF0             LDR      R0,[R6, #+44]
   \   0000009E   0x0082             LSLS     R2,R0,#+2
   \   000000A0   0x1810             ADDS     R0,R2,R0
   \   000000A2   0x0080             LSLS     R0,R0,#+2
   \   000000A4   0x1828             ADDS     R0,R5,R0
   \   000000A6   0x1D00             ADDS     R0,R0,#+4
   \   000000A8   0x.... 0x....      BL       vListInsertEnd
   1130          
   1131          		portSETUP_TCB( pxNewTCB );
   1132          	}
   1133          	taskEXIT_CRITICAL();
   \   000000AC   0x.... 0x....      BL       vPortExitCritical
   1134          
   1135          	if( xSchedulerRunning != pdFALSE )
   \   000000B0   0x6C60             LDR      R0,[R4, #+68]
   \   000000B2   0x2800             CMP      R0,#+0
   \   000000B4   0xD006             BEQ      ??prvAddNewTaskToReadyList_3
   1136          	{
   1137          		/* If the created task is of a higher priority than the current task
   1138          		then it should run now. */
   1139          		if( pxCurrentTCB->uxPriority < pxNewTCB->uxPriority )
   \   000000B6   0x6828             LDR      R0,[R5, #+0]
   \   000000B8   0x6AC0             LDR      R0,[R0, #+44]
   \   000000BA   0x6AF1             LDR      R1,[R6, #+44]
   \   000000BC   0x4288             CMP      R0,R1
   \   000000BE   0xD201             BCS      ??prvAddNewTaskToReadyList_3
   1140          		{
   1141          			taskYIELD_IF_USING_PREEMPTION();
   \   000000C0   0x.... 0x....      BL       vPortYield
   1142          		}
   1143          		else
   1144          		{
   1145          			mtCOVERAGE_TEST_MARKER();
   1146          		}
   1147          	}
   1148          	else
   1149          	{
   1150          		mtCOVERAGE_TEST_MARKER();
   1151          	}
   1152          }
   \                     ??prvAddNewTaskToReadyList_3: (+1)
   \   000000C4   0xBDF1             POP      {R0,R4-R7,PC}    ;; return
   1153          /*-----------------------------------------------------------*/
   1154          
   1155          #if ( INCLUDE_vTaskDelete == 1 )
   1156          

   \                                 In section .text, align 4, keep-with-next
   1157          	void vTaskDelete( TaskHandle_t xTaskToDelete )
   1158          	{
   \                     vTaskDelete: (+1)
   \   00000000   0xB570             PUSH     {R4-R6,LR}
   \   00000002   0x0005             MOVS     R5,R0
   1159          	TCB_t *pxTCB;
   1160          
   1161          		taskENTER_CRITICAL();
   \   00000004   0x.... 0x....      BL       vPortEnterCritical
   1162          		{
   1163          			/* If null is passed in here then it is the calling task that is
   1164          			being deleted. */
   1165          			pxTCB = prvGetTCBFromHandle( xTaskToDelete );
   \   00000008   0x....             LDR      R4,??DataTable6_1
   \   0000000A   0x2D00             CMP      R5,#+0
   \   0000000C   0xD100             BNE      ??vTaskDelete_0
   \   0000000E   0x6825             LDR      R5,[R4, #+0]
   1166          
   1167          			/* Remove task from the ready list. */
   1168          			if( uxListRemove( &( pxTCB->xStateListItem ) ) == ( UBaseType_t ) 0 )
   \                     ??vTaskDelete_0: (+1)
   \   00000010   0x1D28             ADDS     R0,R5,#+4
   \   00000012   0x.... 0x....      BL       uxListRemove
   1169          			{
   1170          				taskRESET_READY_PRIORITY( pxTCB->uxPriority );
   1171          			}
   1172          			else
   1173          			{
   1174          				mtCOVERAGE_TEST_MARKER();
   1175          			}
   1176          
   1177          			/* Is the task waiting on an event also? */
   1178          			if( listLIST_ITEM_CONTAINER( &( pxTCB->xEventListItem ) ) != NULL )
   \   00000016   0x6AA8             LDR      R0,[R5, #+40]
   \   00000018   0x2800             CMP      R0,#+0
   \   0000001A   0xD003             BEQ      ??vTaskDelete_1
   1179          			{
   1180          				( void ) uxListRemove( &( pxTCB->xEventListItem ) );
   \   0000001C   0x0028             MOVS     R0,R5
   \   0000001E   0x3018             ADDS     R0,R0,#+24
   \   00000020   0x.... 0x....      BL       uxListRemove
   1181          			}
   1182          			else
   1183          			{
   1184          				mtCOVERAGE_TEST_MARKER();
   1185          			}
   1186          
   1187          			/* Increment the uxTaskNumber also so kernel aware debuggers can
   1188          			detect that the task lists need re-generating.  This is done before
   1189          			portPRE_TASK_DELETE_HOOK() as in the Windows port that macro will
   1190          			not return. */
   1191          			uxTaskNumber++;
   \                     ??vTaskDelete_1: (+1)
   \   00000024   0x....             LDR      R6,??DataTable6
   \   00000026   0x6D30             LDR      R0,[R6, #+80]
   \   00000028   0x1C40             ADDS     R0,R0,#+1
   \   0000002A   0x6530             STR      R0,[R6, #+80]
   1192          
   1193          			if( pxTCB == pxCurrentTCB )
   \   0000002C   0x6820             LDR      R0,[R4, #+0]
   \   0000002E   0x4285             CMP      R5,R0
   \   00000030   0xD108             BNE      ??vTaskDelete_2
   1194          			{
   1195          				/* A task is deleting itself.  This cannot complete within the
   1196          				task itself, as a context switch to another task is required.
   1197          				Place the task in the termination list.  The idle task will
   1198          				check the termination list and free up any memory allocated by
   1199          				the scheduler for the TCB and stack of the deleted task. */
   1200          				vListInsertEnd( &xTasksWaitingTermination, &( pxTCB->xStateListItem ) );
   \   00000032   0x1D29             ADDS     R1,R5,#+4
   \   00000034   0x0030             MOVS     R0,R6
   \   00000036   0x3014             ADDS     R0,R0,#+20
   \   00000038   0x.... 0x....      BL       vListInsertEnd
   1201          
   1202          				/* Increment the ucTasksDeleted variable so the idle task knows
   1203          				there is a task that has been deleted and that it should therefore
   1204          				check the xTasksWaitingTermination list. */
   1205          				++uxDeletedTasksWaitingCleanUp;
   \   0000003C   0x6F20             LDR      R0,[R4, #+112]
   \   0000003E   0x1C40             ADDS     R0,R0,#+1
   \   00000040   0x6720             STR      R0,[R4, #+112]
   \   00000042   0xE014             B        ??vTaskDelete_3
   1206          
   1207          				/* The pre-delete hook is primarily for the Windows simulator,
   1208          				in which Windows specific clean up operations are performed,
   1209          				after which it is not possible to yield away from this task -
   1210          				hence xYieldPending is used to latch that a context switch is
   1211          				required. */
   1212          				portPRE_TASK_DELETE_HOOK( pxTCB, &xYieldPending );
   1213          			}
   1214          			else
   1215          			{
   1216          				--uxCurrentNumberOfTasks;
   \                     ??vTaskDelete_2: (+1)
   \   00000044   0x6BF0             LDR      R0,[R6, #+60]
   \   00000046   0x1E40             SUBS     R0,R0,#+1
   \   00000048   0x63F0             STR      R0,[R6, #+60]
   1217          				prvDeleteTCB( pxTCB );
   \   0000004A   0x6B28             LDR      R0,[R5, #+48]
   \   0000004C   0x.... 0x....      BL       vPortFree
   \   00000050   0x0028             MOVS     R0,R5
   \   00000052   0x.... 0x....      BL       vPortFree
   1218          
   1219          				/* Reset the next expected unblock time in case it referred to
   1220          				the task that has just been deleted. */
   1221          				prvResetNextTaskUnblockTime();
   \   00000056   0x6EA0             LDR      R0,[R4, #+104]
   \   00000058   0x6800             LDR      R0,[R0, #+0]
   \   0000005A   0x2800             CMP      R0,#+0
   \   0000005C   0xD102             BNE      ??vTaskDelete_4
   \   0000005E   0x2000             MOVS     R0,#+0
   \   00000060   0x43C0             MVNS     R0,R0            ;; #-1
   \   00000062   0xE003             B        ??vTaskDelete_5
   \                     ??vTaskDelete_4: (+1)
   \   00000064   0x6EA0             LDR      R0,[R4, #+104]
   \   00000066   0x68C0             LDR      R0,[R0, #+12]
   \   00000068   0x68C0             LDR      R0,[R0, #+12]
   \   0000006A   0x6840             LDR      R0,[R0, #+4]
   \                     ??vTaskDelete_5: (+1)
   \   0000006C   0x67E0             STR      R0,[R4, #+124]
   1222          			}
   1223          
   1224          			traceTASK_DELETE( pxTCB );
   1225          		}
   1226          		taskEXIT_CRITICAL();
   \                     ??vTaskDelete_3: (+1)
   \   0000006E   0x.... 0x....      BL       vPortExitCritical
   1227          
   1228          		/* Force a reschedule if it is the currently running task that has just
   1229          		been deleted. */
   1230          		if( xSchedulerRunning != pdFALSE )
   \   00000072   0x6C70             LDR      R0,[R6, #+68]
   \   00000074   0x2800             CMP      R0,#+0
   \   00000076   0xD00A             BEQ      ??vTaskDelete_6
   1231          		{
   1232          			if( pxTCB == pxCurrentTCB )
   \   00000078   0x6820             LDR      R0,[R4, #+0]
   \   0000007A   0x4285             CMP      R5,R0
   \   0000007C   0xD107             BNE      ??vTaskDelete_6
   1233          			{
   1234          				configASSERT( uxSchedulerSuspended == 0 );
   \   0000007E   0x3480             ADDS     R4,R4,#+128
   \   00000080   0x6820             LDR      R0,[R4, #+0]
   \   00000082   0x2800             CMP      R0,#+0
   \   00000084   0xD001             BEQ      ??vTaskDelete_7
   \   00000086   0xB672             cpsid i
   \                     ??vTaskDelete_8: (+1)
   \   00000088   0xE7FE             B        ??vTaskDelete_8
   1235          				portYIELD_WITHIN_API();
   \                     ??vTaskDelete_7: (+1)
   \   0000008A   0x.... 0x....      BL       vPortYield
   1236          			}
   1237          			else
   1238          			{
   1239          				mtCOVERAGE_TEST_MARKER();
   1240          			}
   1241          		}
   1242          	}
   \                     ??vTaskDelete_6: (+1)
   \   0000008E   0xBD70             POP      {R4-R6,PC}       ;; return
   1243          
   1244          #endif /* INCLUDE_vTaskDelete */
   1245          /*-----------------------------------------------------------*/
   1246          
   1247          #if ( INCLUDE_vTaskDelayUntil == 1 )
   1248          

   \                                 In section .text, align 4, keep-with-next
   1249          	void vTaskDelayUntil( TickType_t * const pxPreviousWakeTime, const TickType_t xTimeIncrement )
   1250          	{
   \                     vTaskDelayUntil: (+1)
   \   00000000   0xB5F8             PUSH     {R3-R7,LR}
   1251          	TickType_t xTimeToWake;
   1252          	BaseType_t xAlreadyYielded, xShouldDelay = pdFALSE;
   1253          
   1254          		configASSERT( pxPreviousWakeTime );
   \   00000002   0x2800             CMP      R0,#+0
   \   00000004   0xD101             BNE      ??vTaskDelayUntil_0
   \   00000006   0xB672             cpsid i
   \                     ??vTaskDelayUntil_1: (+1)
   \   00000008   0xE7FE             B        ??vTaskDelayUntil_1
   1255          		configASSERT( ( xTimeIncrement > 0U ) );
   \                     ??vTaskDelayUntil_0: (+1)
   \   0000000A   0x2900             CMP      R1,#+0
   \   0000000C   0xD101             BNE      ??vTaskDelayUntil_2
   \   0000000E   0xB672             cpsid i
   \                     ??vTaskDelayUntil_3: (+1)
   \   00000010   0xE7FE             B        ??vTaskDelayUntil_3
   1256          		configASSERT( uxSchedulerSuspended == 0 );
   \                     ??vTaskDelayUntil_2: (+1)
   \   00000012   0x....             LDR      R4,??DataTable6_1
   \   00000014   0x0022             MOVS     R2,R4
   \   00000016   0x3280             ADDS     R2,R2,#+128
   \   00000018   0x6813             LDR      R3,[R2, #+0]
   \   0000001A   0x2B00             CMP      R3,#+0
   \   0000001C   0xD001             BEQ      ??vTaskDelayUntil_4
   \   0000001E   0xB672             cpsid i
   \                     ??vTaskDelayUntil_5: (+1)
   \   00000020   0xE7FE             B        ??vTaskDelayUntil_5
   1257          
   1258          		vTaskSuspendAll();
   \                     ??vTaskDelayUntil_4: (+1)
   \   00000022   0x6813             LDR      R3,[R2, #+0]
   \   00000024   0x1C5B             ADDS     R3,R3,#+1
   \   00000026   0x6013             STR      R3,[R2, #+0]
   1259          		{
   1260          			/* Minor optimisation.  The tick count cannot change in this
   1261          			block. */
   1262          			const TickType_t xConstTickCount = xTickCount;
   \   00000028   0x....             LDR      R2,??DataTable6
   \   0000002A   0x6C15             LDR      R5,[R2, #+64]
   1263          
   1264          			/* Generate the tick time at which the task wants to wake. */
   1265          			xTimeToWake = *pxPreviousWakeTime + xTimeIncrement;
   \   0000002C   0x6803             LDR      R3,[R0, #+0]
   \   0000002E   0x185E             ADDS     R6,R3,R1
   1266          
   1267          			if( xConstTickCount < *pxPreviousWakeTime )
   \   00000030   0x429D             CMP      R5,R3
   \   00000032   0xD203             BCS      ??vTaskDelayUntil_6
   1268          			{
   1269          				/* The tick count has overflowed since this function was
   1270          				lasted called.  In this case the only time we should ever
   1271          				actually delay is if the wake time has also	overflowed,
   1272          				and the wake time is greater than the tick time.  When this
   1273          				is the case it is as if neither time had overflowed. */
   1274          				if( ( xTimeToWake < *pxPreviousWakeTime ) && ( xTimeToWake > xConstTickCount ) )
   \   00000034   0x429E             CMP      R6,R3
   \   00000036   0xD303             BCC      ??vTaskDelayUntil_7
   \                     ??vTaskDelayUntil_8: (+1)
   \   00000038   0x6006             STR      R6,[R0, #+0]
   \   0000003A   0xE01D             B        ??vTaskDelayUntil_9
   1275          				{
   1276          					xShouldDelay = pdTRUE;
   1277          				}
   1278          				else
   1279          				{
   1280          					mtCOVERAGE_TEST_MARKER();
   1281          				}
   1282          			}
   1283          			else
   1284          			{
   1285          				/* The tick time has not overflowed.  In this case we will
   1286          				delay if either the wake time has overflowed, and/or the
   1287          				tick time is less than the wake time. */
   1288          				if( ( xTimeToWake < *pxPreviousWakeTime ) || ( xTimeToWake > xConstTickCount ) )
   \                     ??vTaskDelayUntil_6: (+1)
   \   0000003C   0x429E             CMP      R6,R3
   \   0000003E   0xD301             BCC      ??vTaskDelayUntil_10
   \                     ??vTaskDelayUntil_7: (+1)
   \   00000040   0x42B5             CMP      R5,R6
   \   00000042   0xD2F9             BCS      ??vTaskDelayUntil_8
   1289          				{
   1290          					xShouldDelay = pdTRUE;
   \                     ??vTaskDelayUntil_10: (+1)
   \   00000044   0x6006             STR      R6,[R0, #+0]
   1291          				}
   1292          				else
   1293          				{
   1294          					mtCOVERAGE_TEST_MARKER();
   1295          				}
   1296          			}
   1297          
   1298          			/* Update the wake time ready for the next call. */
   1299          			*pxPreviousWakeTime = xTimeToWake;
   1300          
   1301          			if( xShouldDelay != pdFALSE )
   1302          			{
   1303          				traceTASK_DELAY_UNTIL( xTimeToWake );
   1304          
   1305          				/* prvAddCurrentTaskToDelayedList() needs the block time, not
   1306          				the time to wake, so subtract the current tick count. */
   1307          				prvAddCurrentTaskToDelayedList( xTimeToWake - xConstTickCount, pdFALSE );
   \   00000046   0x6C17             LDR      R7,[R2, #+64]
   \   00000048   0x6820             LDR      R0,[R4, #+0]
   \   0000004A   0x1D00             ADDS     R0,R0,#+4
   \   0000004C   0x.... 0x....      BL       uxListRemove
   \   00000050   0x19B8             ADDS     R0,R7,R6
   \   00000052   0x1B45             SUBS     R5,R0,R5
   \   00000054   0x6820             LDR      R0,[R4, #+0]
   \   00000056   0x6045             STR      R5,[R0, #+4]
   \   00000058   0x42BD             CMP      R5,R7
   \   0000005A   0x6821             LDR      R1,[R4, #+0]
   \   0000005C   0xD204             BCS      ??vTaskDelayUntil_11
   \   0000005E   0x1D09             ADDS     R1,R1,#+4
   \   00000060   0x6EE0             LDR      R0,[R4, #+108]
   \   00000062   0x.... 0x....      BL       vListInsert
   \   00000066   0xE007             B        ??vTaskDelayUntil_9
   \                     ??vTaskDelayUntil_11: (+1)
   \   00000068   0x1D09             ADDS     R1,R1,#+4
   \   0000006A   0x6EA0             LDR      R0,[R4, #+104]
   \   0000006C   0x.... 0x....      BL       vListInsert
   \   00000070   0x6FE0             LDR      R0,[R4, #+124]
   \   00000072   0x4285             CMP      R5,R0
   \   00000074   0xD200             BCS      ??vTaskDelayUntil_9
   \   00000076   0x67E5             STR      R5,[R4, #+124]
   1308          			}
   1309          			else
   1310          			{
   1311          				mtCOVERAGE_TEST_MARKER();
   1312          			}
   1313          		}
   1314          		xAlreadyYielded = xTaskResumeAll();
   1315          
   1316          		/* Force a reschedule if xTaskResumeAll has not already done so, we may
   1317          		have put ourselves to sleep. */
   1318          		if( xAlreadyYielded == pdFALSE )
   \                     ??vTaskDelayUntil_9: (+1)
   \   00000078   0x.... 0x....      BL       xTaskResumeAll
   \   0000007C   0x2800             CMP      R0,#+0
   \   0000007E   0xD101             BNE      ??vTaskDelayUntil_12
   1319          		{
   1320          			portYIELD_WITHIN_API();
   \   00000080   0x.... 0x....      BL       vPortYield
   1321          		}
   1322          		else
   1323          		{
   1324          			mtCOVERAGE_TEST_MARKER();
   1325          		}
   1326          	}
   \                     ??vTaskDelayUntil_12: (+1)
   \   00000084   0xBDF1             POP      {R0,R4-R7,PC}    ;; return
   1327          
   1328          #endif /* INCLUDE_vTaskDelayUntil */
   1329          /*-----------------------------------------------------------*/
   1330          
   1331          #if ( INCLUDE_vTaskDelay == 1 )
   1332          

   \                                 In section .text, align 4, keep-with-next
   1333          	void vTaskDelay( const TickType_t xTicksToDelay )
   1334          	{
   \                     vTaskDelay: (+1)
   \   00000000   0xB570             PUSH     {R4-R6,LR}
   \   00000002   0x0005             MOVS     R5,R0
   1335          	BaseType_t xAlreadyYielded = pdFALSE;
   1336          
   1337          		/* A delay time of zero just forces a reschedule. */
   1338          		if( xTicksToDelay > ( TickType_t ) 0U )
   \   00000004   0xD027             BEQ      ??vTaskDelay_0
   1339          		{
   1340          			configASSERT( uxSchedulerSuspended == 0 );
   \   00000006   0x....             LDR      R4,??DataTable6_1
   \   00000008   0x0020             MOVS     R0,R4
   \   0000000A   0x3080             ADDS     R0,R0,#+128
   \   0000000C   0x6801             LDR      R1,[R0, #+0]
   \   0000000E   0x2900             CMP      R1,#+0
   \   00000010   0xD001             BEQ      ??vTaskDelay_1
   \   00000012   0xB672             cpsid i
   \                     ??vTaskDelay_2: (+1)
   \   00000014   0xE7FE             B        ??vTaskDelay_2
   1341          			vTaskSuspendAll();
   \                     ??vTaskDelay_1: (+1)
   \   00000016   0x6801             LDR      R1,[R0, #+0]
   \   00000018   0x1C49             ADDS     R1,R1,#+1
   \   0000001A   0x6001             STR      R1,[R0, #+0]
   1342          			{
   1343          				traceTASK_DELAY();
   1344          
   1345          				/* A task that is removed from the event list while the
   1346          				scheduler is suspended will not get placed in the ready
   1347          				list or removed from the blocked list until the scheduler
   1348          				is resumed.
   1349          
   1350          				This task cannot be in an event list as it is the currently
   1351          				executing task. */
   1352          				prvAddCurrentTaskToDelayedList( xTicksToDelay, pdFALSE );
   \   0000001C   0x....             LDR      R0,??DataTable6
   \   0000001E   0x6C06             LDR      R6,[R0, #+64]
   \   00000020   0x6820             LDR      R0,[R4, #+0]
   \   00000022   0x1D00             ADDS     R0,R0,#+4
   \   00000024   0x.... 0x....      BL       uxListRemove
   \   00000028   0x1975             ADDS     R5,R6,R5
   \   0000002A   0x6820             LDR      R0,[R4, #+0]
   \   0000002C   0x6045             STR      R5,[R0, #+4]
   \   0000002E   0x42B5             CMP      R5,R6
   \   00000030   0x6821             LDR      R1,[R4, #+0]
   \   00000032   0xD204             BCS      ??vTaskDelay_3
   \   00000034   0x1D09             ADDS     R1,R1,#+4
   \   00000036   0x6EE0             LDR      R0,[R4, #+108]
   \   00000038   0x.... 0x....      BL       vListInsert
   \   0000003C   0xE007             B        ??vTaskDelay_4
   \                     ??vTaskDelay_3: (+1)
   \   0000003E   0x1D09             ADDS     R1,R1,#+4
   \   00000040   0x6EA0             LDR      R0,[R4, #+104]
   \   00000042   0x.... 0x....      BL       vListInsert
   \   00000046   0x6FE0             LDR      R0,[R4, #+124]
   \   00000048   0x4285             CMP      R5,R0
   \   0000004A   0xD200             BCS      ??vTaskDelay_4
   \   0000004C   0x67E5             STR      R5,[R4, #+124]
   1353          			}
   1354          			xAlreadyYielded = xTaskResumeAll();
   1355          		}
   1356          		else
   1357          		{
   1358          			mtCOVERAGE_TEST_MARKER();
   1359          		}
   1360          
   1361          		/* Force a reschedule if xTaskResumeAll has not already done so, we may
   1362          		have put ourselves to sleep. */
   1363          		if( xAlreadyYielded == pdFALSE )
   \                     ??vTaskDelay_4: (+1)
   \   0000004E   0x.... 0x....      BL       xTaskResumeAll
   \   00000052   0x2800             CMP      R0,#+0
   \   00000054   0xD101             BNE      ??vTaskDelay_5
   1364          		{
   1365          			portYIELD_WITHIN_API();
   \                     ??vTaskDelay_0: (+1)
   \   00000056   0x.... 0x....      BL       vPortYield
   1366          		}
   1367          		else
   1368          		{
   1369          			mtCOVERAGE_TEST_MARKER();
   1370          		}
   1371          	}
   \                     ??vTaskDelay_5: (+1)
   \   0000005A   0xBD70             POP      {R4-R6,PC}       ;; return
   1372          
   1373          #endif /* INCLUDE_vTaskDelay */
   1374          /*-----------------------------------------------------------*/
   1375          
   1376          #if( ( INCLUDE_eTaskGetState == 1 ) || ( configUSE_TRACE_FACILITY == 1 ) || ( INCLUDE_xTaskAbortDelay == 1 ) )
   1377          
   1378          	eTaskState eTaskGetState( TaskHandle_t xTask )
   1379          	{
   1380          	eTaskState eReturn;
   1381          	List_t const * pxStateList, *pxDelayedList, *pxOverflowedDelayedList;
   1382          	const TCB_t * const pxTCB = xTask;
   1383          
   1384          		configASSERT( pxTCB );
   1385          
   1386          		if( pxTCB == pxCurrentTCB )
   1387          		{
   1388          			/* The task calling this function is querying its own state. */
   1389          			eReturn = eRunning;
   1390          		}
   1391          		else
   1392          		{
   1393          			taskENTER_CRITICAL();
   1394          			{
   1395          				pxStateList = listLIST_ITEM_CONTAINER( &( pxTCB->xStateListItem ) );
   1396          				pxDelayedList = pxDelayedTaskList;
   1397          				pxOverflowedDelayedList = pxOverflowDelayedTaskList;
   1398          			}
   1399          			taskEXIT_CRITICAL();
   1400          
   1401          			if( ( pxStateList == pxDelayedList ) || ( pxStateList == pxOverflowedDelayedList ) )
   1402          			{
   1403          				/* The task being queried is referenced from one of the Blocked
   1404          				lists. */
   1405          				eReturn = eBlocked;
   1406          			}
   1407          
   1408          			#if ( INCLUDE_vTaskSuspend == 1 )
   1409          				else if( pxStateList == &xSuspendedTaskList )
   1410          				{
   1411          					/* The task being queried is referenced from the suspended
   1412          					list.  Is it genuinely suspended or is it blocked
   1413          					indefinitely? */
   1414          					if( listLIST_ITEM_CONTAINER( &( pxTCB->xEventListItem ) ) == NULL )
   1415          					{
   1416          						#if( configUSE_TASK_NOTIFICATIONS == 1 )
   1417          						{
   1418          							/* The task does not appear on the event list item of
   1419          							and of the RTOS objects, but could still be in the
   1420          							blocked state if it is waiting on its notification
   1421          							rather than waiting on an object. */
   1422          							if( pxTCB->ucNotifyState == taskWAITING_NOTIFICATION )
   1423          							{
   1424          								eReturn = eBlocked;
   1425          							}
   1426          							else
   1427          							{
   1428          								eReturn = eSuspended;
   1429          							}
   1430          						}
   1431          						#else
   1432          						{
   1433          							eReturn = eSuspended;
   1434          						}
   1435          						#endif
   1436          					}
   1437          					else
   1438          					{
   1439          						eReturn = eBlocked;
   1440          					}
   1441          				}
   1442          			#endif
   1443          
   1444          			#if ( INCLUDE_vTaskDelete == 1 )
   1445          				else if( ( pxStateList == &xTasksWaitingTermination ) || ( pxStateList == NULL ) )
   1446          				{
   1447          					/* The task being queried is referenced from the deleted
   1448          					tasks list, or it is not referenced from any lists at
   1449          					all. */
   1450          					eReturn = eDeleted;
   1451          				}
   1452          			#endif
   1453          
   1454          			else /*lint !e525 Negative indentation is intended to make use of pre-processor clearer. */
   1455          			{
   1456          				/* If the task is not in any other state, it must be in the
   1457          				Ready (including pending ready) state. */
   1458          				eReturn = eReady;
   1459          			}
   1460          		}
   1461          
   1462          		return eReturn;
   1463          	} /*lint !e818 xTask cannot be a pointer to const because it is a typedef. */
   1464          
   1465          #endif /* INCLUDE_eTaskGetState */
   1466          /*-----------------------------------------------------------*/
   1467          
   1468          #if ( INCLUDE_uxTaskPriorityGet == 1 )
   1469          

   \                                 In section .text, align 2, keep-with-next
   1470          	UBaseType_t uxTaskPriorityGet( const TaskHandle_t xTask )
   1471          	{
   \                     uxTaskPriorityGet: (+1)
   \   00000000   0xB510             PUSH     {R4,LR}
   \   00000002   0x0004             MOVS     R4,R0
   1472          	TCB_t const *pxTCB;
   1473          	UBaseType_t uxReturn;
   1474          
   1475          		taskENTER_CRITICAL();
   \   00000004   0x.... 0x....      BL       vPortEnterCritical
   1476          		{
   1477          			/* If null is passed in here then it is the priority of the task
   1478          			that called uxTaskPriorityGet() that is being queried. */
   1479          			pxTCB = prvGetTCBFromHandle( xTask );
   \   00000008   0x2C00             CMP      R4,#+0
   \   0000000A   0xD101             BNE      ??uxTaskPriorityGet_0
   \   0000000C   0x....             LDR      R0,??DataTable7
   \   0000000E   0x6804             LDR      R4,[R0, #+0]
   1480          			uxReturn = pxTCB->uxPriority;
   \                     ??uxTaskPriorityGet_0: (+1)
   \   00000010   0x6AE4             LDR      R4,[R4, #+44]
   1481          		}
   1482          		taskEXIT_CRITICAL();
   \   00000012   0x.... 0x....      BL       vPortExitCritical
   1483          
   1484          		return uxReturn;
   \   00000016   0x0020             MOVS     R0,R4
   \   00000018   0xBD10             POP      {R4,PC}          ;; return
   1485          	}
   1486          
   1487          #endif /* INCLUDE_uxTaskPriorityGet */
   1488          /*-----------------------------------------------------------*/
   1489          
   1490          #if ( INCLUDE_uxTaskPriorityGet == 1 )
   1491          

   \                                 In section .text, align 2, keep-with-next
   1492          	UBaseType_t uxTaskPriorityGetFromISR( const TaskHandle_t xTask )
   1493          	{
   \                     uxTaskPriorityGetFromISR: (+1)
   \   00000000   0xB510             PUSH     {R4,LR}
   \   00000002   0x0004             MOVS     R4,R0
   1494          	TCB_t const *pxTCB;
   1495          	UBaseType_t uxReturn, uxSavedInterruptState;
   1496          
   1497          		/* RTOS ports that support interrupt nesting have the concept of a
   1498          		maximum	system call (or maximum API call) interrupt priority.
   1499          		Interrupts that are	above the maximum system call priority are keep
   1500          		permanently enabled, even when the RTOS kernel is in a critical section,
   1501          		but cannot make any calls to FreeRTOS API functions.  If configASSERT()
   1502          		is defined in FreeRTOSConfig.h then
   1503          		portASSERT_IF_INTERRUPT_PRIORITY_INVALID() will result in an assertion
   1504          		failure if a FreeRTOS API function is called from an interrupt that has
   1505          		been assigned a priority above the configured maximum system call
   1506          		priority.  Only FreeRTOS functions that end in FromISR can be called
   1507          		from interrupts	that have been assigned a priority at or (logically)
   1508          		below the maximum system call interrupt priority.  FreeRTOS maintains a
   1509          		separate interrupt safe API to ensure interrupt entry is as fast and as
   1510          		simple as possible.  More information (albeit Cortex-M specific) is
   1511          		provided on the following link:
   1512          		https://www.freertos.org/RTOS-Cortex-M3-M4.html */
   1513          		portASSERT_IF_INTERRUPT_PRIORITY_INVALID();
   1514          
   1515          		uxSavedInterruptState = portSET_INTERRUPT_MASK_FROM_ISR();
   \   00000004   0x.... 0x....      BL       ulSetInterruptMaskFromISR
   1516          		{
   1517          			/* If null is passed in here then it is the priority of the calling
   1518          			task that is being queried. */
   1519          			pxTCB = prvGetTCBFromHandle( xTask );
   \   00000008   0x2C00             CMP      R4,#+0
   \   0000000A   0xD101             BNE      ??uxTaskPriorityGetFromISR_0
   \   0000000C   0x....             LDR      R1,??DataTable7
   \   0000000E   0x680C             LDR      R4,[R1, #+0]
   1520          			uxReturn = pxTCB->uxPriority;
   \                     ??uxTaskPriorityGetFromISR_0: (+1)
   \   00000010   0x6AE4             LDR      R4,[R4, #+44]
   1521          		}
   1522          		portCLEAR_INTERRUPT_MASK_FROM_ISR( uxSavedInterruptState );
   \   00000012   0x.... 0x....      BL       vClearInterruptMaskFromISR
   1523          
   1524          		return uxReturn;
   \   00000016   0x0020             MOVS     R0,R4
   \   00000018   0xBD10             POP      {R4,PC}          ;; return
   1525          	}
   1526          
   1527          #endif /* INCLUDE_uxTaskPriorityGet */
   1528          /*-----------------------------------------------------------*/
   1529          
   1530          #if ( INCLUDE_vTaskPrioritySet == 1 )
   1531          

   \                                 In section .text, align 4, keep-with-next
   1532          	void vTaskPrioritySet( TaskHandle_t xTask, UBaseType_t uxNewPriority )
   1533          	{
   \                     vTaskPrioritySet: (+1)
   \   00000000   0xB5F8             PUSH     {R3-R7,LR}
   \   00000002   0x0005             MOVS     R5,R0
   \   00000004   0x000F             MOVS     R7,R1
   1534          	TCB_t *pxTCB;
   1535          	UBaseType_t uxCurrentBasePriority, uxPriorityUsedOnEntry;
   1536          	BaseType_t xYieldRequired = pdFALSE;
   \   00000006   0x2400             MOVS     R4,#+0
   1537          
   1538          		configASSERT( ( uxNewPriority < configMAX_PRIORITIES ) );
   \   00000008   0x2F05             CMP      R7,#+5
   \   0000000A   0xD301             BCC      ??vTaskPrioritySet_0
   \   0000000C   0xB672             cpsid i
   \                     ??vTaskPrioritySet_1: (+1)
   \   0000000E   0xE7FE             B        ??vTaskPrioritySet_1
   1539          
   1540          		/* Ensure the new priority is valid. */
   1541          		if( uxNewPriority >= ( UBaseType_t ) configMAX_PRIORITIES )
   1542          		{
   1543          			uxNewPriority = ( UBaseType_t ) configMAX_PRIORITIES - ( UBaseType_t ) 1U;
   1544          		}
   1545          		else
   1546          		{
   1547          			mtCOVERAGE_TEST_MARKER();
   1548          		}
   1549          
   1550          		taskENTER_CRITICAL();
   \                     ??vTaskPrioritySet_0: (+1)
   \   00000010   0x.... 0x....      BL       vPortEnterCritical
   1551          		{
   1552          			/* If null is passed in here then it is the priority of the calling
   1553          			task that is being changed. */
   1554          			pxTCB = prvGetTCBFromHandle( xTask );
   \   00000014   0x....             LDR      R6,??DataTable7
   \   00000016   0x2D00             CMP      R5,#+0
   \   00000018   0xD100             BNE      ??vTaskPrioritySet_2
   \   0000001A   0x6835             LDR      R5,[R6, #+0]
   1555          
   1556          			traceTASK_PRIORITY_SET( pxTCB, uxNewPriority );
   1557          
   1558          			#if ( configUSE_MUTEXES == 1 )
   1559          			{
   1560          				uxCurrentBasePriority = pxTCB->uxBasePriority;
   \                     ??vTaskPrioritySet_2: (+1)
   \   0000001C   0x6C68             LDR      R0,[R5, #+68]
   1561          			}
   1562          			#else
   1563          			{
   1564          				uxCurrentBasePriority = pxTCB->uxPriority;
   1565          			}
   1566          			#endif
   1567          
   1568          			if( uxCurrentBasePriority != uxNewPriority )
   \   0000001E   0x42B8             CMP      R0,R7
   \   00000020   0xD033             BEQ      ??vTaskPrioritySet_3
   1569          			{
   1570          				/* The priority change may have readied a task of higher
   1571          				priority than the calling task. */
   1572          				if( uxNewPriority > uxCurrentBasePriority )
   \   00000022   0x6831             LDR      R1,[R6, #+0]
   \   00000024   0xD206             BCS      ??vTaskPrioritySet_4
   1573          				{
   1574          					if( pxTCB != pxCurrentTCB )
   \   00000026   0x428D             CMP      R5,R1
   \   00000028   0xD007             BEQ      ??vTaskPrioritySet_5
   1575          					{
   1576          						/* The priority of a task other than the currently
   1577          						running task is being raised.  Is the priority being
   1578          						raised above that of the running task? */
   1579          						if( uxNewPriority >= pxCurrentTCB->uxPriority )
   \   0000002A   0x6831             LDR      R1,[R6, #+0]
   \   0000002C   0x6AC9             LDR      R1,[R1, #+44]
   \   0000002E   0x428F             CMP      R7,R1
   \   00000030   0xD303             BCC      ??vTaskPrioritySet_5
   1580          						{
   1581          							xYieldRequired = pdTRUE;
   \   00000032   0xE001             B        ??vTaskPrioritySet_6
   1582          						}
   1583          						else
   1584          						{
   1585          							mtCOVERAGE_TEST_MARKER();
   1586          						}
   1587          					}
   1588          					else
   1589          					{
   1590          						/* The priority of the running task is being raised,
   1591          						but the running task must already be the highest
   1592          						priority task able to run so no yield is required. */
   1593          					}
   1594          				}
   1595          				else if( pxTCB == pxCurrentTCB )
   \                     ??vTaskPrioritySet_4: (+1)
   \   00000034   0x428D             CMP      R5,R1
   \   00000036   0xD100             BNE      ??vTaskPrioritySet_5
   1596          				{
   1597          					/* Setting the priority of the running task down means
   1598          					there may now be another task of higher priority that
   1599          					is ready to execute. */
   1600          					xYieldRequired = pdTRUE;
   \                     ??vTaskPrioritySet_6: (+1)
   \   00000038   0x2401             MOVS     R4,#+1
   1601          				}
   1602          				else
   1603          				{
   1604          					/* Setting the priority of any other task down does not
   1605          					require a yield as the running task must be above the
   1606          					new priority of the task being modified. */
   1607          				}
   1608          
   1609          				/* Remember the ready list the task might be referenced from
   1610          				before its uxPriority member is changed so the
   1611          				taskRESET_READY_PRIORITY() macro can function correctly. */
   1612          				uxPriorityUsedOnEntry = pxTCB->uxPriority;
   \                     ??vTaskPrioritySet_5: (+1)
   \   0000003A   0x6AE9             LDR      R1,[R5, #+44]
   1613          
   1614          				#if ( configUSE_MUTEXES == 1 )
   1615          				{
   1616          					/* Only change the priority being used if the task is not
   1617          					currently using an inherited priority. */
   1618          					if( pxTCB->uxBasePriority == pxTCB->uxPriority )
   \   0000003C   0x4288             CMP      R0,R1
   \   0000003E   0xD100             BNE      ??vTaskPrioritySet_7
   1619          					{
   1620          						pxTCB->uxPriority = uxNewPriority;
   \   00000040   0x62EF             STR      R7,[R5, #+44]
   1621          					}
   1622          					else
   1623          					{
   1624          						mtCOVERAGE_TEST_MARKER();
   1625          					}
   1626          
   1627          					/* The base priority gets set whatever. */
   1628          					pxTCB->uxBasePriority = uxNewPriority;
   \                     ??vTaskPrioritySet_7: (+1)
   \   00000042   0x646F             STR      R7,[R5, #+68]
   1629          				}
   1630          				#else
   1631          				{
   1632          					pxTCB->uxPriority = uxNewPriority;
   1633          				}
   1634          				#endif
   1635          
   1636          				/* Only reset the event list item value if the value is not
   1637          				being used for anything else. */
   1638          				if( ( listGET_LIST_ITEM_VALUE( &( pxTCB->xEventListItem ) ) & taskEVENT_LIST_ITEM_VALUE_IN_USE ) == 0UL )
   \   00000044   0x69A8             LDR      R0,[R5, #+24]
   \   00000046   0x2800             CMP      R0,#+0
   \   00000048   0xD402             BMI      ??vTaskPrioritySet_8
   1639          				{
   1640          					listSET_LIST_ITEM_VALUE( &( pxTCB->xEventListItem ), ( ( TickType_t ) configMAX_PRIORITIES - ( TickType_t ) uxNewPriority ) ); /*lint !e961 MISRA exception as the casts are only redundant for some ports. */
   \   0000004A   0x2005             MOVS     R0,#+5
   \   0000004C   0x1BC0             SUBS     R0,R0,R7
   \   0000004E   0x61A8             STR      R0,[R5, #+24]
   1641          				}
   1642          				else
   1643          				{
   1644          					mtCOVERAGE_TEST_MARKER();
   1645          				}
   1646          
   1647          				/* If the task is in the blocked or suspended list we need do
   1648          				nothing more than change its priority variable. However, if
   1649          				the task is in a ready list it needs to be removed and placed
   1650          				in the list appropriate to its new priority. */
   1651          				if( listIS_CONTAINED_WITHIN( &( pxReadyTasksLists[ uxPriorityUsedOnEntry ] ), &( pxTCB->xStateListItem ) ) != pdFALSE )
   \                     ??vTaskPrioritySet_8: (+1)
   \   00000050   0x6968             LDR      R0,[R5, #+20]
   \   00000052   0x008A             LSLS     R2,R1,#+2
   \   00000054   0x1851             ADDS     R1,R2,R1
   \   00000056   0x0089             LSLS     R1,R1,#+2
   \   00000058   0x1871             ADDS     R1,R6,R1
   \   0000005A   0x1D09             ADDS     R1,R1,#+4
   \   0000005C   0x4288             CMP      R0,R1
   \   0000005E   0xD110             BNE      ??vTaskPrioritySet_9
   1652          				{
   1653          					/* The task is currently in its ready list - remove before
   1654          					adding it to it's new ready list.  As we are in a critical
   1655          					section we can do this even if the scheduler is suspended. */
   1656          					if( uxListRemove( &( pxTCB->xStateListItem ) ) == ( UBaseType_t ) 0 )
   \   00000060   0x1D28             ADDS     R0,R5,#+4
   \   00000062   0x.... 0x....      BL       uxListRemove
   1657          					{
   1658          						/* It is known that the task is in its ready list so
   1659          						there is no need to check again and the port level
   1660          						reset macro can be called directly. */
   1661          						portRESET_READY_PRIORITY( uxPriorityUsedOnEntry, uxTopReadyPriority );
   1662          					}
   1663          					else
   1664          					{
   1665          						mtCOVERAGE_TEST_MARKER();
   1666          					}
   1667          					prvAddTaskToReadyList( pxTCB );
   \   00000066   0x6AE8             LDR      R0,[R5, #+44]
   \   00000068   0x6F71             LDR      R1,[R6, #+116]
   \   0000006A   0x4281             CMP      R1,R0
   \   0000006C   0xD200             BCS      ??vTaskPrioritySet_10
   \   0000006E   0x6770             STR      R0,[R6, #+116]
   \                     ??vTaskPrioritySet_10: (+1)
   \   00000070   0x1D29             ADDS     R1,R5,#+4
   \   00000072   0x6AE8             LDR      R0,[R5, #+44]
   \   00000074   0x0082             LSLS     R2,R0,#+2
   \   00000076   0x1810             ADDS     R0,R2,R0
   \   00000078   0x0080             LSLS     R0,R0,#+2
   \   0000007A   0x1830             ADDS     R0,R6,R0
   \   0000007C   0x1D00             ADDS     R0,R0,#+4
   \   0000007E   0x.... 0x....      BL       vListInsertEnd
   1668          				}
   1669          				else
   1670          				{
   1671          					mtCOVERAGE_TEST_MARKER();
   1672          				}
   1673          
   1674          				if( xYieldRequired != pdFALSE )
   \                     ??vTaskPrioritySet_9: (+1)
   \   00000082   0x2C00             CMP      R4,#+0
   \   00000084   0xD001             BEQ      ??vTaskPrioritySet_3
   1675          				{
   1676          					taskYIELD_IF_USING_PREEMPTION();
   \   00000086   0x.... 0x....      BL       vPortYield
   1677          				}
   1678          				else
   1679          				{
   1680          					mtCOVERAGE_TEST_MARKER();
   1681          				}
   1682          
   1683          				/* Remove compiler warning about unused variables when the port
   1684          				optimised task selection is not being used. */
   1685          				( void ) uxPriorityUsedOnEntry;
   1686          			}
   1687          		}
   1688          		taskEXIT_CRITICAL();
   \                     ??vTaskPrioritySet_3: (+1)
   \   0000008A   0x.... 0x....      BL       vPortExitCritical
   1689          	}
   \   0000008E   0xBDF1             POP      {R0,R4-R7,PC}    ;; return
   1690          
   1691          #endif /* INCLUDE_vTaskPrioritySet */
   1692          /*-----------------------------------------------------------*/
   1693          
   1694          #if ( INCLUDE_vTaskSuspend == 1 )
   1695          

   \                                 In section .text, align 4, keep-with-next
   1696          	void vTaskSuspend( TaskHandle_t xTaskToSuspend )
   1697          	{
   \                     vTaskSuspend: (+1)
   \   00000000   0xB570             PUSH     {R4-R6,LR}
   \   00000002   0x0005             MOVS     R5,R0
   1698          	TCB_t *pxTCB;
   1699          
   1700          		taskENTER_CRITICAL();
   \   00000004   0x.... 0x....      BL       vPortEnterCritical
   1701          		{
   1702          			/* If null is passed in here then it is the running task that is
   1703          			being suspended. */
   1704          			pxTCB = prvGetTCBFromHandle( xTaskToSuspend );
   \   00000008   0x....             LDR      R4,??DataTable15
   \   0000000A   0x2D00             CMP      R5,#+0
   \   0000000C   0xD100             BNE      ??vTaskSuspend_0
   \   0000000E   0x6825             LDR      R5,[R4, #+0]
   1705          
   1706          			traceTASK_SUSPEND( pxTCB );
   1707          
   1708          			/* Remove task from the ready/delayed list and place in the
   1709          			suspended list. */
   1710          			if( uxListRemove( &( pxTCB->xStateListItem ) ) == ( UBaseType_t ) 0 )
   \                     ??vTaskSuspend_0: (+1)
   \   00000010   0x1D28             ADDS     R0,R5,#+4
   \   00000012   0x.... 0x....      BL       uxListRemove
   1711          			{
   1712          				taskRESET_READY_PRIORITY( pxTCB->uxPriority );
   1713          			}
   1714          			else
   1715          			{
   1716          				mtCOVERAGE_TEST_MARKER();
   1717          			}
   1718          
   1719          			/* Is the task waiting on an event also? */
   1720          			if( listLIST_ITEM_CONTAINER( &( pxTCB->xEventListItem ) ) != NULL )
   \   00000016   0x6AA8             LDR      R0,[R5, #+40]
   \   00000018   0x2800             CMP      R0,#+0
   \   0000001A   0xD003             BEQ      ??vTaskSuspend_1
   1721          			{
   1722          				( void ) uxListRemove( &( pxTCB->xEventListItem ) );
   \   0000001C   0x0028             MOVS     R0,R5
   \   0000001E   0x3018             ADDS     R0,R0,#+24
   \   00000020   0x.... 0x....      BL       uxListRemove
   1723          			}
   1724          			else
   1725          			{
   1726          				mtCOVERAGE_TEST_MARKER();
   1727          			}
   1728          
   1729          			vListInsertEnd( &xSuspendedTaskList, &( pxTCB->xStateListItem ) );
   \                     ??vTaskSuspend_1: (+1)
   \   00000024   0x....             LDR      R6,??DataTable18
   \   00000026   0x1D29             ADDS     R1,R5,#+4
   \   00000028   0x0030             MOVS     R0,R6
   \   0000002A   0x3028             ADDS     R0,R0,#+40
   \   0000002C   0x.... 0x....      BL       vListInsertEnd
   1730          
   1731          			#if( configUSE_TASK_NOTIFICATIONS == 1 )
   1732          			{
   1733          				if( pxTCB->ucNotifyState == taskWAITING_NOTIFICATION )
   \   00000030   0x2050             MOVS     R0,#+80
   \   00000032   0x5C28             LDRB     R0,[R5, R0]
   \   00000034   0x2801             CMP      R0,#+1
   \   00000036   0xD102             BNE      ??vTaskSuspend_2
   1734          				{
   1735          					/* The task was blocked to wait for a notification, but is
   1736          					now suspended, so no notification was received. */
   1737          					pxTCB->ucNotifyState = taskNOT_WAITING_NOTIFICATION;
   \   00000038   0x2000             MOVS     R0,#+0
   \   0000003A   0x2150             MOVS     R1,#+80
   \   0000003C   0x5468             STRB     R0,[R5, R1]
   1738          				}
   1739          			}
   1740          			#endif
   1741          		}
   1742          		taskEXIT_CRITICAL();
   \                     ??vTaskSuspend_2: (+1)
   \   0000003E   0x.... 0x....      BL       vPortExitCritical
   1743          
   1744          		if( xSchedulerRunning != pdFALSE )
   \   00000042   0x6C70             LDR      R0,[R6, #+68]
   \   00000044   0x2800             CMP      R0,#+0
   \   00000046   0xD00F             BEQ      ??vTaskSuspend_3
   1745          		{
   1746          			/* Reset the next expected unblock time in case it referred to the
   1747          			task that is now in the Suspended state. */
   1748          			taskENTER_CRITICAL();
   \   00000048   0x.... 0x....      BL       vPortEnterCritical
   1749          			{
   1750          				prvResetNextTaskUnblockTime();
   \   0000004C   0x6EA0             LDR      R0,[R4, #+104]
   \   0000004E   0x6800             LDR      R0,[R0, #+0]
   \   00000050   0x2800             CMP      R0,#+0
   \   00000052   0xD102             BNE      ??vTaskSuspend_4
   \   00000054   0x2000             MOVS     R0,#+0
   \   00000056   0x43C0             MVNS     R0,R0            ;; #-1
   \   00000058   0xE003             B        ??vTaskSuspend_5
   \                     ??vTaskSuspend_4: (+1)
   \   0000005A   0x6EA0             LDR      R0,[R4, #+104]
   \   0000005C   0x68C0             LDR      R0,[R0, #+12]
   \   0000005E   0x68C0             LDR      R0,[R0, #+12]
   \   00000060   0x6840             LDR      R0,[R0, #+4]
   \                     ??vTaskSuspend_5: (+1)
   \   00000062   0x67E0             STR      R0,[R4, #+124]
   1751          			}
   1752          			taskEXIT_CRITICAL();
   \   00000064   0x.... 0x....      BL       vPortExitCritical
   1753          		}
   1754          		else
   1755          		{
   1756          			mtCOVERAGE_TEST_MARKER();
   1757          		}
   1758          
   1759          		if( pxTCB == pxCurrentTCB )
   \                     ??vTaskSuspend_3: (+1)
   \   00000068   0x6820             LDR      R0,[R4, #+0]
   \   0000006A   0x4285             CMP      R5,R0
   \   0000006C   0xD114             BNE      ??vTaskSuspend_6
   1760          		{
   1761          			if( xSchedulerRunning != pdFALSE )
   \   0000006E   0x6C70             LDR      R0,[R6, #+68]
   \   00000070   0x2800             CMP      R0,#+0
   \   00000072   0xD008             BEQ      ??vTaskSuspend_7
   1762          			{
   1763          				/* The current task has just been suspended. */
   1764          				configASSERT( uxSchedulerSuspended == 0 );
   \   00000074   0x3480             ADDS     R4,R4,#+128
   \   00000076   0x6820             LDR      R0,[R4, #+0]
   \   00000078   0x2800             CMP      R0,#+0
   \   0000007A   0xD001             BEQ      ??vTaskSuspend_8
   \   0000007C   0xB672             cpsid i
   \                     ??vTaskSuspend_9: (+1)
   \   0000007E   0xE7FE             B        ??vTaskSuspend_9
   1765          				portYIELD_WITHIN_API();
   \                     ??vTaskSuspend_8: (+1)
   \   00000080   0x.... 0x....      BL       vPortYield
   \   00000084   0xBD70             POP      {R4-R6,PC}
   1766          			}
   1767          			else
   1768          			{
   1769          				/* The scheduler is not running, but the task that was pointed
   1770          				to by pxCurrentTCB has just been suspended and pxCurrentTCB
   1771          				must be adjusted to point to a different task. */
   1772          				if( listCURRENT_LIST_LENGTH( &xSuspendedTaskList ) == uxCurrentNumberOfTasks ) /*lint !e931 Right has no side effect, just volatile. */
   \                     ??vTaskSuspend_7: (+1)
   \   00000086   0x6AB0             LDR      R0,[R6, #+40]
   \   00000088   0x6BF1             LDR      R1,[R6, #+60]
   \   0000008A   0x4288             CMP      R0,R1
   \   0000008C   0xD102             BNE      ??vTaskSuspend_10
   1773          				{
   1774          					/* No other tasks are ready, so set pxCurrentTCB back to
   1775          					NULL so when the next task is created pxCurrentTCB will
   1776          					be set to point to it no matter what its relative priority
   1777          					is. */
   1778          					pxCurrentTCB = NULL;
   \   0000008E   0x2000             MOVS     R0,#+0
   \   00000090   0x6020             STR      R0,[R4, #+0]
   \   00000092   0xBD70             POP      {R4-R6,PC}
   1779          				}
   1780          				else
   1781          				{
   1782          					vTaskSwitchContext();
   \                     ??vTaskSuspend_10: (+1)
   \   00000094   0x.... 0x....      BL       vTaskSwitchContext
   1783          				}
   1784          			}
   1785          		}
   1786          		else
   1787          		{
   1788          			mtCOVERAGE_TEST_MARKER();
   1789          		}
   1790          	}
   \                     ??vTaskSuspend_6: (+1)
   \   00000098   0xBD70             POP      {R4-R6,PC}       ;; return
   1791          
   1792          #endif /* INCLUDE_vTaskSuspend */
   1793          /*-----------------------------------------------------------*/
   1794          
   1795          #if ( INCLUDE_vTaskSuspend == 1 )
   1796          

   \                                 In section .text, align 4, keep-with-next
   1797          	static BaseType_t prvTaskIsTaskSuspended( const TaskHandle_t xTask )
   1798          	{
   \                     prvTaskIsTaskSuspended: (+1)
   \   00000000   0xB410             PUSH     {R4}
   \   00000002   0x0002             MOVS     R2,R0
   1799          	BaseType_t xReturn = pdFALSE;
   \   00000004   0x2100             MOVS     R1,#+0
   1800          	const TCB_t * const pxTCB = xTask;
   1801          
   1802          		/* Accesses xPendingReadyList so must be called from a critical
   1803          		section. */
   1804          
   1805          		/* It does not make sense to check if the calling task is suspended. */
   1806          		configASSERT( xTask );
   \   00000006   0x2A00             CMP      R2,#+0
   \   00000008   0xD101             BNE      ??prvTaskIsTaskSuspended_0
   \   0000000A   0xB672             cpsid i
   \                     ??prvTaskIsTaskSuspended_1: (+1)
   \   0000000C   0xE7FE             B        ??prvTaskIsTaskSuspended_1
   1807          
   1808          		/* Is the task being resumed actually in the suspended list? */
   1809          		if( listIS_CONTAINED_WITHIN( &xSuspendedTaskList, &( pxTCB->xStateListItem ) ) != pdFALSE )
   \                     ??prvTaskIsTaskSuspended_0: (+1)
   \   0000000E   0x....             LDR      R3,??DataTable18
   \   00000010   0x6954             LDR      R4,[R2, #+20]
   \   00000012   0x0018             MOVS     R0,R3
   \   00000014   0x3028             ADDS     R0,R0,#+40
   \   00000016   0x4284             CMP      R4,R0
   \   00000018   0xD105             BNE      ??prvTaskIsTaskSuspended_2
   1810          		{
   1811          			/* Has the task already been resumed from within an ISR? */
   1812          			if( listIS_CONTAINED_WITHIN( &xPendingReadyList, &( pxTCB->xEventListItem ) ) == pdFALSE )
   \   0000001A   0x6A90             LDR      R0,[R2, #+40]
   \   0000001C   0x4298             CMP      R0,R3
   \   0000001E   0xD002             BEQ      ??prvTaskIsTaskSuspended_2
   1813          			{
   1814          				/* Is it in the suspended list because it is in the	Suspended
   1815          				state, or because is is blocked with no timeout? */
   1816          				if( listIS_CONTAINED_WITHIN( NULL, &( pxTCB->xEventListItem ) ) != pdFALSE ) /*lint !e961.  The cast is only redundant when NULL is used. */
   \   00000020   0x2800             CMP      R0,#+0
   \   00000022   0xD100             BNE      ??prvTaskIsTaskSuspended_2
   1817          				{
   1818          					xReturn = pdTRUE;
   \   00000024   0x2101             MOVS     R1,#+1
   1819          				}
   1820          				else
   1821          				{
   1822          					mtCOVERAGE_TEST_MARKER();
   1823          				}
   1824          			}
   1825          			else
   1826          			{
   1827          				mtCOVERAGE_TEST_MARKER();
   1828          			}
   1829          		}
   1830          		else
   1831          		{
   1832          			mtCOVERAGE_TEST_MARKER();
   1833          		}
   1834          
   1835          		return xReturn;
   \                     ??prvTaskIsTaskSuspended_2: (+1)
   \   00000026   0x0008             MOVS     R0,R1
   \   00000028   0xBC10             POP      {R4}
   \   0000002A   0x4770             BX       LR               ;; return
   1836          	} /*lint !e818 xTask cannot be a pointer to const because it is a typedef. */
   1837          
   1838          #endif /* INCLUDE_vTaskSuspend */
   1839          /*-----------------------------------------------------------*/
   1840          
   1841          #if ( INCLUDE_vTaskSuspend == 1 )
   1842          

   \                                 In section .text, align 4, keep-with-next
   1843          	void vTaskResume( TaskHandle_t xTaskToResume )
   1844          	{
   \                     vTaskResume: (+1)
   \   00000000   0xB538             PUSH     {R3-R5,LR}
   \   00000002   0x0004             MOVS     R4,R0
   1845          	TCB_t * const pxTCB = xTaskToResume;
   1846          
   1847          		/* It does not make sense to resume the calling task. */
   1848          		configASSERT( xTaskToResume );
   \   00000004   0x2C00             CMP      R4,#+0
   \   00000006   0xD101             BNE      ??vTaskResume_0
   \   00000008   0xB672             cpsid i
   \                     ??vTaskResume_1: (+1)
   \   0000000A   0xE7FE             B        ??vTaskResume_1
   1849          
   1850          		/* The parameter cannot be NULL as it is impossible to resume the
   1851          		currently executing task. */
   1852          		if( ( pxTCB != pxCurrentTCB ) && ( pxTCB != NULL ) )
   \                     ??vTaskResume_0: (+1)
   \   0000000C   0x....             LDR      R5,??DataTable15
   \   0000000E   0x6828             LDR      R0,[R5, #+0]
   \   00000010   0x4284             CMP      R4,R0
   \   00000012   0xD020             BEQ      ??vTaskResume_2
   1853          		{
   1854          			taskENTER_CRITICAL();
   \   00000014   0x.... 0x....      BL       vPortEnterCritical
   1855          			{
   1856          				if( prvTaskIsTaskSuspended( pxTCB ) != pdFALSE )
   \   00000018   0x0020             MOVS     R0,R4
   \   0000001A   0x.... 0x....      BL       prvTaskIsTaskSuspended
   \   0000001E   0x2800             CMP      R0,#+0
   \   00000020   0xD017             BEQ      ??vTaskResume_3
   1857          				{
   1858          					traceTASK_RESUME( pxTCB );
   1859          
   1860          					/* The ready list can be accessed even if the scheduler is
   1861          					suspended because this is inside a critical section. */
   1862          					( void ) uxListRemove(  &( pxTCB->xStateListItem ) );
   \   00000022   0x1D20             ADDS     R0,R4,#+4
   \   00000024   0x.... 0x....      BL       uxListRemove
   1863          					prvAddTaskToReadyList( pxTCB );
   \   00000028   0x6AE0             LDR      R0,[R4, #+44]
   \   0000002A   0x6F69             LDR      R1,[R5, #+116]
   \   0000002C   0x4281             CMP      R1,R0
   \   0000002E   0xD200             BCS      ??vTaskResume_4
   \   00000030   0x6768             STR      R0,[R5, #+116]
   \                     ??vTaskResume_4: (+1)
   \   00000032   0x1D21             ADDS     R1,R4,#+4
   \   00000034   0x6AE0             LDR      R0,[R4, #+44]
   \   00000036   0x0082             LSLS     R2,R0,#+2
   \   00000038   0x1810             ADDS     R0,R2,R0
   \   0000003A   0x0080             LSLS     R0,R0,#+2
   \   0000003C   0x1828             ADDS     R0,R5,R0
   \   0000003E   0x1D00             ADDS     R0,R0,#+4
   \   00000040   0x.... 0x....      BL       vListInsertEnd
   1864          
   1865          					/* A higher priority task may have just been resumed. */
   1866          					if( pxTCB->uxPriority >= pxCurrentTCB->uxPriority )
   \   00000044   0x6AE0             LDR      R0,[R4, #+44]
   \   00000046   0x6829             LDR      R1,[R5, #+0]
   \   00000048   0x6AC9             LDR      R1,[R1, #+44]
   \   0000004A   0x4288             CMP      R0,R1
   \   0000004C   0xD301             BCC      ??vTaskResume_3
   1867          					{
   1868          						/* This yield may not cause the task just resumed to run,
   1869          						but will leave the lists in the correct state for the
   1870          						next yield. */
   1871          						taskYIELD_IF_USING_PREEMPTION();
   \   0000004E   0x.... 0x....      BL       vPortYield
   1872          					}
   1873          					else
   1874          					{
   1875          						mtCOVERAGE_TEST_MARKER();
   1876          					}
   1877          				}
   1878          				else
   1879          				{
   1880          					mtCOVERAGE_TEST_MARKER();
   1881          				}
   1882          			}
   1883          			taskEXIT_CRITICAL();
   \                     ??vTaskResume_3: (+1)
   \   00000052   0x.... 0x....      BL       vPortExitCritical
   1884          		}
   1885          		else
   1886          		{
   1887          			mtCOVERAGE_TEST_MARKER();
   1888          		}
   1889          	}
   \                     ??vTaskResume_2: (+1)
   \   00000056   0xBD31             POP      {R0,R4,R5,PC}    ;; return
   1890          
   1891          #endif /* INCLUDE_vTaskSuspend */
   1892          
   1893          /*-----------------------------------------------------------*/
   1894          
   1895          #if ( ( INCLUDE_xTaskResumeFromISR == 1 ) && ( INCLUDE_vTaskSuspend == 1 ) )
   1896          

   \                                 In section .text, align 4, keep-with-next
   1897          	BaseType_t xTaskResumeFromISR( TaskHandle_t xTaskToResume )
   1898          	{
   \                     xTaskResumeFromISR: (+1)
   \   00000000   0xB5F8             PUSH     {R3-R7,LR}
   \   00000002   0x0004             MOVS     R4,R0
   1899          	BaseType_t xYieldRequired = pdFALSE;
   \   00000004   0x2600             MOVS     R6,#+0
   1900          	TCB_t * const pxTCB = xTaskToResume;
   1901          	UBaseType_t uxSavedInterruptStatus;
   1902          
   1903          		configASSERT( xTaskToResume );
   \   00000006   0x2C00             CMP      R4,#+0
   \   00000008   0xD101             BNE      ??xTaskResumeFromISR_0
   \   0000000A   0xB672             cpsid i
   \                     ??xTaskResumeFromISR_1: (+1)
   \   0000000C   0xE7FE             B        ??xTaskResumeFromISR_1
   1904          
   1905          		/* RTOS ports that support interrupt nesting have the concept of a
   1906          		maximum	system call (or maximum API call) interrupt priority.
   1907          		Interrupts that are	above the maximum system call priority are keep
   1908          		permanently enabled, even when the RTOS kernel is in a critical section,
   1909          		but cannot make any calls to FreeRTOS API functions.  If configASSERT()
   1910          		is defined in FreeRTOSConfig.h then
   1911          		portASSERT_IF_INTERRUPT_PRIORITY_INVALID() will result in an assertion
   1912          		failure if a FreeRTOS API function is called from an interrupt that has
   1913          		been assigned a priority above the configured maximum system call
   1914          		priority.  Only FreeRTOS functions that end in FromISR can be called
   1915          		from interrupts	that have been assigned a priority at or (logically)
   1916          		below the maximum system call interrupt priority.  FreeRTOS maintains a
   1917          		separate interrupt safe API to ensure interrupt entry is as fast and as
   1918          		simple as possible.  More information (albeit Cortex-M specific) is
   1919          		provided on the following link:
   1920          		https://www.freertos.org/RTOS-Cortex-M3-M4.html */
   1921          		portASSERT_IF_INTERRUPT_PRIORITY_INVALID();
   1922          
   1923          		uxSavedInterruptStatus = portSET_INTERRUPT_MASK_FROM_ISR();
   \                     ??xTaskResumeFromISR_0: (+1)
   \   0000000E   0x.... 0x....      BL       ulSetInterruptMaskFromISR
   \   00000012   0x0007             MOVS     R7,R0
   1924          		{
   1925          			if( prvTaskIsTaskSuspended( pxTCB ) != pdFALSE )
   \   00000014   0x0020             MOVS     R0,R4
   \   00000016   0x.... 0x....      BL       prvTaskIsTaskSuspended
   \   0000001A   0x2800             CMP      R0,#+0
   \   0000001C   0xD01F             BEQ      ??xTaskResumeFromISR_2
   1926          			{
   1927          				traceTASK_RESUME_FROM_ISR( pxTCB );
   1928          
   1929          				/* Check the ready lists can be accessed. */
   1930          				if( uxSchedulerSuspended == ( UBaseType_t ) pdFALSE )
   \   0000001E   0x....             LDR      R5,??DataTable15
   \   00000020   0x2080             MOVS     R0,#+128
   \   00000022   0x5828             LDR      R0,[R5, R0]
   \   00000024   0x2800             CMP      R0,#+0
   \   00000026   0xD115             BNE      ??xTaskResumeFromISR_3
   1931          				{
   1932          					/* Ready lists can be accessed so move the task from the
   1933          					suspended list to the ready list directly. */
   1934          					if( pxTCB->uxPriority >= pxCurrentTCB->uxPriority )
   \   00000028   0x6AE0             LDR      R0,[R4, #+44]
   \   0000002A   0x6829             LDR      R1,[R5, #+0]
   \   0000002C   0x6AC9             LDR      R1,[R1, #+44]
   \   0000002E   0x4288             CMP      R0,R1
   \   00000030   0xD300             BCC      ??xTaskResumeFromISR_4
   1935          					{
   1936          						xYieldRequired = pdTRUE;
   \   00000032   0x2601             MOVS     R6,#+1
   1937          					}
   1938          					else
   1939          					{
   1940          						mtCOVERAGE_TEST_MARKER();
   1941          					}
   1942          
   1943          					( void ) uxListRemove( &( pxTCB->xStateListItem ) );
   \                     ??xTaskResumeFromISR_4: (+1)
   \   00000034   0x1D20             ADDS     R0,R4,#+4
   \   00000036   0x.... 0x....      BL       uxListRemove
   1944          					prvAddTaskToReadyList( pxTCB );
   \   0000003A   0x6AE0             LDR      R0,[R4, #+44]
   \   0000003C   0x6F69             LDR      R1,[R5, #+116]
   \   0000003E   0x4281             CMP      R1,R0
   \   00000040   0xD200             BCS      ??xTaskResumeFromISR_5
   \   00000042   0x6768             STR      R0,[R5, #+116]
   \                     ??xTaskResumeFromISR_5: (+1)
   \   00000044   0x1D21             ADDS     R1,R4,#+4
   \   00000046   0x6AE0             LDR      R0,[R4, #+44]
   \   00000048   0x0082             LSLS     R2,R0,#+2
   \   0000004A   0x1810             ADDS     R0,R2,R0
   \   0000004C   0x0080             LSLS     R0,R0,#+2
   \   0000004E   0x1828             ADDS     R0,R5,R0
   \   00000050   0x1D00             ADDS     R0,R0,#+4
   \   00000052   0xE002             B        ??xTaskResumeFromISR_6
   1945          				}
   1946          				else
   1947          				{
   1948          					/* The delayed or ready lists cannot be accessed so the task
   1949          					is held in the pending ready list until the scheduler is
   1950          					unsuspended. */
   1951          					vListInsertEnd( &( xPendingReadyList ), &( pxTCB->xEventListItem ) );
   \                     ??xTaskResumeFromISR_3: (+1)
   \   00000054   0x3418             ADDS     R4,R4,#+24
   \   00000056   0x0021             MOVS     R1,R4
   \   00000058   0x....             LDR      R0,??DataTable18
   \                     ??xTaskResumeFromISR_6: (+1)
   \   0000005A   0x.... 0x....      BL       vListInsertEnd
   1952          				}
   1953          			}
   1954          			else
   1955          			{
   1956          				mtCOVERAGE_TEST_MARKER();
   1957          			}
   1958          		}
   1959          		portCLEAR_INTERRUPT_MASK_FROM_ISR( uxSavedInterruptStatus );
   \                     ??xTaskResumeFromISR_2: (+1)
   \   0000005E   0x0038             MOVS     R0,R7
   \   00000060   0x.... 0x....      BL       vClearInterruptMaskFromISR
   1960          
   1961          		return xYieldRequired;
   \   00000064   0x0030             MOVS     R0,R6
   \   00000066   0xBDF2             POP      {R1,R4-R7,PC}    ;; return
   1962          	}
   1963          
   1964          #endif /* ( ( INCLUDE_xTaskResumeFromISR == 1 ) && ( INCLUDE_vTaskSuspend == 1 ) ) */
   1965          /*-----------------------------------------------------------*/
   1966          

   \                                 In section .text, align 4, keep-with-next
   1967          void vTaskStartScheduler( void )
   1968          {
   \                     vTaskStartScheduler: (+1)
   \   00000000   0xB530             PUSH     {R4,R5,LR}
   \   00000002   0xB085             SUB      SP,SP,#+20
   1969          BaseType_t xReturn;
   1970          
   1971          	/* Add the idle task at the lowest priority. */
   1972          	#if( configSUPPORT_STATIC_ALLOCATION == 1 )
   1973          	{
   1974          		StaticTask_t *pxIdleTaskTCBBuffer = NULL;
   1975          		StackType_t *pxIdleTaskStackBuffer = NULL;
   1976          		uint32_t ulIdleTaskStackSize;
   1977          
   1978          		/* The Idle task is created using user provided RAM - obtain the
   1979          		address of the RAM then create the idle task. */
   1980          		vApplicationGetIdleTaskMemory( &pxIdleTaskTCBBuffer, &pxIdleTaskStackBuffer, &ulIdleTaskStackSize );
   1981          		xIdleTaskHandle = xTaskCreateStatic(	prvIdleTask,
   1982          												configIDLE_TASK_NAME,
   1983          												ulIdleTaskStackSize,
   1984          												( void * ) NULL, /*lint !e961.  The cast is not redundant for all compilers. */
   1985          												portPRIVILEGE_BIT, /* In effect ( tskIDLE_PRIORITY | portPRIVILEGE_BIT ), but tskIDLE_PRIORITY is zero. */
   1986          												pxIdleTaskStackBuffer,
   1987          												pxIdleTaskTCBBuffer ); /*lint !e961 MISRA exception, justified as it is not a redundant explicit cast to all supported compilers. */
   1988          
   1989          		if( xIdleTaskHandle != NULL )
   1990          		{
   1991          			xReturn = pdPASS;
   1992          		}
   1993          		else
   1994          		{
   1995          			xReturn = pdFAIL;
   1996          		}
   1997          	}
   1998          	#else
   1999          	{
   2000          		/* The Idle task is being created using dynamically allocated RAM. */
   2001          		xReturn = xTaskCreate(	prvIdleTask,
   2002          								configIDLE_TASK_NAME,
   2003          								configMINIMAL_STACK_SIZE,
   2004          								( void * ) NULL,
   2005          								portPRIVILEGE_BIT, /* In effect ( tskIDLE_PRIORITY | portPRIVILEGE_BIT ), but tskIDLE_PRIORITY is zero. */
   2006          								&xIdleTaskHandle ); /*lint !e961 MISRA exception, justified as it is not a redundant explicit cast to all supported compilers. */
   \   00000004   0x2080             MOVS     R0,#+128
   \   00000006   0x.... 0x....      BL       pvPortMalloc
   \   0000000A   0x0004             MOVS     R4,R0
   \   0000000C   0x2C00             CMP      R4,#+0
   \   0000000E   0xD02F             BEQ      ??vTaskStartScheduler_0
   \   00000010   0x2054             MOVS     R0,#+84
   \   00000012   0x.... 0x....      BL       pvPortMalloc
   \   00000016   0x0005             MOVS     R5,R0
   \   00000018   0xD024             BEQ      ??vTaskStartScheduler_1
   \   0000001A   0x632C             STR      R4,[R5, #+48]
   \   0000001C   0x....             LDR      R4,??DataTable18
   \   0000001E   0x2000             MOVS     R0,#+0
   \   00000020   0x9003             STR      R0,[SP, #+12]
   \   00000022   0x9502             STR      R5,[SP, #+8]
   \   00000024   0x0020             MOVS     R0,R4
   \   00000026   0x3054             ADDS     R0,R0,#+84
   \   00000028   0x9001             STR      R0,[SP, #+4]
   \   0000002A   0x2000             MOVS     R0,#+0
   \   0000002C   0x9000             STR      R0,[SP, #+0]
   \   0000002E   0x2300             MOVS     R3,#+0
   \   00000030   0x2220             MOVS     R2,#+32
   \   00000032   0xBF00             Nop      
   \   00000034   0x....             ADR.N    R1,?_0
   \   00000036   0x....             LDR      R0,??DataTable21
   \   00000038   0x.... 0x....      BL       prvInitialiseNewTask
   \   0000003C   0x0028             MOVS     R0,R5
   \   0000003E   0x.... 0x....      BL       prvAddNewTaskToReadyList
   2007          	}
   2008          	#endif /* configSUPPORT_STATIC_ALLOCATION */
   2009          
   2010          	#if ( configUSE_TIMERS == 1 )
   2011          	{
   2012          		if( xReturn == pdPASS )
   2013          		{
   2014          			xReturn = xTimerCreateTimerTask();
   \   00000042   0x.... 0x....      BL       xTimerCreateTimerTask
   2015          		}
   2016          		else
   2017          		{
   2018          			mtCOVERAGE_TEST_MARKER();
   2019          		}
   2020          	}
   2021          	#endif /* configUSE_TIMERS */
   2022          
   2023          	if( xReturn == pdPASS )
   \   00000046   0x2100             MOVS     R1,#+0
   \   00000048   0x43C9             MVNS     R1,R1            ;; #-1
   \   0000004A   0x2801             CMP      R0,#+1
   \   0000004C   0xD10E             BNE      ??vTaskStartScheduler_2
   2024          	{
   2025          		/* freertos_tasks_c_additions_init() should only be called if the user
   2026          		definable macro FREERTOS_TASKS_C_ADDITIONS_INIT() is defined, as that is
   2027          		the only macro called by the function. */
   2028          		#ifdef FREERTOS_TASKS_C_ADDITIONS_INIT
   2029          		{
   2030          			freertos_tasks_c_additions_init();
   2031          		}
   2032          		#endif
   2033          
   2034          		/* Interrupts are turned off here, to ensure a tick does not occur
   2035          		before or during the call to xPortStartScheduler().  The stacks of
   2036          		the created tasks contain a status word with interrupts switched on
   2037          		so interrupts will automatically get re-enabled when the first task
   2038          		starts to run. */
   2039          		portDISABLE_INTERRUPTS();
   \   0000004E   0xB672             cpsid i
   2040          
   2041          		#if ( configUSE_NEWLIB_REENTRANT == 1 )
   2042          		{
   2043          			/* Switch Newlib's _impure_ptr variable to point to the _reent
   2044          			structure specific to the task that will run first. */
   2045          			_impure_ptr = &( pxCurrentTCB->xNewLib_reent );
   2046          		}
   2047          		#endif /* configUSE_NEWLIB_REENTRANT */
   2048          
   2049          		xNextTaskUnblockTime = portMAX_DELAY;
   \   00000050   0x....             LDR      R0,??DataTable15
   \   00000052   0x67C1             STR      R1,[R0, #+124]
   2050          		xSchedulerRunning = pdTRUE;
   \   00000054   0x2001             MOVS     R0,#+1
   \   00000056   0x6460             STR      R0,[R4, #+68]
   2051          		xTickCount = ( TickType_t ) configINITIAL_TICK_COUNT;
   \   00000058   0x2000             MOVS     R0,#+0
   \   0000005A   0x6420             STR      R0,[R4, #+64]
   2052          
   2053          		/* If configGENERATE_RUN_TIME_STATS is defined then the following
   2054          		macro must be defined to configure the timer/counter used to generate
   2055          		the run time counter time base.   NOTE:  If configGENERATE_RUN_TIME_STATS
   2056          		is set to 0 and the following line fails to build then ensure you do not
   2057          		have portCONFIGURE_TIMER_FOR_RUN_TIME_STATS() defined in your
   2058          		FreeRTOSConfig.h file. */
   2059          		portCONFIGURE_TIMER_FOR_RUN_TIME_STATS();
   2060          
   2061          		traceTASK_SWITCHED_IN();
   2062          
   2063          		/* Setting up the timer tick is hardware specific and thus in the
   2064          		portable interface. */
   2065          		if( xPortStartScheduler() != pdFALSE )
   \   0000005C   0x.... 0x....      BL       xPortStartScheduler
   2066          		{
   2067          			/* Should not reach here as if the scheduler is running the
   2068          			function will not return. */
   2069          		}
   2070          		else
   2071          		{
   2072          			/* Should only reach here if a task calls xTaskEndScheduler(). */
   2073          		}
   2074          	}
   2075          	else
   2076          	{
   2077          		/* This line will only be reached if the kernel could not be started,
   2078          		because there was not enough FreeRTOS heap to create the idle task
   2079          		or the timer task. */
   2080          		configASSERT( xReturn != errCOULD_NOT_ALLOCATE_REQUIRED_MEMORY );
   2081          	}
   2082          
   2083          	/* Prevent compiler warnings if INCLUDE_xTaskGetIdleTaskHandle is set to 0,
   2084          	meaning xIdleTaskHandle is not used anywhere else. */
   2085          	( void ) xIdleTaskHandle;
   2086          }
   \                     ??vTaskStartScheduler_3: (+1)
   \   00000060   0xB005             ADD      SP,SP,#+20
   \   00000062   0xBD30             POP      {R4,R5,PC}       ;; return
   \                     ??vTaskStartScheduler_1: (+1)
   \   00000064   0x0020             MOVS     R0,R4
   \   00000066   0x.... 0x....      BL       vPortFree
   \   0000006A   0xE001             B        ??vTaskStartScheduler_0
   \                     ??vTaskStartScheduler_2: (+1)
   \   0000006C   0x4288             CMP      R0,R1
   \   0000006E   0xD1F7             BNE      ??vTaskStartScheduler_3
   \                     ??vTaskStartScheduler_0: (+1)
   \   00000070   0xB672             cpsid i
   \                     ??vTaskStartScheduler_4: (+1)
   \   00000072   0xE7FE             B        ??vTaskStartScheduler_4
   2087          /*-----------------------------------------------------------*/
   2088          

   \                                 In section .text, align 4, keep-with-next
   2089          void vTaskEndScheduler( void )
   2090          {
   \                     vTaskEndScheduler: (+1)
   \   00000000   0xB580             PUSH     {R7,LR}
   2091          	/* Stop the scheduler interrupts and call the portable scheduler end
   2092          	routine so the original ISRs can be restored if necessary.  The port
   2093          	layer must ensure interrupts enable	bit is left in the correct state. */
   2094          	portDISABLE_INTERRUPTS();
   \   00000002   0xB672             cpsid i
   2095          	xSchedulerRunning = pdFALSE;
   \   00000004   0x2000             MOVS     R0,#+0
   \   00000006   0x....             LDR      R1,??DataTable21_1
   \   00000008   0x6448             STR      R0,[R1, #+68]
   2096          	vPortEndScheduler();
   \   0000000A   0x.... 0x....      BL       vPortEndScheduler
   2097          }
   \   0000000E   0xBD01             POP      {R0,PC}          ;; return
   2098          /*----------------------------------------------------------*/
   2099          

   \                                 In section .text, align 2, keep-with-next
   2100          void vTaskSuspendAll( void )
   2101          {
   2102          	/* A critical section is not required as the variable is of type
   2103          	BaseType_t.  Please read Richard Barry's reply in the following link to a
   2104          	post in the FreeRTOS support forum before reporting this as a bug! -
   2105          	http://goo.gl/wu4acr */
   2106          	++uxSchedulerSuspended;
   \                     vTaskSuspendAll: (+1)
   \   00000000   0x....             LDR      R0,??DataTable22
   \   00000002   0x6801             LDR      R1,[R0, #+0]
   \   00000004   0x1C49             ADDS     R1,R1,#+1
   \   00000006   0x6001             STR      R1,[R0, #+0]
   2107          }
   \   00000008   0x4770             BX       LR               ;; return
   2108          /*----------------------------------------------------------*/
   2109          
   2110          #if ( configUSE_TICKLESS_IDLE != 0 )
   2111          
   2112          	static TickType_t prvGetExpectedIdleTime( void )
   2113          	{
   2114          	TickType_t xReturn;
   2115          	UBaseType_t uxHigherPriorityReadyTasks = pdFALSE;
   2116          
   2117          		/* uxHigherPriorityReadyTasks takes care of the case where
   2118          		configUSE_PREEMPTION is 0, so there may be tasks above the idle priority
   2119          		task that are in the Ready state, even though the idle task is
   2120          		running. */
   2121          		#if( configUSE_PORT_OPTIMISED_TASK_SELECTION == 0 )
   2122          		{
   2123          			if( uxTopReadyPriority > tskIDLE_PRIORITY )
   2124          			{
   2125          				uxHigherPriorityReadyTasks = pdTRUE;
   2126          			}
   2127          		}
   2128          		#else
   2129          		{
   2130          			const UBaseType_t uxLeastSignificantBit = ( UBaseType_t ) 0x01;
   2131          
   2132          			/* When port optimised task selection is used the uxTopReadyPriority
   2133          			variable is used as a bit map.  If bits other than the least
   2134          			significant bit are set then there are tasks that have a priority
   2135          			above the idle priority that are in the Ready state.  This takes
   2136          			care of the case where the co-operative scheduler is in use. */
   2137          			if( uxTopReadyPriority > uxLeastSignificantBit )
   2138          			{
   2139          				uxHigherPriorityReadyTasks = pdTRUE;
   2140          			}
   2141          		}
   2142          		#endif
   2143          
   2144          		if( pxCurrentTCB->uxPriority > tskIDLE_PRIORITY )
   2145          		{
   2146          			xReturn = 0;
   2147          		}
   2148          		else if( listCURRENT_LIST_LENGTH( &( pxReadyTasksLists[ tskIDLE_PRIORITY ] ) ) > 1 )
   2149          		{
   2150          			/* There are other idle priority tasks in the ready state.  If
   2151          			time slicing is used then the very next tick interrupt must be
   2152          			processed. */
   2153          			xReturn = 0;
   2154          		}
   2155          		else if( uxHigherPriorityReadyTasks != pdFALSE )
   2156          		{
   2157          			/* There are tasks in the Ready state that have a priority above the
   2158          			idle priority.  This path can only be reached if
   2159          			configUSE_PREEMPTION is 0. */
   2160          			xReturn = 0;
   2161          		}
   2162          		else
   2163          		{
   2164          			xReturn = xNextTaskUnblockTime - xTickCount;
   2165          		}
   2166          
   2167          		return xReturn;
   2168          	}
   2169          
   2170          #endif /* configUSE_TICKLESS_IDLE */
   2171          /*----------------------------------------------------------*/
   2172          

   \                                 In section .text, align 4, keep-with-next
   2173          BaseType_t xTaskResumeAll( void )
   2174          {
   \                     xTaskResumeAll: (+1)
   \   00000000   0xB5F8             PUSH     {R3-R7,LR}
   2175          TCB_t *pxTCB = NULL;
   \   00000002   0x2700             MOVS     R7,#+0
   \   00000004   0x2400             MOVS     R4,#+0
   2176          BaseType_t xAlreadyYielded = pdFALSE;
   \   00000006   0x9700             STR      R7,[SP, #+0]
   2177          
   2178          	/* If uxSchedulerSuspended is zero then this function does not match a
   2179          	previous call to vTaskSuspendAll(). */
   2180          	configASSERT( uxSchedulerSuspended );
   \   00000008   0x....             LDR      R5,??DataTable15
   \   0000000A   0x002E             MOVS     R6,R5
   \   0000000C   0x3680             ADDS     R6,R6,#+128
   \   0000000E   0x6830             LDR      R0,[R6, #+0]
   \   00000010   0x2800             CMP      R0,#+0
   \   00000012   0xD101             BNE      ??xTaskResumeAll_0
   \   00000014   0xB672             cpsid i
   \                     ??xTaskResumeAll_1: (+1)
   \   00000016   0xE7FE             B        ??xTaskResumeAll_1
   2181          
   2182          	/* It is possible that an ISR caused a task to be removed from an event
   2183          	list while the scheduler was suspended.  If this was the case then the
   2184          	removed task will have been added to the xPendingReadyList.  Once the
   2185          	scheduler has been resumed it is safe to move all the pending ready
   2186          	tasks from this list into their appropriate ready list. */
   2187          	taskENTER_CRITICAL();
   \                     ??xTaskResumeAll_0: (+1)
   \   00000018   0x.... 0x....      BL       vPortEnterCritical
   2188          	{
   2189          		--uxSchedulerSuspended;
   \   0000001C   0x6830             LDR      R0,[R6, #+0]
   \   0000001E   0x1E40             SUBS     R0,R0,#+1
   \   00000020   0x6030             STR      R0,[R6, #+0]
   2190          
   2191          		if( uxSchedulerSuspended == ( UBaseType_t ) pdFALSE )
   \   00000022   0x6830             LDR      R0,[R6, #+0]
   \   00000024   0x2800             CMP      R0,#+0
   \   00000026   0xD146             BNE      ??xTaskResumeAll_2
   2192          		{
   2193          			if( uxCurrentNumberOfTasks > ( UBaseType_t ) 0U )
   \   00000028   0x....             LDR      R6,??DataTable21_1
   \   0000002A   0x6BF0             LDR      R0,[R6, #+60]
   \   0000002C   0x2800             CMP      R0,#+0
   \   0000002E   0xD11E             BNE      ??xTaskResumeAll_3
   \   00000030   0xE041             B        ??xTaskResumeAll_2
   2194          			{
   2195          				/* Move any readied tasks from the pending list into the
   2196          				appropriate ready list. */
   2197          				while( listLIST_IS_EMPTY( &xPendingReadyList ) == pdFALSE )
   2198          				{
   2199          					pxTCB = listGET_OWNER_OF_HEAD_ENTRY( ( &xPendingReadyList ) ); /*lint !e9079 void * is used as this macro is used with timers and co-routines too.  Alignment is known to be fine as the type of the pointer stored and retrieved is the same. */
   \                     ??xTaskResumeAll_4: (+1)
   \   00000032   0x68F0             LDR      R0,[R6, #+12]
   \   00000034   0x68C4             LDR      R4,[R0, #+12]
   2200          					( void ) uxListRemove( &( pxTCB->xEventListItem ) );
   \   00000036   0x0020             MOVS     R0,R4
   \   00000038   0x3018             ADDS     R0,R0,#+24
   \   0000003A   0x.... 0x....      BL       uxListRemove
   2201          					( void ) uxListRemove( &( pxTCB->xStateListItem ) );
   \   0000003E   0x1D20             ADDS     R0,R4,#+4
   \   00000040   0x.... 0x....      BL       uxListRemove
   2202          					prvAddTaskToReadyList( pxTCB );
   \   00000044   0x6AE0             LDR      R0,[R4, #+44]
   \   00000046   0x6F69             LDR      R1,[R5, #+116]
   \   00000048   0x4281             CMP      R1,R0
   \   0000004A   0xD200             BCS      ??xTaskResumeAll_5
   \   0000004C   0x6768             STR      R0,[R5, #+116]
   \                     ??xTaskResumeAll_5: (+1)
   \   0000004E   0x1D21             ADDS     R1,R4,#+4
   \   00000050   0x6AE0             LDR      R0,[R4, #+44]
   \   00000052   0x0082             LSLS     R2,R0,#+2
   \   00000054   0x1810             ADDS     R0,R2,R0
   \   00000056   0x0080             LSLS     R0,R0,#+2
   \   00000058   0x1828             ADDS     R0,R5,R0
   \   0000005A   0x1D00             ADDS     R0,R0,#+4
   \   0000005C   0x.... 0x....      BL       vListInsertEnd
   2203          
   2204          					/* If the moved task has a priority higher than the current
   2205          					task then a yield must be performed. */
   2206          					if( pxTCB->uxPriority >= pxCurrentTCB->uxPriority )
   \   00000060   0x6AE0             LDR      R0,[R4, #+44]
   \   00000062   0x6829             LDR      R1,[R5, #+0]
   \   00000064   0x6AC9             LDR      R1,[R1, #+44]
   \   00000066   0x4288             CMP      R0,R1
   \   00000068   0xD301             BCC      ??xTaskResumeAll_3
   2207          					{
   2208          						xYieldPending = pdTRUE;
   \   0000006A   0x2001             MOVS     R0,#+1
   \   0000006C   0x67A8             STR      R0,[R5, #+120]
   2209          					}
   2210          					else
   2211          					{
   2212          						mtCOVERAGE_TEST_MARKER();
   2213          					}
   2214          				}
   \                     ??xTaskResumeAll_3: (+1)
   \   0000006E   0x6830             LDR      R0,[R6, #+0]
   \   00000070   0x2800             CMP      R0,#+0
   \   00000072   0xD1DE             BNE      ??xTaskResumeAll_4
   2215          
   2216          				if( pxTCB != NULL )
   \   00000074   0x2C00             CMP      R4,#+0
   \   00000076   0xD00B             BEQ      ??xTaskResumeAll_6
   2217          				{
   2218          					/* A task was unblocked while the scheduler was suspended,
   2219          					which may have prevented the next unblock time from being
   2220          					re-calculated, in which case re-calculate it now.  Mainly
   2221          					important for low power tickless implementations, where
   2222          					this can prevent an unnecessary exit from low power
   2223          					state. */
   2224          					prvResetNextTaskUnblockTime();
   \   00000078   0x6EA8             LDR      R0,[R5, #+104]
   \   0000007A   0x6800             LDR      R0,[R0, #+0]
   \   0000007C   0x2800             CMP      R0,#+0
   \   0000007E   0xD102             BNE      ??xTaskResumeAll_7
   \   00000080   0x2000             MOVS     R0,#+0
   \   00000082   0x43C0             MVNS     R0,R0            ;; #-1
   \   00000084   0xE003             B        ??xTaskResumeAll_8
   \                     ??xTaskResumeAll_7: (+1)
   \   00000086   0x6EA8             LDR      R0,[R5, #+104]
   \   00000088   0x68C0             LDR      R0,[R0, #+12]
   \   0000008A   0x68C0             LDR      R0,[R0, #+12]
   \   0000008C   0x6840             LDR      R0,[R0, #+4]
   \                     ??xTaskResumeAll_8: (+1)
   \   0000008E   0x67E8             STR      R0,[R5, #+124]
   2225          				}
   2226          
   2227          				/* If any ticks occurred while the scheduler was suspended then
   2228          				they should be processed now.  This ensures the tick count does
   2229          				not	slip, and that any delayed tasks are resumed at the correct
   2230          				time. */
   2231          				{
   2232          					UBaseType_t uxPendedCounts = uxPendedTicks; /* Non-volatile copy. */
   \                     ??xTaskResumeAll_6: (+1)
   \   00000090   0x6CB4             LDR      R4,[R6, #+72]
   2233          
   2234          					if( uxPendedCounts > ( UBaseType_t ) 0U )
   \   00000092   0x2C00             CMP      R4,#+0
   \   00000094   0xD008             BEQ      ??xTaskResumeAll_9
   2235          					{
   2236          						do
   2237          						{
   2238          							if( xTaskIncrementTick() != pdFALSE )
   \                     ??xTaskResumeAll_10: (+1)
   \   00000096   0x.... 0x....      BL       xTaskIncrementTick
   \   0000009A   0x2800             CMP      R0,#+0
   \   0000009C   0xD001             BEQ      ??xTaskResumeAll_11
   2239          							{
   2240          								xYieldPending = pdTRUE;
   \   0000009E   0x2001             MOVS     R0,#+1
   \   000000A0   0x67A8             STR      R0,[R5, #+120]
   2241          							}
   2242          							else
   2243          							{
   2244          								mtCOVERAGE_TEST_MARKER();
   2245          							}
   2246          							--uxPendedCounts;
   \                     ??xTaskResumeAll_11: (+1)
   \   000000A2   0x1E64             SUBS     R4,R4,#+1
   2247          						} while( uxPendedCounts > ( UBaseType_t ) 0U );
   \   000000A4   0xD1F7             BNE      ??xTaskResumeAll_10
   2248          
   2249          						uxPendedTicks = 0;
   \   000000A6   0x64B7             STR      R7,[R6, #+72]
   2250          					}
   2251          					else
   2252          					{
   2253          						mtCOVERAGE_TEST_MARKER();
   2254          					}
   2255          				}
   2256          
   2257          				if( xYieldPending != pdFALSE )
   \                     ??xTaskResumeAll_9: (+1)
   \   000000A8   0x6FA8             LDR      R0,[R5, #+120]
   \   000000AA   0x2800             CMP      R0,#+0
   \   000000AC   0xD003             BEQ      ??xTaskResumeAll_2
   2258          				{
   2259          					#if( configUSE_PREEMPTION != 0 )
   2260          					{
   2261          						xAlreadyYielded = pdTRUE;
   \   000000AE   0x2001             MOVS     R0,#+1
   \   000000B0   0x9000             STR      R0,[SP, #+0]
   2262          					}
   2263          					#endif
   2264          					taskYIELD_IF_USING_PREEMPTION();
   \   000000B2   0x.... 0x....      BL       vPortYield
   2265          				}
   2266          				else
   2267          				{
   2268          					mtCOVERAGE_TEST_MARKER();
   2269          				}
   2270          			}
   2271          		}
   2272          		else
   2273          		{
   2274          			mtCOVERAGE_TEST_MARKER();
   2275          		}
   2276          	}
   2277          	taskEXIT_CRITICAL();
   \                     ??xTaskResumeAll_2: (+1)
   \   000000B6   0x.... 0x....      BL       vPortExitCritical
   2278          
   2279          	return xAlreadyYielded;
   \   000000BA   0x9800             LDR      R0,[SP, #+0]
   \   000000BC   0xBDF2             POP      {R1,R4-R7,PC}    ;; return
   2280          }
   2281          /*-----------------------------------------------------------*/
   2282          

   \                                 In section .text, align 2, keep-with-next
   2283          TickType_t xTaskGetTickCount( void )
   2284          {
   2285          TickType_t xTicks;
   2286          
   2287          	/* Critical section required if running on a 16 bit processor. */
   2288          	portTICK_TYPE_ENTER_CRITICAL();
   2289          	{
   2290          		xTicks = xTickCount;
   2291          	}
   2292          	portTICK_TYPE_EXIT_CRITICAL();
   2293          
   2294          	return xTicks;
   \                     xTaskGetTickCount: (+1)
   \   00000000   0x....             LDR      R0,??DataTable21_1
   \   00000002   0x6C00             LDR      R0,[R0, #+64]
   \   00000004   0x4770             BX       LR               ;; return
   2295          }
   2296          /*-----------------------------------------------------------*/
   2297          

   \                                 In section .text, align 2, keep-with-next
   2298          TickType_t xTaskGetTickCountFromISR( void )
   2299          {
   2300          TickType_t xReturn;
   2301          UBaseType_t uxSavedInterruptStatus;
   2302          
   2303          	/* RTOS ports that support interrupt nesting have the concept of a maximum
   2304          	system call (or maximum API call) interrupt priority.  Interrupts that are
   2305          	above the maximum system call priority are kept permanently enabled, even
   2306          	when the RTOS kernel is in a critical section, but cannot make any calls to
   2307          	FreeRTOS API functions.  If configASSERT() is defined in FreeRTOSConfig.h
   2308          	then portASSERT_IF_INTERRUPT_PRIORITY_INVALID() will result in an assertion
   2309          	failure if a FreeRTOS API function is called from an interrupt that has been
   2310          	assigned a priority above the configured maximum system call priority.
   2311          	Only FreeRTOS functions that end in FromISR can be called from interrupts
   2312          	that have been assigned a priority at or (logically) below the maximum
   2313          	system call	interrupt priority.  FreeRTOS maintains a separate interrupt
   2314          	safe API to ensure interrupt entry is as fast and as simple as possible.
   2315          	More information (albeit Cortex-M specific) is provided on the following
   2316          	link: https://www.freertos.org/RTOS-Cortex-M3-M4.html */
   2317          	portASSERT_IF_INTERRUPT_PRIORITY_INVALID();
   2318          
   2319          	uxSavedInterruptStatus = portTICK_TYPE_SET_INTERRUPT_MASK_FROM_ISR();
   2320          	{
   2321          		xReturn = xTickCount;
   2322          	}
   2323          	portTICK_TYPE_CLEAR_INTERRUPT_MASK_FROM_ISR( uxSavedInterruptStatus );
   2324          
   2325          	return xReturn;
   \                     xTaskGetTickCountFromISR: (+1)
   \   00000000   0x....             LDR      R0,??DataTable21_1
   \   00000002   0x6C00             LDR      R0,[R0, #+64]
   \   00000004   0x4770             BX       LR               ;; return
   2326          }
   2327          /*-----------------------------------------------------------*/
   2328          

   \                                 In section .text, align 2, keep-with-next
   2329          UBaseType_t uxTaskGetNumberOfTasks( void )
   2330          {
   2331          	/* A critical section is not required because the variables are of type
   2332          	BaseType_t. */
   2333          	return uxCurrentNumberOfTasks;
   \                     uxTaskGetNumberOfTasks: (+1)
   \   00000000   0x....             LDR      R0,??DataTable21_1
   \   00000002   0x6BC0             LDR      R0,[R0, #+60]
   \   00000004   0x4770             BX       LR               ;; return
   2334          }
   2335          /*-----------------------------------------------------------*/
   2336          

   \                                 In section .text, align 4, keep-with-next
   2337          char *pcTaskGetName( TaskHandle_t xTaskToQuery ) /*lint !e971 Unqualified char types are allowed for strings and single characters only. */
   2338          {
   2339          TCB_t *pxTCB;
   2340          
   2341          	/* If null is passed in here then the name of the calling task is being
   2342          	queried. */
   2343          	pxTCB = prvGetTCBFromHandle( xTaskToQuery );
   \                     pcTaskGetName: (+1)
   \   00000000   0x2800             CMP      R0,#+0
   \   00000002   0xD105             BNE      ??pcTaskGetName_0
   \   00000004   0x....             LDR      R0,??DataTable24
   \   00000006   0x6800             LDR      R0,[R0, #+0]
   2344          	configASSERT( pxTCB );
   \   00000008   0x2800             CMP      R0,#+0
   \   0000000A   0xD101             BNE      ??pcTaskGetName_0
   \   0000000C   0xB672             cpsid i
   \                     ??pcTaskGetName_1: (+1)
   \   0000000E   0xE7FE             B        ??pcTaskGetName_1
   2345          	return &( pxTCB->pcTaskName[ 0 ] );
   \                     ??pcTaskGetName_0: (+1)
   \   00000010   0x3034             ADDS     R0,R0,#+52
   \   00000012   0x4770             BX       LR               ;; return
   2346          }
   2347          /*-----------------------------------------------------------*/
   2348          
   2349          #if ( INCLUDE_xTaskGetHandle == 1 )
   2350          
   2351          	static TCB_t *prvSearchForNameWithinSingleList( List_t *pxList, const char pcNameToQuery[] )
   2352          	{
   2353          	TCB_t *pxNextTCB, *pxFirstTCB, *pxReturn = NULL;
   2354          	UBaseType_t x;
   2355          	char cNextChar;
   2356          	BaseType_t xBreakLoop;
   2357          
   2358          		/* This function is called with the scheduler suspended. */
   2359          
   2360          		if( listCURRENT_LIST_LENGTH( pxList ) > ( UBaseType_t ) 0 )
   2361          		{
   2362          			listGET_OWNER_OF_NEXT_ENTRY( pxFirstTCB, pxList );  /*lint !e9079 void * is used as this macro is used with timers and co-routines too.  Alignment is known to be fine as the type of the pointer stored and retrieved is the same. */
   2363          
   2364          			do
   2365          			{
   2366          				listGET_OWNER_OF_NEXT_ENTRY( pxNextTCB, pxList ); /*lint !e9079 void * is used as this macro is used with timers and co-routines too.  Alignment is known to be fine as the type of the pointer stored and retrieved is the same. */
   2367          
   2368          				/* Check each character in the name looking for a match or
   2369          				mismatch. */
   2370          				xBreakLoop = pdFALSE;
   2371          				for( x = ( UBaseType_t ) 0; x < ( UBaseType_t ) configMAX_TASK_NAME_LEN; x++ )
   2372          				{
   2373          					cNextChar = pxNextTCB->pcTaskName[ x ];
   2374          
   2375          					if( cNextChar != pcNameToQuery[ x ] )
   2376          					{
   2377          						/* Characters didn't match. */
   2378          						xBreakLoop = pdTRUE;
   2379          					}
   2380          					else if( cNextChar == ( char ) 0x00 )
   2381          					{
   2382          						/* Both strings terminated, a match must have been
   2383          						found. */
   2384          						pxReturn = pxNextTCB;
   2385          						xBreakLoop = pdTRUE;
   2386          					}
   2387          					else
   2388          					{
   2389          						mtCOVERAGE_TEST_MARKER();
   2390          					}
   2391          
   2392          					if( xBreakLoop != pdFALSE )
   2393          					{
   2394          						break;
   2395          					}
   2396          				}
   2397          
   2398          				if( pxReturn != NULL )
   2399          				{
   2400          					/* The handle has been found. */
   2401          					break;
   2402          				}
   2403          
   2404          			} while( pxNextTCB != pxFirstTCB );
   2405          		}
   2406          		else
   2407          		{
   2408          			mtCOVERAGE_TEST_MARKER();
   2409          		}
   2410          
   2411          		return pxReturn;
   2412          	}
   2413          
   2414          #endif /* INCLUDE_xTaskGetHandle */
   2415          /*-----------------------------------------------------------*/
   2416          
   2417          #if ( INCLUDE_xTaskGetHandle == 1 )
   2418          
   2419          	TaskHandle_t xTaskGetHandle( const char *pcNameToQuery ) /*lint !e971 Unqualified char types are allowed for strings and single characters only. */
   2420          	{
   2421          	UBaseType_t uxQueue = configMAX_PRIORITIES;
   2422          	TCB_t* pxTCB;
   2423          
   2424          		/* Task names will be truncated to configMAX_TASK_NAME_LEN - 1 bytes. */
   2425          		configASSERT( strlen( pcNameToQuery ) < configMAX_TASK_NAME_LEN );
   2426          
   2427          		vTaskSuspendAll();
   2428          		{
   2429          			/* Search the ready lists. */
   2430          			do
   2431          			{
   2432          				uxQueue--;
   2433          				pxTCB = prvSearchForNameWithinSingleList( ( List_t * ) &( pxReadyTasksLists[ uxQueue ] ), pcNameToQuery );
   2434          
   2435          				if( pxTCB != NULL )
   2436          				{
   2437          					/* Found the handle. */
   2438          					break;
   2439          				}
   2440          
   2441          			} while( uxQueue > ( UBaseType_t ) tskIDLE_PRIORITY ); /*lint !e961 MISRA exception as the casts are only redundant for some ports. */
   2442          
   2443          			/* Search the delayed lists. */
   2444          			if( pxTCB == NULL )
   2445          			{
   2446          				pxTCB = prvSearchForNameWithinSingleList( ( List_t * ) pxDelayedTaskList, pcNameToQuery );
   2447          			}
   2448          
   2449          			if( pxTCB == NULL )
   2450          			{
   2451          				pxTCB = prvSearchForNameWithinSingleList( ( List_t * ) pxOverflowDelayedTaskList, pcNameToQuery );
   2452          			}
   2453          
   2454          			#if ( INCLUDE_vTaskSuspend == 1 )
   2455          			{
   2456          				if( pxTCB == NULL )
   2457          				{
   2458          					/* Search the suspended list. */
   2459          					pxTCB = prvSearchForNameWithinSingleList( &xSuspendedTaskList, pcNameToQuery );
   2460          				}
   2461          			}
   2462          			#endif
   2463          
   2464          			#if( INCLUDE_vTaskDelete == 1 )
   2465          			{
   2466          				if( pxTCB == NULL )
   2467          				{
   2468          					/* Search the deleted list. */
   2469          					pxTCB = prvSearchForNameWithinSingleList( &xTasksWaitingTermination, pcNameToQuery );
   2470          				}
   2471          			}
   2472          			#endif
   2473          		}
   2474          		( void ) xTaskResumeAll();
   2475          
   2476          		return pxTCB;
   2477          	}
   2478          
   2479          #endif /* INCLUDE_xTaskGetHandle */
   2480          /*-----------------------------------------------------------*/
   2481          
   2482          #if ( configUSE_TRACE_FACILITY == 1 )
   2483          
   2484          	UBaseType_t uxTaskGetSystemState( TaskStatus_t * const pxTaskStatusArray, const UBaseType_t uxArraySize, uint32_t * const pulTotalRunTime )
   2485          	{
   2486          	UBaseType_t uxTask = 0, uxQueue = configMAX_PRIORITIES;
   2487          
   2488          		vTaskSuspendAll();
   2489          		{
   2490          			/* Is there a space in the array for each task in the system? */
   2491          			if( uxArraySize >= uxCurrentNumberOfTasks )
   2492          			{
   2493          				/* Fill in an TaskStatus_t structure with information on each
   2494          				task in the Ready state. */
   2495          				do
   2496          				{
   2497          					uxQueue--;
   2498          					uxTask += prvListTasksWithinSingleList( &( pxTaskStatusArray[ uxTask ] ), &( pxReadyTasksLists[ uxQueue ] ), eReady );
   2499          
   2500          				} while( uxQueue > ( UBaseType_t ) tskIDLE_PRIORITY ); /*lint !e961 MISRA exception as the casts are only redundant for some ports. */
   2501          
   2502          				/* Fill in an TaskStatus_t structure with information on each
   2503          				task in the Blocked state. */
   2504          				uxTask += prvListTasksWithinSingleList( &( pxTaskStatusArray[ uxTask ] ), ( List_t * ) pxDelayedTaskList, eBlocked );
   2505          				uxTask += prvListTasksWithinSingleList( &( pxTaskStatusArray[ uxTask ] ), ( List_t * ) pxOverflowDelayedTaskList, eBlocked );
   2506          
   2507          				#if( INCLUDE_vTaskDelete == 1 )
   2508          				{
   2509          					/* Fill in an TaskStatus_t structure with information on
   2510          					each task that has been deleted but not yet cleaned up. */
   2511          					uxTask += prvListTasksWithinSingleList( &( pxTaskStatusArray[ uxTask ] ), &xTasksWaitingTermination, eDeleted );
   2512          				}
   2513          				#endif
   2514          
   2515          				#if ( INCLUDE_vTaskSuspend == 1 )
   2516          				{
   2517          					/* Fill in an TaskStatus_t structure with information on
   2518          					each task in the Suspended state. */
   2519          					uxTask += prvListTasksWithinSingleList( &( pxTaskStatusArray[ uxTask ] ), &xSuspendedTaskList, eSuspended );
   2520          				}
   2521          				#endif
   2522          
   2523          				#if ( configGENERATE_RUN_TIME_STATS == 1)
   2524          				{
   2525          					if( pulTotalRunTime != NULL )
   2526          					{
   2527          						#ifdef portALT_GET_RUN_TIME_COUNTER_VALUE
   2528          							portALT_GET_RUN_TIME_COUNTER_VALUE( ( *pulTotalRunTime ) );
   2529          						#else
   2530          							*pulTotalRunTime = portGET_RUN_TIME_COUNTER_VALUE();
   2531          						#endif
   2532          					}
   2533          				}
   2534          				#else
   2535          				{
   2536          					if( pulTotalRunTime != NULL )
   2537          					{
   2538          						*pulTotalRunTime = 0;
   2539          					}
   2540          				}
   2541          				#endif
   2542          			}
   2543          			else
   2544          			{
   2545          				mtCOVERAGE_TEST_MARKER();
   2546          			}
   2547          		}
   2548          		( void ) xTaskResumeAll();
   2549          
   2550          		return uxTask;
   2551          	}
   2552          
   2553          #endif /* configUSE_TRACE_FACILITY */
   2554          /*----------------------------------------------------------*/
   2555          
   2556          #if ( INCLUDE_xTaskGetIdleTaskHandle == 1 )
   2557          
   2558          	TaskHandle_t xTaskGetIdleTaskHandle( void )
   2559          	{
   2560          		/* If xTaskGetIdleTaskHandle() is called before the scheduler has been
   2561          		started, then xIdleTaskHandle will be NULL. */
   2562          		configASSERT( ( xIdleTaskHandle != NULL ) );
   2563          		return xIdleTaskHandle;
   2564          	}
   2565          
   2566          #endif /* INCLUDE_xTaskGetIdleTaskHandle */
   2567          /*----------------------------------------------------------*/
   2568          
   2569          /* This conditional compilation should use inequality to 0, not equality to 1.
   2570          This is to ensure vTaskStepTick() is available when user defined low power mode
   2571          implementations require configUSE_TICKLESS_IDLE to be set to a value other than
   2572          1. */
   2573          #if ( configUSE_TICKLESS_IDLE != 0 )
   2574          
   2575          	void vTaskStepTick( const TickType_t xTicksToJump )
   2576          	{
   2577          		/* Correct the tick count value after a period during which the tick
   2578          		was suppressed.  Note this does *not* call the tick hook function for
   2579          		each stepped tick. */
   2580          		configASSERT( ( xTickCount + xTicksToJump ) <= xNextTaskUnblockTime );
   2581          		xTickCount += xTicksToJump;
   2582          		traceINCREASE_TICK_COUNT( xTicksToJump );
   2583          	}
   2584          
   2585          #endif /* configUSE_TICKLESS_IDLE */
   2586          /*----------------------------------------------------------*/
   2587          
   2588          #if ( INCLUDE_xTaskAbortDelay == 1 )
   2589          
   2590          	BaseType_t xTaskAbortDelay( TaskHandle_t xTask )
   2591          	{
   2592          	TCB_t *pxTCB = xTask;
   2593          	BaseType_t xReturn;
   2594          
   2595          		configASSERT( pxTCB );
   2596          
   2597          		vTaskSuspendAll();
   2598          		{
   2599          			/* A task can only be prematurely removed from the Blocked state if
   2600          			it is actually in the Blocked state. */
   2601          			if( eTaskGetState( xTask ) == eBlocked )
   2602          			{
   2603          				xReturn = pdPASS;
   2604          
   2605          				/* Remove the reference to the task from the blocked list.  An
   2606          				interrupt won't touch the xStateListItem because the
   2607          				scheduler is suspended. */
   2608          				( void ) uxListRemove( &( pxTCB->xStateListItem ) );
   2609          
   2610          				/* Is the task waiting on an event also?  If so remove it from
   2611          				the event list too.  Interrupts can touch the event list item,
   2612          				even though the scheduler is suspended, so a critical section
   2613          				is used. */
   2614          				taskENTER_CRITICAL();
   2615          				{
   2616          					if( listLIST_ITEM_CONTAINER( &( pxTCB->xEventListItem ) ) != NULL )
   2617          					{
   2618          						( void ) uxListRemove( &( pxTCB->xEventListItem ) );
   2619          						pxTCB->ucDelayAborted = pdTRUE;
   2620          					}
   2621          					else
   2622          					{
   2623          						mtCOVERAGE_TEST_MARKER();
   2624          					}
   2625          				}
   2626          				taskEXIT_CRITICAL();
   2627          
   2628          				/* Place the unblocked task into the appropriate ready list. */
   2629          				prvAddTaskToReadyList( pxTCB );
   2630          
   2631          				/* A task being unblocked cannot cause an immediate context
   2632          				switch if preemption is turned off. */
   2633          				#if (  configUSE_PREEMPTION == 1 )
   2634          				{
   2635          					/* Preemption is on, but a context switch should only be
   2636          					performed if the unblocked task has a priority that is
   2637          					equal to or higher than the currently executing task. */
   2638          					if( pxTCB->uxPriority > pxCurrentTCB->uxPriority )
   2639          					{
   2640          						/* Pend the yield to be performed when the scheduler
   2641          						is unsuspended. */
   2642          						xYieldPending = pdTRUE;
   2643          					}
   2644          					else
   2645          					{
   2646          						mtCOVERAGE_TEST_MARKER();
   2647          					}
   2648          				}
   2649          				#endif /* configUSE_PREEMPTION */
   2650          			}
   2651          			else
   2652          			{
   2653          				xReturn = pdFAIL;
   2654          			}
   2655          		}
   2656          		( void ) xTaskResumeAll();
   2657          
   2658          		return xReturn;
   2659          	}
   2660          
   2661          #endif /* INCLUDE_xTaskAbortDelay */
   2662          /*----------------------------------------------------------*/
   2663          

   \                                 In section .text, align 4, keep-with-next
   2664          BaseType_t xTaskIncrementTick( void )
   2665          {
   \                     xTaskIncrementTick: (+1)
   \   00000000   0xB5F8             PUSH     {R3-R7,LR}
   2666          TCB_t * pxTCB;
   2667          TickType_t xItemValue;
   2668          BaseType_t xSwitchRequired = pdFALSE;
   \   00000002   0x2600             MOVS     R6,#+0
   2669          
   2670          	/* Called by the portable layer each time a tick interrupt occurs.
   2671          	Increments the tick then checks to see if the new tick value will cause any
   2672          	tasks to be unblocked. */
   2673          	traceTASK_INCREMENT_TICK( xTickCount );
   2674          	if( uxSchedulerSuspended == ( UBaseType_t ) pdFALSE )
   \   00000004   0x....             LDR      R7,??DataTable21_1
   \   00000006   0x....             LDR      R4,??DataTable24
   \   00000008   0x2080             MOVS     R0,#+128
   \   0000000A   0x5820             LDR      R0,[R4, R0]
   \   0000000C   0x2800             CMP      R0,#+0
   \   0000000E   0xD15F             BNE      ??xTaskIncrementTick_0
   2675          	{
   2676          		/* Minor optimisation.  The tick count cannot change in this
   2677          		block. */
   2678          		const TickType_t xConstTickCount = xTickCount + ( TickType_t ) 1;
   \   00000010   0x6C38             LDR      R0,[R7, #+64]
   \   00000012   0x1C40             ADDS     R0,R0,#+1
   \   00000014   0x9000             STR      R0,[SP, #+0]
   2679          
   2680          		/* Increment the RTOS tick, switching the delayed and overflowed
   2681          		delayed lists if it wraps to 0. */
   2682          		xTickCount = xConstTickCount;
   \   00000016   0x6438             STR      R0,[R7, #+64]
   2683          
   2684          		if( xConstTickCount == ( TickType_t ) 0U ) /*lint !e774 'if' does not always evaluate to false as it is looking for an overflow. */
   \   00000018   0x9800             LDR      R0,[SP, #+0]
   \   0000001A   0x2800             CMP      R0,#+0
   \   0000001C   0xD118             BNE      ??xTaskIncrementTick_1
   2685          		{
   2686          			taskSWITCH_DELAYED_LISTS();
   \   0000001E   0x6EA0             LDR      R0,[R4, #+104]
   \   00000020   0x6800             LDR      R0,[R0, #+0]
   \   00000022   0x2800             CMP      R0,#+0
   \   00000024   0xD001             BEQ      ??xTaskIncrementTick_2
   \   00000026   0xB672             cpsid i
   \                     ??xTaskIncrementTick_3: (+1)
   \   00000028   0xE7FE             B        ??xTaskIncrementTick_3
   \                     ??xTaskIncrementTick_2: (+1)
   \   0000002A   0x6EA0             LDR      R0,[R4, #+104]
   \   0000002C   0x6EE1             LDR      R1,[R4, #+108]
   \   0000002E   0x66A1             STR      R1,[R4, #+104]
   \   00000030   0x66E0             STR      R0,[R4, #+108]
   \   00000032   0x6CF8             LDR      R0,[R7, #+76]
   \   00000034   0x1C40             ADDS     R0,R0,#+1
   \   00000036   0x64F8             STR      R0,[R7, #+76]
   \   00000038   0x6EA0             LDR      R0,[R4, #+104]
   \   0000003A   0x6800             LDR      R0,[R0, #+0]
   \   0000003C   0x2800             CMP      R0,#+0
   \   0000003E   0xD102             BNE      ??xTaskIncrementTick_4
   \   00000040   0x2000             MOVS     R0,#+0
   \   00000042   0x43C0             MVNS     R0,R0            ;; #-1
   \   00000044   0xE003             B        ??xTaskIncrementTick_5
   \                     ??xTaskIncrementTick_4: (+1)
   \   00000046   0x6EA0             LDR      R0,[R4, #+104]
   \   00000048   0x68C0             LDR      R0,[R0, #+12]
   \   0000004A   0x68C0             LDR      R0,[R0, #+12]
   \   0000004C   0x6840             LDR      R0,[R0, #+4]
   \                     ??xTaskIncrementTick_5: (+1)
   \   0000004E   0x67E0             STR      R0,[R4, #+124]
   2687          		}
   2688          		else
   2689          		{
   2690          			mtCOVERAGE_TEST_MARKER();
   2691          		}
   2692          
   2693          		/* See if this tick has made a timeout expire.  Tasks are stored in
   2694          		the	queue in the order of their wake time - meaning once one task
   2695          		has been found whose block time has not expired there is no need to
   2696          		look any further down the list. */
   2697          		if( xConstTickCount >= xNextTaskUnblockTime )
   \                     ??xTaskIncrementTick_1: (+1)
   \   00000050   0x9800             LDR      R0,[SP, #+0]
   \   00000052   0x6FE1             LDR      R1,[R4, #+124]
   \   00000054   0x4288             CMP      R0,R1
   \   00000056   0xD32D             BCC      ??xTaskIncrementTick_6
   \   00000058   0xE01D             B        ??xTaskIncrementTick_7
   2698          		{
   2699          			for( ;; )
   2700          			{
   2701          				if( listLIST_IS_EMPTY( pxDelayedTaskList ) != pdFALSE )
   2702          				{
   2703          					/* The delayed list is empty.  Set xNextTaskUnblockTime
   2704          					to the maximum possible value so it is extremely
   2705          					unlikely that the
   2706          					if( xTickCount >= xNextTaskUnblockTime ) test will pass
   2707          					next time through. */
   2708          					xNextTaskUnblockTime = portMAX_DELAY; /*lint !e961 MISRA exception as the casts are only redundant for some ports. */
   2709          					break;
   2710          				}
   2711          				else
   2712          				{
   2713          					/* The delayed list is not empty, get the value of the
   2714          					item at the head of the delayed list.  This is the time
   2715          					at which the task at the head of the delayed list must
   2716          					be removed from the Blocked state. */
   2717          					pxTCB = listGET_OWNER_OF_HEAD_ENTRY( pxDelayedTaskList ); /*lint !e9079 void * is used as this macro is used with timers and co-routines too.  Alignment is known to be fine as the type of the pointer stored and retrieved is the same. */
   2718          					xItemValue = listGET_LIST_ITEM_VALUE( &( pxTCB->xStateListItem ) );
   2719          
   2720          					if( xConstTickCount < xItemValue )
   2721          					{
   2722          						/* It is not time to unblock this item yet, but the
   2723          						item value is the time at which the task at the head
   2724          						of the blocked list must be removed from the Blocked
   2725          						state -	so record the item value in
   2726          						xNextTaskUnblockTime. */
   2727          						xNextTaskUnblockTime = xItemValue;
   2728          						break; /*lint !e9011 Code structure here is deedmed easier to understand with multiple breaks. */
   2729          					}
   2730          					else
   2731          					{
   2732          						mtCOVERAGE_TEST_MARKER();
   2733          					}
   2734          
   2735          					/* It is time to remove the item from the Blocked state. */
   2736          					( void ) uxListRemove( &( pxTCB->xStateListItem ) );
   \                     ??xTaskIncrementTick_8: (+1)
   \   0000005A   0x1D28             ADDS     R0,R5,#+4
   \   0000005C   0x.... 0x....      BL       uxListRemove
   2737          
   2738          					/* Is the task waiting on an event also?  If so remove
   2739          					it from the event list. */
   2740          					if( listLIST_ITEM_CONTAINER( &( pxTCB->xEventListItem ) ) != NULL )
   \   00000060   0x6AA8             LDR      R0,[R5, #+40]
