###############################################################################
#
# IAR ANSI C/C++ Compiler V7.40.7.9843/W32 for ARM        20/Dec/2019  17:18:57
# Copyright 1999-2015 IAR Systems AB.
#
#    Cpu mode     =  thumb
#    Endian       =  little
#    Source file  =  
#        C:\Users\Ian\Desktop\Projects\hub
#        project\hub\clang\source\FreeRTOS\heap_1.c
#    Command line =  
#        "C:\Users\Ian\Desktop\Projects\hub
#        project\hub\clang\source\FreeRTOS\heap_1.c" -D RESISTANCE_TRIMS -D
#        AFE_TRIMS -D USB_TRIMS -D USE_DEBUG_GPIOS -D USE_PD -lC
#        "C:\Users\Ian\Desktop\Projects\hub
#        project\hub\toolchain\iar\project\Debug\List" -o
#        "C:\Users\Ian\Desktop\Projects\hub
#        project\hub\toolchain\iar\project\Debug\Obj" --no_cse --no_unroll
#        --no_inline --no_code_motion --no_tbaa --no_clustering --no_scheduling
#        --debug --endian=little --cpu=Cortex-M0 -e --fpu=None --dlib_config
#        "C:\Program Files (x86)\IAR Systems\Embedded Workbench
#        7.2\arm\INC\c\DLib_Config_Normal.h" -I
#        "C:\Users\Ian\Desktop\Projects\hub
#        project\hub\toolchain\iar\project\..\..\..\clang\include\" -I
#        "C:\Users\Ian\Desktop\Projects\hub
#        project\hub\toolchain\iar\project\..\..\..\clang\include\superior\clough\"
#        -I "C:\Users\Ian\Desktop\Projects\hub
#        project\hub\toolchain\iar\project\..\..\..\clang\include\superior\sfr\"
#        -I "C:\Users\Ian\Desktop\Projects\hub
#        project\hub\toolchain\iar\project\..\..\..\clang\include\superior\" -I
#        "C:\Users\Ian\Desktop\Projects\hub
#        project\hub\toolchain\iar\project\..\SEGGER_RTT_V640\RTT\" -I
#        "C:\Users\Ian\Desktop\Projects\hub
#        project\hub\toolchain\iar\project\..\..\..\clang\source\FreeRTOS\" -On
#        -I "C:\Program Files (x86)\IAR Systems\Embedded Workbench
#        7.2\arm\CMSIS\Include\"
#    List file    =  
#        C:\Users\Ian\Desktop\Projects\hub
#        project\hub\toolchain\iar\project\Debug\List\heap_1.lst
#    Object file  =  
#        C:\Users\Ian\Desktop\Projects\hub
#        project\hub\toolchain\iar\project\Debug\Obj\heap_1.o
#
###############################################################################

C:\Users\Ian\Desktop\Projects\hub project\hub\clang\source\FreeRTOS\heap_1.c
      1          /*
      2           * FreeRTOS Kernel V10.2.0
      3           * Copyright (C) 2019 Amazon.com, Inc. or its affiliates.  All Rights Reserved.
      4           *
      5           * Permission is hereby granted, free of charge, to any person obtaining a copy of
      6           * this software and associated documentation files (the "Software"), to deal in
      7           * the Software without restriction, including without limitation the rights to
      8           * use, copy, modify, merge, publish, distribute, sublicense, and/or sell copies of
      9           * the Software, and to permit persons to whom the Software is furnished to do so,
     10           * subject to the following conditions:
     11           *
     12           * The above copyright notice and this permission notice shall be included in all
     13           * copies or substantial portions of the Software.
     14           *
     15           * THE SOFTWARE IS PROVIDED "AS IS", WITHOUT WARRANTY OF ANY KIND, EXPRESS OR
     16           * IMPLIED, INCLUDING BUT NOT LIMITED TO THE WARRANTIES OF MERCHANTABILITY, FITNESS
     17           * FOR A PARTICULAR PURPOSE AND NONINFRINGEMENT. IN NO EVENT SHALL THE AUTHORS OR
     18           * COPYRIGHT HOLDERS BE LIABLE FOR ANY CLAIM, DAMAGES OR OTHER LIABILITY, WHETHER
     19           * IN AN ACTION OF CONTRACT, TORT OR OTHERWISE, ARISING FROM, OUT OF OR IN
     20           * CONNECTION WITH THE SOFTWARE OR THE USE OR OTHER DEALINGS IN THE SOFTWARE.
     21           *
     22           * http://www.FreeRTOS.org
     23           * http://aws.amazon.com/freertos
     24           *
     25           * 1 tab == 4 spaces!
     26           */
     27          
     28          
     29          /*
     30           * The simplest possible implementation of pvPortMalloc().  Note that this
     31           * implementation does NOT allow allocated memory to be freed again.
     32           *
     33           * See heap_2.c, heap_3.c and heap_4.c for alternative implementations, and the
     34           * memory management pages of http://www.FreeRTOS.org for more information.
     35           */
     36          #include <stdlib.h>
     37          
     38          /* Defining MPU_WRAPPERS_INCLUDED_FROM_API_FILE prevents task.h from redefining
     39          all the API functions to use the MPU wrappers.  That should only be done when
     40          task.h is included from an application file. */
     41          #define MPU_WRAPPERS_INCLUDED_FROM_API_FILE
     42          
     43          #include "FreeRTOS.h"
     44          #include "task.h"
     45          
     46          #undef MPU_WRAPPERS_INCLUDED_FROM_API_FILE
     47          
     48          #if( configSUPPORT_DYNAMIC_ALLOCATION == 0 )
     49          	#error This file must not be used if configSUPPORT_DYNAMIC_ALLOCATION is 0
     50          #endif
     51          
     52          /* A few bytes might be lost to byte aligning the heap start address. */
     53          #define configADJUSTED_HEAP_SIZE	( configTOTAL_HEAP_SIZE - portBYTE_ALIGNMENT )
     54          
     55          /* Allocate the memory for the heap. */
     56          #if( configAPPLICATION_ALLOCATED_HEAP == 1 )
     57          	/* The application writer has already defined the array used for the RTOS
     58          	heap - probably so it can be placed in a special segment or address. */
     59          	extern uint8_t ucHeap[ configTOTAL_HEAP_SIZE ];
     60          #else

   \                                 In section .bss, align 4
     61          	static uint8_t ucHeap[ configTOTAL_HEAP_SIZE ];
   \                     ucHeap:
   \   00000000                      DS8 7200
     62          #endif /* configAPPLICATION_ALLOCATED_HEAP */
     63          
     64          /* Index into the ucHeap array. */

   \                                 In section .bss, align 4
     65          static size_t xNextFreeByte = ( size_t ) 0;
   \                     xNextFreeByte:
   \   00000000                      DS8 4
     66          
     67          /*-----------------------------------------------------------*/
     68          

   \                                 In section .text, align 2, keep-with-next
     69          void *pvPortMalloc( size_t xWantedSize )
     70          {
   \                     pvPortMalloc: (+1)
   \   00000000   0xB538             PUSH     {R3-R5,LR}
   \   00000002   0x0005             MOVS     R5,R0
     71          void *pvReturn = NULL;
   \   00000004   0x2400             MOVS     R4,#+0
     72          static uint8_t *pucAlignedHeap = NULL;
     73          
     74          	/* Ensure that blocks are always aligned to the required number of bytes. */
     75          	#if( portBYTE_ALIGNMENT != 1 )
     76          	{
     77          		if( xWantedSize & portBYTE_ALIGNMENT_MASK )
   \   00000006   0x0768             LSLS     R0,R5,#+29       ;; ZeroExtS R0,R5,#+29,#+29
   \   00000008   0x0F40             LSRS     R0,R0,#+29
   \   0000000A   0x2800             CMP      R0,#+0
   \   0000000C   0xD004             BEQ      ??pvPortMalloc_0
     78          		{
     79          			/* Byte alignment required. */
     80          			xWantedSize += ( portBYTE_ALIGNMENT - ( xWantedSize & portBYTE_ALIGNMENT_MASK ) );
   \   0000000E   0x0028             MOVS     R0,R5
   \   00000010   0x3008             ADDS     R0,R0,#+8
   \   00000012   0x0769             LSLS     R1,R5,#+29       ;; ZeroExtS R1,R5,#+29,#+29
   \   00000014   0x0F49             LSRS     R1,R1,#+29
   \   00000016   0x1A45             SUBS     R5,R0,R1
     81          		}
     82          	}
     83          	#endif
     84          
     85          	vTaskSuspendAll();
   \                     ??pvPortMalloc_0: (+1)
   \   00000018   0x.... 0x....      BL       vTaskSuspendAll
     86          	{
     87          		if( pucAlignedHeap == NULL )
   \   0000001C   0x....             LDR      R0,??DataTable2
   \   0000001E   0x6800             LDR      R0,[R0, #+0]
   \   00000020   0x2800             CMP      R0,#+0
   \   00000022   0xD104             BNE      ??pvPortMalloc_1
     88          		{
     89          			/* Ensure the heap starts on a correctly aligned boundary. */
     90          			pucAlignedHeap = ( uint8_t * ) ( ( ( portPOINTER_SIZE_TYPE ) &ucHeap[ portBYTE_ALIGNMENT ] ) & ( ~( ( portPOINTER_SIZE_TYPE ) portBYTE_ALIGNMENT_MASK ) ) );
   \   00000024   0x....             LDR      R0,??DataTable2_1
   \   00000026   0x2107             MOVS     R1,#+7
   \   00000028   0x4388             BICS     R0,R0,R1
   \   0000002A   0x....             LDR      R1,??DataTable2
   \   0000002C   0x6008             STR      R0,[R1, #+0]
     91          		}
     92          
     93          		/* Check there is enough room left for the allocation. */
     94          		if( ( ( xNextFreeByte + xWantedSize ) < configADJUSTED_HEAP_SIZE ) &&
     95          			( ( xNextFreeByte + xWantedSize ) > xNextFreeByte )	)/* Check for overflow. */
   \                     ??pvPortMalloc_1: (+1)
   \   0000002E   0x....             LDR      R0,??DataTable2_2
   \   00000030   0x6800             LDR      R0,[R0, #+0]
   \   00000032   0x1940             ADDS     R0,R0,R5
   \   00000034   0x....             LDR      R1,??DataTable2_3  ;; 0x1c18
   \   00000036   0x4288             CMP      R0,R1
   \   00000038   0xD211             BCS      ??pvPortMalloc_2
   \   0000003A   0x....             LDR      R0,??DataTable2_2
   \   0000003C   0x6800             LDR      R0,[R0, #+0]
   \   0000003E   0x....             LDR      R1,??DataTable2_2
   \   00000040   0x6809             LDR      R1,[R1, #+0]
   \   00000042   0x1949             ADDS     R1,R1,R5
   \   00000044   0x4288             CMP      R0,R1
   \   00000046   0xD20A             BCS      ??pvPortMalloc_2
     96          		{
     97          			/* Return the next free byte then increment the index past this
     98          			block. */
     99          			pvReturn = pucAlignedHeap + xNextFreeByte;
   \   00000048   0x....             LDR      R0,??DataTable2
   \   0000004A   0x6800             LDR      R0,[R0, #+0]
   \   0000004C   0x....             LDR      R1,??DataTable2_2
   \   0000004E   0x6809             LDR      R1,[R1, #+0]
   \   00000050   0x1840             ADDS     R0,R0,R1
   \   00000052   0x0004             MOVS     R4,R0
    100          			xNextFreeByte += xWantedSize;
   \   00000054   0x....             LDR      R0,??DataTable2_2
   \   00000056   0x6800             LDR      R0,[R0, #+0]
   \   00000058   0x1940             ADDS     R0,R0,R5
   \   0000005A   0x....             LDR      R1,??DataTable2_2
   \   0000005C   0x6008             STR      R0,[R1, #+0]
    101          		}
    102          
    103          		traceMALLOC( pvReturn, xWantedSize );
    104          	}
    105          	( void ) xTaskResumeAll();
   \                     ??pvPortMalloc_2: (+1)
   \   0000005E   0x.... 0x....      BL       xTaskResumeAll
    106          
    107          	#if( configUSE_MALLOC_FAILED_HOOK == 1 )
    108          	{
    109          		if( pvReturn == NULL )
   \   00000062   0x2C00             CMP      R4,#+0
   \   00000064   0xD101             BNE      ??pvPortMalloc_3
    110          		{
    111          			extern void vApplicationMallocFailedHook( void );
    112          			vApplicationMallocFailedHook();
   \   00000066   0x.... 0x....      BL       vApplicationMallocFailedHook
    113          		}
    114          	}
    115          	#endif
    116          
    117          	return pvReturn;
   \                     ??pvPortMalloc_3: (+1)
   \   0000006A   0x0020             MOVS     R0,R4
   \   0000006C   0xBD32             POP      {R1,R4,R5,PC}    ;; return
    118          }

   \                                 In section .bss, align 4
   \                     ??pucAlignedHeap:
   \   00000000                      DS8 4
    119          /*-----------------------------------------------------------*/
    120          

   \                                 In section .text, align 4, keep-with-next
    121          void vPortFree( void *pv )
    122          {
   \                     vPortFree: (+1)
   \   00000000   0xB500             PUSH     {LR}
    123          	/* Memory cannot be freed using this scheme.  See heap_2.c, heap_3.c and
    124          	heap_4.c for alternative implementations, and the memory management pages of
    125          	http://www.FreeRTOS.org for more information. */
    126          	( void ) pv;
    127          
    128          	/* Force an assert as it is invalid to call this function. */
    129          	configASSERT( pv == NULL );
   \   00000002   0x2800             CMP      R0,#+0
   \   00000004   0xD001             BEQ      ??vPortFree_0
   \   00000006   0xB672             cpsid i
   \                     ??vPortFree_1: (+1)
   \   00000008   0xE7FE             B        ??vPortFree_1
    130          }
   \                     ??vPortFree_0: (+1)
   \   0000000A   0xBD00             POP      {PC}             ;; return
    131          /*-----------------------------------------------------------*/
    132          

   \                                 In section .text, align 2, keep-with-next
    133          void vPortInitialiseBlocks( void )
    134          {
    135          	/* Only required when static memory is not cleared. */
    136          	xNextFreeByte = ( size_t ) 0;
   \                     vPortInitialiseBlocks: (+1)
   \   00000000   0x2000             MOVS     R0,#+0
   \   00000002   0x....             LDR      R1,??DataTable2_2
   \   00000004   0x6008             STR      R0,[R1, #+0]
    137          }
   \   00000006   0x4770             BX       LR               ;; return
    138          /*-----------------------------------------------------------*/
    139          

   \                                 In section .text, align 2, keep-with-next
    140          size_t xPortGetFreeHeapSize( void )
    141          {
    142          	return ( configADJUSTED_HEAP_SIZE - xNextFreeByte );
   \                     xPortGetFreeHeapSize: (+1)
   \   00000000   0x....             LDR      R0,??DataTable2_3  ;; 0x1c18
   \   00000002   0x....             LDR      R1,??DataTable2_2
   \   00000004   0x6809             LDR      R1,[R1, #+0]
   \   00000006   0x1A40             SUBS     R0,R0,R1
   \   00000008   0x4770             BX       LR               ;; return
    143          }

   \                                 In section .text, align 4, keep-with-next
   \                     ??DataTable2:
   \   00000000   0x........         DC32     ??pucAlignedHeap

   \                                 In section .text, align 4, keep-with-next
   \                     ??DataTable2_1:
   \   00000000   0x........         DC32     ucHeap+0x8

   \                                 In section .text, align 4, keep-with-next
   \                     ??DataTable2_2:
   \   00000000   0x........         DC32     xNextFreeByte

   \                                 In section .text, align 4, keep-with-next
   \                     ??DataTable2_3:
   \   00000000   0x00001C18         DC32     0x1c18
    144          
    145          
    146          

   Maximum stack usage in bytes:

   .cstack Function
   ------- --------
      16   pvPortMalloc
        16   -> vApplicationMallocFailedHook
        16   -> vTaskSuspendAll
        16   -> xTaskResumeAll
       4   vPortFree
       0   vPortInitialiseBlocks
       0   xPortGetFreeHeapSize


   Section sizes:

   Bytes  Function/Label
   -----  --------------
       4  ??DataTable2
       4  ??DataTable2_1
       4  ??DataTable2_2
       4  ??DataTable2_3
       4  pucAlignedHeap
     110  pvPortMalloc
    7200  ucHeap
      12  vPortFree
       8  vPortInitialiseBlocks
       4  xNextFreeByte
      10  xPortGetFreeHeapSize

 
 7 208 bytes in section .bss
   156 bytes in section .text
 
   156 bytes of CODE memory
 7 208 bytes of DATA memory

Errors: none
Warnings: none
