###############################################################################
#
# IAR ANSI C/C++ Compiler V7.40.7.9843/W32 for ARM        20/Dec/2019  17:18:57
# Copyright 1999-2015 IAR Systems AB.
#
#    Cpu mode     =  thumb
#    Endian       =  little
#    Source file  =  
#        C:\Users\Ian\Desktop\Projects\hub project\hub\clang\source\hub.c
#    Command line =  
#        "C:\Users\Ian\Desktop\Projects\hub project\hub\clang\source\hub.c" -D
#        RESISTANCE_TRIMS -D AFE_TRIMS -D USB_TRIMS -D USE_DEBUG_GPIOS -D
#        USE_PD -lC "C:\Users\Ian\Desktop\Projects\hub
#        project\hub\toolchain\iar\project\Debug\List" -o
#        "C:\Users\Ian\Desktop\Projects\hub
#        project\hub\toolchain\iar\project\Debug\Obj" --no_cse --no_unroll
#        --no_inline --no_code_motion --no_tbaa --no_clustering --no_scheduling
#        --debug --endian=little --cpu=Cortex-M0 -e --fpu=None --dlib_config
#        "C:\Program Files (x86)\IAR Systems\Embedded Workbench
#        7.2\arm\INC\c\DLib_Config_Normal.h" -I
#        "C:\Users\Ian\Desktop\Projects\hub
#        project\hub\toolchain\iar\project\..\..\..\clang\include\" -I
#        "C:\Users\Ian\Desktop\Projects\hub
#        project\hub\toolchain\iar\project\..\..\..\clang\include\superior\clough\"
#        -I "C:\Users\Ian\Desktop\Projects\hub
#        project\hub\toolchain\iar\project\..\..\..\clang\include\superior\sfr\"
#        -I "C:\Users\Ian\Desktop\Projects\hub
#        project\hub\toolchain\iar\project\..\..\..\clang\include\superior\" -I
#        "C:\Users\Ian\Desktop\Projects\hub
#        project\hub\toolchain\iar\project\..\SEGGER_RTT_V640\RTT\" -I
#        "C:\Users\Ian\Desktop\Projects\hub
#        project\hub\toolchain\iar\project\..\..\..\clang\source\FreeRTOS\" -On
#        -I "C:\Program Files (x86)\IAR Systems\Embedded Workbench
#        7.2\arm\CMSIS\Include\"
#    List file    =  
#        C:\Users\Ian\Desktop\Projects\hub
#        project\hub\toolchain\iar\project\Debug\List\hub.lst
#    Object file  =  
#        C:\Users\Ian\Desktop\Projects\hub
#        project\hub\toolchain\iar\project\Debug\Obj\hub.o
#
###############################################################################

C:\Users\Ian\Desktop\Projects\hub project\hub\clang\source\hub.c
      1          /** @file hub.c
      2           *  @brief Initialization and operation of hub
      3           *
      4           *  Set up hub and port hardware, the port change interrupt.
      5           *  
      6           *
      7           *  @author Ian Board
      8           *  @bug No known bugs.
      9           */
     10          
     11          #include "superior.h"

   \                                 In section .text, align 2, keep-with-next
   \   static __interwork __softfp void NVIC_EnableIRQ(IRQn_Type)
   \                     NVIC_EnableIRQ: (+1)
   \   00000000   0x2101             MOVS     R1,#+1
   \   00000002   0x06C2             LSLS     R2,R0,#+27       ;; ZeroExtS R2,R0,#+27,#+27
   \   00000004   0x0ED2             LSRS     R2,R2,#+27
   \   00000006   0x4091             LSLS     R1,R1,R2
   \   00000008   0x....             LDR      R2,??DataTable10  ;; 0xe000e100
   \   0000000A   0x6011             STR      R1,[R2, #+0]
   \   0000000C   0x4770             BX       LR               ;; return

   \                                 In section .text, align 2, keep-with-next
   \   static __interwork __softfp void NVIC_DisableIRQ(IRQn_Type)
   \                     NVIC_DisableIRQ: (+1)
   \   00000000   0x2101             MOVS     R1,#+1
   \   00000002   0x06C2             LSLS     R2,R0,#+27       ;; ZeroExtS R2,R0,#+27,#+27
   \   00000004   0x0ED2             LSRS     R2,R2,#+27
   \   00000006   0x4091             LSLS     R1,R1,R2
   \   00000008   0x....             LDR      R2,??DataTable10_1  ;; 0xe000e180
   \   0000000A   0x6011             STR      R1,[R2, #+0]
   \   0000000C   0x4770             BX       LR               ;; return

   \                                 In section .text, align 2, keep-with-next
   \   static __interwork __softfp void NVIC_ClearPendingIRQ(IRQn_Type)
   \                     NVIC_ClearPendingIRQ: (+1)
   \   00000000   0x2101             MOVS     R1,#+1
   \   00000002   0x06C2             LSLS     R2,R0,#+27       ;; ZeroExtS R2,R0,#+27,#+27
   \   00000004   0x0ED2             LSRS     R2,R2,#+27
   \   00000006   0x4091             LSLS     R1,R1,R2
   \   00000008   0x....             LDR      R2,??DataTable10_2  ;; 0xe000e280
   \   0000000A   0x6011             STR      R1,[R2, #+0]
   \   0000000C   0x4770             BX       LR               ;; return

   \                                 In section .text, align 2, keep-with-next
   \   static __interwork __softfp void NVIC_SetPriority(IRQn_Type, uint32_t)
   \                     NVIC_SetPriority: (+1)
   \   00000000   0xB5F0             PUSH     {R4-R7,LR}
   \   00000002   0xB240             SXTB     R0,R0
   \   00000004   0x2800             CMP      R0,#+0
   \   00000006   0xD521             BPL      ??NVIC_SetPriority_0
   \   00000008   0x....             LDR      R4,??DataTable8  ;; 0xe000ed1c
   \   0000000A   0xB240             SXTB     R0,R0
   \   0000000C   0x0702             LSLS     R2,R0,#+28       ;; ZeroExtS R2,R0,#+28,#+28
   \   0000000E   0x0F12             LSRS     R2,R2,#+28
   \   00000010   0x3A08             SUBS     R2,R2,#+8
   \   00000012   0x0895             LSRS     R5,R2,#+2
   \   00000014   0x2204             MOVS     R2,#+4
   \   00000016   0x4355             MULS     R5,R2,R5
   \   00000018   0x....             LDR      R2,??DataTable8  ;; 0xe000ed1c
   \   0000001A   0xB240             SXTB     R0,R0
   \   0000001C   0x0703             LSLS     R3,R0,#+28       ;; ZeroExtS R3,R0,#+28,#+28
   \   0000001E   0x0F1B             LSRS     R3,R3,#+28
   \   00000020   0x3B08             SUBS     R3,R3,#+8
   \   00000022   0x089B             LSRS     R3,R3,#+2
   \   00000024   0x2604             MOVS     R6,#+4
   \   00000026   0x4373             MULS     R3,R6,R3
   \   00000028   0x58D2             LDR      R2,[R2, R3]
   \   0000002A   0x23FF             MOVS     R3,#+255
   \   0000002C   0x0786             LSLS     R6,R0,#+30       ;; ZeroExtS R6,R0,#+30,#+30
   \   0000002E   0x0FB6             LSRS     R6,R6,#+30
   \   00000030   0x2708             MOVS     R7,#+8
   \   00000032   0x437E             MULS     R6,R7,R6
   \   00000034   0x40B3             LSLS     R3,R3,R6
   \   00000036   0x439A             BICS     R2,R2,R3
   \   00000038   0x018B             LSLS     R3,R1,#+6
   \   0000003A   0xB2DB             UXTB     R3,R3
   \   0000003C   0x0786             LSLS     R6,R0,#+30       ;; ZeroExtS R6,R0,#+30,#+30
   \   0000003E   0x0FB6             LSRS     R6,R6,#+30
   \   00000040   0x2708             MOVS     R7,#+8
   \   00000042   0x437E             MULS     R6,R7,R6
   \   00000044   0x40B3             LSLS     R3,R3,R6
   \   00000046   0x4313             ORRS     R3,R3,R2
   \   00000048   0x5163             STR      R3,[R4, R5]
   \   0000004A   0xE01A             B        ??NVIC_SetPriority_1
   \                     ??NVIC_SetPriority_0: (+1)
   \   0000004C   0x....             LDR      R2,??DataTable10_3  ;; 0xe000e400
   \   0000004E   0xB240             SXTB     R0,R0
   \   00000050   0x0883             LSRS     R3,R0,#+2
   \   00000052   0x2404             MOVS     R4,#+4
   \   00000054   0x4363             MULS     R3,R4,R3
   \   00000056   0x58D2             LDR      R2,[R2, R3]
   \   00000058   0x23FF             MOVS     R3,#+255
   \   0000005A   0x0784             LSLS     R4,R0,#+30       ;; ZeroExtS R4,R0,#+30,#+30
   \   0000005C   0x0FA4             LSRS     R4,R4,#+30
   \   0000005E   0x2508             MOVS     R5,#+8
   \   00000060   0x436C             MULS     R4,R5,R4
   \   00000062   0x40A3             LSLS     R3,R3,R4
   \   00000064   0x439A             BICS     R2,R2,R3
   \   00000066   0x018B             LSLS     R3,R1,#+6
   \   00000068   0xB2DB             UXTB     R3,R3
   \   0000006A   0x0784             LSLS     R4,R0,#+30       ;; ZeroExtS R4,R0,#+30,#+30
   \   0000006C   0x0FA4             LSRS     R4,R4,#+30
   \   0000006E   0x2508             MOVS     R5,#+8
   \   00000070   0x436C             MULS     R4,R5,R4
   \   00000072   0x40A3             LSLS     R3,R3,R4
   \   00000074   0x4313             ORRS     R3,R3,R2
   \   00000076   0x....             LDR      R2,??DataTable10_3  ;; 0xe000e400
   \   00000078   0xB240             SXTB     R0,R0
   \   0000007A   0x0884             LSRS     R4,R0,#+2
   \   0000007C   0x2504             MOVS     R5,#+4
   \   0000007E   0x436C             MULS     R4,R5,R4
   \   00000080   0x5113             STR      R3,[R2, R4]
   \                     ??NVIC_SetPriority_1: (+1)
   \   00000082   0xBDF0             POP      {R4-R7,PC}       ;; return

   \                                 In section .text, align 2, keep-with-next
   \   static __interwork __softfp void USBHUB_descriptorMemcpy(uint8_t const *, uint16_t const, uint8_t const)
   \                     USBHUB_descriptorMemcpy: (+1)
   \   00000000   0xB5F7             PUSH     {R0-R2,R4-R7,LR}
   \   00000002   0x0004             MOVS     R4,R0
   \   00000004   0x4668             MOV      R0,SP
   \   00000006   0x8880             LDRH     R0,[R0, #+4]
   \   00000008   0x....             LDR      R1,??DataTable10_4  ;; 0x201
   \   0000000A   0x4288             CMP      R0,R1
   \   0000000C   0xDB01             BLT      ??USBHUB_descriptorMemcpy_0
   \   0000000E   0x.... 0x....      BL       dbgTrapErr
   \                     ??USBHUB_descriptorMemcpy_0: (+1)
   \   00000012   0x4668             MOV      R0,SP
   \   00000014   0x7A00             LDRB     R0,[R0, #+8]
   \   00000016   0x2800             CMP      R0,#+0
   \   00000018   0xD002             BEQ      ??USBHUB_descriptorMemcpy_1
   \   0000001A   0x....             LDR      R0,??DataTable10_5  ;; 0x50013600
   \   0000001C   0x0005             MOVS     R5,R0
   \   0000001E   0xE001             B        ??USBHUB_descriptorMemcpy_2
   \                     ??USBHUB_descriptorMemcpy_1: (+1)
   \   00000020   0x....             LDR      R0,??DataTable11  ;; 0x50013400
   \   00000022   0x0005             MOVS     R5,R0
   \                     ??USBHUB_descriptorMemcpy_2: (+1)
   \   00000024   0x0026             MOVS     R6,R4
   \   00000026   0x4668             MOV      R0,SP
   \   00000028   0x8880             LDRH     R0,[R0, #+4]
   \   0000002A   0x1820             ADDS     R0,R4,R0
   \   0000002C   0x0007             MOVS     R7,R0
   \                     ??USBHUB_descriptorMemcpy_3: (+1)
   \   0000002E   0x42BE             CMP      R6,R7
   \   00000030   0xD212             BCS      ??USBHUB_descriptorMemcpy_4
   \   00000032   0x7830             LDRB     R0,[R6, #+0]
   \   00000034   0x4669             MOV      R1,SP
   \   00000036   0x7008             STRB     R0,[R1, #+0]
   \   00000038   0x1C76             ADDS     R6,R6,#+1
   \   0000003A   0x42BE             CMP      R6,R7
   \   0000003C   0xD204             BCS      ??USBHUB_descriptorMemcpy_5
   \   0000003E   0x7830             LDRB     R0,[R6, #+0]
   \   00000040   0x4669             MOV      R1,SP
   \   00000042   0x7048             STRB     R0,[R1, #+1]
   \   00000044   0x1C76             ADDS     R6,R6,#+1
   \   00000046   0xE002             B        ??USBHUB_descriptorMemcpy_6
   \                     ??USBHUB_descriptorMemcpy_5: (+1)
   \   00000048   0x2000             MOVS     R0,#+0
   \   0000004A   0x4669             MOV      R1,SP
   \   0000004C   0x7048             STRB     R0,[R1, #+1]
   \                     ??USBHUB_descriptorMemcpy_6: (+1)
   \   0000004E   0x4668             MOV      R0,SP
   \   00000050   0x8800             LDRH     R0,[R0, #+0]
   \   00000052   0x8028             STRH     R0,[R5, #+0]
   \   00000054   0x1D2D             ADDS     R5,R5,#+4
   \   00000056   0xE7EA             B        ??USBHUB_descriptorMemcpy_3
   \                     ??USBHUB_descriptorMemcpy_4: (+1)
   \   00000058   0xBDF7             POP      {R0-R2,R4-R7,PC}  ;; return

   \                                 In section .text, align 2, keep-with-next
   \   static __interwork __softfp void USBAFE_enableAFE(uint8_t, uint8_t)
   \                     USBAFE_enableAFE: (+1)
   \   00000000   0xB570             PUSH     {R4-R6,LR}
   \   00000002   0xB082             SUB      SP,SP,#+8
   \   00000004   0x0005             MOVS     R5,R0
   \   00000006   0x000C             MOVS     R4,R1
   \   00000008   0xB2ED             UXTB     R5,R5
   \   0000000A   0x2D00             CMP      R5,#+0
   \   0000000C   0xD005             BEQ      ??USBAFE_enableAFE_0
   \   0000000E   0x2D02             CMP      R5,#+2
   \   00000010   0xD009             BEQ      ??USBAFE_enableAFE_1
   \   00000012   0xD305             BCC      ??USBAFE_enableAFE_2
   \   00000014   0x2D03             CMP      R5,#+3
   \   00000016   0xD009             BEQ      ??USBAFE_enableAFE_3
   \   00000018   0xE00B             B        ??USBAFE_enableAFE_4
   \                     ??USBAFE_enableAFE_0: (+1)
   \   0000001A   0x....             LDR      R0,??DataTable11_1  ;; 0x50016000
   \   0000001C   0x0006             MOVS     R6,R0
   \   0000001E   0xE00B             B        ??USBAFE_enableAFE_5
   \                     ??USBAFE_enableAFE_2: (+1)
   \   00000020   0x....             LDR      R0,??DataTable11_2  ;; 0x50016010
   \   00000022   0x0006             MOVS     R6,R0
   \   00000024   0xE008             B        ??USBAFE_enableAFE_5
   \                     ??USBAFE_enableAFE_1: (+1)
   \   00000026   0x....             LDR      R0,??DataTable11_3  ;; 0x50016020
   \   00000028   0x0006             MOVS     R6,R0
   \   0000002A   0xE005             B        ??USBAFE_enableAFE_5
   \                     ??USBAFE_enableAFE_3: (+1)
   \   0000002C   0x....             LDR      R0,??DataTable11_4  ;; 0x50016030
   \   0000002E   0x0006             MOVS     R6,R0
   \   00000030   0xE002             B        ??USBAFE_enableAFE_5
   \                     ??USBAFE_enableAFE_4: (+1)
   \   00000032   0x.... 0x....      BL       dbgTrapErr
   \   00000036   0xE049             B        ??USBAFE_enableAFE_6
   \                     ??USBAFE_enableAFE_5: (+1)
   \   00000038   0x2000             MOVS     R0,#+0
   \   0000003A   0x4669             MOV      R1,SP
   \   0000003C   0x7008             STRB     R0,[R1, #+0]
   \   0000003E   0x4668             MOV      R0,SP
   \   00000040   0x4669             MOV      R1,SP
   \   00000042   0x7809             LDRB     R1,[R1, #+0]
   \   00000044   0x2201             MOVS     R2,#+1
   \   00000046   0x430A             ORRS     R2,R2,R1
   \   00000048   0x7002             STRB     R2,[R0, #+0]
   \   0000004A   0x4668             MOV      R0,SP
   \   0000004C   0x4669             MOV      R1,SP
   \   0000004E   0x7809             LDRB     R1,[R1, #+0]
   \   00000050   0x2202             MOVS     R2,#+2
   \   00000052   0x430A             ORRS     R2,R2,R1
   \   00000054   0x7002             STRB     R2,[R0, #+0]
   \   00000056   0xB2E4             UXTB     R4,R4
   \   00000058   0x2C00             CMP      R4,#+0
   \   0000005A   0xD001             BEQ      ??USBAFE_enableAFE_7
   \   0000005C   0x2001             MOVS     R0,#+1
   \   0000005E   0xE000             B        ??USBAFE_enableAFE_8
   \                     ??USBAFE_enableAFE_7: (+1)
   \   00000060   0x2000             MOVS     R0,#+0
   \                     ??USBAFE_enableAFE_8: (+1)
   \   00000062   0x4669             MOV      R1,SP
   \   00000064   0x7809             LDRB     R1,[R1, #+0]
   \   00000066   0x22FB             MOVS     R2,#+251
   \   00000068   0x400A             ANDS     R2,R2,R1
   \   0000006A   0x0080             LSLS     R0,R0,#+2
   \   0000006C   0x2104             MOVS     R1,#+4
   \   0000006E   0x4008             ANDS     R0,R0,R1
   \   00000070   0x4310             ORRS     R0,R0,R2
   \   00000072   0x4669             MOV      R1,SP
   \   00000074   0x7008             STRB     R0,[R1, #+0]
   \   00000076   0xB2E4             UXTB     R4,R4
   \   00000078   0x2C00             CMP      R4,#+0
   \   0000007A   0xD001             BEQ      ??USBAFE_enableAFE_9
   \   0000007C   0x2001             MOVS     R0,#+1
   \   0000007E   0xE000             B        ??USBAFE_enableAFE_10
   \                     ??USBAFE_enableAFE_9: (+1)
   \   00000080   0x2000             MOVS     R0,#+0
   \                     ??USBAFE_enableAFE_10: (+1)
   \   00000082   0x4669             MOV      R1,SP
   \   00000084   0x7809             LDRB     R1,[R1, #+0]
   \   00000086   0x22F7             MOVS     R2,#+247
   \   00000088   0x400A             ANDS     R2,R2,R1
   \   0000008A   0x00C0             LSLS     R0,R0,#+3
   \   0000008C   0x2108             MOVS     R1,#+8
   \   0000008E   0x4008             ANDS     R0,R0,R1
   \   00000090   0x4310             ORRS     R0,R0,R2
   \   00000092   0x4669             MOV      R1,SP
   \   00000094   0x7008             STRB     R0,[R1, #+0]
   \   00000096   0x4668             MOV      R0,SP
   \   00000098   0x4669             MOV      R1,SP
   \   0000009A   0x7809             LDRB     R1,[R1, #+0]
   \   0000009C   0x2210             MOVS     R2,#+16
   \   0000009E   0x430A             ORRS     R2,R2,R1
   \   000000A0   0x7002             STRB     R2,[R0, #+0]
   \   000000A2   0x4668             MOV      R0,SP
   \   000000A4   0x4669             MOV      R1,SP
   \   000000A6   0x7809             LDRB     R1,[R1, #+0]
   \   000000A8   0x2220             MOVS     R2,#+32
   \   000000AA   0x430A             ORRS     R2,R2,R1
   \   000000AC   0x7002             STRB     R2,[R0, #+0]
   \   000000AE   0x4668             MOV      R0,SP
   \   000000B0   0x4669             MOV      R1,SP
   \   000000B2   0x7809             LDRB     R1,[R1, #+0]
   \   000000B4   0x2240             MOVS     R2,#+64
   \   000000B6   0x430A             ORRS     R2,R2,R1
   \   000000B8   0x7002             STRB     R2,[R0, #+0]
   \   000000BA   0x4668             MOV      R0,SP
   \   000000BC   0x4669             MOV      R1,SP
   \   000000BE   0x7809             LDRB     R1,[R1, #+0]
   \   000000C0   0x0649             LSLS     R1,R1,#+25       ;; ZeroExtS R1,R1,#+25,#+25
   \   000000C2   0x0E49             LSRS     R1,R1,#+25
   \   000000C4   0x7001             STRB     R1,[R0, #+0]
   \   000000C6   0x4668             MOV      R0,SP
   \   000000C8   0x7800             LDRB     R0,[R0, #+0]
   \   000000CA   0x7030             STRB     R0,[R6, #+0]
   \                     ??USBAFE_enableAFE_6: (+1)
   \   000000CC   0xBD73             POP      {R0,R1,R4-R6,PC}  ;; return
     12          #include "FreeRTOS.h"
     13          #include "task.h"
     14          #include "usbhub_descript.h" 

   \                                 In section .text, align 2, keep-with-next
   \   static __interwork __softfp void USBHUB_DESCRIPT_writeDescriptor(uint8_t const, uint8_t const)
   \                     USBHUB_DESCRIPT_writeDescriptor: (+1)
   \   00000000   0xB570             PUSH     {R4-R6,LR}
   \   00000002   0x0005             MOVS     R5,R0
   \   00000004   0x000C             MOVS     R4,R1
   \   00000006   0xB2ED             UXTB     R5,R5
   \   00000008   0x2D00             CMP      R5,#+0
   \   0000000A   0xD002             BEQ      ??USBHUB_DESCRIPT_writeDescriptor_0
   \   0000000C   0x2D01             CMP      R5,#+1
   \   0000000E   0xD003             BEQ      ??USBHUB_DESCRIPT_writeDescriptor_1
   \   00000010   0xE005             B        ??USBHUB_DESCRIPT_writeDescriptor_2
   \                     ??USBHUB_DESCRIPT_writeDescriptor_0: (+1)
   \   00000012   0x....             LDR      R0,??DataTable11_5
   \   00000014   0x0006             MOVS     R6,R0
   \   00000016   0xE005             B        ??USBHUB_DESCRIPT_writeDescriptor_3
   \                     ??USBHUB_DESCRIPT_writeDescriptor_1: (+1)
   \   00000018   0x....             LDR      R0,??DataTable11_6
   \   0000001A   0x0006             MOVS     R6,R0
   \   0000001C   0xE002             B        ??USBHUB_DESCRIPT_writeDescriptor_3
   \                     ??USBHUB_DESCRIPT_writeDescriptor_2: (+1)
   \   0000001E   0x.... 0x....      BL       dbgTrapErr
   \   00000022   0xE00C             B        ??USBHUB_DESCRIPT_writeDescriptor_4
   \                     ??USBHUB_DESCRIPT_writeDescriptor_3: (+1)
   \   00000024   0x2200             MOVS     R2,#+0
   \   00000026   0x8831             LDRH     R1,[R6, #+0]
   \   00000028   0x6870             LDR      R0,[R6, #+4]
   \   0000002A   0x.... 0x....      BL       USBHUB_descriptorMemcpy
   \   0000002E   0xB2E4             UXTB     R4,R4
   \   00000030   0x2C00             CMP      R4,#+0
   \   00000032   0xD004             BEQ      ??USBHUB_DESCRIPT_writeDescriptor_5
   \   00000034   0x2201             MOVS     R2,#+1
   \   00000036   0x8871             LDRH     R1,[R6, #+2]
   \   00000038   0x68B0             LDR      R0,[R6, #+8]
   \   0000003A   0x.... 0x....      BL       USBHUB_descriptorMemcpy
   \                     ??USBHUB_DESCRIPT_writeDescriptor_5: (+1)
   \                     ??USBHUB_DESCRIPT_writeDescriptor_4: (+1)
   \   0000003E   0xBD70             POP      {R4-R6,PC}       ;; return
     15          #include "debug_gpio.h"
     16          
     17          /** @brief Set up GPIOs for USB ports
     18           *        
     19           *
     20           *  Use FAULT_NX mode where pull-up and pull-downs are driven by PPC
     21           *
     22           *  @param None
     23           *  @return Void.
     24           */

   \                                 In section .text, align 2, keep-with-next
     25          static void v_Init_Hub_GPIOs(void)
     26          {
     27          
     28            // IOCTRL:  FAULTN1CTRL:  FAULTN1RE=1,  FAULTN1MODE=1 (FAULT_N1 Mode)
     29            IOCTRL_SFRS->FAULTN1CTRL.FAULTN1RE = 0x1;
   \                     v_Init_Hub_GPIOs: (+1)
   \   00000000   0x2001             MOVS     R0,#+1
   \   00000002   0x....             LDR      R1,??DataTable11_7  ;; 0x50014c4a
   \   00000004   0x7008             STRB     R0,[R1, #+0]
     30            IOCTRL_SFRS->FAULTN1CTRL.FAULTN1MODE = 0x1;
   \   00000006   0x2001             MOVS     R0,#+1
   \   00000008   0x....             LDR      R1,??DataTable11_8  ;; 0x50014c48
   \   0000000A   0x7008             STRB     R0,[R1, #+0]
     31              
     32            // IOCTRL:  PRTCTL1CTRL:  PRTCTL1MODE=1 (PRTCTL_1 Mode), PRTCTL1SEL=1 (DATA from 1.5 DigitalCore)
     33            // *NOTE*  PRTCTL Output Enable is enabled by default and is controlled via a register in the Trim Memory
     34            IOCTRL_SFRS->PRTCTL1CTRL.PRTCTL1MODE = 0x1;
   \   0000000C   0x2001             MOVS     R0,#+1
   \   0000000E   0x....             LDR      R1,??DataTable11_9  ;; 0x50014c58
   \   00000010   0x7008             STRB     R0,[R1, #+0]
     35            IOCTRL_SFRS->PRTCTL1CTRL.PRTCTL1SEL = 0x1;
   \   00000012   0x....             LDR      R0,??DataTable11_10  ;; 0x50014c5a
   \   00000014   0x7800             LDRB     R0,[R0, #+0]
   \   00000016   0x2110             MOVS     R1,#+16
   \   00000018   0x4301             ORRS     R1,R1,R0
   \   0000001A   0x....             LDR      R0,??DataTable11_10  ;; 0x50014c5a
   \   0000001C   0x7001             STRB     R1,[R0, #+0]
     36          
     37            // IOCTRL:  FAULTN2CTRL:  FAULTN2RE=1,  FAULTN2MODE=1 (FAULT_N2 Mode)
     38            IOCTRL_SFRS->FAULTN2CTRL.FAULTN2RE = 0x1;
   \   0000001E   0x2001             MOVS     R0,#+1
   \   00000020   0x....             LDR      R1,??DataTable11_11  ;; 0x50014c4e
   \   00000022   0x7008             STRB     R0,[R1, #+0]
     39            IOCTRL_SFRS->FAULTN2CTRL.FAULTN2MODE = 0x1;
   \   00000024   0x2001             MOVS     R0,#+1
   \   00000026   0x....             LDR      R1,??DataTable11_12  ;; 0x50014c4c
   \   00000028   0x7008             STRB     R0,[R1, #+0]
     40              
     41            // IOCTRL:  PRTCTL2CTRL:  PRTCTL2MODE=1 (PRTCTL_2 Mode), PRTCTL2SEL=1 (DATA from 1.5 DigitalCore)
     42            // *NOTE*  PRTCTL Output Enable is enabled by default and is controlled via a register in the Trim Memory
     43            IOCTRL_SFRS->PRTCTL2CTRL.PRTCTL2MODE = 0x1;
   \   0000002A   0x2001             MOVS     R0,#+1
   \   0000002C   0x....             LDR      R1,??DataTable11_13  ;; 0x50014c5c
   \   0000002E   0x7008             STRB     R0,[R1, #+0]
     44            IOCTRL_SFRS->PRTCTL2CTRL.PRTCTL2SEL = 0x1; 
   \   00000030   0x....             LDR      R0,??DataTable11_14  ;; 0x50014c5e
   \   00000032   0x7800             LDRB     R0,[R0, #+0]
   \   00000034   0x2110             MOVS     R1,#+16
   \   00000036   0x4301             ORRS     R1,R1,R0
   \   00000038   0x....             LDR      R0,??DataTable11_14  ;; 0x50014c5e
   \   0000003A   0x7001             STRB     R1,[R0, #+0]
     45          
     46            // IOCTRL:  GPIO3CTRL:    GP3RE=1,  GP3MODE=1 (FAULT_N3 Mode)
     47            IOCTRL_SFRS->GPIO3CTRL.GP3RE = 0x1;
   \   0000003C   0x....             LDR      R0,??DataTable11_15  ;; 0x50014c0a
   \   0000003E   0x7800             LDRB     R0,[R0, #+0]
   \   00000040   0x2101             MOVS     R1,#+1
   \   00000042   0x4301             ORRS     R1,R1,R0
   \   00000044   0x....             LDR      R0,??DataTable11_15  ;; 0x50014c0a
   \   00000046   0x7001             STRB     R1,[R0, #+0]
     48            IOCTRL_SFRS->GPIO3CTRL.GP3MODE = 0x1;
   \   00000048   0x....             LDR      R0,??DataTable11_16  ;; 0x50014c08
   \   0000004A   0x7800             LDRB     R0,[R0, #+0]
   \   0000004C   0x21F8             MOVS     R1,#+248
   \   0000004E   0x4001             ANDS     R1,R1,R0
   \   00000050   0x2001             MOVS     R0,#+1
   \   00000052   0x4308             ORRS     R0,R0,R1
   \   00000054   0x....             LDR      R1,??DataTable11_16  ;; 0x50014c08
   \   00000056   0x7008             STRB     R0,[R1, #+0]
     49                 
     50            // IOCTRL:  GPIO2CTRL:    GP2MODE=1 (PRTCTL_3 Mode), PRTCTL3SEL=1 (DATA from 1.5 DigitalCore)
     51            // *NOTE*  PRTCTL Output Enable is enabled by default and is controlled via a register in the Trim Memory
     52            IOCTRL_SFRS->GPIO2CTRL.GP2MODE = 0x1;
   \   00000058   0x2001             MOVS     R0,#+1
   \   0000005A   0x....             LDR      R1,??DataTable11_17  ;; 0x50014c04
   \   0000005C   0x7008             STRB     R0,[R1, #+0]
     53            IOCTRL_SFRS->GPIO2CTRL.PRTCTL3SEL = 0x1;
   \   0000005E   0x....             LDR      R0,??DataTable11_18  ;; 0x50014c06
   \   00000060   0x7800             LDRB     R0,[R0, #+0]
   \   00000062   0x2110             MOVS     R1,#+16
   \   00000064   0x4301             ORRS     R1,R1,R0
   \   00000066   0x....             LDR      R0,??DataTable11_18  ;; 0x50014c06
   \   00000068   0x7001             STRB     R1,[R0, #+0]
     54          }
   \   0000006A   0x4770             BX       LR               ;; return
     55          
     56          /** @brief Set up Port Power Control (PPC)
     57           *        
     58           *
     59           *  Configured to HUB mode with overcurrent events. All ports are driven by
     60           *  raw fault pad signal.
     61           *
     62           *  @param None
     63           *  @return Void.
     64           */

   \                                 In section .text, align 2, keep-with-next
     65          static void v_Init_PPC(void)
     66          {
     67          
     68            // PPC: Enable the Pull-Up on the FAULT_N# pads.  
     69            // PPC: DFP1DRVVBUSCTRL - Put into HUB Mode
     70            // PPC: DFP1OCCTRL - Overcurrent events driven by FAULT PAD input
     71            // Overcurrent events are assumed to be active-low 0x50000035 = 0xE
     72            PPC_SFRS->FAULTNPUPDCTRL.BYTE = 0x0E;
   \                     v_Init_PPC: (+1)
   \   00000000   0x200E             MOVS     R0,#+14
   \   00000002   0x....             LDR      R1,??DataTable11_19  ;; 0x50000035
   \   00000004   0x7008             STRB     R0,[R1, #+0]
     73              
     74            // Downstream Facing Port 1
     75            PPC_SFRS->DFP1DRVVBUSCTRL.BYTE = 0x01;   
   \   00000006   0x2001             MOVS     R0,#+1
   \   00000008   0x....             LDR      R1,??DataTable11_20  ;; 0x50000038
   \   0000000A   0x7008             STRB     R0,[R1, #+0]
     76            PPC_SFRS->DFP1OCCTRL.BYTE = 0x4;  
   \   0000000C   0x2004             MOVS     R0,#+4
   \   0000000E   0x....             LDR      R1,??DataTable11_21  ;; 0x50000039
   \   00000010   0x7008             STRB     R0,[R1, #+0]
     77            
     78            // Downstream Facing Port 2
     79            PPC_SFRS->DFP2DRVVBUSCTRL.BYTE = 0x01;     
   \   00000012   0x2001             MOVS     R0,#+1
   \   00000014   0x....             LDR      R1,??DataTable11_22  ;; 0x5000003a
   \   00000016   0x7008             STRB     R0,[R1, #+0]
     80            PPC_SFRS->DFP2OCCTRL.BYTE = 0x4;
   \   00000018   0x2004             MOVS     R0,#+4
   \   0000001A   0x....             LDR      R1,??DataTable11_23  ;; 0x5000003b
   \   0000001C   0x7008             STRB     R0,[R1, #+0]
     81            
     82            // Downstream Facing Port 3
     83            PPC_SFRS->DFP3DRVVBUSCTRL.BYTE = 0x01;     
   \   0000001E   0x2001             MOVS     R0,#+1
   \   00000020   0x....             LDR      R1,??DataTable11_24  ;; 0x5000003c
   \   00000022   0x7008             STRB     R0,[R1, #+0]
     84            PPC_SFRS->DFP3OCCTRL.BYTE = 0x4;
   \   00000024   0x2004             MOVS     R0,#+4
   \   00000026   0x....             LDR      R1,??DataTable11_25  ;; 0x5000003d
   \   00000028   0x7008             STRB     R0,[R1, #+0]
     85          
     86          }
   \   0000002A   0x4770             BX       LR               ;; return
     87          
     88          /** @brief Set up port change interrupt
     89           *        
     90           *
     91           *  Set up the port change interrupt if it is to be used. This sets the causes,
     92           *  and the priority. 
     93           *  
     94           *
     95           *  @param None
     96           *  @return Void.
     97           */

   \                                 In section .text, align 2, keep-with-next
     98          static void v_Init_Port_Change_IRQ(void)
     99          {
   \                     v_Init_Port_Change_IRQ: (+1)
   \   00000000   0xB580             PUSH     {R7,LR}
    100            NVIC_DisableIRQ(PortChng_IRQn);
   \   00000002   0x2004             MOVS     R0,#+4
   \   00000004   0x.... 0x....      BL       NVIC_DisableIRQ
    101            _USBHUB->PORTSTCHG.WORD = 0x80066600;     
   \   00000008   0x....             LDR      R0,??DataTable11_26  ;; 0x80066600
   \   0000000A   0x....             LDR      R1,??DataTable11_27  ;; 0x50013014
   \   0000000C   0x6008             STR      R0,[R1, #+0]
    102            
    103            //Clear and enable port change interrupt. Lower priority than TYPE-C if used
    104            NVIC_SetPriority(PortChng_IRQn, 3);
   \   0000000E   0x2103             MOVS     R1,#+3
   \   00000010   0x2004             MOVS     R0,#+4
   \   00000012   0x.... 0x....      BL       NVIC_SetPriority
    105            NVIC_ClearPendingIRQ(PortChng_IRQn);
   \   00000016   0x2004             MOVS     R0,#+4
   \   00000018   0x.... 0x....      BL       NVIC_ClearPendingIRQ
    106            NVIC_EnableIRQ(PortChng_IRQn);
   \   0000001C   0x2004             MOVS     R0,#+4
   \   0000001E   0x.... 0x....      BL       NVIC_EnableIRQ
    107          }
   \   00000022   0xBD01             POP      {R0,PC}          ;; return
    108          
    109          /** @brief Initialize the hub
    110           *        
    111           *
    112           *  Initializes the USB hub.
    113           *  
    114           *
    115           *  @param None
    116           *  @return Void.
    117           */

   \                                 In section .text, align 2, keep-with-next
    118          void v_Init_Hub(void)
    119          {
   \                     v_Init_Hub: (+1)
   \   00000000   0xB580             PUSH     {R7,LR}
    120              // Initialize pins 
    121              v_Init_Hub_GPIOs();
   \   00000002   0x.... 0x....      BL       v_Init_Hub_GPIOs
    122              
    123              // Write descriptor
    124              USBHUB_DESCRIPT_writeDescriptor(1, 1);  
   \   00000006   0x2101             MOVS     R1,#+1
   \   00000008   0x2001             MOVS     R0,#+1
   \   0000000A   0x.... 0x....      BL       USBHUB_DESCRIPT_writeDescriptor
    125          
    126              // Initialize port power control and over-current
    127              v_Init_PPC();
   \   0000000E   0x.... 0x....      BL       v_Init_PPC
    128            
    129            // Enable AFE for all ports AFEENA=1 BIASENA=1 also sets OVDENA, OVDAUTO, SE0AFEDGLTCH
    130            // Upstream facing port
    131             USBAFE_enableAFE( 0 , 0 ); 
   \   00000012   0x2100             MOVS     R1,#+0
   \   00000014   0x2000             MOVS     R0,#+0
   \   00000016   0x.... 0x....      BL       USBAFE_enableAFE
    132            
    133            // Downstream facing port 1
    134            USBAFE_enableAFE( 1 , 0 );
   \   0000001A   0x2100             MOVS     R1,#+0
   \   0000001C   0x2001             MOVS     R0,#+1
   \   0000001E   0x.... 0x....      BL       USBAFE_enableAFE
    135            
    136            //Downstream facing port 2
    137            USBAFE_enableAFE( 2 , 0 );
   \   00000022   0x2100             MOVS     R1,#+0
   \   00000024   0x2002             MOVS     R0,#+2
   \   00000026   0x.... 0x....      BL       USBAFE_enableAFE
    138            
    139            //Downstream facing port 3
    140            USBAFE_enableAFE( 3 , 0 );
   \   0000002A   0x2100             MOVS     R1,#+0
   \   0000002C   0x2003             MOVS     R0,#+3
   \   0000002E   0x.... 0x....      BL       USBAFE_enableAFE
    141              
    142            //Reset Configuration:
    143            //Take HUB out of reset to enable normal operation
    144            //USBHUBSFRS:  POR_CTRL:  PLL_POR=0, UPVBUS_DET_DISABLE=0,
    145            
    146             // Enable the port change interrupt if used.
    147             v_Init_Port_Change_IRQ();
   \   00000032   0x.... 0x....      BL       v_Init_Port_Change_IRQ
    148          
    149            _USBHUB->PORCTRL.BYTE = 0x0; 
   \   00000036   0x2000             MOVS     R0,#+0
   \   00000038   0x....             LDR      R1,??DataTable11_28  ;; 0x50013020
   \   0000003A   0x7008             STRB     R0,[R1, #+0]
    150          
    151          }
   \   0000003C   0xBD01             POP      {R0,PC}          ;; return
    152          
    153          /** @brief Port change interrupt handler
    154           *        
    155           *
    156           *  The port change interrupt handler if used. This is bare-bones and is meant to be added
    157           *  to. This function must not be re-named since it overrides a default handler with weak
    158           *  linkage.
    159           *  
    160           *
    161           *  @param None
    162           *  @return Void.
    163           */
    164          

   \                                 In section .bss, align 4
    165          static uint32_t u32_Irq_Cnt;
   \                     u32_Irq_Cnt:
   \   00000000                      DS8 4
    166          

   \                                 In section .text, align 2, keep-with-next
    167          void PortChng_Handler(void) 
    168          { 
   \                     PortChng_Handler: (+1)
   \   00000000   0xB580             PUSH     {R7,LR}
    169              _USBHUB->PORTSTCHG.PORT1 = 1;
   \   00000002   0x....             LDR      R0,??DataTable11_27  ;; 0x50013014
   \   00000004   0x6800             LDR      R0,[R0, #+0]
   \   00000006   0x2101             MOVS     R1,#+1
   \   00000008   0x4301             ORRS     R1,R1,R0
   \   0000000A   0x....             LDR      R0,??DataTable11_27  ;; 0x50013014
   \   0000000C   0x6001             STR      R1,[R0, #+0]
    170              _USBHUB->PORTSTCHG.PORT2 = 1;
   \   0000000E   0x....             LDR      R0,??DataTable11_27  ;; 0x50013014
   \   00000010   0x6800             LDR      R0,[R0, #+0]
   \   00000012   0x2102             MOVS     R1,#+2
   \   00000014   0x4301             ORRS     R1,R1,R0
   \   00000016   0x....             LDR      R0,??DataTable11_27  ;; 0x50013014
   \   00000018   0x6001             STR      R1,[R0, #+0]
    171              _USBHUB->PORTSTCHG.PORT3 = 1;    
   \   0000001A   0x....             LDR      R0,??DataTable11_27  ;; 0x50013014
   \   0000001C   0x6800             LDR      R0,[R0, #+0]
   \   0000001E   0x2104             MOVS     R1,#+4
   \   00000020   0x4301             ORRS     R1,R1,R0
   \   00000022   0x....             LDR      R0,??DataTable11_27  ;; 0x50013014
   \   00000024   0x6001             STR      R1,[R0, #+0]
    172              
    173              ++u32_Irq_Cnt;
   \   00000026   0x....             LDR      R0,??DataTable11_29
   \   00000028   0x6800             LDR      R0,[R0, #+0]
   \   0000002A   0x1C40             ADDS     R0,R0,#+1
   \   0000002C   0x....             LDR      R1,??DataTable11_29
   \   0000002E   0x6008             STR      R0,[R1, #+0]
    174          
    175             v_Set_Debug_GPIO( GPIO10_DEBUG, GPIO10_DEBUG );
   \   00000030   0x2102             MOVS     R1,#+2
   \   00000032   0x2002             MOVS     R0,#+2
   \   00000034   0x.... 0x....      BL       _v_Set_Debug_GPIO
    176          }
   \   00000038   0xBD01             POP      {R0,PC}          ;; return

   \                                 In section .text, align 4, keep-with-next
   \                     ??DataTable8:
   \   00000000   0xE000ED1C         DC32     0xe000ed1c

   \                                 In section .text, align 4, keep-with-next
   \                     ??DataTable10:
   \   00000000   0xE000E100         DC32     0xe000e100

   \                                 In section .text, align 4, keep-with-next
   \                     ??DataTable10_1:
   \   00000000   0xE000E180         DC32     0xe000e180

   \                                 In section .text, align 4, keep-with-next
   \                     ??DataTable10_2:
   \   00000000   0xE000E280         DC32     0xe000e280

   \                                 In section .text, align 4, keep-with-next
   \                     ??DataTable10_3:
   \   00000000   0xE000E400         DC32     0xe000e400

   \                                 In section .text, align 4, keep-with-next
   \                     ??DataTable10_4:
   \   00000000   0x00000201         DC32     0x201

   \                                 In section .text, align 4, keep-with-next
   \                     ??DataTable10_5:
   \   00000000   0x50013600         DC32     0x50013600

   \                                 In section .text, align 4, keep-with-next
   \                     ??DataTable11:
   \   00000000   0x50013400         DC32     0x50013400

   \                                 In section .text, align 4, keep-with-next
   \                     ??DataTable11_1:
   \   00000000   0x50016000         DC32     0x50016000

   \                                 In section .text, align 4, keep-with-next
   \                     ??DataTable11_2:
   \   00000000   0x50016010         DC32     0x50016010

   \                                 In section .text, align 4, keep-with-next
   \                     ??DataTable11_3:
   \   00000000   0x50016020         DC32     0x50016020

   \                                 In section .text, align 4, keep-with-next
   \                     ??DataTable11_4:
   \   00000000   0x50016030         DC32     0x50016030

   \                                 In section .text, align 4, keep-with-next
   \                     ??DataTable11_5:
   \   00000000   0x........         DC32     _USBHUB_DSCRREC_SHORT

   \                                 In section .text, align 4, keep-with-next
   \                     ??DataTable11_6:
   \   00000000   0x........         DC32     _USBHUB_DSCRREC_LONG

   \                                 In section .text, align 4, keep-with-next
   \                     ??DataTable11_7:
   \   00000000   0x50014C4A         DC32     0x50014c4a

   \                                 In section .text, align 4, keep-with-next
   \                     ??DataTable11_8:
   \   00000000   0x50014C48         DC32     0x50014c48

   \                                 In section .text, align 4, keep-with-next
   \                     ??DataTable11_9:
   \   00000000   0x50014C58         DC32     0x50014c58

   \                                 In section .text, align 4, keep-with-next
   \                     ??DataTable11_10:
   \   00000000   0x50014C5A         DC32     0x50014c5a

   \                                 In section .text, align 4, keep-with-next
   \                     ??DataTable11_11:
   \   00000000   0x50014C4E         DC32     0x50014c4e

   \                                 In section .text, align 4, keep-with-next
   \                     ??DataTable11_12:
   \   00000000   0x50014C4C         DC32     0x50014c4c

   \                                 In section .text, align 4, keep-with-next
   \                     ??DataTable11_13:
   \   00000000   0x50014C5C         DC32     0x50014c5c

   \                                 In section .text, align 4, keep-with-next
   \                     ??DataTable11_14:
   \   00000000   0x50014C5E         DC32     0x50014c5e

   \                                 In section .text, align 4, keep-with-next
   \                     ??DataTable11_15:
   \   00000000   0x50014C0A         DC32     0x50014c0a

   \                                 In section .text, align 4, keep-with-next
   \                     ??DataTable11_16:
   \   00000000   0x50014C08         DC32     0x50014c08

   \                                 In section .text, align 4, keep-with-next
   \                     ??DataTable11_17:
   \   00000000   0x50014C04         DC32     0x50014c04

   \                                 In section .text, align 4, keep-with-next
   \                     ??DataTable11_18:
   \   00000000   0x50014C06         DC32     0x50014c06

   \                                 In section .text, align 4, keep-with-next
   \                     ??DataTable11_19:
   \   00000000   0x50000035         DC32     0x50000035

   \                                 In section .text, align 4, keep-with-next
   \                     ??DataTable11_20:
   \   00000000   0x50000038         DC32     0x50000038

   \                                 In section .text, align 4, keep-with-next
   \                     ??DataTable11_21:
   \   00000000   0x50000039         DC32     0x50000039

   \                                 In section .text, align 4, keep-with-next
   \                     ??DataTable11_22:
   \   00000000   0x5000003A         DC32     0x5000003a

   \                                 In section .text, align 4, keep-with-next
   \                     ??DataTable11_23:
   \   00000000   0x5000003B         DC32     0x5000003b

   \                                 In section .text, align 4, keep-with-next
   \                     ??DataTable11_24:
   \   00000000   0x5000003C         DC32     0x5000003c

   \                                 In section .text, align 4, keep-with-next
   \                     ??DataTable11_25:
   \   00000000   0x5000003D         DC32     0x5000003d

   \                                 In section .text, align 4, keep-with-next
   \                     ??DataTable11_26:
   \   00000000   0x80066600         DC32     0x80066600

   \                                 In section .text, align 4, keep-with-next
   \                     ??DataTable11_27:
   \   00000000   0x50013014         DC32     0x50013014

   \                                 In section .text, align 4, keep-with-next
   \                     ??DataTable11_28:
   \   00000000   0x50013020         DC32     0x50013020

   \                                 In section .text, align 4, keep-with-next
   \                     ??DataTable11_29:
   \   00000000   0x........         DC32     u32_Irq_Cnt
    177          
    178          

   Maximum stack usage in bytes:

   .cstack Function
   ------- --------
       0   NVIC_ClearPendingIRQ
       0   NVIC_DisableIRQ
       0   NVIC_EnableIRQ
      20   NVIC_SetPriority
       8   PortChng_Handler
         8   -> _v_Set_Debug_GPIO
      24   USBAFE_enableAFE
        24   -> dbgTrapErr
      16   USBHUB_DESCRIPT_writeDescriptor
        16   -> USBHUB_descriptorMemcpy
        16   -> dbgTrapErr
      32   USBHUB_descriptorMemcpy
        32   -> dbgTrapErr
       8   v_Init_Hub
         8   -> USBAFE_enableAFE
         8   -> USBHUB_DESCRIPT_writeDescriptor
         8   -> v_Init_Hub_GPIOs
         8   -> v_Init_PPC
         8   -> v_Init_Port_Change_IRQ
       0   v_Init_Hub_GPIOs
       0   v_Init_PPC
       8   v_Init_Port_Change_IRQ
         8   -> NVIC_ClearPendingIRQ
         8   -> NVIC_DisableIRQ
         8   -> NVIC_EnableIRQ
         8   -> NVIC_SetPriority


   Section sizes:

   Bytes  Function/Label
   -----  --------------
       4  ??DataTable10
       4  ??DataTable10_1
       4  ??DataTable10_2
       4  ??DataTable10_3
       4  ??DataTable10_4
       4  ??DataTable10_5
       4  ??DataTable11
       4  ??DataTable11_1
       4  ??DataTable11_10
       4  ??DataTable11_11
       4  ??DataTable11_12
       4  ??DataTable11_13
       4  ??DataTable11_14
       4  ??DataTable11_15
       4  ??DataTable11_16
       4  ??DataTable11_17
       4  ??DataTable11_18
       4  ??DataTable11_19
       4  ??DataTable11_2
       4  ??DataTable11_20
       4  ??DataTable11_21
       4  ??DataTable11_22
       4  ??DataTable11_23
       4  ??DataTable11_24
       4  ??DataTable11_25
       4  ??DataTable11_26
       4  ??DataTable11_27
       4  ??DataTable11_28
       4  ??DataTable11_29
       4  ??DataTable11_3
       4  ??DataTable11_4
       4  ??DataTable11_5
       4  ??DataTable11_6
       4  ??DataTable11_7
       4  ??DataTable11_8
       4  ??DataTable11_9
       4  ??DataTable8
      14  NVIC_ClearPendingIRQ
      14  NVIC_DisableIRQ
      14  NVIC_EnableIRQ
     132  NVIC_SetPriority
      58  PortChng_Handler
     206  USBAFE_enableAFE
      64  USBHUB_DESCRIPT_writeDescriptor
      90  USBHUB_descriptorMemcpy
       4  u32_Irq_Cnt
      62  v_Init_Hub
     108  v_Init_Hub_GPIOs
      44  v_Init_PPC
      36  v_Init_Port_Change_IRQ

 
   4 bytes in section .bss
 990 bytes in section .text
 
 990 bytes of CODE memory
   4 bytes of DATA memory

Errors: none
Warnings: none
