###############################################################################
#
# IAR ANSI C/C++ Compiler V7.40.7.9843/W32 for ARM        20/Dec/2019  17:18:58
# Copyright 1999-2015 IAR Systems AB.
#
#    Cpu mode     =  thumb
#    Endian       =  little
#    Source file  =  
#        C:\Users\Ian\Desktop\Projects\hub
#        project\hub\clang\source\FreeRTOS\list.c
#    Command line =  
#        "C:\Users\Ian\Desktop\Projects\hub
#        project\hub\clang\source\FreeRTOS\list.c" -D RESISTANCE_TRIMS -D
#        AFE_TRIMS -D USB_TRIMS -D USE_DEBUG_GPIOS -D USE_PD -lC
#        "C:\Users\Ian\Desktop\Projects\hub
#        project\hub\toolchain\iar\project\Debug\List" -o
#        "C:\Users\Ian\Desktop\Projects\hub
#        project\hub\toolchain\iar\project\Debug\Obj" --no_cse --no_unroll
#        --no_inline --no_code_motion --no_tbaa --no_clustering --no_scheduling
#        --debug --endian=little --cpu=Cortex-M0 -e --fpu=None --dlib_config
#        "C:\Program Files (x86)\IAR Systems\Embedded Workbench
#        7.2\arm\INC\c\DLib_Config_Normal.h" -I
#        "C:\Users\Ian\Desktop\Projects\hub
#        project\hub\toolchain\iar\project\..\..\..\clang\include\" -I
#        "C:\Users\Ian\Desktop\Projects\hub
#        project\hub\toolchain\iar\project\..\..\..\clang\include\superior\clough\"
#        -I "C:\Users\Ian\Desktop\Projects\hub
#        project\hub\toolchain\iar\project\..\..\..\clang\include\superior\sfr\"
#        -I "C:\Users\Ian\Desktop\Projects\hub
#        project\hub\toolchain\iar\project\..\..\..\clang\include\superior\" -I
#        "C:\Users\Ian\Desktop\Projects\hub
#        project\hub\toolchain\iar\project\..\SEGGER_RTT_V640\RTT\" -I
#        "C:\Users\Ian\Desktop\Projects\hub
#        project\hub\toolchain\iar\project\..\..\..\clang\source\FreeRTOS\" -On
#        -I "C:\Program Files (x86)\IAR Systems\Embedded Workbench
#        7.2\arm\CMSIS\Include\"
#    List file    =  
#        C:\Users\Ian\Desktop\Projects\hub
#        project\hub\toolchain\iar\project\Debug\List\list.lst
#    Object file  =  
#        C:\Users\Ian\Desktop\Projects\hub
#        project\hub\toolchain\iar\project\Debug\Obj\list.o
#
###############################################################################

C:\Users\Ian\Desktop\Projects\hub project\hub\clang\source\FreeRTOS\list.c
      1          /*
      2           * FreeRTOS Kernel V10.2.0
      3           * Copyright (C) 2019 Amazon.com, Inc. or its affiliates.  All Rights Reserved.
      4           *
      5           * Permission is hereby granted, free of charge, to any person obtaining a copy of
      6           * this software and associated documentation files (the "Software"), to deal in
      7           * the Software without restriction, including without limitation the rights to
      8           * use, copy, modify, merge, publish, distribute, sublicense, and/or sell copies of
      9           * the Software, and to permit persons to whom the Software is furnished to do so,
     10           * subject to the following conditions:
     11           *
     12           * The above copyright notice and this permission notice shall be included in all
     13           * copies or substantial portions of the Software.
     14           *
     15           * THE SOFTWARE IS PROVIDED "AS IS", WITHOUT WARRANTY OF ANY KIND, EXPRESS OR
     16           * IMPLIED, INCLUDING BUT NOT LIMITED TO THE WARRANTIES OF MERCHANTABILITY, FITNESS
     17           * FOR A PARTICULAR PURPOSE AND NONINFRINGEMENT. IN NO EVENT SHALL THE AUTHORS OR
     18           * COPYRIGHT HOLDERS BE LIABLE FOR ANY CLAIM, DAMAGES OR OTHER LIABILITY, WHETHER
     19           * IN AN ACTION OF CONTRACT, TORT OR OTHERWISE, ARISING FROM, OUT OF OR IN
     20           * CONNECTION WITH THE SOFTWARE OR THE USE OR OTHER DEALINGS IN THE SOFTWARE.
     21           *
     22           * http://www.FreeRTOS.org
     23           * http://aws.amazon.com/freertos
     24           *
     25           * 1 tab == 4 spaces!
     26           */
     27          
     28          
     29          #include <stdlib.h>
     30          #include "FreeRTOS.h"
     31          #include "list.h"
     32          
     33          /*-----------------------------------------------------------
     34           * PUBLIC LIST API documented in list.h
     35           *----------------------------------------------------------*/
     36          

   \                                 In section .text, align 2, keep-with-next
     37          void vListInitialise( List_t * const pxList )
     38          {
     39          	/* The list structure contains a list item which is used to mark the
     40          	end of the list.  To initialise the list the list end is inserted
     41          	as the only list entry. */
     42          	pxList->pxIndex = ( ListItem_t * ) &( pxList->xListEnd );			/*lint !e826 !e740 !e9087 The mini list structure is used as the list end to save RAM.  This is checked and valid. */
   \                     vListInitialise: (+1)
   \   00000000   0x0001             MOVS     R1,R0
   \   00000002   0x3108             ADDS     R1,R1,#+8
   \   00000004   0x6041             STR      R1,[R0, #+4]
     43          
     44          	/* The list end value is the highest possible value in the list to
     45          	ensure it remains at the end of the list. */
     46          	pxList->xListEnd.xItemValue = portMAX_DELAY;
   \   00000006   0x2100             MOVS     R1,#+0
   \   00000008   0x43C9             MVNS     R1,R1            ;; #-1
   \   0000000A   0x6081             STR      R1,[R0, #+8]
     47          
     48          	/* The list end next and previous pointers point to itself so we know
     49          	when the list is empty. */
     50          	pxList->xListEnd.pxNext = ( ListItem_t * ) &( pxList->xListEnd );	/*lint !e826 !e740 !e9087 The mini list structure is used as the list end to save RAM.  This is checked and valid. */
   \   0000000C   0x0001             MOVS     R1,R0
   \   0000000E   0x3108             ADDS     R1,R1,#+8
   \   00000010   0x60C1             STR      R1,[R0, #+12]
     51          	pxList->xListEnd.pxPrevious = ( ListItem_t * ) &( pxList->xListEnd );/*lint !e826 !e740 !e9087 The mini list structure is used as the list end to save RAM.  This is checked and valid. */
   \   00000012   0x0001             MOVS     R1,R0
   \   00000014   0x3108             ADDS     R1,R1,#+8
   \   00000016   0x6101             STR      R1,[R0, #+16]
     52          
     53          	pxList->uxNumberOfItems = ( UBaseType_t ) 0U;
   \   00000018   0x2100             MOVS     R1,#+0
   \   0000001A   0x6001             STR      R1,[R0, #+0]
     54          
     55          	/* Write known values into the list if
     56          	configUSE_LIST_DATA_INTEGRITY_CHECK_BYTES is set to 1. */
     57          	listSET_LIST_INTEGRITY_CHECK_1_VALUE( pxList );
     58          	listSET_LIST_INTEGRITY_CHECK_2_VALUE( pxList );
     59          }
   \   0000001C   0x4770             BX       LR               ;; return
     60          /*-----------------------------------------------------------*/
     61          

   \                                 In section .text, align 2, keep-with-next
     62          void vListInitialiseItem( ListItem_t * const pxItem )
     63          {
     64          	/* Make sure the list item is not recorded as being on a list. */
     65          	pxItem->pxContainer = NULL;
   \                     vListInitialiseItem: (+1)
   \   00000000   0x2100             MOVS     R1,#+0
   \   00000002   0x6101             STR      R1,[R0, #+16]
     66          
     67          	/* Write known values into the list item if
     68          	configUSE_LIST_DATA_INTEGRITY_CHECK_BYTES is set to 1. */
     69          	listSET_FIRST_LIST_ITEM_INTEGRITY_CHECK_VALUE( pxItem );
     70          	listSET_SECOND_LIST_ITEM_INTEGRITY_CHECK_VALUE( pxItem );
     71          }
   \   00000004   0x4770             BX       LR               ;; return
     72          /*-----------------------------------------------------------*/
     73          

   \                                 In section .text, align 2, keep-with-next
     74          void vListInsertEnd( List_t * const pxList, ListItem_t * const pxNewListItem )
     75          {
     76          ListItem_t * const pxIndex = pxList->pxIndex;
   \                     vListInsertEnd: (+1)
   \   00000000   0x6842             LDR      R2,[R0, #+4]
     77          
     78          	/* Only effective when configASSERT() is also defined, these tests may catch
     79          	the list data structures being overwritten in memory.  They will not catch
     80          	data errors caused by incorrect configuration or use of FreeRTOS. */
     81          	listTEST_LIST_INTEGRITY( pxList );
     82          	listTEST_LIST_ITEM_INTEGRITY( pxNewListItem );
     83          
     84          	/* Insert a new list item into pxList, but rather than sort the list,
     85          	makes the new list item the last item to be removed by a call to
     86          	listGET_OWNER_OF_NEXT_ENTRY(). */
     87          	pxNewListItem->pxNext = pxIndex;
   \   00000002   0x604A             STR      R2,[R1, #+4]
     88          	pxNewListItem->pxPrevious = pxIndex->pxPrevious;
   \   00000004   0x6893             LDR      R3,[R2, #+8]
   \   00000006   0x608B             STR      R3,[R1, #+8]
     89          
     90          	/* Only used during decision coverage testing. */
     91          	mtCOVERAGE_TEST_DELAY();
     92          
     93          	pxIndex->pxPrevious->pxNext = pxNewListItem;
   \   00000008   0x6893             LDR      R3,[R2, #+8]
   \   0000000A   0x6059             STR      R1,[R3, #+4]
     94          	pxIndex->pxPrevious = pxNewListItem;
   \   0000000C   0x6091             STR      R1,[R2, #+8]
     95          
     96          	/* Remember which list the item is in. */
     97          	pxNewListItem->pxContainer = pxList;
   \   0000000E   0x6108             STR      R0,[R1, #+16]
     98          
     99          	( pxList->uxNumberOfItems )++;
   \   00000010   0x6803             LDR      R3,[R0, #+0]
   \   00000012   0x1C5B             ADDS     R3,R3,#+1
   \   00000014   0x6003             STR      R3,[R0, #+0]
    100          }
   \   00000016   0x4770             BX       LR               ;; return
    101          /*-----------------------------------------------------------*/
    102          

   \                                 In section .text, align 2, keep-with-next
    103          void vListInsert( List_t * const pxList, ListItem_t * const pxNewListItem )
    104          {
   \                     vListInsert: (+1)
   \   00000000   0xB510             PUSH     {R4,LR}
   \   00000002   0x0002             MOVS     R2,R0
    105          ListItem_t *pxIterator;
    106          const TickType_t xValueOfInsertion = pxNewListItem->xItemValue;
   \   00000004   0x680C             LDR      R4,[R1, #+0]
    107          
    108          	/* Only effective when configASSERT() is also defined, these tests may catch
    109          	the list data structures being overwritten in memory.  They will not catch
    110          	data errors caused by incorrect configuration or use of FreeRTOS. */
    111          	listTEST_LIST_INTEGRITY( pxList );
    112          	listTEST_LIST_ITEM_INTEGRITY( pxNewListItem );
    113          
    114          	/* Insert the new list item into the list, sorted in xItemValue order.
    115          
    116          	If the list already contains a list item with the same item value then the
    117          	new list item should be placed after it.  This ensures that TCBs which are
    118          	stored in ready lists (all of which have the same xItemValue value) get a
    119          	share of the CPU.  However, if the xItemValue is the same as the back marker
    120          	the iteration loop below will not end.  Therefore the value is checked
    121          	first, and the algorithm slightly modified if necessary. */
    122          	if( xValueOfInsertion == portMAX_DELAY )
   \   00000006   0x2000             MOVS     R0,#+0
   \   00000008   0x43C0             MVNS     R0,R0            ;; #-1
   \   0000000A   0x4284             CMP      R4,R0
   \   0000000C   0xD102             BNE      ??vListInsert_0
    123          	{
    124          		pxIterator = pxList->xListEnd.pxPrevious;
   \   0000000E   0x6910             LDR      R0,[R2, #+16]
   \   00000010   0x0003             MOVS     R3,R0
   \   00000012   0xE008             B        ??vListInsert_1
    125          	}
    126          	else
    127          	{
    128          		/* *** NOTE ***********************************************************
    129          		If you find your application is crashing here then likely causes are
    130          		listed below.  In addition see https://www.freertos.org/FAQHelp.html for
    131          		more tips, and ensure configASSERT() is defined!
    132          		https://www.freertos.org/a00110.html#configASSERT
    133          
    134          			1) Stack overflow -
    135          			   see https://www.freertos.org/Stacks-and-stack-overflow-checking.html
    136          			2) Incorrect interrupt priority assignment, especially on Cortex-M
    137          			   parts where numerically high priority values denote low actual
    138          			   interrupt priorities, which can seem counter intuitive.  See
    139          			   https://www.freertos.org/RTOS-Cortex-M3-M4.html and the definition
    140          			   of configMAX_SYSCALL_INTERRUPT_PRIORITY on
    141          			   https://www.freertos.org/a00110.html
    142          			3) Calling an API function from within a critical section or when
    143          			   the scheduler is suspended, or calling an API function that does
    144          			   not end in "FromISR" from an interrupt.
    145          			4) Using a queue or semaphore before it has been initialised or
    146          			   before the scheduler has been started (are interrupts firing
    147          			   before vTaskStartScheduler() has been called?).
    148          		**********************************************************************/
    149          
    150          		for( pxIterator = ( ListItem_t * ) &( pxList->xListEnd ); pxIterator->pxNext->xItemValue <= xValueOfInsertion; pxIterator = pxIterator->pxNext ) /*lint !e826 !e740 !e9087 The mini list structure is used as the list end to save RAM.  This is checked and valid. *//*lint !e440 The iterator moves to a different value, not xValueOfInsertion. */
   \                     ??vListInsert_0: (+1)
   \   00000014   0x0010             MOVS     R0,R2
   \   00000016   0x3008             ADDS     R0,R0,#+8
   \   00000018   0x0003             MOVS     R3,R0
   \                     ??vListInsert_2: (+1)
   \   0000001A   0x6858             LDR      R0,[R3, #+4]
   \   0000001C   0x6800             LDR      R0,[R0, #+0]
   \   0000001E   0x4284             CMP      R4,R0
   \   00000020   0xD301             BCC      ??vListInsert_1
   \   00000022   0x685B             LDR      R3,[R3, #+4]
   \   00000024   0xE7F9             B        ??vListInsert_2
    151          		{
    152          			/* There is nothing to do here, just iterating to the wanted
    153          			insertion position. */
    154          		}
    155          	}
    156          
    157          	pxNewListItem->pxNext = pxIterator->pxNext;
   \                     ??vListInsert_1: (+1)
   \   00000026   0x6858             LDR      R0,[R3, #+4]
   \   00000028   0x6048             STR      R0,[R1, #+4]
    158          	pxNewListItem->pxNext->pxPrevious = pxNewListItem;
   \   0000002A   0x6848             LDR      R0,[R1, #+4]
   \   0000002C   0x6081             STR      R1,[R0, #+8]
    159          	pxNewListItem->pxPrevious = pxIterator;
   \   0000002E   0x608B             STR      R3,[R1, #+8]
    160          	pxIterator->pxNext = pxNewListItem;
   \   00000030   0x6059             STR      R1,[R3, #+4]
    161          
    162          	/* Remember which list the item is in.  This allows fast removal of the
    163          	item later. */
    164          	pxNewListItem->pxContainer = pxList;
   \   00000032   0x610A             STR      R2,[R1, #+16]
    165          
    166          	( pxList->uxNumberOfItems )++;
   \   00000034   0x6810             LDR      R0,[R2, #+0]
   \   00000036   0x1C40             ADDS     R0,R0,#+1
   \   00000038   0x6010             STR      R0,[R2, #+0]
    167          }
   \   0000003A   0xBD10             POP      {R4,PC}          ;; return
    168          /*-----------------------------------------------------------*/
    169          

   \                                 In section .text, align 2, keep-with-next
    170          UBaseType_t uxListRemove( ListItem_t * const pxItemToRemove )
    171          {
   \                     uxListRemove: (+1)
   \   00000000   0xB500             PUSH     {LR}
   \   00000002   0x0001             MOVS     R1,R0
    172          /* The list item knows which list it is in.  Obtain the list from the list
    173          item. */
    174          List_t * const pxList = pxItemToRemove->pxContainer;
   \   00000004   0x6908             LDR      R0,[R1, #+16]
    175          
    176          	pxItemToRemove->pxNext->pxPrevious = pxItemToRemove->pxPrevious;
   \   00000006   0x688A             LDR      R2,[R1, #+8]
   \   00000008   0x684B             LDR      R3,[R1, #+4]
   \   0000000A   0x609A             STR      R2,[R3, #+8]
    177          	pxItemToRemove->pxPrevious->pxNext = pxItemToRemove->pxNext;
   \   0000000C   0x684A             LDR      R2,[R1, #+4]
   \   0000000E   0x688B             LDR      R3,[R1, #+8]
   \   00000010   0x605A             STR      R2,[R3, #+4]
    178          
    179          	/* Only used during decision coverage testing. */
    180          	mtCOVERAGE_TEST_DELAY();
    181          
    182          	/* Make sure the index is left pointing to a valid item. */
    183          	if( pxList->pxIndex == pxItemToRemove )
   \   00000012   0x6842             LDR      R2,[R0, #+4]
   \   00000014   0x428A             CMP      R2,R1
   \   00000016   0xD101             BNE      ??uxListRemove_0
    184          	{
    185          		pxList->pxIndex = pxItemToRemove->pxPrevious;
   \   00000018   0x688A             LDR      R2,[R1, #+8]
   \   0000001A   0x6042             STR      R2,[R0, #+4]
    186          	}
    187          	else
    188          	{
    189          		mtCOVERAGE_TEST_MARKER();
    190          	}
    191          
    192          	pxItemToRemove->pxContainer = NULL;
   \                     ??uxListRemove_0: (+1)
   \   0000001C   0x2200             MOVS     R2,#+0
   \   0000001E   0x610A             STR      R2,[R1, #+16]
    193          	( pxList->uxNumberOfItems )--;
   \   00000020   0x6802             LDR      R2,[R0, #+0]
   \   00000022   0x1E52             SUBS     R2,R2,#+1
   \   00000024   0x6002             STR      R2,[R0, #+0]
    194          
    195          	return pxList->uxNumberOfItems;
   \   00000026   0x6800             LDR      R0,[R0, #+0]
   \   00000028   0xBD00             POP      {PC}             ;; return
    196          }
    197          /*-----------------------------------------------------------*/
    198          

   Maximum stack usage in bytes:

   .cstack Function
   ------- --------
       4   uxListRemove
       0   vListInitialise
       0   vListInitialiseItem
       8   vListInsert
       0   vListInsertEnd


   Section sizes:

   Bytes  Function/Label
   -----  --------------
      42  uxListRemove
      30  vListInitialise
       6  vListInitialiseItem
      60  vListInsert
      24  vListInsertEnd

 
 162 bytes in section .text
 
 162 bytes of CODE memory

Errors: none
Warnings: none
