###############################################################################
#
# IAR ANSI C/C++ Compiler V7.40.7.9843/W32 for ARM        20/Dec/2019  17:18:58
# Copyright 1999-2015 IAR Systems AB.
#
#    Cpu mode     =  thumb
#    Endian       =  little
#    Source file  =  
#        C:\Users\Ian\Desktop\Projects\hub project\hub\clang\source\main.c
#    Command line =  
#        "C:\Users\Ian\Desktop\Projects\hub project\hub\clang\source\main.c" -D
#        RESISTANCE_TRIMS -D AFE_TRIMS -D USB_TRIMS -D USE_DEBUG_GPIOS -D
#        USE_PD -lC "C:\Users\Ian\Desktop\Projects\hub
#        project\hub\toolchain\iar\project\Debug\List" -o
#        "C:\Users\Ian\Desktop\Projects\hub
#        project\hub\toolchain\iar\project\Debug\Obj" --no_cse --no_unroll
#        --no_inline --no_code_motion --no_tbaa --no_clustering --no_scheduling
#        --debug --endian=little --cpu=Cortex-M0 -e --fpu=None --dlib_config
#        "C:\Program Files (x86)\IAR Systems\Embedded Workbench
#        7.2\arm\INC\c\DLib_Config_Normal.h" -I
#        "C:\Users\Ian\Desktop\Projects\hub
#        project\hub\toolchain\iar\project\..\..\..\clang\include\" -I
#        "C:\Users\Ian\Desktop\Projects\hub
#        project\hub\toolchain\iar\project\..\..\..\clang\include\superior\clough\"
#        -I "C:\Users\Ian\Desktop\Projects\hub
#        project\hub\toolchain\iar\project\..\..\..\clang\include\superior\sfr\"
#        -I "C:\Users\Ian\Desktop\Projects\hub
#        project\hub\toolchain\iar\project\..\..\..\clang\include\superior\" -I
#        "C:\Users\Ian\Desktop\Projects\hub
#        project\hub\toolchain\iar\project\..\SEGGER_RTT_V640\RTT\" -I
#        "C:\Users\Ian\Desktop\Projects\hub
#        project\hub\toolchain\iar\project\..\..\..\clang\source\FreeRTOS\" -On
#        -I "C:\Program Files (x86)\IAR Systems\Embedded Workbench
#        7.2\arm\CMSIS\Include\"
#    List file    =  
#        C:\Users\Ian\Desktop\Projects\hub
#        project\hub\toolchain\iar\project\Debug\List\main.lst
#    Object file  =  
#        C:\Users\Ian\Desktop\Projects\hub
#        project\hub\toolchain\iar\project\Debug\Obj\main.o
#
###############################################################################

C:\Users\Ian\Desktop\Projects\hub project\hub\clang\source\main.c
      1          /** @file main.c
      2           *  @brief main function for hub
      3           *
      4           * This initializes the board hardware and the hub.
      5           *
      6           *  @author Ian Board
      7           *  @bug No known bugs.
      8           */
      9          
     10          #include "superior.h"
     11          #include "FreeRTOS.h"
     12          #include "task.h"
     13          #include "debug_gpio.h"
     14          
     15          #include "hw.h"
     16             
     17          #include "PD_Port.h"
     18             

   \                                 In section .data, align 4
     19          PD_Port_Init_t Port1_Init = { .TypeC_Base = (volatile uint32_t *)TYPEC1_SFRS, 
   \                     Port1_Init:
   \   00000000   0x00000000         DC32 0H
   \   00000004   0x00 0x00          DC8 0, 0, 0, 0
   \              0x00 0x00    
   \   00000008   0x50017000         DC32 50017000H
     20                                        .u8_Name = 0,
     21                                        .e_Power_Role = PORT_ROLE_SOURCE };
     22          

   \                                 In section .data, align 4
     23          PD_Port_Init_t Port2_Init = { .TypeC_Base = (volatile uint32_t *)TYPEC2_SFRS, 
   \                     Port2_Init:
   \   00000000   0x00000000         DC32 0H
   \   00000004   0x00 0x00          DC8 0, 0, 0, 0
   \              0x00 0x00    
   \   00000008   0x50017400         DC32 50017400H
     24                                        .u8_Name = 0,
     25                                        .e_Power_Role = PORT_ROLE_SOURCE };
     26          

   \                                 In section .bss, align 4
     27          static PD_Port_t Port1;
   \                     Port1:
   \   00000000                      DS8 108

   \                                 In section .bss, align 4
     28          static PD_Port_t Port2;
   \                     Port2:
   \   00000000                      DS8 108
     29          
     30          //void v_Init_Debug_GPIO(void);
     31          void v_Test_Task(void *args );

   \                                 In section .rodata, align 2
     32          const uint16_t u16_Test_Task_Stack_Size = 128;
   \                     u16_Test_Task_Stack_Size:
   \   00000000   0x0080             DC16 128
     33          
     34          /** @brief Main function
     35           *        
     36           *
     37           *  Initializes board and usb ports, launches hub task
     38           *
     39           *  @param None
     40           *  @return Error Status
     41           */

   \                                 In section .text, align 4, keep-with-next
     42          int main()
     43          {
   \                     main: (+1)
   \   00000000   0xB580             PUSH     {R7,LR}
     44            
     45            SystemInit();
   \   00000002   0x.... 0x....      BL       SystemInit
     46            
     47            //v_Init_Debug_GPIO();
     48            
     49            Port1_Init.u8_Name = "Port1";
   \   00000006   0x4809             LDR      R0,??main_0
   \   00000008   0x4909             LDR      R1,??main_0+0x4
   \   0000000A   0x6008             STR      R0,[R1, #+0]
     50            v_Init_PD_Port( &Port1_Init, &Port1  );
   \   0000000C   0x4909             LDR      R1,??main_0+0x8
   \   0000000E   0x4808             LDR      R0,??main_0+0x4
   \   00000010   0x.... 0x....      BL       v_Init_PD_Port
     51            
     52            Port2_Init.u8_Name = "Port2";
   \   00000014   0x4808             LDR      R0,??main_0+0xC
   \   00000016   0x4909             LDR      R1,??main_0+0x10
   \   00000018   0x6008             STR      R0,[R1, #+0]
     53            v_Init_PD_Port( &Port2_Init, &Port2  );
   \   0000001A   0x4909             LDR      R1,??main_0+0x14
   \   0000001C   0x4807             LDR      R0,??main_0+0x10
   \   0000001E   0x.... 0x....      BL       v_Init_PD_Port
     54            
     55          //  xTaskCreate( v_Test_Task,			
     56          //            "Test Task", 		        
     57          //            u16_Test_Task_Stack_Size,          
     58          //            &Port1, 			       
     59          //            tskIDLE_PRIORITY, 		
     60          //            NULL );
     61            
     62            vTaskStartScheduler();  // This function doesn't return
   \   00000022   0x.... 0x....      BL       vTaskStartScheduler
     63            
     64            return -1;              // Should not reach this point.
   \   00000026   0x2000             MOVS     R0,#+0
   \   00000028   0x43C0             MVNS     R0,R0            ;; #-1
   \   0000002A   0xBD02             POP      {R1,PC}          ;; return
   \                     ??main_0:
   \   0000002C   0x........         DC32     ?_0
   \   00000030   0x........         DC32     Port1_Init
   \   00000034   0x........         DC32     Port1
   \   00000038   0x........         DC32     ?_1
   \   0000003C   0x........         DC32     Port2_Init
   \   00000040   0x........         DC32     Port2
     65          }

   \                                 In section .rodata, align 4
   \                     ?_0:
   \   00000000   0x50 0x6F          DC8 "Port1"
   \              0x72 0x74    
   \              0x31 0x00    
   \   00000006   0x00 0x00          DC8 0, 0

   \                                 In section .rodata, align 4
   \                     ?_1:
   \   00000000   0x50 0x6F          DC8 "Port2"
   \              0x72 0x74    
   \              0x32 0x00    
   \   00000006   0x00 0x00          DC8 0, 0

   Maximum stack usage in bytes:

   .cstack Function
   ------- --------
       8   main
         8   -> SystemInit
         8   -> vTaskStartScheduler
         8   -> v_Init_PD_Port


   Section sizes:

   Bytes  Function/Label
   -----  --------------
       8  ?_0
       8  ?_1
     108  Port1
      12  Port1_Init
     108  Port2
      12  Port2_Init
      68  main
       2  u16_Test_Task_Stack_Size

 
 216 bytes in section .bss
  24 bytes in section .data
  18 bytes in section .rodata
  68 bytes in section .text
 
  68 bytes of CODE  memory
  18 bytes of CONST memory
 240 bytes of DATA  memory

Errors: none
Warnings: none
