###############################################################################
#
# IAR ANSI C/C++ Compiler V7.40.7.9843/W32 for ARM        20/Dec/2019  17:18:58
# Copyright 1999-2015 IAR Systems AB.
#
#    Cpu mode     =  thumb
#    Endian       =  little
#    Source file  =  
#        C:\Users\Ian\Desktop\Projects\hub project\hub\clang\source\phy.c
#    Command line =  
#        "C:\Users\Ian\Desktop\Projects\hub project\hub\clang\source\phy.c" -D
#        RESISTANCE_TRIMS -D AFE_TRIMS -D USB_TRIMS -D USE_DEBUG_GPIOS -D
#        USE_PD -lC "C:\Users\Ian\Desktop\Projects\hub
#        project\hub\toolchain\iar\project\Debug\List" -o
#        "C:\Users\Ian\Desktop\Projects\hub
#        project\hub\toolchain\iar\project\Debug\Obj" --no_cse --no_unroll
#        --no_inline --no_code_motion --no_tbaa --no_clustering --no_scheduling
#        --debug --endian=little --cpu=Cortex-M0 -e --fpu=None --dlib_config
#        "C:\Program Files (x86)\IAR Systems\Embedded Workbench
#        7.2\arm\INC\c\DLib_Config_Normal.h" -I
#        "C:\Users\Ian\Desktop\Projects\hub
#        project\hub\toolchain\iar\project\..\..\..\clang\include\" -I
#        "C:\Users\Ian\Desktop\Projects\hub
#        project\hub\toolchain\iar\project\..\..\..\clang\include\superior\clough\"
#        -I "C:\Users\Ian\Desktop\Projects\hub
#        project\hub\toolchain\iar\project\..\..\..\clang\include\superior\sfr\"
#        -I "C:\Users\Ian\Desktop\Projects\hub
#        project\hub\toolchain\iar\project\..\..\..\clang\include\superior\" -I
#        "C:\Users\Ian\Desktop\Projects\hub
#        project\hub\toolchain\iar\project\..\SEGGER_RTT_V640\RTT\" -I
#        "C:\Users\Ian\Desktop\Projects\hub
#        project\hub\toolchain\iar\project\..\..\..\clang\source\FreeRTOS\" -On
#        -I "C:\Program Files (x86)\IAR Systems\Embedded Workbench
#        7.2\arm\CMSIS\Include\"
#    List file    =  
#        C:\Users\Ian\Desktop\Projects\hub
#        project\hub\toolchain\iar\project\Debug\List\phy.lst
#    Object file  =  
#        C:\Users\Ian\Desktop\Projects\hub
#        project\hub\toolchain\iar\project\Debug\Obj\phy.o
#
###############################################################################

C:\Users\Ian\Desktop\Projects\hub project\hub\clang\source\phy.c
      1          #include "superior.h"
      2          #include "FreeRTOS.h"
      3          #include "task.h"
      4          #include "timers.h"
      5          #include "queue.h"
      6          #include <string.h>
      7          #include "events.h"
      8          #include "event_groups.h"
      9          #include "hw.h"
     10          #include "PD_Port.h"
     11          #include "debug_gpio.h"
     12          #include "phy.h"
     13          
     14          typedef enum
     15          {
     16            PHY_RESET,
     17            INITIALIZE
     18          
     19          } e_PHY_Command_t;
     20          

   \                                 In section .text, align 2, keep-with-next
     21          void *pv_PHY_Control( e_PHY_Command_t e_Command, PD_Port_t *port,  void *arg)
     22          {
   \                     pv_PHY_Control: (+1)
   \   00000000   0xB5F8             PUSH     {R3-R7,LR}
   \   00000002   0x0004             MOVS     R4,R0
   \   00000004   0x000D             MOVS     R5,R1
   \   00000006   0x0017             MOVS     R7,R2
     23           volatile TYPEC1_SFRS_t* p_Typec = (volatile TYPEC1_SFRS_t *)port->TypeC_Base;
   \   00000008   0x6EAE             LDR      R6,[R5, #+104]
     24           
     25              switch( e_Command )
   \   0000000A   0xB2E4             UXTB     R4,R4
   \   0000000C   0x2C00             CMP      R4,#+0
   \   0000000E   0xD002             BEQ      ??pv_PHY_Control_0
   \   00000010   0x2C01             CMP      R4,#+1
   \   00000012   0xD00B             BEQ      ??pv_PHY_Control_1
   \   00000014   0xE01F             B        ??pv_PHY_Control_2
     26              {
     27              case PHY_RESET:
     28                p_Typec->POWER.WORD = EN_AFE;
   \                     ??pv_PHY_Control_0: (+1)
   \   00000016   0x2001             MOVS     R0,#+1
   \   00000018   0x6530             STR      R0,[R6, #+80]
     29                v_Delay_us( 10 );
   \   0000001A   0x200A             MOVS     R0,#+10
   \   0000001C   0x.... 0x....      BL       v_Delay_us
     30                
     31                p_Typec->TYPECCTL3.WORD = RST_PHY;
   \   00000020   0x2004             MOVS     R0,#+4
   \   00000022   0x60F0             STR      R0,[R6, #+12]
     32                v_Delay_us( 10 );
   \   00000024   0x200A             MOVS     R0,#+10
   \   00000026   0x.... 0x....      BL       v_Delay_us
     33                  
     34                break;
   \   0000002A   0xE014             B        ??pv_PHY_Control_3
     35                
     36              case INITIALIZE:
     37                if( port->e_Port_Role == PORT_ROLE_SOURCE )
   \                     ??pv_PHY_Control_1: (+1)
   \   0000002C   0x7A28             LDRB     R0,[R5, #+8]
   \   0000002E   0x2800             CMP      R0,#+0
   \   00000030   0xD108             BNE      ??pv_PHY_Control_4
     38                {
     39                     p_Typec->TYPECCTL1.WORD = port->Rp | MODE_SRC_STAY;
   \   00000032   0x7AA8             LDRB     R0,[R5, #+10]
   \   00000034   0x2102             MOVS     R1,#+2
   \   00000036   0x4301             ORRS     R1,R1,R0
   \   00000038   0x6071             STR      R1,[R6, #+4]
     40                     p_Typec->PDCFG2.WORD = CDR_VERSION | RX_SOP0 | RX_SOP1;
   \   0000003A   0x2003             MOVS     R0,#+3
   \   0000003C   0x66F0             STR      R0,[R6, #+108]
     41                     p_Typec->PDCFG3.WORD = 0x04 | PR_PROVIDER | DR_DFP;
   \   0000003E   0x2007             MOVS     R0,#+7
   \   00000040   0x6730             STR      R0,[R6, #+112]
   \   00000042   0xE008             B        ??pv_PHY_Control_2
     42                }
     43                else if( port->e_Port_Role == PORT_ROLE_SINK )
   \                     ??pv_PHY_Control_4: (+1)
   \   00000044   0x7A28             LDRB     R0,[R5, #+8]
   \   00000046   0x2801             CMP      R0,#+1
   \   00000048   0xD105             BNE      ??pv_PHY_Control_2
     44                {
     45                  p_Typec->TYPECCTL1.WORD = MODE_SNK;
   \   0000004A   0x2000             MOVS     R0,#+0
   \   0000004C   0x6070             STR      R0,[R6, #+4]
     46                  p_Typec->PDCFG2.WORD = CDR_VERSION | RX_SOP0;
   \   0000004E   0x2001             MOVS     R0,#+1
   \   00000050   0x66F0             STR      R0,[R6, #+108]
     47                  p_Typec->PDCFG3.WORD = 0x04 | PR_CONSUMER | DR_UFP;
   \   00000052   0x2004             MOVS     R0,#+4
   \   00000054   0x6730             STR      R0,[R6, #+112]
     48                }
     49                else
     50                {
     51                }
     52                
     53                       
     54              default:
     55                break;
     56              }
     57              
     58              return (void *)0;
   \                     ??pv_PHY_Control_2: (+1)
   \                     ??pv_PHY_Control_3: (+1)
   \   00000056   0x2000             MOVS     R0,#+0
   \   00000058   0xBDF2             POP      {R1,R4-R7,PC}    ;; return
     59          }

   Maximum stack usage in bytes:

   .cstack Function
   ------- --------
      24   pv_PHY_Control
        24   -> v_Delay_us


   Section sizes:

   Bytes  Function/Label
   -----  --------------
      90  pv_PHY_Control

 
 90 bytes in section .text
 
 90 bytes of CODE memory

Errors: none
Warnings: none
