###############################################################################
#
# IAR ANSI C/C++ Compiler V7.40.7.9843/W32 for ARM        20/Dec/2019  17:18:58
# Copyright 1999-2015 IAR Systems AB.
#
#    Cpu mode     =  thumb
#    Endian       =  little
#    Source file  =  
#        C:\Users\Ian\Desktop\Projects\hub
#        project\hub\clang\source\port_policy_engine.c
#    Command line =  
#        "C:\Users\Ian\Desktop\Projects\hub
#        project\hub\clang\source\port_policy_engine.c" -D RESISTANCE_TRIMS -D
#        AFE_TRIMS -D USB_TRIMS -D USE_DEBUG_GPIOS -D USE_PD -lC
#        "C:\Users\Ian\Desktop\Projects\hub
#        project\hub\toolchain\iar\project\Debug\List" -o
#        "C:\Users\Ian\Desktop\Projects\hub
#        project\hub\toolchain\iar\project\Debug\Obj" --no_cse --no_unroll
#        --no_inline --no_code_motion --no_tbaa --no_clustering --no_scheduling
#        --debug --endian=little --cpu=Cortex-M0 -e --fpu=None --dlib_config
#        "C:\Program Files (x86)\IAR Systems\Embedded Workbench
#        7.2\arm\INC\c\DLib_Config_Normal.h" -I
#        "C:\Users\Ian\Desktop\Projects\hub
#        project\hub\toolchain\iar\project\..\..\..\clang\include\" -I
#        "C:\Users\Ian\Desktop\Projects\hub
#        project\hub\toolchain\iar\project\..\..\..\clang\include\superior\clough\"
#        -I "C:\Users\Ian\Desktop\Projects\hub
#        project\hub\toolchain\iar\project\..\..\..\clang\include\superior\sfr\"
#        -I "C:\Users\Ian\Desktop\Projects\hub
#        project\hub\toolchain\iar\project\..\..\..\clang\include\superior\" -I
#        "C:\Users\Ian\Desktop\Projects\hub
#        project\hub\toolchain\iar\project\..\SEGGER_RTT_V640\RTT\" -I
#        "C:\Users\Ian\Desktop\Projects\hub
#        project\hub\toolchain\iar\project\..\..\..\clang\source\FreeRTOS\" -On
#        -I "C:\Program Files (x86)\IAR Systems\Embedded Workbench
#        7.2\arm\CMSIS\Include\"
#    List file    =  
#        C:\Users\Ian\Desktop\Projects\hub
#        project\hub\toolchain\iar\project\Debug\List\port_policy_engine.lst
#    Object file  =  
#        C:\Users\Ian\Desktop\Projects\hub
#        project\hub\toolchain\iar\project\Debug\Obj\port_policy_engine.o
#
###############################################################################

C:\Users\Ian\Desktop\Projects\hub project\hub\clang\source\port_policy_engine.c
      1          #include "superior.h"
      2          #include "FreeRTOS.h"
      3          #include "task.h"
      4          #include "timers.h"
      5          #include "queue.h"
      6          #include <string.h>
      7          #include "events.h"
      8          #include "port_policy_engine.h"
      9          
     10          #include "PD_Port.h"
     11          #include "debug_gpio.h"
     12          
     13          void v_Update_PE_State( void *p_Owning_Port, Event_t *event ); 
     14          

   \                                 In section .text, align 2, keep-with-next
     15          void v_Init_Port_Policy_Engine( void *p_Owning_Port, void *p_Init_Args )
     16          {
   \                     v_Init_Port_Policy_Engine: (+1)
   \   00000000   0xB530             PUSH     {R4,R5,LR}
   \   00000002   0xB083             SUB      SP,SP,#+12
   \   00000004   0x0004             MOVS     R4,R0
   \   00000006   0x000D             MOVS     R5,R1
     17            PD_Port_Init_t *p_Init = (PD_Port_Init_t *)p_Init_Args;
                                   ^
Warning[Pe177]: variable "p_Init" was declared but never referenced
     18            PD_Port_t *p_Port = (PD_Port_t *)p_Owning_Port;
     19            
     20             // Event queue
     21             p_Port->Port_Policy_Engine.Event_Queue = xQueueCreate( PD_EVENT_QUEUE_LENGTH, sizeof(Event_t) );
   \   00000008   0x2200             MOVS     R2,#+0
   \   0000000A   0x2108             MOVS     R1,#+8
   \   0000000C   0x200A             MOVS     R0,#+10
   \   0000000E   0x.... 0x....      BL       xQueueGenericCreate
   \   00000012   0x64E0             STR      R0,[R4, #+76]
     22             if( p_Port->Port_Policy_Engine.Event_Queue == NULL )
     23             { // Error condition, can't create queue - TODO: add error handler here
     24             }
     25             
     26             xTaskCreate(  v_Port_Policy_Engine,
     27                          "Port Policy Engine",
     28                          PORT_POLICY_ENGINE_STACK_SIZE,
     29                          p_Port,   // reference back to port that owns task
     30                          tskIDLE_PRIORITY,
     31                          &p_Port->PPE_Task );
   \   00000014   0x0020             MOVS     R0,R4
   \   00000016   0x3058             ADDS     R0,R0,#+88
   \   00000018   0x9001             STR      R0,[SP, #+4]
   \   0000001A   0x2000             MOVS     R0,#+0
   \   0000001C   0x9000             STR      R0,[SP, #+0]
   \   0000001E   0x0023             MOVS     R3,R4
   \   00000020   0x2280             MOVS     R2,#+128
   \   00000022   0x....             LDR      R1,??DataTable0
   \   00000024   0x....             LDR      R0,??DataTable0_1
   \   00000026   0x.... 0x....      BL       xTaskCreate
     32          }
   \   0000002A   0xBD37             POP      {R0-R2,R4,R5,PC}  ;; return
     33          
     34          // Multiple copies of this thread may exist - must be re-entrant

   \                                 In section .text, align 2, keep-with-next
     35          void v_Port_Policy_Engine( void *args )
     36          {
   \                     v_Port_Policy_Engine: (+1)
   \   00000000   0xB57C             PUSH     {R2-R6,LR}
   \   00000002   0x0005             MOVS     R5,R0
     37          #pragma diag_suppress = Pe177
     38              PD_Port_t *self = (PD_Port_t *)args;
   \   00000004   0x002E             MOVS     R6,R5
     39              Event_t Event;
     40              uint32_t u32_Msg_Cnt = 0;
   \   00000006   0x2400             MOVS     R4,#+0
     41              
     42              v_Announce_Ready( self, POLICY_ENGINE_READY );
   \   00000008   0x2101             MOVS     R1,#+1
   \   0000000A   0x0030             MOVS     R0,R6
   \   0000000C   0x.... 0x....      BL       v_Announce_Ready
     43              v_Wait_Until_Ready( self, ALL_READY );
   \   00000010   0x2107             MOVS     R1,#+7
   \   00000012   0x0030             MOVS     R0,R6
   \   00000014   0x.... 0x....      BL       v_Wait_Until_Ready
     44          
     45               while(1)
     46               {
     47                 // Block indefinitely while waiting for events
     48                 if( xQueueReceive( self->Port_Policy_Engine.Event_Queue, &Event, portMAX_DELAY ) )
   \                     ??v_Port_Policy_Engine_0: (+1)
   \   00000018   0x2200             MOVS     R2,#+0
   \   0000001A   0x43D2             MVNS     R2,R2            ;; #-1
   \   0000001C   0x4669             MOV      R1,SP
   \   0000001E   0x6CF0             LDR      R0,[R6, #+76]
   \   00000020   0x.... 0x....      BL       xQueueReceive
   \   00000024   0x2800             CMP      R0,#+0
   \   00000026   0xD0F7             BEQ      ??v_Port_Policy_Engine_0
     49                 {
     50                     // Check for DPM requests and other events that are not state specific
     51                     v_Update_PE_State( self, &Event );
   \   00000028   0x4669             MOV      R1,SP
   \   0000002A   0x0030             MOVS     R0,R6
   \   0000002C   0x.... 0x....      BL       v_Update_PE_State
     52                     ++u32_Msg_Cnt;
   \   00000030   0x1C64             ADDS     R4,R4,#+1
   \   00000032   0xE7F1             B        ??v_Port_Policy_Engine_0
     53                 }
     54               }
     55           }
     56          

   \                                 In section .text, align 2, keep-with-next
     57          void v_Post_PE_Event( void *p_Owning_Port, Event_t *p_Event )
     58          {
   \                     v_Post_PE_Event: (+1)
   \   00000000   0xB538             PUSH     {R3-R5,LR}
   \   00000002   0x0004             MOVS     R4,R0
   \   00000004   0x000D             MOVS     R5,R1
     59              PD_Port_t *p_Port = (PD_Port_t *)p_Owning_Port;
     60              xQueueSend( p_Port->Port_Policy_Engine.Event_Queue, ( void * )p_Event, ( TickType_t ) 0 );
   \   00000006   0x2300             MOVS     R3,#+0
   \   00000008   0x2200             MOVS     R2,#+0
   \   0000000A   0x0029             MOVS     R1,R5
   \   0000000C   0x6CE0             LDR      R0,[R4, #+76]
   \   0000000E   0x.... 0x....      BL       xQueueGenericSend
     61          }
   \   00000012   0xBD31             POP      {R0,R4,R5,PC}    ;; return

   \                                 In section .text, align 4, keep-with-next
   \                     ??DataTable0:
   \   00000000   0x........         DC32     ?_0

   \                                 In section .text, align 4, keep-with-next
   \                     ??DataTable0_1:
   \   00000000   0x........         DC32     v_Port_Policy_Engine

   \                                 In section .rodata, align 4
   \                     ?_0:
   \   00000000   0x50 0x6F          DC8 "Port Policy Engine"
   \              0x72 0x74    
   \              0x20 0x50    
   \              0x6F 0x6C    
   \              0x69 0x63    
   \              0x79 0x20    
   \              0x45 0x6E    
   \              0x67 0x69    
   \              0x6E 0x65    
   \              0x00         
   \   00000013   0x00               DC8 0

   Maximum stack usage in bytes:

   .cstack Function
   ------- --------
      24   v_Init_Port_Policy_Engine
        24   -> xQueueGenericCreate
        24   -> xTaskCreate
      24   v_Port_Policy_Engine
        24   -> v_Announce_Ready
        24   -> v_Update_PE_State
        24   -> v_Wait_Until_Ready
        24   -> xQueueReceive
      16   v_Post_PE_Event
        16   -> xQueueGenericSend


   Section sizes:

   Bytes  Function/Label
   -----  --------------
       4  ??DataTable0
       4  ??DataTable0_1
      20  ?_0
      44  v_Init_Port_Policy_Engine
      52  v_Port_Policy_Engine
      20  v_Post_PE_Event

 
  20 bytes in section .rodata
 124 bytes in section .text
 
 124 bytes of CODE  memory
  20 bytes of CONST memory

Errors: none
Warnings: 1
