###############################################################################
#
# IAR ANSI C/C++ Compiler V7.40.7.9843/W32 for ARM        20/Dec/2019  17:18:58
# Copyright 1999-2015 IAR Systems AB.
#
#    Cpu mode     =  thumb
#    Endian       =  little
#    Source file  =  
#        C:\Users\Ian\Desktop\Projects\hub
#        project\hub\clang\source\FreeRTOS\queue.c
#    Command line =  
#        "C:\Users\Ian\Desktop\Projects\hub
#        project\hub\clang\source\FreeRTOS\queue.c" -D RESISTANCE_TRIMS -D
#        AFE_TRIMS -D USB_TRIMS -D USE_DEBUG_GPIOS -D USE_PD -lC
#        "C:\Users\Ian\Desktop\Projects\hub
#        project\hub\toolchain\iar\project\Debug\List" -o
#        "C:\Users\Ian\Desktop\Projects\hub
#        project\hub\toolchain\iar\project\Debug\Obj" --no_cse --no_unroll
#        --no_inline --no_code_motion --no_tbaa --no_clustering --no_scheduling
#        --debug --endian=little --cpu=Cortex-M0 -e --fpu=None --dlib_config
#        "C:\Program Files (x86)\IAR Systems\Embedded Workbench
#        7.2\arm\INC\c\DLib_Config_Normal.h" -I
#        "C:\Users\Ian\Desktop\Projects\hub
#        project\hub\toolchain\iar\project\..\..\..\clang\include\" -I
#        "C:\Users\Ian\Desktop\Projects\hub
#        project\hub\toolchain\iar\project\..\..\..\clang\include\superior\clough\"
#        -I "C:\Users\Ian\Desktop\Projects\hub
#        project\hub\toolchain\iar\project\..\..\..\clang\include\superior\sfr\"
#        -I "C:\Users\Ian\Desktop\Projects\hub
#        project\hub\toolchain\iar\project\..\..\..\clang\include\superior\" -I
#        "C:\Users\Ian\Desktop\Projects\hub
#        project\hub\toolchain\iar\project\..\SEGGER_RTT_V640\RTT\" -I
#        "C:\Users\Ian\Desktop\Projects\hub
#        project\hub\toolchain\iar\project\..\..\..\clang\source\FreeRTOS\" -On
#        -I "C:\Program Files (x86)\IAR Systems\Embedded Workbench
#        7.2\arm\CMSIS\Include\"
#    List file    =  
#        C:\Users\Ian\Desktop\Projects\hub
#        project\hub\toolchain\iar\project\Debug\List\queue.lst
#    Object file  =  
#        C:\Users\Ian\Desktop\Projects\hub
#        project\hub\toolchain\iar\project\Debug\Obj\queue.o
#
###############################################################################

C:\Users\Ian\Desktop\Projects\hub project\hub\clang\source\FreeRTOS\queue.c
      1          /*
      2           * FreeRTOS Kernel V10.2.0
      3           * Copyright (C) 2019 Amazon.com, Inc. or its affiliates.  All Rights Reserved.
      4           *
      5           * Permission is hereby granted, free of charge, to any person obtaining a copy of
      6           * this software and associated documentation files (the "Software"), to deal in
      7           * the Software without restriction, including without limitation the rights to
      8           * use, copy, modify, merge, publish, distribute, sublicense, and/or sell copies of
      9           * the Software, and to permit persons to whom the Software is furnished to do so,
     10           * subject to the following conditions:
     11           *
     12           * The above copyright notice and this permission notice shall be included in all
     13           * copies or substantial portions of the Software.
     14           *
     15           * THE SOFTWARE IS PROVIDED "AS IS", WITHOUT WARRANTY OF ANY KIND, EXPRESS OR
     16           * IMPLIED, INCLUDING BUT NOT LIMITED TO THE WARRANTIES OF MERCHANTABILITY, FITNESS
     17           * FOR A PARTICULAR PURPOSE AND NONINFRINGEMENT. IN NO EVENT SHALL THE AUTHORS OR
     18           * COPYRIGHT HOLDERS BE LIABLE FOR ANY CLAIM, DAMAGES OR OTHER LIABILITY, WHETHER
     19           * IN AN ACTION OF CONTRACT, TORT OR OTHERWISE, ARISING FROM, OUT OF OR IN
     20           * CONNECTION WITH THE SOFTWARE OR THE USE OR OTHER DEALINGS IN THE SOFTWARE.
     21           *
     22           * http://www.FreeRTOS.org
     23           * http://aws.amazon.com/freertos
     24           *
     25           * 1 tab == 4 spaces!
     26           */
     27          
     28          #include <stdlib.h>
     29          #include <string.h>
     30          
     31          /* Defining MPU_WRAPPERS_INCLUDED_FROM_API_FILE prevents task.h from redefining
     32          all the API functions to use the MPU wrappers.  That should only be done when
     33          task.h is included from an application file. */
     34          #define MPU_WRAPPERS_INCLUDED_FROM_API_FILE
     35          
     36          #include "FreeRTOS.h"
     37          #include "task.h"
     38          #include "queue.h"
     39          
     40          #if ( configUSE_CO_ROUTINES == 1 )
     41          	#include "croutine.h"
     42          #endif
     43          
     44          /* Lint e9021, e961 and e750 are suppressed as a MISRA exception justified
     45          because the MPU ports require MPU_WRAPPERS_INCLUDED_FROM_API_FILE to be defined
     46          for the header files above, but not in this file, in order to generate the
     47          correct privileged Vs unprivileged linkage and placement. */
     48          #undef MPU_WRAPPERS_INCLUDED_FROM_API_FILE /*lint !e961 !e750 !e9021. */
     49          
     50          
     51          /* Constants used with the cRxLock and cTxLock structure members. */
     52          #define queueUNLOCKED					( ( int8_t ) -1 )
     53          #define queueLOCKED_UNMODIFIED			( ( int8_t ) 0 )
     54          
     55          /* When the Queue_t structure is used to represent a base queue its pcHead and
     56          pcTail members are used as pointers into the queue storage area.  When the
     57          Queue_t structure is used to represent a mutex pcHead and pcTail pointers are
     58          not necessary, and the pcHead pointer is set to NULL to indicate that the
     59          structure instead holds a pointer to the mutex holder (if any).  Map alternative
     60          names to the pcHead and structure member to ensure the readability of the code
     61          is maintained.  The QueuePointers_t and SemaphoreData_t types are used to form
     62          a union as their usage is mutually exclusive dependent on what the queue is
     63          being used for. */
     64          #define uxQueueType						pcHead
     65          #define queueQUEUE_IS_MUTEX				NULL
     66          
     67          typedef struct QueuePointers
     68          {
     69          	int8_t *pcTail;					/*< Points to the byte at the end of the queue storage area.  Once more byte is allocated than necessary to store the queue items, this is used as a marker. */
     70          	int8_t *pcReadFrom;				/*< Points to the last place that a queued item was read from when the structure is used as a queue. */
     71          } QueuePointers_t;
     72          
     73          typedef struct SemaphoreData
     74          {
     75          	TaskHandle_t xMutexHolder;		 /*< The handle of the task that holds the mutex. */
     76          	UBaseType_t uxRecursiveCallCount;/*< Maintains a count of the number of times a recursive mutex has been recursively 'taken' when the structure is used as a mutex. */
     77          } SemaphoreData_t;
     78          
     79          /* Semaphores do not actually store or copy data, so have an item size of
     80          zero. */
     81          #define queueSEMAPHORE_QUEUE_ITEM_LENGTH ( ( UBaseType_t ) 0 )
     82          #define queueMUTEX_GIVE_BLOCK_TIME		 ( ( TickType_t ) 0U )
     83          
     84          #if( configUSE_PREEMPTION == 0 )
     85          	/* If the cooperative scheduler is being used then a yield should not be
     86          	performed just because a higher priority task has been woken. */
     87          	#define queueYIELD_IF_USING_PREEMPTION()
     88          #else
     89          	#define queueYIELD_IF_USING_PREEMPTION() portYIELD_WITHIN_API()
     90          #endif
     91          
     92          /*
     93           * Definition of the queue used by the scheduler.
     94           * Items are queued by copy, not reference.  See the following link for the
     95           * rationale: https://www.freertos.org/Embedded-RTOS-Queues.html
     96           */
     97          typedef struct QueueDefinition 		/* The old naming convention is used to prevent breaking kernel aware debuggers. */
     98          {
     99          	int8_t *pcHead;					/*< Points to the beginning of the queue storage area. */
    100          	int8_t *pcWriteTo;				/*< Points to the free next place in the storage area. */
    101          
    102          	union
    103          	{
    104          		QueuePointers_t xQueue;		/*< Data required exclusively when this structure is used as a queue. */
    105          		SemaphoreData_t xSemaphore; /*< Data required exclusively when this structure is used as a semaphore. */
    106          	} u;
    107          
    108          	List_t xTasksWaitingToSend;		/*< List of tasks that are blocked waiting to post onto this queue.  Stored in priority order. */
    109          	List_t xTasksWaitingToReceive;	/*< List of tasks that are blocked waiting to read from this queue.  Stored in priority order. */
    110          
    111          	volatile UBaseType_t uxMessagesWaiting;/*< The number of items currently in the queue. */
    112          	UBaseType_t uxLength;			/*< The length of the queue defined as the number of items it will hold, not the number of bytes. */
    113          	UBaseType_t uxItemSize;			/*< The size of each items that the queue will hold. */
    114          
    115          	volatile int8_t cRxLock;		/*< Stores the number of items received from the queue (removed from the queue) while the queue was locked.  Set to queueUNLOCKED when the queue is not locked. */
    116          	volatile int8_t cTxLock;		/*< Stores the number of items transmitted to the queue (added to the queue) while the queue was locked.  Set to queueUNLOCKED when the queue is not locked. */
    117          
    118          	#if( ( configSUPPORT_STATIC_ALLOCATION == 1 ) && ( configSUPPORT_DYNAMIC_ALLOCATION == 1 ) )
    119          		uint8_t ucStaticallyAllocated;	/*< Set to pdTRUE if the memory used by the queue was statically allocated to ensure no attempt is made to free the memory. */
    120          	#endif
    121          
    122          	#if ( configUSE_QUEUE_SETS == 1 )
    123          		struct QueueDefinition *pxQueueSetContainer;
    124          	#endif
    125          
    126          	#if ( configUSE_TRACE_FACILITY == 1 )
    127          		UBaseType_t uxQueueNumber;
    128          		uint8_t ucQueueType;
    129          	#endif
    130          
    131          } xQUEUE;
    132          
    133          /* The old xQUEUE name is maintained above then typedefed to the new Queue_t
    134          name below to enable the use of older kernel aware debuggers. */
    135          typedef xQUEUE Queue_t;
    136          
    137          /*-----------------------------------------------------------*/
    138          
    139          /*
    140           * The queue registry is just a means for kernel aware debuggers to locate
    141           * queue structures.  It has no other purpose so is an optional component.
    142           */
    143          #if ( configQUEUE_REGISTRY_SIZE > 0 )
    144          
    145          	/* The type stored within the queue registry array.  This allows a name
    146          	to be assigned to each queue making kernel aware debugging a little
    147          	more user friendly. */
    148          	typedef struct QUEUE_REGISTRY_ITEM
    149          	{
    150          		const char *pcQueueName; /*lint !e971 Unqualified char types are allowed for strings and single characters only. */
    151          		QueueHandle_t xHandle;
    152          	} xQueueRegistryItem;
    153          
    154          	/* The old xQueueRegistryItem name is maintained above then typedefed to the
    155          	new xQueueRegistryItem name below to enable the use of older kernel aware
    156          	debuggers. */
    157          	typedef xQueueRegistryItem QueueRegistryItem_t;
    158          
    159          	/* The queue registry is simply an array of QueueRegistryItem_t structures.
    160          	The pcQueueName member of a structure being NULL is indicative of the
    161          	array position being vacant. */

   \                                 In section .bss, align 4
    162          	PRIVILEGED_DATA QueueRegistryItem_t xQueueRegistry[ configQUEUE_REGISTRY_SIZE ];
   \                     xQueueRegistry:
   \   00000000                      DS8 64
    163          
    164          #endif /* configQUEUE_REGISTRY_SIZE */
    165          
    166          /*
    167           * Unlocks a queue locked by a call to prvLockQueue.  Locking a queue does not
    168           * prevent an ISR from adding or removing items to the queue, but does prevent
    169           * an ISR from removing tasks from the queue event lists.  If an ISR finds a
    170           * queue is locked it will instead increment the appropriate queue lock count
    171           * to indicate that a task may require unblocking.  When the queue in unlocked
    172           * these lock counts are inspected, and the appropriate action taken.
    173           */
    174          static void prvUnlockQueue( Queue_t * const pxQueue ) PRIVILEGED_FUNCTION;
    175          
    176          /*
    177           * Uses a critical section to determine if there is any data in a queue.
    178           *
    179           * @return pdTRUE if the queue contains no items, otherwise pdFALSE.
    180           */
    181          static BaseType_t prvIsQueueEmpty( const Queue_t *pxQueue ) PRIVILEGED_FUNCTION;
    182          
    183          /*
    184           * Uses a critical section to determine if there is any space in a queue.
    185           *
    186           * @return pdTRUE if there is no space, otherwise pdFALSE;
    187           */
    188          static BaseType_t prvIsQueueFull( const Queue_t *pxQueue ) PRIVILEGED_FUNCTION;
    189          
    190          /*
    191           * Copies an item into the queue, either at the front of the queue or the
    192           * back of the queue.
    193           */
    194          static BaseType_t prvCopyDataToQueue( Queue_t * const pxQueue, const void *pvItemToQueue, const BaseType_t xPosition ) PRIVILEGED_FUNCTION;
    195          
    196          /*
    197           * Copies an item out of a queue.
    198           */
    199          static void prvCopyDataFromQueue( Queue_t * const pxQueue, void * const pvBuffer ) PRIVILEGED_FUNCTION;
    200          
    201          #if ( configUSE_QUEUE_SETS == 1 )
    202          	/*
    203          	 * Checks to see if a queue is a member of a queue set, and if so, notifies
    204          	 * the queue set that the queue contains data.
    205          	 */
    206          	static BaseType_t prvNotifyQueueSetContainer( const Queue_t * const pxQueue, const BaseType_t xCopyPosition ) PRIVILEGED_FUNCTION;
    207          #endif
    208          
    209          /*
    210           * Called after a Queue_t structure has been allocated either statically or
    211           * dynamically to fill in the structure's members.
    212           */
    213          static void prvInitialiseNewQueue( const UBaseType_t uxQueueLength, const UBaseType_t uxItemSize, uint8_t *pucQueueStorage, const uint8_t ucQueueType, Queue_t *pxNewQueue ) PRIVILEGED_FUNCTION;
    214          
    215          /*
    216           * Mutexes are a special type of queue.  When a mutex is created, first the
    217           * queue is created, then prvInitialiseMutex() is called to configure the queue
    218           * as a mutex.
    219           */
    220          #if( configUSE_MUTEXES == 1 )
    221          	static void prvInitialiseMutex( Queue_t *pxNewQueue ) PRIVILEGED_FUNCTION;
    222          #endif
    223          
    224          #if( configUSE_MUTEXES == 1 )
    225          	/*
    226          	 * If a task waiting for a mutex causes the mutex holder to inherit a
    227          	 * priority, but the waiting task times out, then the holder should
    228          	 * disinherit the priority - but only down to the highest priority of any
    229          	 * other tasks that are waiting for the same mutex.  This function returns
    230          	 * that priority.
    231          	 */
    232          	static UBaseType_t prvGetDisinheritPriorityAfterTimeout( const Queue_t * const pxQueue ) PRIVILEGED_FUNCTION;
    233          #endif
    234          /*-----------------------------------------------------------*/
    235          
    236          /*
    237           * Macro to mark a queue as locked.  Locking a queue prevents an ISR from
    238           * accessing the queue event lists.
    239           */
    240          #define prvLockQueue( pxQueue )								\
    241          	taskENTER_CRITICAL();									\
    242          	{														\
    243          		if( ( pxQueue )->cRxLock == queueUNLOCKED )			\
    244          		{													\
    245          			( pxQueue )->cRxLock = queueLOCKED_UNMODIFIED;	\
    246          		}													\
    247          		if( ( pxQueue )->cTxLock == queueUNLOCKED )			\
    248          		{													\
    249          			( pxQueue )->cTxLock = queueLOCKED_UNMODIFIED;	\
    250          		}													\
    251          	}														\
    252          	taskEXIT_CRITICAL()
    253          /*-----------------------------------------------------------*/
    254          

   \                                 In section .text, align 4, keep-with-next
    255          BaseType_t xQueueGenericReset( QueueHandle_t xQueue, BaseType_t xNewQueue )
    256          {
   \                     xQueueGenericReset: (+1)
   \   00000000   0xB570             PUSH     {R4-R6,LR}
   \   00000002   0x0005             MOVS     R5,R0
   \   00000004   0x000E             MOVS     R6,R1
    257          Queue_t * const pxQueue = xQueue;
   \   00000006   0x002C             MOVS     R4,R5
    258          
    259          	configASSERT( pxQueue );
   \   00000008   0x2C00             CMP      R4,#+0
   \   0000000A   0xD101             BNE      ??xQueueGenericReset_0
   \   0000000C   0xB672             cpsid i
   \                     ??xQueueGenericReset_1: (+1)
   \   0000000E   0xE7FE             B        ??xQueueGenericReset_1
    260          
    261          	taskENTER_CRITICAL();
   \                     ??xQueueGenericReset_0: (+1)
   \   00000010   0x.... 0x....      BL       vPortEnterCritical
    262          	{
    263          		pxQueue->u.xQueue.pcTail = pxQueue->pcHead + ( pxQueue->uxLength * pxQueue->uxItemSize ); /*lint !e9016 Pointer arithmetic allowed on char types, especially when it assists conveying intent. */
   \   00000014   0x6820             LDR      R0,[R4, #+0]
   \   00000016   0x6BE1             LDR      R1,[R4, #+60]
   \   00000018   0x6C22             LDR      R2,[R4, #+64]
   \   0000001A   0x4351             MULS     R1,R2,R1
   \   0000001C   0x1840             ADDS     R0,R0,R1
   \   0000001E   0x60A0             STR      R0,[R4, #+8]
    264          		pxQueue->uxMessagesWaiting = ( UBaseType_t ) 0U;
   \   00000020   0x2000             MOVS     R0,#+0
   \   00000022   0x63A0             STR      R0,[R4, #+56]
    265          		pxQueue->pcWriteTo = pxQueue->pcHead;
   \   00000024   0x6820             LDR      R0,[R4, #+0]
   \   00000026   0x6060             STR      R0,[R4, #+4]
    266          		pxQueue->u.xQueue.pcReadFrom = pxQueue->pcHead + ( ( pxQueue->uxLength - 1U ) * pxQueue->uxItemSize ); /*lint !e9016 Pointer arithmetic allowed on char types, especially when it assists conveying intent. */
   \   00000028   0x6820             LDR      R0,[R4, #+0]
   \   0000002A   0x6BE1             LDR      R1,[R4, #+60]
   \   0000002C   0x1E49             SUBS     R1,R1,#+1
   \   0000002E   0x6C22             LDR      R2,[R4, #+64]
   \   00000030   0x4351             MULS     R1,R2,R1
   \   00000032   0x1840             ADDS     R0,R0,R1
   \   00000034   0x60E0             STR      R0,[R4, #+12]
    267          		pxQueue->cRxLock = queueUNLOCKED;
   \   00000036   0x2000             MOVS     R0,#+0
   \   00000038   0x43C0             MVNS     R0,R0            ;; #-1
   \   0000003A   0x2144             MOVS     R1,#+68
   \   0000003C   0x5460             STRB     R0,[R4, R1]
    268          		pxQueue->cTxLock = queueUNLOCKED;
   \   0000003E   0x2000             MOVS     R0,#+0
   \   00000040   0x43C0             MVNS     R0,R0            ;; #-1
   \   00000042   0x2145             MOVS     R1,#+69
   \   00000044   0x5460             STRB     R0,[R4, R1]
    269          
    270          		if( xNewQueue == pdFALSE )
   \   00000046   0x2E00             CMP      R6,#+0
   \   00000048   0xD10B             BNE      ??xQueueGenericReset_2
    271          		{
    272          			/* If there are tasks blocked waiting to read from the queue, then
    273          			the tasks will remain blocked as after this function exits the queue
    274          			will still be empty.  If there are tasks blocked waiting to write to
    275          			the queue, then one should be unblocked as after this function exits
    276          			it will be possible to write to it. */
    277          			if( listLIST_IS_EMPTY( &( pxQueue->xTasksWaitingToSend ) ) == pdFALSE )
   \   0000004A   0x6920             LDR      R0,[R4, #+16]
   \   0000004C   0x2800             CMP      R0,#+0
   \   0000004E   0xD010             BEQ      ??xQueueGenericReset_3
    278          			{
    279          				if( xTaskRemoveFromEventList( &( pxQueue->xTasksWaitingToSend ) ) != pdFALSE )
   \   00000050   0x0020             MOVS     R0,R4
   \   00000052   0x3010             ADDS     R0,R0,#+16
   \   00000054   0x.... 0x....      BL       xTaskRemoveFromEventList
   \   00000058   0x2800             CMP      R0,#+0
   \   0000005A   0xD00A             BEQ      ??xQueueGenericReset_3
    280          				{
    281          					queueYIELD_IF_USING_PREEMPTION();
   \   0000005C   0x.... 0x....      BL       vPortYield
   \   00000060   0xE007             B        ??xQueueGenericReset_3
    282          				}
    283          				else
    284          				{
    285          					mtCOVERAGE_TEST_MARKER();
    286          				}
    287          			}
    288          			else
    289          			{
    290          				mtCOVERAGE_TEST_MARKER();
    291          			}
    292          		}
    293          		else
    294          		{
    295          			/* Ensure the event queues start in the correct state. */
    296          			vListInitialise( &( pxQueue->xTasksWaitingToSend ) );
   \                     ??xQueueGenericReset_2: (+1)
   \   00000062   0x0020             MOVS     R0,R4
   \   00000064   0x3010             ADDS     R0,R0,#+16
   \   00000066   0x.... 0x....      BL       vListInitialise
    297          			vListInitialise( &( pxQueue->xTasksWaitingToReceive ) );
   \   0000006A   0x0020             MOVS     R0,R4
   \   0000006C   0x3024             ADDS     R0,R0,#+36
   \   0000006E   0x.... 0x....      BL       vListInitialise
    298          		}
    299          	}
    300          	taskEXIT_CRITICAL();
   \                     ??xQueueGenericReset_3: (+1)
   \   00000072   0x.... 0x....      BL       vPortExitCritical
    301          
    302          	/* A value is returned for calling semantic consistency with previous
    303          	versions. */
    304          	return pdPASS;
   \   00000076   0x2001             MOVS     R0,#+1
   \   00000078   0xBD70             POP      {R4-R6,PC}       ;; return
    305          }
    306          /*-----------------------------------------------------------*/
    307          
    308          #if( configSUPPORT_STATIC_ALLOCATION == 1 )
    309          
    310          	QueueHandle_t xQueueGenericCreateStatic( const UBaseType_t uxQueueLength, const UBaseType_t uxItemSize, uint8_t *pucQueueStorage, StaticQueue_t *pxStaticQueue, const uint8_t ucQueueType )
    311          	{
    312          	Queue_t *pxNewQueue;
    313          
    314          		configASSERT( uxQueueLength > ( UBaseType_t ) 0 );
    315          
    316          		/* The StaticQueue_t structure and the queue storage area must be
    317          		supplied. */
    318          		configASSERT( pxStaticQueue != NULL );
    319          
    320          		/* A queue storage area should be provided if the item size is not 0, and
    321          		should not be provided if the item size is 0. */
    322          		configASSERT( !( ( pucQueueStorage != NULL ) && ( uxItemSize == 0 ) ) );
    323          		configASSERT( !( ( pucQueueStorage == NULL ) && ( uxItemSize != 0 ) ) );
    324          
    325          		#if( configASSERT_DEFINED == 1 )
    326          		{
    327          			/* Sanity check that the size of the structure used to declare a
    328          			variable of type StaticQueue_t or StaticSemaphore_t equals the size of
    329          			the real queue and semaphore structures. */
    330          			volatile size_t xSize = sizeof( StaticQueue_t );
    331          			configASSERT( xSize == sizeof( Queue_t ) );
    332          			( void ) xSize; /* Keeps lint quiet when configASSERT() is not defined. */
    333          		}
    334          		#endif /* configASSERT_DEFINED */
    335          
    336          		/* The address of a statically allocated queue was passed in, use it.
    337          		The address of a statically allocated storage area was also passed in
    338          		but is already set. */
    339          		pxNewQueue = ( Queue_t * ) pxStaticQueue; /*lint !e740 !e9087 Unusual cast is ok as the structures are designed to have the same alignment, and the size is checked by an assert. */
    340          
    341          		if( pxNewQueue != NULL )
    342          		{
    343          			#if( configSUPPORT_DYNAMIC_ALLOCATION == 1 )
    344          			{
    345          				/* Queues can be allocated wither statically or dynamically, so
    346          				note this queue was allocated statically in case the queue is
    347          				later deleted. */
    348          				pxNewQueue->ucStaticallyAllocated = pdTRUE;
    349          			}
    350          			#endif /* configSUPPORT_DYNAMIC_ALLOCATION */
    351          
    352          			prvInitialiseNewQueue( uxQueueLength, uxItemSize, pucQueueStorage, ucQueueType, pxNewQueue );
    353          		}
    354          		else
    355          		{
    356          			traceQUEUE_CREATE_FAILED( ucQueueType );
    357          			mtCOVERAGE_TEST_MARKER();
    358          		}
    359          
    360          		return pxNewQueue;
    361          	}
    362          
    363          #endif /* configSUPPORT_STATIC_ALLOCATION */
    364          /*-----------------------------------------------------------*/
    365          
    366          #if( configSUPPORT_DYNAMIC_ALLOCATION == 1 )
    367          

   \                                 In section .text, align 4, keep-with-next
    368          	QueueHandle_t xQueueGenericCreate( const UBaseType_t uxQueueLength, const UBaseType_t uxItemSize, const uint8_t ucQueueType )
    369          	{
   \                     xQueueGenericCreate: (+1)
   \   00000000   0xB5F2             PUSH     {R1,R4-R7,LR}
   \   00000002   0xB082             SUB      SP,SP,#+8
   \   00000004   0x0005             MOVS     R5,R0
   \   00000006   0x0016             MOVS     R6,R2
    370          	Queue_t *pxNewQueue;
    371          	size_t xQueueSizeInBytes;
    372          	uint8_t *pucQueueStorage;
    373          
    374          		configASSERT( uxQueueLength > ( UBaseType_t ) 0 );
   \   00000008   0x2D00             CMP      R5,#+0
   \   0000000A   0xD101             BNE      ??xQueueGenericCreate_0
   \   0000000C   0xB672             cpsid i
   \                     ??xQueueGenericCreate_1: (+1)
   \   0000000E   0xE7FE             B        ??xQueueGenericCreate_1
    375          
    376          		if( uxItemSize == ( UBaseType_t ) 0 )
   \                     ??xQueueGenericCreate_0: (+1)
   \   00000010   0x9802             LDR      R0,[SP, #+8]
   \   00000012   0x2800             CMP      R0,#+0
   \   00000014   0xD102             BNE      ??xQueueGenericCreate_2
    377          		{
    378          			/* There is not going to be a queue storage area. */
    379          			xQueueSizeInBytes = ( size_t ) 0;
   \   00000016   0x2000             MOVS     R0,#+0
   \   00000018   0x9001             STR      R0,[SP, #+4]
   \   0000001A   0xE002             B        ??xQueueGenericCreate_3
    380          		}
    381          		else
    382          		{
    383          			/* Allocate enough space to hold the maximum number of items that
    384          			can be in the queue at any time. */
    385          			xQueueSizeInBytes = ( size_t ) ( uxQueueLength * uxItemSize ); /*lint !e961 MISRA exception as the casts are only redundant for some ports. */
   \                     ??xQueueGenericCreate_2: (+1)
   \   0000001C   0x9802             LDR      R0,[SP, #+8]
   \   0000001E   0x4368             MULS     R0,R5,R0
   \   00000020   0x9001             STR      R0,[SP, #+4]
    386          		}
    387          
    388          		/* Allocate the queue and storage area.  Justification for MISRA
    389          		deviation as follows:  pvPortMalloc() always ensures returned memory
    390          		blocks are aligned per the requirements of the MCU stack.  In this case
    391          		pvPortMalloc() must return a pointer that is guaranteed to meet the
    392          		alignment requirements of the Queue_t structure - which in this case
    393          		is an int8_t *.  Therefore, whenever the stack alignment requirements
    394          		are greater than or equal to the pointer to char requirements the cast
    395          		is safe.  In other cases alignment requirements are not strict (one or
    396          		two bytes). */
    397          		pxNewQueue = ( Queue_t * ) pvPortMalloc( sizeof( Queue_t ) + xQueueSizeInBytes ); /*lint !e9087 !e9079 see comment above. */
   \                     ??xQueueGenericCreate_3: (+1)
   \   00000022   0x9801             LDR      R0,[SP, #+4]
   \   00000024   0x3048             ADDS     R0,R0,#+72
   \   00000026   0x.... 0x....      BL       pvPortMalloc
   \   0000002A   0x0007             MOVS     R7,R0
    398          
    399          		if( pxNewQueue != NULL )
   \   0000002C   0x2F00             CMP      R7,#+0
   \   0000002E   0xD009             BEQ      ??xQueueGenericCreate_4
    400          		{
    401          			/* Jump past the queue structure to find the location of the queue
    402          			storage area. */
    403          			pucQueueStorage = ( uint8_t * ) pxNewQueue;
   \   00000030   0x003C             MOVS     R4,R7
    404          			pucQueueStorage += sizeof( Queue_t ); /*lint !e9016 Pointer arithmetic allowed on char types, especially when it assists conveying intent. */
   \   00000032   0x3448             ADDS     R4,R4,#+72
    405          
    406          			#if( configSUPPORT_STATIC_ALLOCATION == 1 )
    407          			{
    408          				/* Queues can be created either statically or dynamically, so
    409          				note this task was created dynamically in case it is later
    410          				deleted. */
    411          				pxNewQueue->ucStaticallyAllocated = pdFALSE;
    412          			}
    413          			#endif /* configSUPPORT_STATIC_ALLOCATION */
    414          
    415          			prvInitialiseNewQueue( uxQueueLength, uxItemSize, pucQueueStorage, ucQueueType, pxNewQueue );
   \   00000034   0x9700             STR      R7,[SP, #+0]
   \   00000036   0x0033             MOVS     R3,R6
   \   00000038   0xB2DB             UXTB     R3,R3
   \   0000003A   0x0022             MOVS     R2,R4
   \   0000003C   0x9902             LDR      R1,[SP, #+8]
   \   0000003E   0x0028             MOVS     R0,R5
   \   00000040   0x.... 0x....      BL       prvInitialiseNewQueue
    416          		}
    417          		else
    418          		{
    419          			traceQUEUE_CREATE_FAILED( ucQueueType );
    420          			mtCOVERAGE_TEST_MARKER();
    421          		}
    422          
    423          		return pxNewQueue;
   \                     ??xQueueGenericCreate_4: (+1)
   \   00000044   0x0038             MOVS     R0,R7
   \   00000046   0xBDFE             POP      {R1-R7,PC}       ;; return
    424          	}
    425          
    426          #endif /* configSUPPORT_STATIC_ALLOCATION */
    427          /*-----------------------------------------------------------*/
    428          

   \                                 In section .text, align 2, keep-with-next
    429          static void prvInitialiseNewQueue( const UBaseType_t uxQueueLength, const UBaseType_t uxItemSize, uint8_t *pucQueueStorage, const uint8_t ucQueueType, Queue_t *pxNewQueue )
    430          {
   \                     prvInitialiseNewQueue: (+1)
   \   00000000   0xB5F8             PUSH     {R3-R7,LR}
   \   00000002   0x0006             MOVS     R6,R0
   \   00000004   0x000C             MOVS     R4,R1
   \   00000006   0x0017             MOVS     R7,R2
   \   00000008   0x9D06             LDR      R5,[SP, #+24]
    431          	/* Remove compiler warnings about unused parameters should
    432          	configUSE_TRACE_FACILITY not be set to 1. */
    433          	( void ) ucQueueType;
    434          
    435          	if( uxItemSize == ( UBaseType_t ) 0 )
   \   0000000A   0x2C00             CMP      R4,#+0
   \   0000000C   0xD101             BNE      ??prvInitialiseNewQueue_0
    436          	{
    437          		/* No RAM was allocated for the queue storage area, but PC head cannot
    438          		be set to NULL because NULL is used as a key to say the queue is used as
    439          		a mutex.  Therefore just set pcHead to point to the queue as a benign
    440          		value that is known to be within the memory map. */
    441          		pxNewQueue->pcHead = ( int8_t * ) pxNewQueue;
   \   0000000E   0x602D             STR      R5,[R5, #+0]
   \   00000010   0xE000             B        ??prvInitialiseNewQueue_1
    442          	}
    443          	else
    444          	{
    445          		/* Set the head to the start of the queue storage area. */
    446          		pxNewQueue->pcHead = ( int8_t * ) pucQueueStorage;
   \                     ??prvInitialiseNewQueue_0: (+1)
   \   00000012   0x602F             STR      R7,[R5, #+0]
    447          	}
    448          
    449          	/* Initialise the queue members as described where the queue type is
    450          	defined. */
    451          	pxNewQueue->uxLength = uxQueueLength;
   \                     ??prvInitialiseNewQueue_1: (+1)
   \   00000014   0x63EE             STR      R6,[R5, #+60]
    452          	pxNewQueue->uxItemSize = uxItemSize;
   \   00000016   0x642C             STR      R4,[R5, #+64]
    453          	( void ) xQueueGenericReset( pxNewQueue, pdTRUE );
   \   00000018   0x2101             MOVS     R1,#+1
   \   0000001A   0x0028             MOVS     R0,R5
   \   0000001C   0x.... 0x....      BL       xQueueGenericReset
    454          
    455          	#if ( configUSE_TRACE_FACILITY == 1 )
    456          	{
    457          		pxNewQueue->ucQueueType = ucQueueType;
    458          	}
    459          	#endif /* configUSE_TRACE_FACILITY */
    460          
    461          	#if( configUSE_QUEUE_SETS == 1 )
    462          	{
    463          		pxNewQueue->pxQueueSetContainer = NULL;
    464          	}
    465          	#endif /* configUSE_QUEUE_SETS */
    466          
    467          	traceQUEUE_CREATE( pxNewQueue );
    468          }
   \   00000020   0xBDF1             POP      {R0,R4-R7,PC}    ;; return
    469          /*-----------------------------------------------------------*/
    470          
    471          #if( configUSE_MUTEXES == 1 )
    472          

   \                                 In section .text, align 2, keep-with-next
    473          	static void prvInitialiseMutex( Queue_t *pxNewQueue )
    474          	{
   \                     prvInitialiseMutex: (+1)
   \   00000000   0xB510             PUSH     {R4,LR}
   \   00000002   0x0004             MOVS     R4,R0
    475          		if( pxNewQueue != NULL )
   \   00000004   0x2C00             CMP      R4,#+0
   \   00000006   0xD00B             BEQ      ??prvInitialiseMutex_0
    476          		{
    477          			/* The queue create function will set all the queue structure members
    478          			correctly for a generic queue, but this function is creating a
    479          			mutex.  Overwrite those members that need to be set differently -
    480          			in particular the information required for priority inheritance. */
    481          			pxNewQueue->u.xSemaphore.xMutexHolder = NULL;
   \   00000008   0x2000             MOVS     R0,#+0
   \   0000000A   0x60A0             STR      R0,[R4, #+8]
    482          			pxNewQueue->uxQueueType = queueQUEUE_IS_MUTEX;
   \   0000000C   0x2000             MOVS     R0,#+0
   \   0000000E   0x6020             STR      R0,[R4, #+0]
    483          
    484          			/* In case this is a recursive mutex. */
    485          			pxNewQueue->u.xSemaphore.uxRecursiveCallCount = 0;
   \   00000010   0x2000             MOVS     R0,#+0
   \   00000012   0x60E0             STR      R0,[R4, #+12]
    486          
    487          			traceCREATE_MUTEX( pxNewQueue );
    488          
    489          			/* Start with the semaphore in the expected state. */
    490          			( void ) xQueueGenericSend( pxNewQueue, NULL, ( TickType_t ) 0U, queueSEND_TO_BACK );
   \   00000014   0x2300             MOVS     R3,#+0
   \   00000016   0x2200             MOVS     R2,#+0
   \   00000018   0x2100             MOVS     R1,#+0
   \   0000001A   0x0020             MOVS     R0,R4
   \   0000001C   0x.... 0x....      BL       xQueueGenericSend
    491          		}
    492          		else
    493          		{
    494          			traceCREATE_MUTEX_FAILED();
    495          		}
    496          	}
   \                     ??prvInitialiseMutex_0: (+1)
   \   00000020   0xBD10             POP      {R4,PC}          ;; return
    497          
    498          #endif /* configUSE_MUTEXES */
    499          /*-----------------------------------------------------------*/
    500          
    501          #if( ( configUSE_MUTEXES == 1 ) && ( configSUPPORT_DYNAMIC_ALLOCATION == 1 ) )
    502          

   \                                 In section .text, align 2, keep-with-next
    503          	QueueHandle_t xQueueCreateMutex( const uint8_t ucQueueType )
    504          	{
   \                     xQueueCreateMutex: (+1)
   \   00000000   0xB5F8             PUSH     {R3-R7,LR}
   \   00000002   0x0004             MOVS     R4,R0
    505          	QueueHandle_t xNewQueue;
    506          	const UBaseType_t uxMutexLength = ( UBaseType_t ) 1, uxMutexSize = ( UBaseType_t ) 0;
   \   00000004   0x2601             MOVS     R6,#+1
   \   00000006   0x2500             MOVS     R5,#+0
    507          
    508          		xNewQueue = xQueueGenericCreate( uxMutexLength, uxMutexSize, ucQueueType );
   \   00000008   0x0022             MOVS     R2,R4
   \   0000000A   0xB2D2             UXTB     R2,R2
   \   0000000C   0x0029             MOVS     R1,R5
   \   0000000E   0x0030             MOVS     R0,R6
   \   00000010   0x.... 0x....      BL       xQueueGenericCreate
   \   00000014   0x0007             MOVS     R7,R0
    509          		prvInitialiseMutex( ( Queue_t * ) xNewQueue );
   \   00000016   0x0038             MOVS     R0,R7
   \   00000018   0x.... 0x....      BL       prvInitialiseMutex
    510          
    511          		return xNewQueue;
   \   0000001C   0x0038             MOVS     R0,R7
   \   0000001E   0xBDF2             POP      {R1,R4-R7,PC}    ;; return
    512          	}
    513          
    514          #endif /* configUSE_MUTEXES */
    515          /*-----------------------------------------------------------*/
    516          
    517          #if( ( configUSE_MUTEXES == 1 ) && ( configSUPPORT_STATIC_ALLOCATION == 1 ) )
    518          
    519          	QueueHandle_t xQueueCreateMutexStatic( const uint8_t ucQueueType, StaticQueue_t *pxStaticQueue )
    520          	{
    521          	QueueHandle_t xNewQueue;
    522          	const UBaseType_t uxMutexLength = ( UBaseType_t ) 1, uxMutexSize = ( UBaseType_t ) 0;
    523          
    524          		/* Prevent compiler warnings about unused parameters if
    525          		configUSE_TRACE_FACILITY does not equal 1. */
    526          		( void ) ucQueueType;
    527          
    528          		xNewQueue = xQueueGenericCreateStatic( uxMutexLength, uxMutexSize, NULL, pxStaticQueue, ucQueueType );
    529          		prvInitialiseMutex( ( Queue_t * ) xNewQueue );
    530          
    531          		return xNewQueue;
    532          	}
    533          
    534          #endif /* configUSE_MUTEXES */
    535          /*-----------------------------------------------------------*/
    536          
    537          #if ( ( configUSE_MUTEXES == 1 ) && ( INCLUDE_xSemaphoreGetMutexHolder == 1 ) )
    538          
    539          	TaskHandle_t xQueueGetMutexHolder( QueueHandle_t xSemaphore )
    540          	{
    541          	TaskHandle_t pxReturn;
    542          	Queue_t * const pxSemaphore = ( Queue_t * ) xSemaphore;
    543          
    544          		/* This function is called by xSemaphoreGetMutexHolder(), and should not
    545          		be called directly.  Note:  This is a good way of determining if the
    546          		calling task is the mutex holder, but not a good way of determining the
    547          		identity of the mutex holder, as the holder may change between the
    548          		following critical section exiting and the function returning. */
    549          		taskENTER_CRITICAL();
    550          		{
    551          			if( pxSemaphore->uxQueueType == queueQUEUE_IS_MUTEX )
    552          			{
    553          				pxReturn = pxSemaphore->u.xSemaphore.xMutexHolder;
    554          			}
    555          			else
    556          			{
    557          				pxReturn = NULL;
    558          			}
    559          		}
    560          		taskEXIT_CRITICAL();
    561          
    562          		return pxReturn;
    563          	} /*lint !e818 xSemaphore cannot be a pointer to const because it is a typedef. */
    564          
    565          #endif
    566          /*-----------------------------------------------------------*/
    567          
    568          #if ( ( configUSE_MUTEXES == 1 ) && ( INCLUDE_xSemaphoreGetMutexHolder == 1 ) )
    569          
    570          	TaskHandle_t xQueueGetMutexHolderFromISR( QueueHandle_t xSemaphore )
    571          	{
    572          	TaskHandle_t pxReturn;
    573          
    574          		configASSERT( xSemaphore );
    575          
    576          		/* Mutexes cannot be used in interrupt service routines, so the mutex
    577          		holder should not change in an ISR, and therefore a critical section is
    578          		not required here. */
    579          		if( ( ( Queue_t * ) xSemaphore )->uxQueueType == queueQUEUE_IS_MUTEX )
    580          		{
    581          			pxReturn = ( ( Queue_t * ) xSemaphore )->u.xSemaphore.xMutexHolder;
    582          		}
    583          		else
    584          		{
    585          			pxReturn = NULL;
    586          		}
    587          
    588          		return pxReturn;
    589          	} /*lint !e818 xSemaphore cannot be a pointer to const because it is a typedef. */
    590          
    591          #endif
    592          /*-----------------------------------------------------------*/
    593          
    594          #if ( configUSE_RECURSIVE_MUTEXES == 1 )
    595          

   \                                 In section .text, align 4, keep-with-next
    596          	BaseType_t xQueueGiveMutexRecursive( QueueHandle_t xMutex )
    597          	{
   \                     xQueueGiveMutexRecursive: (+1)
   \   00000000   0xB570             PUSH     {R4-R6,LR}
   \   00000002   0x0004             MOVS     R4,R0
    598          	BaseType_t xReturn;
    599          	Queue_t * const pxMutex = ( Queue_t * ) xMutex;
   \   00000004   0x0025             MOVS     R5,R4
    600          
    601          		configASSERT( pxMutex );
   \   00000006   0x2D00             CMP      R5,#+0
   \   00000008   0xD101             BNE      ??xQueueGiveMutexRecursive_0
   \   0000000A   0xB672             cpsid i
   \                     ??xQueueGiveMutexRecursive_1: (+1)
   \   0000000C   0xE7FE             B        ??xQueueGiveMutexRecursive_1
    602          
    603          		/* If this is the task that holds the mutex then xMutexHolder will not
    604          		change outside of this task.  If this task does not hold the mutex then
    605          		pxMutexHolder can never coincidentally equal the tasks handle, and as
    606          		this is the only condition we are interested in it does not matter if
    607          		pxMutexHolder is accessed simultaneously by another task.  Therefore no
    608          		mutual exclusion is required to test the pxMutexHolder variable. */
    609          		if( pxMutex->u.xSemaphore.xMutexHolder == xTaskGetCurrentTaskHandle() )
   \                     ??xQueueGiveMutexRecursive_0: (+1)
   \   0000000E   0x.... 0x....      BL       xTaskGetCurrentTaskHandle
   \   00000012   0x68A9             LDR      R1,[R5, #+8]
   \   00000014   0x4281             CMP      R1,R0
   \   00000016   0xD10E             BNE      ??xQueueGiveMutexRecursive_2
    610          		{
    611          			traceGIVE_MUTEX_RECURSIVE( pxMutex );
    612          
    613          			/* uxRecursiveCallCount cannot be zero if xMutexHolder is equal to
    614          			the task handle, therefore no underflow check is required.  Also,
    615          			uxRecursiveCallCount is only modified by the mutex holder, and as
    616          			there can only be one, no mutual exclusion is required to modify the
    617          			uxRecursiveCallCount member. */
    618          			( pxMutex->u.xSemaphore.uxRecursiveCallCount )--;
   \   00000018   0x68E8             LDR      R0,[R5, #+12]
   \   0000001A   0x1E40             SUBS     R0,R0,#+1
   \   0000001C   0x60E8             STR      R0,[R5, #+12]
    619          
    620          			/* Has the recursive call count unwound to 0? */
    621          			if( pxMutex->u.xSemaphore.uxRecursiveCallCount == ( UBaseType_t ) 0 )
   \   0000001E   0x68E8             LDR      R0,[R5, #+12]
   \   00000020   0x2800             CMP      R0,#+0
   \   00000022   0xD105             BNE      ??xQueueGiveMutexRecursive_3
    622          			{
    623          				/* Return the mutex.  This will automatically unblock any other
    624          				task that might be waiting to access the mutex. */
    625          				( void ) xQueueGenericSend( pxMutex, NULL, queueMUTEX_GIVE_BLOCK_TIME, queueSEND_TO_BACK );
   \   00000024   0x2300             MOVS     R3,#+0
   \   00000026   0x2200             MOVS     R2,#+0
   \   00000028   0x2100             MOVS     R1,#+0
   \   0000002A   0x0028             MOVS     R0,R5
   \   0000002C   0x.... 0x....      BL       xQueueGenericSend
    626          			}
    627          			else
    628          			{
    629          				mtCOVERAGE_TEST_MARKER();
    630          			}
    631          
    632          			xReturn = pdPASS;
   \                     ??xQueueGiveMutexRecursive_3: (+1)
   \   00000030   0x2001             MOVS     R0,#+1
   \   00000032   0x0006             MOVS     R6,R0
   \   00000034   0xE001             B        ??xQueueGiveMutexRecursive_4
    633          		}
    634          		else
    635          		{
    636          			/* The mutex cannot be given because the calling task is not the
    637          			holder. */
    638          			xReturn = pdFAIL;
   \                     ??xQueueGiveMutexRecursive_2: (+1)
   \   00000036   0x2000             MOVS     R0,#+0
   \   00000038   0x0006             MOVS     R6,R0
    639          
    640          			traceGIVE_MUTEX_RECURSIVE_FAILED( pxMutex );
    641          		}
    642          
    643          		return xReturn;
   \                     ??xQueueGiveMutexRecursive_4: (+1)
   \   0000003A   0x0030             MOVS     R0,R6
   \   0000003C   0xBD70             POP      {R4-R6,PC}       ;; return
    644          	}
    645          
    646          #endif /* configUSE_RECURSIVE_MUTEXES */
    647          /*-----------------------------------------------------------*/
    648          
    649          #if ( configUSE_RECURSIVE_MUTEXES == 1 )
    650          

   \                                 In section .text, align 4, keep-with-next
    651          	BaseType_t xQueueTakeMutexRecursive( QueueHandle_t xMutex, TickType_t xTicksToWait )
    652          	{
   \                     xQueueTakeMutexRecursive: (+1)
   \   00000000   0xB5F8             PUSH     {R3-R7,LR}
   \   00000002   0x0004             MOVS     R4,R0
   \   00000004   0x000F             MOVS     R7,R1
    653          	BaseType_t xReturn;
    654          	Queue_t * const pxMutex = ( Queue_t * ) xMutex;
   \   00000006   0x0025             MOVS     R5,R4
    655          
    656          		configASSERT( pxMutex );
   \   00000008   0x2D00             CMP      R5,#+0
   \   0000000A   0xD101             BNE      ??xQueueTakeMutexRecursive_0
   \   0000000C   0xB672             cpsid i
   \                     ??xQueueTakeMutexRecursive_1: (+1)
   \   0000000E   0xE7FE             B        ??xQueueTakeMutexRecursive_1
    657          
    658          		/* Comments regarding mutual exclusion as per those within
    659          		xQueueGiveMutexRecursive(). */
    660          
    661          		traceTAKE_MUTEX_RECURSIVE( pxMutex );
    662          
    663          		if( pxMutex->u.xSemaphore.xMutexHolder == xTaskGetCurrentTaskHandle() )
   \                     ??xQueueTakeMutexRecursive_0: (+1)
   \   00000010   0x.... 0x....      BL       xTaskGetCurrentTaskHandle
   \   00000014   0x68A9             LDR      R1,[R5, #+8]
   \   00000016   0x4281             CMP      R1,R0
   \   00000018   0xD105             BNE      ??xQueueTakeMutexRecursive_2
    664          		{
    665          			( pxMutex->u.xSemaphore.uxRecursiveCallCount )++;
   \   0000001A   0x68E8             LDR      R0,[R5, #+12]
   \   0000001C   0x1C40             ADDS     R0,R0,#+1
   \   0000001E   0x60E8             STR      R0,[R5, #+12]
    666          			xReturn = pdPASS;
   \   00000020   0x2001             MOVS     R0,#+1
   \   00000022   0x0006             MOVS     R6,R0
   \   00000024   0xE009             B        ??xQueueTakeMutexRecursive_3
    667          		}
    668          		else
    669          		{
    670          			xReturn = xQueueSemaphoreTake( pxMutex, xTicksToWait );
   \                     ??xQueueTakeMutexRecursive_2: (+1)
   \   00000026   0x0039             MOVS     R1,R7
   \   00000028   0x0028             MOVS     R0,R5
   \   0000002A   0x.... 0x....      BL       xQueueSemaphoreTake
   \   0000002E   0x0006             MOVS     R6,R0
    671          
    672          			/* pdPASS will only be returned if the mutex was successfully
    673          			obtained.  The calling task may have entered the Blocked state
    674          			before reaching here. */
    675          			if( xReturn != pdFAIL )
   \   00000030   0x2E00             CMP      R6,#+0
   \   00000032   0xD002             BEQ      ??xQueueTakeMutexRecursive_3
    676          			{
    677          				( pxMutex->u.xSemaphore.uxRecursiveCallCount )++;
   \   00000034   0x68E8             LDR      R0,[R5, #+12]
   \   00000036   0x1C40             ADDS     R0,R0,#+1
   \   00000038   0x60E8             STR      R0,[R5, #+12]
    678          			}
    679          			else
    680          			{
    681          				traceTAKE_MUTEX_RECURSIVE_FAILED( pxMutex );
    682          			}
    683          		}
    684          
    685          		return xReturn;
   \                     ??xQueueTakeMutexRecursive_3: (+1)
   \   0000003A   0x0030             MOVS     R0,R6
   \   0000003C   0xBDF2             POP      {R1,R4-R7,PC}    ;; return
    686          	}
    687          
    688          #endif /* configUSE_RECURSIVE_MUTEXES */
    689          /*-----------------------------------------------------------*/
    690          
    691          #if( ( configUSE_COUNTING_SEMAPHORES == 1 ) && ( configSUPPORT_STATIC_ALLOCATION == 1 ) )
    692          
    693          	QueueHandle_t xQueueCreateCountingSemaphoreStatic( const UBaseType_t uxMaxCount, const UBaseType_t uxInitialCount, StaticQueue_t *pxStaticQueue )
    694          	{
    695          	QueueHandle_t xHandle;
    696          
    697          		configASSERT( uxMaxCount != 0 );
    698          		configASSERT( uxInitialCount <= uxMaxCount );
    699          
    700          		xHandle = xQueueGenericCreateStatic( uxMaxCount, queueSEMAPHORE_QUEUE_ITEM_LENGTH, NULL, pxStaticQueue, queueQUEUE_TYPE_COUNTING_SEMAPHORE );
    701          
    702          		if( xHandle != NULL )
    703          		{
    704          			( ( Queue_t * ) xHandle )->uxMessagesWaiting = uxInitialCount;
    705          
    706          			traceCREATE_COUNTING_SEMAPHORE();
    707          		}
    708          		else
    709          		{
    710          			traceCREATE_COUNTING_SEMAPHORE_FAILED();
    711          		}
    712          
    713          		return xHandle;
    714          	}
    715          
    716          #endif /* ( ( configUSE_COUNTING_SEMAPHORES == 1 ) && ( configSUPPORT_DYNAMIC_ALLOCATION == 1 ) ) */
    717          /*-----------------------------------------------------------*/
    718          
    719          #if( ( configUSE_COUNTING_SEMAPHORES == 1 ) && ( configSUPPORT_DYNAMIC_ALLOCATION == 1 ) )
    720          

   \                                 In section .text, align 4, keep-with-next
    721          	QueueHandle_t xQueueCreateCountingSemaphore( const UBaseType_t uxMaxCount, const UBaseType_t uxInitialCount )
    722          	{
   \                     xQueueCreateCountingSemaphore: (+1)
   \   00000000   0xB570             PUSH     {R4-R6,LR}
   \   00000002   0x0004             MOVS     R4,R0
   \   00000004   0x000D             MOVS     R5,R1
    723          	QueueHandle_t xHandle;
    724          
    725          		configASSERT( uxMaxCount != 0 );
   \   00000006   0x2C00             CMP      R4,#+0
   \   00000008   0xD101             BNE      ??xQueueCreateCountingSemaphore_0
   \   0000000A   0xB672             cpsid i
   \                     ??xQueueCreateCountingSemaphore_1: (+1)
   \   0000000C   0xE7FE             B        ??xQueueCreateCountingSemaphore_1
    726          		configASSERT( uxInitialCount <= uxMaxCount );
   \                     ??xQueueCreateCountingSemaphore_0: (+1)
   \   0000000E   0x42AC             CMP      R4,R5
   \   00000010   0xD201             BCS      ??xQueueCreateCountingSemaphore_2
   \   00000012   0xB672             cpsid i
   \                     ??xQueueCreateCountingSemaphore_3: (+1)
   \   00000014   0xE7FE             B        ??xQueueCreateCountingSemaphore_3
    727          
    728          		xHandle = xQueueGenericCreate( uxMaxCount, queueSEMAPHORE_QUEUE_ITEM_LENGTH, queueQUEUE_TYPE_COUNTING_SEMAPHORE );
   \                     ??xQueueCreateCountingSemaphore_2: (+1)
   \   00000016   0x2202             MOVS     R2,#+2
   \   00000018   0x2100             MOVS     R1,#+0
   \   0000001A   0x0020             MOVS     R0,R4
   \   0000001C   0x.... 0x....      BL       xQueueGenericCreate
   \   00000020   0x0006             MOVS     R6,R0
    729          
    730          		if( xHandle != NULL )
   \   00000022   0x2E00             CMP      R6,#+0
   \   00000024   0xD000             BEQ      ??xQueueCreateCountingSemaphore_4
    731          		{
    732          			( ( Queue_t * ) xHandle )->uxMessagesWaiting = uxInitialCount;
   \   00000026   0x63B5             STR      R5,[R6, #+56]
    733          
    734          			traceCREATE_COUNTING_SEMAPHORE();
    735          		}
    736          		else
    737          		{
    738          			traceCREATE_COUNTING_SEMAPHORE_FAILED();
    739          		}
    740          
    741          		return xHandle;
   \                     ??xQueueCreateCountingSemaphore_4: (+1)
   \   00000028   0x0030             MOVS     R0,R6
   \   0000002A   0xBD70             POP      {R4-R6,PC}       ;; return
    742          	}
    743          
    744          #endif /* ( ( configUSE_COUNTING_SEMAPHORES == 1 ) && ( configSUPPORT_DYNAMIC_ALLOCATION == 1 ) ) */
    745          /*-----------------------------------------------------------*/
    746          

   \                                 In section .text, align 4, keep-with-next
    747          BaseType_t xQueueGenericSend( QueueHandle_t xQueue, const void * const pvItemToQueue, TickType_t xTicksToWait, const BaseType_t xCopyPosition )
    748          {
   \                     xQueueGenericSend: (+1)
   \   00000000   0xB5FC             PUSH     {R2-R7,LR}
   \   00000002   0xB083             SUB      SP,SP,#+12
   \   00000004   0x0007             MOVS     R7,R0
   \   00000006   0x000E             MOVS     R6,R1
    749          BaseType_t xEntryTimeSet = pdFALSE, xYieldRequired;
   \   00000008   0x2500             MOVS     R5,#+0
    750          TimeOut_t xTimeOut;
    751          Queue_t * const pxQueue = xQueue;
   \   0000000A   0x003C             MOVS     R4,R7
    752          
    753          	configASSERT( pxQueue );
   \   0000000C   0x2C00             CMP      R4,#+0
   \   0000000E   0xD101             BNE      ??xQueueGenericSend_0
   \   00000010   0xB672             cpsid i
   \                     ??xQueueGenericSend_1: (+1)
   \   00000012   0xE7FE             B        ??xQueueGenericSend_1
    754          	configASSERT( !( ( pvItemToQueue == NULL ) && ( pxQueue->uxItemSize != ( UBaseType_t ) 0U ) ) );
   \                     ??xQueueGenericSend_0: (+1)
   \   00000014   0x2E00             CMP      R6,#+0
   \   00000016   0xD102             BNE      ??xQueueGenericSend_2
   \   00000018   0x6C20             LDR      R0,[R4, #+64]
   \   0000001A   0x2800             CMP      R0,#+0
   \   0000001C   0xD101             BNE      ??xQueueGenericSend_3
   \                     ??xQueueGenericSend_2: (+1)
   \   0000001E   0x2001             MOVS     R0,#+1
   \   00000020   0xE000             B        ??xQueueGenericSend_4
   \                     ??xQueueGenericSend_3: (+1)
   \   00000022   0x2000             MOVS     R0,#+0
   \                     ??xQueueGenericSend_4: (+1)
   \   00000024   0xB2C0             UXTB     R0,R0
   \   00000026   0x2800             CMP      R0,#+0
   \   00000028   0xD101             BNE      ??xQueueGenericSend_5
   \   0000002A   0xB672             cpsid i
   \                     ??xQueueGenericSend_6: (+1)
   \   0000002C   0xE7FE             B        ??xQueueGenericSend_6
    755          	configASSERT( !( ( xCopyPosition == queueOVERWRITE ) && ( pxQueue->uxLength != 1 ) ) );
   \                     ??xQueueGenericSend_5: (+1)
   \   0000002E   0x9804             LDR      R0,[SP, #+16]
   \   00000030   0x2802             CMP      R0,#+2
   \   00000032   0xD102             BNE      ??xQueueGenericSend_7
   \   00000034   0x6BE0             LDR      R0,[R4, #+60]
   \   00000036   0x2801             CMP      R0,#+1
   \   00000038   0xD101             BNE      ??xQueueGenericSend_8
   \                     ??xQueueGenericSend_7: (+1)
   \   0000003A   0x2001             MOVS     R0,#+1
   \   0000003C   0xE000             B        ??xQueueGenericSend_9
   \                     ??xQueueGenericSend_8: (+1)
   \   0000003E   0x2000             MOVS     R0,#+0
   \                     ??xQueueGenericSend_9: (+1)
   \   00000040   0xB2C0             UXTB     R0,R0
   \   00000042   0x2800             CMP      R0,#+0
   \   00000044   0xD101             BNE      ??xQueueGenericSend_10
   \   00000046   0xB672             cpsid i
   \                     ??xQueueGenericSend_11: (+1)
   \   00000048   0xE7FE             B        ??xQueueGenericSend_11
    756          	#if ( ( INCLUDE_xTaskGetSchedulerState == 1 ) || ( configUSE_TIMERS == 1 ) )
    757          	{
    758          		configASSERT( !( ( xTaskGetSchedulerState() == taskSCHEDULER_SUSPENDED ) && ( xTicksToWait != 0 ) ) );
   \                     ??xQueueGenericSend_10: (+1)
   \   0000004A   0x.... 0x....      BL       xTaskGetSchedulerState
   \   0000004E   0x2800             CMP      R0,#+0
   \   00000050   0xD102             BNE      ??xQueueGenericSend_12
   \   00000052   0x9803             LDR      R0,[SP, #+12]
   \   00000054   0x2800             CMP      R0,#+0
   \   00000056   0xD101             BNE      ??xQueueGenericSend_13
   \                     ??xQueueGenericSend_12: (+1)
   \   00000058   0x2001             MOVS     R0,#+1
   \   0000005A   0xE000             B        ??xQueueGenericSend_14
   \                     ??xQueueGenericSend_13: (+1)
   \   0000005C   0x2000             MOVS     R0,#+0
   \                     ??xQueueGenericSend_14: (+1)
   \   0000005E   0xB2C0             UXTB     R0,R0
   \   00000060   0x2800             CMP      R0,#+0
   \   00000062   0xD101             BNE      ??xQueueGenericSend_15
   \   00000064   0xB672             cpsid i
   \                     ??xQueueGenericSend_16: (+1)
   \   00000066   0xE7FE             B        ??xQueueGenericSend_16
    759          	}
    760          	#endif
    761          
    762          
    763          	/*lint -save -e904 This function relaxes the coding standard somewhat to
    764          	allow return statements within the function itself.  This is done in the
    765          	interest of execution time efficiency. */
    766          	for( ;; )
    767          	{
    768          		taskENTER_CRITICAL();
   \                     ??xQueueGenericSend_15: (+1)
   \   00000068   0x.... 0x....      BL       vPortEnterCritical
    769          		{
    770          			/* Is there room on the queue now?  The running task must be the
    771          			highest priority task wanting to access the queue.  If the head item
    772          			in the queue is to be overwritten then it does not matter if the
    773          			queue is full. */
    774          			if( ( pxQueue->uxMessagesWaiting < pxQueue->uxLength ) || ( xCopyPosition == queueOVERWRITE ) )
   \   0000006C   0x6BA0             LDR      R0,[R4, #+56]
   \   0000006E   0x6BE1             LDR      R1,[R4, #+60]
   \   00000070   0x4288             CMP      R0,R1
   \   00000072   0xD302             BCC      ??xQueueGenericSend_17
   \   00000074   0x9804             LDR      R0,[SP, #+16]
   \   00000076   0x2802             CMP      R0,#+2
   \   00000078   0xD11A             BNE      ??xQueueGenericSend_18
    775          			{
    776          				traceQUEUE_SEND( pxQueue );
    777          
    778          				#if ( configUSE_QUEUE_SETS == 1 )
    779          				{
    780          				UBaseType_t uxPreviousMessagesWaiting = pxQueue->uxMessagesWaiting;
    781          
    782          					xYieldRequired = prvCopyDataToQueue( pxQueue, pvItemToQueue, xCopyPosition );
    783          
    784          					if( pxQueue->pxQueueSetContainer != NULL )
    785          					{
    786          						if( ( xCopyPosition == queueOVERWRITE ) && ( uxPreviousMessagesWaiting != ( UBaseType_t ) 0 ) )
    787          						{
    788          							/* Do not notify the queue set as an existing item
    789          							was overwritten in the queue so the number of items
    790          							in the queue has not changed. */
    791          							mtCOVERAGE_TEST_MARKER();
    792          						}
    793          						else if( prvNotifyQueueSetContainer( pxQueue, xCopyPosition ) != pdFALSE )
    794          						{
    795          							/* The queue is a member of a queue set, and posting
    796          							to the queue set caused a higher priority task to
    797          							unblock. A context switch is required. */
    798          							queueYIELD_IF_USING_PREEMPTION();
    799          						}
    800          						else
    801          						{
    802          							mtCOVERAGE_TEST_MARKER();
    803          						}
    804          					}
    805          					else
    806          					{
    807          						/* If there was a task waiting for data to arrive on the
    808          						queue then unblock it now. */
    809          						if( listLIST_IS_EMPTY( &( pxQueue->xTasksWaitingToReceive ) ) == pdFALSE )
    810          						{
    811          							if( xTaskRemoveFromEventList( &( pxQueue->xTasksWaitingToReceive ) ) != pdFALSE )
    812          							{
    813          								/* The unblocked task has a priority higher than
    814          								our own so yield immediately.  Yes it is ok to
    815          								do this from within the critical section - the
    816          								kernel takes care of that. */
    817          								queueYIELD_IF_USING_PREEMPTION();
    818          							}
    819          							else
    820          							{
    821          								mtCOVERAGE_TEST_MARKER();
    822          							}
    823          						}
    824          						else if( xYieldRequired != pdFALSE )
    825          						{
    826          							/* This path is a special case that will only get
    827          							executed if the task was holding multiple mutexes
    828          							and the mutexes were given back in an order that is
    829          							different to that in which they were taken. */
    830          							queueYIELD_IF_USING_PREEMPTION();
    831          						}
    832          						else
    833          						{
    834          							mtCOVERAGE_TEST_MARKER();
    835          						}
    836          					}
    837          				}
    838          				#else /* configUSE_QUEUE_SETS */
    839          				{
    840          					xYieldRequired = prvCopyDataToQueue( pxQueue, pvItemToQueue, xCopyPosition );
   \                     ??xQueueGenericSend_17: (+1)
   \   0000007A   0x9A04             LDR      R2,[SP, #+16]
   \   0000007C   0x0031             MOVS     R1,R6
   \   0000007E   0x0020             MOVS     R0,R4
   \   00000080   0x.... 0x....      BL       prvCopyDataToQueue
   \   00000084   0x9000             STR      R0,[SP, #+0]
    841          
    842          					/* If there was a task waiting for data to arrive on the
    843          					queue then unblock it now. */
    844          					if( listLIST_IS_EMPTY( &( pxQueue->xTasksWaitingToReceive ) ) == pdFALSE )
   \   00000086   0x6A60             LDR      R0,[R4, #+36]
   \   00000088   0x2800             CMP      R0,#+0
   \   0000008A   0xD008             BEQ      ??xQueueGenericSend_19
    845          					{
    846          						if( xTaskRemoveFromEventList( &( pxQueue->xTasksWaitingToReceive ) ) != pdFALSE )
   \   0000008C   0x0020             MOVS     R0,R4
   \   0000008E   0x3024             ADDS     R0,R0,#+36
   \   00000090   0x.... 0x....      BL       xTaskRemoveFromEventList
   \   00000094   0x2800             CMP      R0,#+0
   \   00000096   0xD007             BEQ      ??xQueueGenericSend_20
    847          						{
    848          							/* The unblocked task has a priority higher than
    849          							our own so yield immediately.  Yes it is ok to do
    850          							this from within the critical section - the kernel
    851          							takes care of that. */
    852          							queueYIELD_IF_USING_PREEMPTION();
   \   00000098   0x.... 0x....      BL       vPortYield
   \   0000009C   0xE004             B        ??xQueueGenericSend_20
    853          						}
    854          						else
    855          						{
    856          							mtCOVERAGE_TEST_MARKER();
    857          						}
    858          					}
    859          					else if( xYieldRequired != pdFALSE )
   \                     ??xQueueGenericSend_19: (+1)
   \   0000009E   0x9800             LDR      R0,[SP, #+0]
   \   000000A0   0x2800             CMP      R0,#+0
   \   000000A2   0xD001             BEQ      ??xQueueGenericSend_20
    860          					{
    861          						/* This path is a special case that will only get
    862          						executed if the task was holding multiple mutexes and
    863          						the mutexes were given back in an order that is
    864          						different to that in which they were taken. */
    865          						queueYIELD_IF_USING_PREEMPTION();
   \   000000A4   0x.... 0x....      BL       vPortYield
    866          					}
    867          					else
    868          					{
    869          						mtCOVERAGE_TEST_MARKER();
    870          					}
    871          				}
    872          				#endif /* configUSE_QUEUE_SETS */
    873          
    874          				taskEXIT_CRITICAL();
   \                     ??xQueueGenericSend_20: (+1)
   \   000000A8   0x.... 0x....      BL       vPortExitCritical
    875          				return pdPASS;
   \   000000AC   0x2001             MOVS     R0,#+1
   \   000000AE   0xE04D             B        ??xQueueGenericSend_21
    876          			}
    877          			else
    878          			{
    879          				if( xTicksToWait == ( TickType_t ) 0 )
   \                     ??xQueueGenericSend_18: (+1)
   \   000000B0   0x9803             LDR      R0,[SP, #+12]
   \   000000B2   0x2800             CMP      R0,#+0
   \   000000B4   0xD103             BNE      ??xQueueGenericSend_22
    880          				{
    881          					/* The queue was full and no block time is specified (or
    882          					the block time has expired) so leave now. */
    883          					taskEXIT_CRITICAL();
   \   000000B6   0x.... 0x....      BL       vPortExitCritical
    884          
    885          					/* Return to the original privilege level before exiting
    886          					the function. */
    887          					traceQUEUE_SEND_FAILED( pxQueue );
    888          					return errQUEUE_FULL;
   \   000000BA   0x2000             MOVS     R0,#+0
   \   000000BC   0xE046             B        ??xQueueGenericSend_21
    889          				}
    890          				else if( xEntryTimeSet == pdFALSE )
   \                     ??xQueueGenericSend_22: (+1)
   \   000000BE   0x2D00             CMP      R5,#+0
   \   000000C0   0xD104             BNE      ??xQueueGenericSend_23
    891          				{
    892          					/* The queue was full and a block time was specified so
    893          					configure the timeout structure. */
    894          					vTaskInternalSetTimeOutState( &xTimeOut );
   \   000000C2   0xA801             ADD      R0,SP,#+4
   \   000000C4   0x.... 0x....      BL       vTaskInternalSetTimeOutState
    895          					xEntryTimeSet = pdTRUE;
   \   000000C8   0x2001             MOVS     R0,#+1
   \   000000CA   0x0005             MOVS     R5,R0
    896          				}
    897          				else
    898          				{
    899          					/* Entry time was already set. */
    900          					mtCOVERAGE_TEST_MARKER();
    901          				}
    902          			}
    903          		}
    904          		taskEXIT_CRITICAL();
   \                     ??xQueueGenericSend_23: (+1)
   \   000000CC   0x.... 0x....      BL       vPortExitCritical
    905          
    906          		/* Interrupts and other tasks can send to and receive from the queue
    907          		now the critical section has been exited. */
    908          
    909          		vTaskSuspendAll();
   \   000000D0   0x.... 0x....      BL       vTaskSuspendAll
    910          		prvLockQueue( pxQueue );
   \   000000D4   0x.... 0x....      BL       vPortEnterCritical
   \   000000D8   0x2044             MOVS     R0,#+68
   \   000000DA   0x5620             LDRSB    R0,[R4, R0]
   \   000000DC   0x2100             MOVS     R1,#+0
   \   000000DE   0x43C9             MVNS     R1,R1            ;; #-1
   \   000000E0   0x4288             CMP      R0,R1
   \   000000E2   0xD102             BNE      ??xQueueGenericSend_24
   \   000000E4   0x2000             MOVS     R0,#+0
   \   000000E6   0x2144             MOVS     R1,#+68
   \   000000E8   0x5460             STRB     R0,[R4, R1]
   \                     ??xQueueGenericSend_24: (+1)
   \   000000EA   0x2045             MOVS     R0,#+69
   \   000000EC   0x5620             LDRSB    R0,[R4, R0]
   \   000000EE   0x2100             MOVS     R1,#+0
   \   000000F0   0x43C9             MVNS     R1,R1            ;; #-1
   \   000000F2   0x4288             CMP      R0,R1
   \   000000F4   0xD102             BNE      ??xQueueGenericSend_25
   \   000000F6   0x2000             MOVS     R0,#+0
   \   000000F8   0x2145             MOVS     R1,#+69
   \   000000FA   0x5460             STRB     R0,[R4, R1]
   \                     ??xQueueGenericSend_25: (+1)
   \   000000FC   0x.... 0x....      BL       vPortExitCritical
    911          
    912          		/* Update the timeout state to see if it has expired yet. */
    913          		if( xTaskCheckForTimeOut( &xTimeOut, &xTicksToWait ) == pdFALSE )
   \   00000100   0xA903             ADD      R1,SP,#+12
   \   00000102   0xA801             ADD      R0,SP,#+4
   \   00000104   0x.... 0x....      BL       xTaskCheckForTimeOut
   \   00000108   0x2800             CMP      R0,#+0
   \   0000010A   0xD119             BNE      ??xQueueGenericSend_26
    914          		{
    915          			if( prvIsQueueFull( pxQueue ) != pdFALSE )
   \   0000010C   0x0020             MOVS     R0,R4
   \   0000010E   0x.... 0x....      BL       prvIsQueueFull
   \   00000112   0x2800             CMP      R0,#+0
   \   00000114   0xD00E             BEQ      ??xQueueGenericSend_27
    916          			{
    917          				traceBLOCKING_ON_QUEUE_SEND( pxQueue );
    918          				vTaskPlaceOnEventList( &( pxQueue->xTasksWaitingToSend ), xTicksToWait );
   \   00000116   0x9903             LDR      R1,[SP, #+12]
   \   00000118   0x0020             MOVS     R0,R4
   \   0000011A   0x3010             ADDS     R0,R0,#+16
   \   0000011C   0x.... 0x....      BL       vTaskPlaceOnEventList
    919          
    920          				/* Unlocking the queue means queue events can effect the
    921          				event list.  It is possible that interrupts occurring now
    922          				remove this task from the event list again - but as the
    923          				scheduler is suspended the task will go onto the pending
    924          				ready last instead of the actual ready list. */
    925          				prvUnlockQueue( pxQueue );
   \   00000120   0x0020             MOVS     R0,R4
   \   00000122   0x.... 0x....      BL       prvUnlockQueue
    926          
    927          				/* Resuming the scheduler will move tasks from the pending
    928          				ready list into the ready list - so it is feasible that this
    929          				task is already in a ready list before it yields - in which
    930          				case the yield will not cause a context switch unless there
    931          				is also a higher priority task in the pending ready list. */
    932          				if( xTaskResumeAll() == pdFALSE )
   \   00000126   0x.... 0x....      BL       xTaskResumeAll
   \   0000012A   0x2800             CMP      R0,#+0
   \   0000012C   0xD19C             BNE      ??xQueueGenericSend_15
    933          				{
    934          					portYIELD_WITHIN_API();
   \   0000012E   0x.... 0x....      BL       vPortYield
   \   00000132   0xE799             B        ??xQueueGenericSend_15
    935          				}
    936          			}
    937          			else
    938          			{
    939          				/* Try again. */
    940          				prvUnlockQueue( pxQueue );
   \                     ??xQueueGenericSend_27: (+1)
   \   00000134   0x0020             MOVS     R0,R4
   \   00000136   0x.... 0x....      BL       prvUnlockQueue
    941          				( void ) xTaskResumeAll();
   \   0000013A   0x.... 0x....      BL       xTaskResumeAll
   \   0000013E   0xE793             B        ??xQueueGenericSend_15
    942          			}
    943          		}
    944          		else
    945          		{
    946          			/* The timeout has expired. */
    947          			prvUnlockQueue( pxQueue );
   \                     ??xQueueGenericSend_26: (+1)
   \   00000140   0x0020             MOVS     R0,R4
   \   00000142   0x.... 0x....      BL       prvUnlockQueue
    948          			( void ) xTaskResumeAll();
   \   00000146   0x.... 0x....      BL       xTaskResumeAll
    949          
    950          			traceQUEUE_SEND_FAILED( pxQueue );
    951          			return errQUEUE_FULL;
   \   0000014A   0x2000             MOVS     R0,#+0
   \                     ??xQueueGenericSend_21: (+1)
   \   0000014C   0xB005             ADD      SP,SP,#+20
   \   0000014E   0xBDF0             POP      {R4-R7,PC}       ;; return
    952          		}
    953          	} /*lint -restore */
    954          }
    955          /*-----------------------------------------------------------*/
    956          

   \                                 In section .text, align 4, keep-with-next
    957          BaseType_t xQueueGenericSendFromISR( QueueHandle_t xQueue, const void * const pvItemToQueue, BaseType_t * const pxHigherPriorityTaskWoken, const BaseType_t xCopyPosition )
    958          {
   \                     xQueueGenericSendFromISR: (+1)
   \   00000000   0xB5FA             PUSH     {R1,R3-R7,LR}
   \   00000002   0xB083             SUB      SP,SP,#+12
   \   00000004   0x0007             MOVS     R7,R0
   \   00000006   0x0015             MOVS     R5,R2
    959          BaseType_t xReturn;
    960          UBaseType_t uxSavedInterruptStatus;
    961          Queue_t * const pxQueue = xQueue;
   \   00000008   0x003C             MOVS     R4,R7
    962          
    963          	configASSERT( pxQueue );
   \   0000000A   0x2C00             CMP      R4,#+0
   \   0000000C   0xD101             BNE      ??xQueueGenericSendFromISR_0
   \   0000000E   0xB672             cpsid i
   \                     ??xQueueGenericSendFromISR_1: (+1)
   \   00000010   0xE7FE             B        ??xQueueGenericSendFromISR_1
    964          	configASSERT( !( ( pvItemToQueue == NULL ) && ( pxQueue->uxItemSize != ( UBaseType_t ) 0U ) ) );
   \                     ??xQueueGenericSendFromISR_0: (+1)
   \   00000012   0x9803             LDR      R0,[SP, #+12]
   \   00000014   0x2800             CMP      R0,#+0
   \   00000016   0xD102             BNE      ??xQueueGenericSendFromISR_2
   \   00000018   0x6C20             LDR      R0,[R4, #+64]
   \   0000001A   0x2800             CMP      R0,#+0
   \   0000001C   0xD101             BNE      ??xQueueGenericSendFromISR_3
   \                     ??xQueueGenericSendFromISR_2: (+1)
   \   0000001E   0x2001             MOVS     R0,#+1
   \   00000020   0xE000             B        ??xQueueGenericSendFromISR_4
   \                     ??xQueueGenericSendFromISR_3: (+1)
   \   00000022   0x2000             MOVS     R0,#+0
   \                     ??xQueueGenericSendFromISR_4: (+1)
   \   00000024   0xB2C0             UXTB     R0,R0
   \   00000026   0x2800             CMP      R0,#+0
   \   00000028   0xD101             BNE      ??xQueueGenericSendFromISR_5
   \   0000002A   0xB672             cpsid i
   \                     ??xQueueGenericSendFromISR_6: (+1)
   \   0000002C   0xE7FE             B        ??xQueueGenericSendFromISR_6
    965          	configASSERT( !( ( xCopyPosition == queueOVERWRITE ) && ( pxQueue->uxLength != 1 ) ) );
   \                     ??xQueueGenericSendFromISR_5: (+1)
   \   0000002E   0x9804             LDR      R0,[SP, #+16]
   \   00000030   0x2802             CMP      R0,#+2
   \   00000032   0xD102             BNE      ??xQueueGenericSendFromISR_7
   \   00000034   0x6BE0             LDR      R0,[R4, #+60]
   \   00000036   0x2801             CMP      R0,#+1
   \   00000038   0xD101             BNE      ??xQueueGenericSendFromISR_8
   \                     ??xQueueGenericSendFromISR_7: (+1)
   \   0000003A   0x2001             MOVS     R0,#+1
   \   0000003C   0xE000             B        ??xQueueGenericSendFromISR_9
   \                     ??xQueueGenericSendFromISR_8: (+1)
   \   0000003E   0x2000             MOVS     R0,#+0
   \                     ??xQueueGenericSendFromISR_9: (+1)
   \   00000040   0xB2C0             UXTB     R0,R0
   \   00000042   0x2800             CMP      R0,#+0
   \   00000044   0xD101             BNE      ??xQueueGenericSendFromISR_10
   \   00000046   0xB672             cpsid i
   \                     ??xQueueGenericSendFromISR_11: (+1)
   \   00000048   0xE7FE             B        ??xQueueGenericSendFromISR_11
    966          
    967          	/* RTOS ports that support interrupt nesting have the concept of a maximum
    968          	system call (or maximum API call) interrupt priority.  Interrupts that are
    969          	above the maximum system call priority are kept permanently enabled, even
    970          	when the RTOS kernel is in a critical section, but cannot make any calls to
    971          	FreeRTOS API functions.  If configASSERT() is defined in FreeRTOSConfig.h
    972          	then portASSERT_IF_INTERRUPT_PRIORITY_INVALID() will result in an assertion
    973          	failure if a FreeRTOS API function is called from an interrupt that has been
    974          	assigned a priority above the configured maximum system call priority.
    975          	Only FreeRTOS functions that end in FromISR can be called from interrupts
    976          	that have been assigned a priority at or (logically) below the maximum
    977          	system call	interrupt priority.  FreeRTOS maintains a separate interrupt
    978          	safe API to ensure interrupt entry is as fast and as simple as possible.
    979          	More information (albeit Cortex-M specific) is provided on the following
    980          	link: http://www.freertos.org/RTOS-Cortex-M3-M4.html */
    981          	portASSERT_IF_INTERRUPT_PRIORITY_INVALID();
    982          
    983          	/* Similar to xQueueGenericSend, except without blocking if there is no room
    984          	in the queue.  Also don't directly wake a task that was blocked on a queue
    985          	read, instead return a flag to say whether a context switch is required or
    986          	not (i.e. has a task with a higher priority than us been woken by this
    987          	post). */
    988          	uxSavedInterruptStatus = portSET_INTERRUPT_MASK_FROM_ISR();
   \                     ??xQueueGenericSendFromISR_10: (+1)
   \   0000004A   0x.... 0x....      BL       ulSetInterruptMaskFromISR
   \   0000004E   0x9001             STR      R0,[SP, #+4]
    989          	{
    990          		if( ( pxQueue->uxMessagesWaiting < pxQueue->uxLength ) || ( xCopyPosition == queueOVERWRITE ) )
   \   00000050   0x6BA0             LDR      R0,[R4, #+56]
   \   00000052   0x6BE1             LDR      R1,[R4, #+60]
   \   00000054   0x4288             CMP      R0,R1
   \   00000056   0xD302             BCC      ??xQueueGenericSendFromISR_12
   \   00000058   0x9804             LDR      R0,[SP, #+16]
   \   0000005A   0x2802             CMP      R0,#+2
   \   0000005C   0xD120             BNE      ??xQueueGenericSendFromISR_13
    991          		{
    992          			const int8_t cTxLock = pxQueue->cTxLock;
   \                     ??xQueueGenericSendFromISR_12: (+1)
   \   0000005E   0x2045             MOVS     R0,#+69
   \   00000060   0x5626             LDRSB    R6,[R4, R0]
    993          
    994          			traceQUEUE_SEND_FROM_ISR( pxQueue );
    995          
    996          			/* Semaphores use xQueueGiveFromISR(), so pxQueue will not be a
    997          			semaphore or mutex.  That means prvCopyDataToQueue() cannot result
    998          			in a task disinheriting a priority and prvCopyDataToQueue() can be
    999          			called here even though the disinherit function does not check if
   1000          			the scheduler is suspended before accessing the ready lists. */
   1001          			( void ) prvCopyDataToQueue( pxQueue, pvItemToQueue, xCopyPosition );
   \   00000062   0x9A04             LDR      R2,[SP, #+16]
   \   00000064   0x9903             LDR      R1,[SP, #+12]
   \   00000066   0x0020             MOVS     R0,R4
   \   00000068   0x.... 0x....      BL       prvCopyDataToQueue
   1002          
   1003          			/* The event list is not altered if the queue is locked.  This will
   1004          			be done when the queue is unlocked later. */
   1005          			if( cTxLock == queueUNLOCKED )
   \   0000006C   0xB276             SXTB     R6,R6
   \   0000006E   0x2000             MOVS     R0,#+0
   \   00000070   0x43C0             MVNS     R0,R0            ;; #-1
   \   00000072   0x4286             CMP      R6,R0
   \   00000074   0xD10D             BNE      ??xQueueGenericSendFromISR_14
   1006          			{
   1007          				#if ( configUSE_QUEUE_SETS == 1 )
   1008          				{
   1009          					if( pxQueue->pxQueueSetContainer != NULL )
   1010          					{
   1011          						if( prvNotifyQueueSetContainer( pxQueue, xCopyPosition ) != pdFALSE )
   1012          						{
   1013          							/* The queue is a member of a queue set, and posting
   1014          							to the queue set caused a higher priority task to
   1015          							unblock.  A context switch is required. */
   1016          							if( pxHigherPriorityTaskWoken != NULL )
   1017          							{
   1018          								*pxHigherPriorityTaskWoken = pdTRUE;
   1019          							}
   1020          							else
   1021          							{
   1022          								mtCOVERAGE_TEST_MARKER();
   1023          							}
   1024          						}
   1025          						else
   1026          						{
   1027          							mtCOVERAGE_TEST_MARKER();
   1028          						}
   1029          					}
   1030          					else
   1031          					{
   1032          						if( listLIST_IS_EMPTY( &( pxQueue->xTasksWaitingToReceive ) ) == pdFALSE )
   1033          						{
   1034          							if( xTaskRemoveFromEventList( &( pxQueue->xTasksWaitingToReceive ) ) != pdFALSE )
   1035          							{
   1036          								/* The task waiting has a higher priority so
   1037          								record that a context switch is required. */
   1038          								if( pxHigherPriorityTaskWoken != NULL )
   1039          								{
   1040          									*pxHigherPriorityTaskWoken = pdTRUE;
   1041          								}
   1042          								else
   1043          								{
   1044          									mtCOVERAGE_TEST_MARKER();
   1045          								}
   1046          							}
   1047          							else
   1048          							{
   1049          								mtCOVERAGE_TEST_MARKER();
   1050          							}
   1051          						}
   1052          						else
   1053          						{
   1054          							mtCOVERAGE_TEST_MARKER();
   1055          						}
   1056          					}
   1057          				}
   1058          				#else /* configUSE_QUEUE_SETS */
   1059          				{
   1060          					if( listLIST_IS_EMPTY( &( pxQueue->xTasksWaitingToReceive ) ) == pdFALSE )
   \   00000076   0x6A60             LDR      R0,[R4, #+36]
   \   00000078   0x2800             CMP      R0,#+0
   \   0000007A   0xD00E             BEQ      ??xQueueGenericSendFromISR_15
   1061          					{
   1062          						if( xTaskRemoveFromEventList( &( pxQueue->xTasksWaitingToReceive ) ) != pdFALSE )
   \   0000007C   0x0020             MOVS     R0,R4
   \   0000007E   0x3024             ADDS     R0,R0,#+36
   \   00000080   0x.... 0x....      BL       xTaskRemoveFromEventList
   \   00000084   0x2800             CMP      R0,#+0
   \   00000086   0xD008             BEQ      ??xQueueGenericSendFromISR_15
   1063          						{
   1064          							/* The task waiting has a higher priority so record that a
   1065          							context	switch is required. */
   1066          							if( pxHigherPriorityTaskWoken != NULL )
   \   00000088   0x2D00             CMP      R5,#+0
   \   0000008A   0xD006             BEQ      ??xQueueGenericSendFromISR_15
   1067          							{
   1068          								*pxHigherPriorityTaskWoken = pdTRUE;
   \   0000008C   0x2001             MOVS     R0,#+1
   \   0000008E   0x6028             STR      R0,[R5, #+0]
   \   00000090   0xE003             B        ??xQueueGenericSendFromISR_15
   1069          							}
   1070          							else
   1071          							{
   1072          								mtCOVERAGE_TEST_MARKER();
   1073          							}
   1074          						}
   1075          						else
   1076          						{
   1077          							mtCOVERAGE_TEST_MARKER();
   1078          						}
   1079          					}
   1080          					else
   1081          					{
   1082          						mtCOVERAGE_TEST_MARKER();
   1083          					}
   1084          				}
   1085          				#endif /* configUSE_QUEUE_SETS */
   1086          			}
   1087          			else
   1088          			{
   1089          				/* Increment the lock count so the task that unlocks the queue
   1090          				knows that data was posted while it was locked. */
   1091          				pxQueue->cTxLock = ( int8_t ) ( cTxLock + 1 );
   \                     ??xQueueGenericSendFromISR_14: (+1)
   \   00000092   0x0030             MOVS     R0,R6
   \   00000094   0x1C40             ADDS     R0,R0,#+1
   \   00000096   0x2145             MOVS     R1,#+69
   \   00000098   0x5460             STRB     R0,[R4, R1]
   1092          			}
   1093          
   1094          			xReturn = pdPASS;
   \                     ??xQueueGenericSendFromISR_15: (+1)
   \   0000009A   0x2001             MOVS     R0,#+1
   \   0000009C   0x9000             STR      R0,[SP, #+0]
   \   0000009E   0xE001             B        ??xQueueGenericSendFromISR_16
   1095          		}
   1096          		else
   1097          		{
   1098          			traceQUEUE_SEND_FROM_ISR_FAILED( pxQueue );
   1099          			xReturn = errQUEUE_FULL;
   \                     ??xQueueGenericSendFromISR_13: (+1)
   \   000000A0   0x2000             MOVS     R0,#+0
   \   000000A2   0x9000             STR      R0,[SP, #+0]
   1100          		}
   1101          	}
   1102          	portCLEAR_INTERRUPT_MASK_FROM_ISR( uxSavedInterruptStatus );
   \                     ??xQueueGenericSendFromISR_16: (+1)
   \   000000A4   0x9801             LDR      R0,[SP, #+4]
   \   000000A6   0x.... 0x....      BL       vClearInterruptMaskFromISR
   1103          
   1104          	return xReturn;
   \   000000AA   0x9800             LDR      R0,[SP, #+0]
   \   000000AC   0xB005             ADD      SP,SP,#+20
   \   000000AE   0xBDF0             POP      {R4-R7,PC}       ;; return
   1105          }
   1106          /*-----------------------------------------------------------*/
   1107          

   \                                 In section .text, align 4, keep-with-next
   1108          BaseType_t xQueueGiveFromISR( QueueHandle_t xQueue, BaseType_t * const pxHigherPriorityTaskWoken )
   1109          {
   \                     xQueueGiveFromISR: (+1)
   \   00000000   0xB5F2             PUSH     {R1,R4-R7,LR}
   \   00000002   0xB082             SUB      SP,SP,#+8
   \   00000004   0x0007             MOVS     R7,R0
   1110          BaseType_t xReturn;
   1111          UBaseType_t uxSavedInterruptStatus;
   1112          Queue_t * const pxQueue = xQueue;
   \   00000006   0x003C             MOVS     R4,R7
   1113          
   1114          	/* Similar to xQueueGenericSendFromISR() but used with semaphores where the
   1115          	item size is 0.  Don't directly wake a task that was blocked on a queue
   1116          	read, instead return a flag to say whether a context switch is required or
   1117          	not (i.e. has a task with a higher priority than us been woken by this
   1118          	post). */
   1119          
   1120          	configASSERT( pxQueue );
   \   00000008   0x2C00             CMP      R4,#+0
   \   0000000A   0xD101             BNE      ??xQueueGiveFromISR_0
   \   0000000C   0xB672             cpsid i
   \                     ??xQueueGiveFromISR_1: (+1)
   \   0000000E   0xE7FE             B        ??xQueueGiveFromISR_1
   1121          
   1122          	/* xQueueGenericSendFromISR() should be used instead of xQueueGiveFromISR()
   1123          	if the item size is not 0. */
   1124          	configASSERT( pxQueue->uxItemSize == 0 );
   \                     ??xQueueGiveFromISR_0: (+1)
   \   00000010   0x6C20             LDR      R0,[R4, #+64]
   \   00000012   0x2800             CMP      R0,#+0
   \   00000014   0xD001             BEQ      ??xQueueGiveFromISR_2
   \   00000016   0xB672             cpsid i
   \                     ??xQueueGiveFromISR_3: (+1)
   \   00000018   0xE7FE             B        ??xQueueGiveFromISR_3
   1125          
   1126          	/* Normally a mutex would not be given from an interrupt, especially if
   1127          	there is a mutex holder, as priority inheritance makes no sense for an
   1128          	interrupts, only tasks. */
   1129          	configASSERT( !( ( pxQueue->uxQueueType == queueQUEUE_IS_MUTEX ) && ( pxQueue->u.xSemaphore.xMutexHolder != NULL ) ) );
   \                     ??xQueueGiveFromISR_2: (+1)
   \   0000001A   0x6820             LDR      R0,[R4, #+0]
   \   0000001C   0x2800             CMP      R0,#+0
   \   0000001E   0xD102             BNE      ??xQueueGiveFromISR_4
   \   00000020   0x68A0             LDR      R0,[R4, #+8]
   \   00000022   0x2800             CMP      R0,#+0
   \   00000024   0xD101             BNE      ??xQueueGiveFromISR_5
   \                     ??xQueueGiveFromISR_4: (+1)
   \   00000026   0x2001             MOVS     R0,#+1
   \   00000028   0xE000             B        ??xQueueGiveFromISR_6
   \                     ??xQueueGiveFromISR_5: (+1)
   \   0000002A   0x2000             MOVS     R0,#+0
   \                     ??xQueueGiveFromISR_6: (+1)
   \   0000002C   0xB2C0             UXTB     R0,R0
   \   0000002E   0x2800             CMP      R0,#+0
   \   00000030   0xD101             BNE      ??xQueueGiveFromISR_7
   \   00000032   0xB672             cpsid i
   \                     ??xQueueGiveFromISR_8: (+1)
   \   00000034   0xE7FE             B        ??xQueueGiveFromISR_8
   1130          
   1131          	/* RTOS ports that support interrupt nesting have the concept of a maximum
   1132          	system call (or maximum API call) interrupt priority.  Interrupts that are
   1133          	above the maximum system call priority are kept permanently enabled, even
   1134          	when the RTOS kernel is in a critical section, but cannot make any calls to
   1135          	FreeRTOS API functions.  If configASSERT() is defined in FreeRTOSConfig.h
   1136          	then portASSERT_IF_INTERRUPT_PRIORITY_INVALID() will result in an assertion
   1137          	failure if a FreeRTOS API function is called from an interrupt that has been
   1138          	assigned a priority above the configured maximum system call priority.
   1139          	Only FreeRTOS functions that end in FromISR can be called from interrupts
   1140          	that have been assigned a priority at or (logically) below the maximum
   1141          	system call	interrupt priority.  FreeRTOS maintains a separate interrupt
   1142          	safe API to ensure interrupt entry is as fast and as simple as possible.
   1143          	More information (albeit Cortex-M specific) is provided on the following
   1144          	link: http://www.freertos.org/RTOS-Cortex-M3-M4.html */
   1145          	portASSERT_IF_INTERRUPT_PRIORITY_INVALID();
   1146          
   1147          	uxSavedInterruptStatus = portSET_INTERRUPT_MASK_FROM_ISR();
   \                     ??xQueueGiveFromISR_7: (+1)
   \   00000036   0x.... 0x....      BL       ulSetInterruptMaskFromISR
   \   0000003A   0x9001             STR      R0,[SP, #+4]
   1148          	{
   1149          		const UBaseType_t uxMessagesWaiting = pxQueue->uxMessagesWaiting;
   \   0000003C   0x6BA5             LDR      R5,[R4, #+56]
   1150          
   1151          		/* When the queue is used to implement a semaphore no data is ever
   1152          		moved through the queue but it is still valid to see if the queue 'has
   1153          		space'. */
   1154          		if( uxMessagesWaiting < pxQueue->uxLength )
   \   0000003E   0x6BE0             LDR      R0,[R4, #+60]
   \   00000040   0x4285             CMP      R5,R0
   \   00000042   0xD220             BCS      ??xQueueGiveFromISR_9
   1155          		{
   1156          			const int8_t cTxLock = pxQueue->cTxLock;
   \   00000044   0x2045             MOVS     R0,#+69
   \   00000046   0x5626             LDRSB    R6,[R4, R0]
   1157          
   1158          			traceQUEUE_SEND_FROM_ISR( pxQueue );
   1159          
   1160          			/* A task can only have an inherited priority if it is a mutex
   1161          			holder - and if there is a mutex holder then the mutex cannot be
   1162          			given from an ISR.  As this is the ISR version of the function it
   1163          			can be assumed there is no mutex holder and no need to determine if
   1164          			priority disinheritance is needed.  Simply increase the count of
   1165          			messages (semaphores) available. */
   1166          			pxQueue->uxMessagesWaiting = uxMessagesWaiting + ( UBaseType_t ) 1;
   \   00000048   0x0028             MOVS     R0,R5
   \   0000004A   0x1C40             ADDS     R0,R0,#+1
   \   0000004C   0x63A0             STR      R0,[R4, #+56]
   1167          
   1168          			/* The event list is not altered if the queue is locked.  This will
   1169          			be done when the queue is unlocked later. */
   1170          			if( cTxLock == queueUNLOCKED )
   \   0000004E   0xB276             SXTB     R6,R6
   \   00000050   0x2000             MOVS     R0,#+0
   \   00000052   0x43C0             MVNS     R0,R0            ;; #-1
   \   00000054   0x4286             CMP      R6,R0
   \   00000056   0xD10F             BNE      ??xQueueGiveFromISR_10
   1171          			{
   1172          				#if ( configUSE_QUEUE_SETS == 1 )
   1173          				{
   1174          					if( pxQueue->pxQueueSetContainer != NULL )
   1175          					{
   1176          						if( prvNotifyQueueSetContainer( pxQueue, queueSEND_TO_BACK ) != pdFALSE )
   1177          						{
   1178          							/* The semaphore is a member of a queue set, and
   1179          							posting	to the queue set caused a higher priority
   1180          							task to	unblock.  A context switch is required. */
   1181          							if( pxHigherPriorityTaskWoken != NULL )
   1182          							{
   1183          								*pxHigherPriorityTaskWoken = pdTRUE;
   1184          							}
   1185          							else
   1186          							{
   1187          								mtCOVERAGE_TEST_MARKER();
   1188          							}
   1189          						}
   1190          						else
   1191          						{
   1192          							mtCOVERAGE_TEST_MARKER();
   1193          						}
   1194          					}
   1195          					else
   1196          					{
   1197          						if( listLIST_IS_EMPTY( &( pxQueue->xTasksWaitingToReceive ) ) == pdFALSE )
   1198          						{
   1199          							if( xTaskRemoveFromEventList( &( pxQueue->xTasksWaitingToReceive ) ) != pdFALSE )
   1200          							{
   1201          								/* The task waiting has a higher priority so
   1202          								record that a context switch is required. */
   1203          								if( pxHigherPriorityTaskWoken != NULL )
   1204          								{
   1205          									*pxHigherPriorityTaskWoken = pdTRUE;
   1206          								}
   1207          								else
   1208          								{
   1209          									mtCOVERAGE_TEST_MARKER();
   1210          								}
   1211          							}
   1212          							else
   1213          							{
   1214          								mtCOVERAGE_TEST_MARKER();
   1215          							}
   1216          						}
   1217          						else
   1218          						{
   1219          							mtCOVERAGE_TEST_MARKER();
   1220          						}
   1221          					}
   1222          				}
   1223          				#else /* configUSE_QUEUE_SETS */
   1224          				{
   1225          					if( listLIST_IS_EMPTY( &( pxQueue->xTasksWaitingToReceive ) ) == pdFALSE )
   \   00000058   0x6A60             LDR      R0,[R4, #+36]
   \   0000005A   0x2800             CMP      R0,#+0
   \   0000005C   0xD010             BEQ      ??xQueueGiveFromISR_11
   1226          					{
   1227          						if( xTaskRemoveFromEventList( &( pxQueue->xTasksWaitingToReceive ) ) != pdFALSE )
   \   0000005E   0x0020             MOVS     R0,R4
   \   00000060   0x3024             ADDS     R0,R0,#+36
   \   00000062   0x.... 0x....      BL       xTaskRemoveFromEventList
   \   00000066   0x2800             CMP      R0,#+0
   \   00000068   0xD00A             BEQ      ??xQueueGiveFromISR_11
   1228          						{
   1229          							/* The task waiting has a higher priority so record that a
   1230          							context	switch is required. */
   1231          							if( pxHigherPriorityTaskWoken != NULL )
   \   0000006A   0x9802             LDR      R0,[SP, #+8]
   \   0000006C   0x2800             CMP      R0,#+0
   \   0000006E   0xD007             BEQ      ??xQueueGiveFromISR_11
   1232          							{
   1233          								*pxHigherPriorityTaskWoken = pdTRUE;
   \   00000070   0x2001             MOVS     R0,#+1
   \   00000072   0x9902             LDR      R1,[SP, #+8]
   \   00000074   0x6008             STR      R0,[R1, #+0]
   \   00000076   0xE003             B        ??xQueueGiveFromISR_11
   1234          							}
   1235          							else
   1236          							{
   1237          								mtCOVERAGE_TEST_MARKER();
   1238          							}
   1239          						}
   1240          						else
   1241          						{
   1242          							mtCOVERAGE_TEST_MARKER();
   1243          						}
   1244          					}
   1245          					else
   1246          					{
   1247          						mtCOVERAGE_TEST_MARKER();
   1248          					}
   1249          				}
   1250          				#endif /* configUSE_QUEUE_SETS */
   1251          			}
   1252          			else
   1253          			{
   1254          				/* Increment the lock count so the task that unlocks the queue
   1255          				knows that data was posted while it was locked. */
   1256          				pxQueue->cTxLock = ( int8_t ) ( cTxLock + 1 );
   \                     ??xQueueGiveFromISR_10: (+1)
   \   00000078   0x0030             MOVS     R0,R6
   \   0000007A   0x1C40             ADDS     R0,R0,#+1
   \   0000007C   0x2145             MOVS     R1,#+69
   \   0000007E   0x5460             STRB     R0,[R4, R1]
   1257          			}
   1258          
   1259          			xReturn = pdPASS;
   \                     ??xQueueGiveFromISR_11: (+1)
   \   00000080   0x2001             MOVS     R0,#+1
   \   00000082   0x9000             STR      R0,[SP, #+0]
   \   00000084   0xE001             B        ??xQueueGiveFromISR_12
   1260          		}
   1261          		else
   1262          		{
   1263          			traceQUEUE_SEND_FROM_ISR_FAILED( pxQueue );
   1264          			xReturn = errQUEUE_FULL;
   \                     ??xQueueGiveFromISR_9: (+1)
   \   00000086   0x2000             MOVS     R0,#+0
   \   00000088   0x9000             STR      R0,[SP, #+0]
   1265          		}
   1266          	}
   1267          	portCLEAR_INTERRUPT_MASK_FROM_ISR( uxSavedInterruptStatus );
   \                     ??xQueueGiveFromISR_12: (+1)
   \   0000008A   0x9801             LDR      R0,[SP, #+4]
   \   0000008C   0x.... 0x....      BL       vClearInterruptMaskFromISR
   1268          
   1269          	return xReturn;
   \   00000090   0x9800             LDR      R0,[SP, #+0]
   \   00000092   0xBDFE             POP      {R1-R7,PC}       ;; return
   1270          }
   1271          /*-----------------------------------------------------------*/
   1272          

   \                                 In section .text, align 4, keep-with-next
   1273          BaseType_t xQueueReceive( QueueHandle_t xQueue, void * const pvBuffer, TickType_t xTicksToWait )
   1274          {
   \                     xQueueReceive: (+1)
   \   00000000   0xB5F4             PUSH     {R2,R4-R7,LR}
   \   00000002   0xB084             SUB      SP,SP,#+16
   \   00000004   0x0007             MOVS     R7,R0
   \   00000006   0x000E             MOVS     R6,R1
   1275          BaseType_t xEntryTimeSet = pdFALSE;
   \   00000008   0x2500             MOVS     R5,#+0
   1276          TimeOut_t xTimeOut;
   1277          Queue_t * const pxQueue = xQueue;
   \   0000000A   0x003C             MOVS     R4,R7
   1278          
   1279          	/* Check the pointer is not NULL. */
   1280          	configASSERT( ( pxQueue ) );
   \   0000000C   0x2C00             CMP      R4,#+0
   \   0000000E   0xD101             BNE      ??xQueueReceive_0
   \   00000010   0xB672             cpsid i
   \                     ??xQueueReceive_1: (+1)
   \   00000012   0xE7FE             B        ??xQueueReceive_1
   1281          
   1282          	/* The buffer into which data is received can only be NULL if the data size
   1283          	is zero (so no data is copied into the buffer. */
   1284          	configASSERT( !( ( ( pvBuffer ) == NULL ) && ( ( pxQueue )->uxItemSize != ( UBaseType_t ) 0U ) ) );
   \                     ??xQueueReceive_0: (+1)
   \   00000014   0x2E00             CMP      R6,#+0
   \   00000016   0xD102             BNE      ??xQueueReceive_2
   \   00000018   0x6C20             LDR      R0,[R4, #+64]
   \   0000001A   0x2800             CMP      R0,#+0
   \   0000001C   0xD101             BNE      ??xQueueReceive_3
   \                     ??xQueueReceive_2: (+1)
   \   0000001E   0x2001             MOVS     R0,#+1
   \   00000020   0xE000             B        ??xQueueReceive_4
   \                     ??xQueueReceive_3: (+1)
   \   00000022   0x2000             MOVS     R0,#+0
   \                     ??xQueueReceive_4: (+1)
   \   00000024   0xB2C0             UXTB     R0,R0
   \   00000026   0x2800             CMP      R0,#+0
   \   00000028   0xD101             BNE      ??xQueueReceive_5
   \   0000002A   0xB672             cpsid i
   \                     ??xQueueReceive_6: (+1)
   \   0000002C   0xE7FE             B        ??xQueueReceive_6
   1285          
   1286          	/* Cannot block if the scheduler is suspended. */
   1287          	#if ( ( INCLUDE_xTaskGetSchedulerState == 1 ) || ( configUSE_TIMERS == 1 ) )
   1288          	{
   1289          		configASSERT( !( ( xTaskGetSchedulerState() == taskSCHEDULER_SUSPENDED ) && ( xTicksToWait != 0 ) ) );
   \                     ??xQueueReceive_5: (+1)
   \   0000002E   0x.... 0x....      BL       xTaskGetSchedulerState
   \   00000032   0x2800             CMP      R0,#+0
   \   00000034   0xD102             BNE      ??xQueueReceive_7
   \   00000036   0x9804             LDR      R0,[SP, #+16]
   \   00000038   0x2800             CMP      R0,#+0
   \   0000003A   0xD101             BNE      ??xQueueReceive_8
   \                     ??xQueueReceive_7: (+1)
   \   0000003C   0x2001             MOVS     R0,#+1
   \   0000003E   0xE000             B        ??xQueueReceive_9
   \                     ??xQueueReceive_8: (+1)
   \   00000040   0x2000             MOVS     R0,#+0
   \                     ??xQueueReceive_9: (+1)
   \   00000042   0xB2C0             UXTB     R0,R0
   \   00000044   0x2800             CMP      R0,#+0
   \   00000046   0xD101             BNE      ??xQueueReceive_10
   \   00000048   0xB672             cpsid i
   \                     ??xQueueReceive_11: (+1)
   \   0000004A   0xE7FE             B        ??xQueueReceive_11
   1290          	}
   1291          	#endif
   1292          
   1293          
   1294          	/*lint -save -e904  This function relaxes the coding standard somewhat to
   1295          	allow return statements within the function itself.  This is done in the
   1296          	interest of execution time efficiency. */
   1297          	for( ;; )
   1298          	{
   1299          		taskENTER_CRITICAL();
   \                     ??xQueueReceive_10: (+1)
   \   0000004C   0x.... 0x....      BL       vPortEnterCritical
   1300          		{
   1301          			const UBaseType_t uxMessagesWaiting = pxQueue->uxMessagesWaiting;
   \   00000050   0x6BA0             LDR      R0,[R4, #+56]
   \   00000052   0x9000             STR      R0,[SP, #+0]
   1302          
   1303          			/* Is there data in the queue now?  To be running the calling task
   1304          			must be the highest priority task wanting to access the queue. */
   1305          			if( uxMessagesWaiting > ( UBaseType_t ) 0 )
   \   00000054   0x9800             LDR      R0,[SP, #+0]
   \   00000056   0x2800             CMP      R0,#+0
   \   00000058   0xD015             BEQ      ??xQueueReceive_12
   1306          			{
   1307          				/* Data available, remove one item. */
   1308          				prvCopyDataFromQueue( pxQueue, pvBuffer );
   \   0000005A   0x0031             MOVS     R1,R6
   \   0000005C   0x0020             MOVS     R0,R4
   \   0000005E   0x.... 0x....      BL       prvCopyDataFromQueue
   1309          				traceQUEUE_RECEIVE( pxQueue );
   1310          				pxQueue->uxMessagesWaiting = uxMessagesWaiting - ( UBaseType_t ) 1;
   \   00000062   0x9800             LDR      R0,[SP, #+0]
   \   00000064   0x1E40             SUBS     R0,R0,#+1
   \   00000066   0x63A0             STR      R0,[R4, #+56]
   1311          
   1312          				/* There is now space in the queue, were any tasks waiting to
   1313          				post to the queue?  If so, unblock the highest priority waiting
   1314          				task. */
   1315          				if( listLIST_IS_EMPTY( &( pxQueue->xTasksWaitingToSend ) ) == pdFALSE )
   \   00000068   0x6920             LDR      R0,[R4, #+16]
   \   0000006A   0x2800             CMP      R0,#+0
   \   0000006C   0xD007             BEQ      ??xQueueReceive_13
   1316          				{
   1317          					if( xTaskRemoveFromEventList( &( pxQueue->xTasksWaitingToSend ) ) != pdFALSE )
   \   0000006E   0x0020             MOVS     R0,R4
   \   00000070   0x3010             ADDS     R0,R0,#+16
   \   00000072   0x.... 0x....      BL       xTaskRemoveFromEventList
   \   00000076   0x2800             CMP      R0,#+0
   \   00000078   0xD001             BEQ      ??xQueueReceive_13
   1318          					{
   1319          						queueYIELD_IF_USING_PREEMPTION();
   \   0000007A   0x.... 0x....      BL       vPortYield
   1320          					}
   1321          					else
   1322          					{
   1323          						mtCOVERAGE_TEST_MARKER();
   1324          					}
   1325          				}
   1326          				else
   1327          				{
   1328          					mtCOVERAGE_TEST_MARKER();
   1329          				}
   1330          
   1331          				taskEXIT_CRITICAL();
   \                     ??xQueueReceive_13: (+1)
   \   0000007E   0x.... 0x....      BL       vPortExitCritical
   1332          				return pdPASS;
   \   00000082   0x2001             MOVS     R0,#+1
   \   00000084   0xE052             B        ??xQueueReceive_14
   1333          			}
   1334          			else
   1335          			{
   1336          				if( xTicksToWait == ( TickType_t ) 0 )
   \                     ??xQueueReceive_12: (+1)
   \   00000086   0x9804             LDR      R0,[SP, #+16]
   \   00000088   0x2800             CMP      R0,#+0
   \   0000008A   0xD103             BNE      ??xQueueReceive_15
   1337          				{
   1338          					/* The queue was empty and no block time is specified (or
   1339          					the block time has expired) so leave now. */
   1340          					taskEXIT_CRITICAL();
   \   0000008C   0x.... 0x....      BL       vPortExitCritical
   1341          					traceQUEUE_RECEIVE_FAILED( pxQueue );
   1342          					return errQUEUE_EMPTY;
   \   00000090   0x2000             MOVS     R0,#+0
   \   00000092   0xE04B             B        ??xQueueReceive_14
   1343          				}
   1344          				else if( xEntryTimeSet == pdFALSE )
   \                     ??xQueueReceive_15: (+1)
   \   00000094   0x2D00             CMP      R5,#+0
   \   00000096   0xD104             BNE      ??xQueueReceive_16
   1345          				{
   1346          					/* The queue was empty and a block time was specified so
   1347          					configure the timeout structure. */
   1348          					vTaskInternalSetTimeOutState( &xTimeOut );
   \   00000098   0xA801             ADD      R0,SP,#+4
   \   0000009A   0x.... 0x....      BL       vTaskInternalSetTimeOutState
   1349          					xEntryTimeSet = pdTRUE;
   \   0000009E   0x2001             MOVS     R0,#+1
   \   000000A0   0x0005             MOVS     R5,R0
   1350          				}
   1351          				else
   1352          				{
   1353          					/* Entry time was already set. */
   1354          					mtCOVERAGE_TEST_MARKER();
   1355          				}
   1356          			}
   1357          		}
   1358          		taskEXIT_CRITICAL();
   \                     ??xQueueReceive_16: (+1)
   \   000000A2   0x.... 0x....      BL       vPortExitCritical
   1359          
   1360          		/* Interrupts and other tasks can send to and receive from the queue
   1361          		now the critical section has been exited. */
   1362          
   1363          		vTaskSuspendAll();
   \   000000A6   0x.... 0x....      BL       vTaskSuspendAll
   1364          		prvLockQueue( pxQueue );
   \   000000AA   0x.... 0x....      BL       vPortEnterCritical
   \   000000AE   0x2044             MOVS     R0,#+68
   \   000000B0   0x5620             LDRSB    R0,[R4, R0]
   \   000000B2   0x2100             MOVS     R1,#+0
   \   000000B4   0x43C9             MVNS     R1,R1            ;; #-1
   \   000000B6   0x4288             CMP      R0,R1
   \   000000B8   0xD102             BNE      ??xQueueReceive_17
   \   000000BA   0x2000             MOVS     R0,#+0
   \   000000BC   0x2144             MOVS     R1,#+68
   \   000000BE   0x5460             STRB     R0,[R4, R1]
   \                     ??xQueueReceive_17: (+1)
   \   000000C0   0x2045             MOVS     R0,#+69
   \   000000C2   0x5620             LDRSB    R0,[R4, R0]
   \   000000C4   0x2100             MOVS     R1,#+0
   \   000000C6   0x43C9             MVNS     R1,R1            ;; #-1
   \   000000C8   0x4288             CMP      R0,R1
   \   000000CA   0xD102             BNE      ??xQueueReceive_18
   \   000000CC   0x2000             MOVS     R0,#+0
   \   000000CE   0x2145             MOVS     R1,#+69
   \   000000D0   0x5460             STRB     R0,[R4, R1]
   \                     ??xQueueReceive_18: (+1)
   \   000000D2   0x.... 0x....      BL       vPortExitCritical
   1365          
   1366          		/* Update the timeout state to see if it has expired yet. */
   1367          		if( xTaskCheckForTimeOut( &xTimeOut, &xTicksToWait ) == pdFALSE )
   \   000000D6   0xA904             ADD      R1,SP,#+16
   \   000000D8   0xA801             ADD      R0,SP,#+4
   \   000000DA   0x.... 0x....      BL       xTaskCheckForTimeOut
   \   000000DE   0x2800             CMP      R0,#+0
   \   000000E0   0xD119             BNE      ??xQueueReceive_19
   1368          		{
   1369          			/* The timeout has not expired.  If the queue is still empty place
   1370          			the task on the list of tasks waiting to receive from the queue. */
   1371          			if( prvIsQueueEmpty( pxQueue ) != pdFALSE )
   \   000000E2   0x0020             MOVS     R0,R4
   \   000000E4   0x.... 0x....      BL       prvIsQueueEmpty
   \   000000E8   0x2800             CMP      R0,#+0
   \   000000EA   0xD00E             BEQ      ??xQueueReceive_20
   1372          			{
   1373          				traceBLOCKING_ON_QUEUE_RECEIVE( pxQueue );
   1374          				vTaskPlaceOnEventList( &( pxQueue->xTasksWaitingToReceive ), xTicksToWait );
   \   000000EC   0x9904             LDR      R1,[SP, #+16]
   \   000000EE   0x0020             MOVS     R0,R4
   \   000000F0   0x3024             ADDS     R0,R0,#+36
   \   000000F2   0x.... 0x....      BL       vTaskPlaceOnEventList
   1375          				prvUnlockQueue( pxQueue );
   \   000000F6   0x0020             MOVS     R0,R4
   \   000000F8   0x.... 0x....      BL       prvUnlockQueue
   1376          				if( xTaskResumeAll() == pdFALSE )
   \   000000FC   0x.... 0x....      BL       xTaskResumeAll
   \   00000100   0x2800             CMP      R0,#+0
   \   00000102   0xD1A3             BNE      ??xQueueReceive_10
   1377          				{
   1378          					portYIELD_WITHIN_API();
   \   00000104   0x.... 0x....      BL       vPortYield
   \   00000108   0xE7A0             B        ??xQueueReceive_10
   1379          				}
   1380          				else
   1381          				{
   1382          					mtCOVERAGE_TEST_MARKER();
   1383          				}
   1384          			}
   1385          			else
   1386          			{
   1387          				/* The queue contains data again.  Loop back to try and read the
   1388          				data. */
   1389          				prvUnlockQueue( pxQueue );
   \                     ??xQueueReceive_20: (+1)
   \   0000010A   0x0020             MOVS     R0,R4
   \   0000010C   0x.... 0x....      BL       prvUnlockQueue
   1390          				( void ) xTaskResumeAll();
   \   00000110   0x.... 0x....      BL       xTaskResumeAll
   \   00000114   0xE79A             B        ??xQueueReceive_10
   1391          			}
   1392          		}
   1393          		else
   1394          		{
   1395          			/* Timed out.  If there is no data in the queue exit, otherwise loop
   1396          			back and attempt to read the data. */
   1397          			prvUnlockQueue( pxQueue );
   \                     ??xQueueReceive_19: (+1)
   \   00000116   0x0020             MOVS     R0,R4
   \   00000118   0x.... 0x....      BL       prvUnlockQueue
   1398          			( void ) xTaskResumeAll();
   \   0000011C   0x.... 0x....      BL       xTaskResumeAll
   1399          
   1400          			if( prvIsQueueEmpty( pxQueue ) != pdFALSE )
   \   00000120   0x0020             MOVS     R0,R4
   \   00000122   0x.... 0x....      BL       prvIsQueueEmpty
   \   00000126   0x2800             CMP      R0,#+0
   \   00000128   0xD090             BEQ      ??xQueueReceive_10
   1401          			{
   1402          				traceQUEUE_RECEIVE_FAILED( pxQueue );
   1403          				return errQUEUE_EMPTY;
   \   0000012A   0x2000             MOVS     R0,#+0
   \                     ??xQueueReceive_14: (+1)
   \   0000012C   0xB005             ADD      SP,SP,#+20
   \   0000012E   0xBDF0             POP      {R4-R7,PC}       ;; return
   1404          			}
   1405          			else
   1406          			{
   1407          				mtCOVERAGE_TEST_MARKER();
   1408          			}
   1409          		}
   1410          	} /*lint -restore */
   1411          }
   1412          /*-----------------------------------------------------------*/
   1413          

   \                                 In section .text, align 4, keep-with-next
   1414          BaseType_t xQueueSemaphoreTake( QueueHandle_t xQueue, TickType_t xTicksToWait )
   1415          {
   \                     xQueueSemaphoreTake: (+1)
   \   00000000   0xB5F3             PUSH     {R0,R1,R4-R7,LR}
   \   00000002   0xB083             SUB      SP,SP,#+12
   1416          BaseType_t xEntryTimeSet = pdFALSE;
   \   00000004   0x2600             MOVS     R6,#+0
   1417          TimeOut_t xTimeOut;
   1418          Queue_t * const pxQueue = xQueue;
   \   00000006   0x9C03             LDR      R4,[SP, #+12]
   1419          
   1420          #if( configUSE_MUTEXES == 1 )
   1421          	BaseType_t xInheritanceOccurred = pdFALSE;
   \   00000008   0x2500             MOVS     R5,#+0
   1422          #endif
   1423          
   1424          	/* Check the queue pointer is not NULL. */
   1425          	configASSERT( ( pxQueue ) );
   \   0000000A   0x2C00             CMP      R4,#+0
   \   0000000C   0xD101             BNE      ??xQueueSemaphoreTake_0
   \   0000000E   0xB672             cpsid i
   \                     ??xQueueSemaphoreTake_1: (+1)
   \   00000010   0xE7FE             B        ??xQueueSemaphoreTake_1
   1426          
   1427          	/* Check this really is a semaphore, in which case the item size will be
   1428          	0. */
   1429          	configASSERT( pxQueue->uxItemSize == 0 );
   \                     ??xQueueSemaphoreTake_0: (+1)
   \   00000012   0x6C20             LDR      R0,[R4, #+64]
   \   00000014   0x2800             CMP      R0,#+0
   \   00000016   0xD001             BEQ      ??xQueueSemaphoreTake_2
   \   00000018   0xB672             cpsid i
   \                     ??xQueueSemaphoreTake_3: (+1)
   \   0000001A   0xE7FE             B        ??xQueueSemaphoreTake_3
   1430          
   1431          	/* Cannot block if the scheduler is suspended. */
   1432          	#if ( ( INCLUDE_xTaskGetSchedulerState == 1 ) || ( configUSE_TIMERS == 1 ) )
   1433          	{
   1434          		configASSERT( !( ( xTaskGetSchedulerState() == taskSCHEDULER_SUSPENDED ) && ( xTicksToWait != 0 ) ) );
   \                     ??xQueueSemaphoreTake_2: (+1)
   \   0000001C   0x.... 0x....      BL       xTaskGetSchedulerState
   \   00000020   0x2800             CMP      R0,#+0
   \   00000022   0xD102             BNE      ??xQueueSemaphoreTake_4
   \   00000024   0x9804             LDR      R0,[SP, #+16]
   \   00000026   0x2800             CMP      R0,#+0
   \   00000028   0xD101             BNE      ??xQueueSemaphoreTake_5
   \                     ??xQueueSemaphoreTake_4: (+1)
   \   0000002A   0x2001             MOVS     R0,#+1
   \   0000002C   0xE000             B        ??xQueueSemaphoreTake_6
   \                     ??xQueueSemaphoreTake_5: (+1)
   \   0000002E   0x2000             MOVS     R0,#+0
   \                     ??xQueueSemaphoreTake_6: (+1)
   \   00000030   0xB2C0             UXTB     R0,R0
   \   00000032   0x2800             CMP      R0,#+0
   \   00000034   0xD101             BNE      ??xQueueSemaphoreTake_7
   \   00000036   0xB672             cpsid i
   \                     ??xQueueSemaphoreTake_8: (+1)
   \   00000038   0xE7FE             B        ??xQueueSemaphoreTake_8
   1435          	}
   1436          	#endif
   1437          
   1438          
   1439          	/*lint -save -e904 This function relaxes the coding standard somewhat to allow return
   1440          	statements within the function itself.  This is done in the interest
   1441          	of execution time efficiency. */
   1442          	for( ;; )
   1443          	{
   1444          		taskENTER_CRITICAL();
   \                     ??xQueueSemaphoreTake_7: (+1)
   \   0000003A   0x.... 0x....      BL       vPortEnterCritical
   1445          		{
   1446          			/* Semaphores are queues with an item size of 0, and where the
   1447          			number of messages in the queue is the semaphore's count value. */
   1448          			const UBaseType_t uxSemaphoreCount = pxQueue->uxMessagesWaiting;
   \   0000003E   0x6BA7             LDR      R7,[R4, #+56]
   1449          
   1450          			/* Is there data in the queue now?  To be running the calling task
   1451          			must be the highest priority task wanting to access the queue. */
   1452          			if( uxSemaphoreCount > ( UBaseType_t ) 0 )
   \   00000040   0x2F00             CMP      R7,#+0
   \   00000042   0xD016             BEQ      ??xQueueSemaphoreTake_9
   1453          			{
   1454          				traceQUEUE_RECEIVE( pxQueue );
   1455          
   1456          				/* Semaphores are queues with a data size of zero and where the
   1457          				messages waiting is the semaphore's count.  Reduce the count. */
   1458          				pxQueue->uxMessagesWaiting = uxSemaphoreCount - ( UBaseType_t ) 1;
   \   00000044   0x1E78             SUBS     R0,R7,#+1
   \   00000046   0x63A0             STR      R0,[R4, #+56]
   1459          
   1460          				#if ( configUSE_MUTEXES == 1 )
   1461          				{
   1462          					if( pxQueue->uxQueueType == queueQUEUE_IS_MUTEX )
   \   00000048   0x6820             LDR      R0,[R4, #+0]
   \   0000004A   0x2800             CMP      R0,#+0
   \   0000004C   0xD102             BNE      ??xQueueSemaphoreTake_10
   1463          					{
   1464          						/* Record the information required to implement
   1465          						priority inheritance should it become necessary. */
   1466          						pxQueue->u.xSemaphore.xMutexHolder = pvTaskIncrementMutexHeldCount();
   \   0000004E   0x.... 0x....      BL       pvTaskIncrementMutexHeldCount
   \   00000052   0x60A0             STR      R0,[R4, #+8]
   1467          					}
   1468          					else
   1469          					{
   1470          						mtCOVERAGE_TEST_MARKER();
   1471          					}
   1472          				}
   1473          				#endif /* configUSE_MUTEXES */
   1474          
   1475          				/* Check to see if other tasks are blocked waiting to give the
   1476          				semaphore, and if so, unblock the highest priority such task. */
   1477          				if( listLIST_IS_EMPTY( &( pxQueue->xTasksWaitingToSend ) ) == pdFALSE )
   \                     ??xQueueSemaphoreTake_10: (+1)
   \   00000054   0x6920             LDR      R0,[R4, #+16]
   \   00000056   0x2800             CMP      R0,#+0
   \   00000058   0xD007             BEQ      ??xQueueSemaphoreTake_11
   1478          				{
   1479          					if( xTaskRemoveFromEventList( &( pxQueue->xTasksWaitingToSend ) ) != pdFALSE )
   \   0000005A   0x0020             MOVS     R0,R4
   \   0000005C   0x3010             ADDS     R0,R0,#+16
   \   0000005E   0x.... 0x....      BL       xTaskRemoveFromEventList
   \   00000062   0x2800             CMP      R0,#+0
   \   00000064   0xD001             BEQ      ??xQueueSemaphoreTake_11
   1480          					{
   1481          						queueYIELD_IF_USING_PREEMPTION();
   \   00000066   0x.... 0x....      BL       vPortYield
   1482          					}
   1483          					else
   1484          					{
   1485          						mtCOVERAGE_TEST_MARKER();
   1486          					}
   1487          				}
   1488          				else
   1489          				{
   1490          					mtCOVERAGE_TEST_MARKER();
   1491          				}
   1492          
   1493          				taskEXIT_CRITICAL();
   \                     ??xQueueSemaphoreTake_11: (+1)
   \   0000006A   0x.... 0x....      BL       vPortExitCritical
   1494          				return pdPASS;
   \   0000006E   0x2001             MOVS     R0,#+1
   \   00000070   0xE06F             B        ??xQueueSemaphoreTake_12
   1495          			}
   1496          			else
   1497          			{
   1498          				if( xTicksToWait == ( TickType_t ) 0 )
   \                     ??xQueueSemaphoreTake_9: (+1)
   \   00000072   0x9804             LDR      R0,[SP, #+16]
   \   00000074   0x2800             CMP      R0,#+0
   \   00000076   0xD107             BNE      ??xQueueSemaphoreTake_13
   1499          				{
   1500          					/* For inheritance to have occurred there must have been an
   1501          					initial timeout, and an adjusted timeout cannot become 0, as
   1502          					if it were 0 the function would have exited. */
   1503          					#if( configUSE_MUTEXES == 1 )
   1504          					{
   1505          						configASSERT( xInheritanceOccurred == pdFALSE );
   \   00000078   0x2D00             CMP      R5,#+0
   \   0000007A   0xD001             BEQ      ??xQueueSemaphoreTake_14
   \   0000007C   0xB672             cpsid i
   \                     ??xQueueSemaphoreTake_15: (+1)
   \   0000007E   0xE7FE             B        ??xQueueSemaphoreTake_15
   1506          					}
   1507          					#endif /* configUSE_MUTEXES */
   1508          
   1509          					/* The semaphore count was 0 and no block time is specified
   1510          					(or the block time has expired) so exit now. */
   1511          					taskEXIT_CRITICAL();
   \                     ??xQueueSemaphoreTake_14: (+1)
   \   00000080   0x.... 0x....      BL       vPortExitCritical
   1512          					traceQUEUE_RECEIVE_FAILED( pxQueue );
   1513          					return errQUEUE_EMPTY;
   \   00000084   0x2000             MOVS     R0,#+0
   \   00000086   0xE064             B        ??xQueueSemaphoreTake_12
   1514          				}
   1515          				else if( xEntryTimeSet == pdFALSE )
   \                     ??xQueueSemaphoreTake_13: (+1)
   \   00000088   0x2E00             CMP      R6,#+0
   \   0000008A   0xD104             BNE      ??xQueueSemaphoreTake_16
   1516          				{
   1517          					/* The semaphore count was 0 and a block time was specified
   1518          					so configure the timeout structure ready to block. */
   1519          					vTaskInternalSetTimeOutState( &xTimeOut );
   \   0000008C   0x4668             MOV      R0,SP
   \   0000008E   0x.... 0x....      BL       vTaskInternalSetTimeOutState
   1520          					xEntryTimeSet = pdTRUE;
   \   00000092   0x2001             MOVS     R0,#+1
   \   00000094   0x0006             MOVS     R6,R0
   1521          				}
   1522          				else
   1523          				{
   1524          					/* Entry time was already set. */
   1525          					mtCOVERAGE_TEST_MARKER();
   1526          				}
   1527          			}
   1528          		}
   1529          		taskEXIT_CRITICAL();
   \                     ??xQueueSemaphoreTake_16: (+1)
   \   00000096   0x.... 0x....      BL       vPortExitCritical
   1530          
   1531          		/* Interrupts and other tasks can give to and take from the semaphore
   1532          		now the critical section has been exited. */
   1533          
   1534          		vTaskSuspendAll();
   \   0000009A   0x.... 0x....      BL       vTaskSuspendAll
   1535          		prvLockQueue( pxQueue );
   \   0000009E   0x.... 0x....      BL       vPortEnterCritical
   \   000000A2   0x2044             MOVS     R0,#+68
   \   000000A4   0x5620             LDRSB    R0,[R4, R0]
   \   000000A6   0x2100             MOVS     R1,#+0
   \   000000A8   0x43C9             MVNS     R1,R1            ;; #-1
   \   000000AA   0x4288             CMP      R0,R1
   \   000000AC   0xD102             BNE      ??xQueueSemaphoreTake_17
   \   000000AE   0x2000             MOVS     R0,#+0
   \   000000B0   0x2144             MOVS     R1,#+68
   \   000000B2   0x5460             STRB     R0,[R4, R1]
   \                     ??xQueueSemaphoreTake_17: (+1)
   \   000000B4   0x2045             MOVS     R0,#+69
   \   000000B6   0x5620             LDRSB    R0,[R4, R0]
   \   000000B8   0x2100             MOVS     R1,#+0
   \   000000BA   0x43C9             MVNS     R1,R1            ;; #-1
   \   000000BC   0x4288             CMP      R0,R1
   \   000000BE   0xD102             BNE      ??xQueueSemaphoreTake_18
   \   000000C0   0x2000             MOVS     R0,#+0
   \   000000C2   0x2145             MOVS     R1,#+69
   \   000000C4   0x5460             STRB     R0,[R4, R1]
   \                     ??xQueueSemaphoreTake_18: (+1)
   \   000000C6   0x.... 0x....      BL       vPortExitCritical
   1536          
   1537          		/* Update the timeout state to see if it has expired yet. */
   1538          		if( xTaskCheckForTimeOut( &xTimeOut, &xTicksToWait ) == pdFALSE )
   \   000000CA   0xA904             ADD      R1,SP,#+16
   \   000000CC   0x4668             MOV      R0,SP
   \   000000CE   0x.... 0x....      BL       xTaskCheckForTimeOut
   \   000000D2   0x2800             CMP      R0,#+0
   \   000000D4   0xD124             BNE      ??xQueueSemaphoreTake_19
   1539          		{
   1540          			/* A block time is specified and not expired.  If the semaphore
   1541          			count is 0 then enter the Blocked state to wait for a semaphore to
   1542          			become available.  As semaphores are implemented with queues the
   1543          			queue being empty is equivalent to the semaphore count being 0. */
   1544          			if( prvIsQueueEmpty( pxQueue ) != pdFALSE )
   \   000000D6   0x0020             MOVS     R0,R4
   \   000000D8   0x.... 0x....      BL       prvIsQueueEmpty
   \   000000DC   0x2800             CMP      R0,#+0
   \   000000DE   0xD019             BEQ      ??xQueueSemaphoreTake_20
   1545          			{
   1546          				traceBLOCKING_ON_QUEUE_RECEIVE( pxQueue );
   1547          
   1548          				#if ( configUSE_MUTEXES == 1 )
   1549          				{
   1550          					if( pxQueue->uxQueueType == queueQUEUE_IS_MUTEX )
   \   000000E0   0x6820             LDR      R0,[R4, #+0]
   \   000000E2   0x2800             CMP      R0,#+0
   \   000000E4   0xD107             BNE      ??xQueueSemaphoreTake_21
   1551          					{
   1552          						taskENTER_CRITICAL();
   \   000000E6   0x.... 0x....      BL       vPortEnterCritical
   1553          						{
   1554          							xInheritanceOccurred = xTaskPriorityInherit( pxQueue->u.xSemaphore.xMutexHolder );
   \   000000EA   0x68A0             LDR      R0,[R4, #+8]
   \   000000EC   0x.... 0x....      BL       xTaskPriorityInherit
   \   000000F0   0x0005             MOVS     R5,R0
   1555          						}
   1556          						taskEXIT_CRITICAL();
   \   000000F2   0x.... 0x....      BL       vPortExitCritical
   1557          					}
   1558          					else
   1559          					{
   1560          						mtCOVERAGE_TEST_MARKER();
   1561          					}
   1562          				}
   1563          				#endif
   1564          
   1565          				vTaskPlaceOnEventList( &( pxQueue->xTasksWaitingToReceive ), xTicksToWait );
   \                     ??xQueueSemaphoreTake_21: (+1)
   \   000000F6   0x9904             LDR      R1,[SP, #+16]
   \   000000F8   0x0020             MOVS     R0,R4
   \   000000FA   0x3024             ADDS     R0,R0,#+36
   \   000000FC   0x.... 0x....      BL       vTaskPlaceOnEventList
   1566          				prvUnlockQueue( pxQueue );
   \   00000100   0x0020             MOVS     R0,R4
   \   00000102   0x.... 0x....      BL       prvUnlockQueue
   1567          				if( xTaskResumeAll() == pdFALSE )
   \   00000106   0x.... 0x....      BL       xTaskResumeAll
   \   0000010A   0x2800             CMP      R0,#+0
   \   0000010C   0xD195             BNE      ??xQueueSemaphoreTake_7
   1568          				{
   1569          					portYIELD_WITHIN_API();
   \   0000010E   0x.... 0x....      BL       vPortYield
   \   00000112   0xE792             B        ??xQueueSemaphoreTake_7
   1570          				}
   1571          				else
   1572          				{
   1573          					mtCOVERAGE_TEST_MARKER();
   1574          				}
   1575          			}
   1576          			else
   1577          			{
   1578          				/* There was no timeout and the semaphore count was not 0, so
   1579          				attempt to take the semaphore again. */
   1580          				prvUnlockQueue( pxQueue );
   \                     ??xQueueSemaphoreTake_20: (+1)
   \   00000114   0x0020             MOVS     R0,R4
   \   00000116   0x.... 0x....      BL       prvUnlockQueue
   1581          				( void ) xTaskResumeAll();
   \   0000011A   0x.... 0x....      BL       xTaskResumeAll
   \   0000011E   0xE78C             B        ??xQueueSemaphoreTake_7
   1582          			}
   1583          		}
   1584          		else
   1585          		{
   1586          			/* Timed out. */
   1587          			prvUnlockQueue( pxQueue );
   \                     ??xQueueSemaphoreTake_19: (+1)
   \   00000120   0x0020             MOVS     R0,R4
   \   00000122   0x.... 0x....      BL       prvUnlockQueue
   1588          			( void ) xTaskResumeAll();
   \   00000126   0x.... 0x....      BL       xTaskResumeAll
   1589          
   1590          			/* If the semaphore count is 0 exit now as the timeout has
   1591          			expired.  Otherwise return to attempt to take the semaphore that is
   1592          			known to be available.  As semaphores are implemented by queues the
   1593          			queue being empty is equivalent to the semaphore count being 0. */
   1594          			if( prvIsQueueEmpty( pxQueue ) != pdFALSE )
   \   0000012A   0x0020             MOVS     R0,R4
   \   0000012C   0x.... 0x....      BL       prvIsQueueEmpty
   \   00000130   0x2800             CMP      R0,#+0
   \   00000132   0xD082             BEQ      ??xQueueSemaphoreTake_7
   1595          			{
   1596          				#if ( configUSE_MUTEXES == 1 )
   1597          				{
   1598          					/* xInheritanceOccurred could only have be set if
   1599          					pxQueue->uxQueueType == queueQUEUE_IS_MUTEX so no need to
   1600          					test the mutex type again to check it is actually a mutex. */
   1601          					if( xInheritanceOccurred != pdFALSE )
   \   00000134   0x2D00             CMP      R5,#+0
   \   00000136   0xD00B             BEQ      ??xQueueSemaphoreTake_22
   1602          					{
   1603          						taskENTER_CRITICAL();
   \   00000138   0x.... 0x....      BL       vPortEnterCritical
   1604          						{
   1605          							UBaseType_t uxHighestWaitingPriority;
   1606          
   1607          							/* This task blocking on the mutex caused another
   1608          							task to inherit this task's priority.  Now this task
   1609          							has timed out the priority should be disinherited
   1610          							again, but only as low as the next highest priority
   1611          							task that is waiting for the same mutex. */
   1612          							uxHighestWaitingPriority = prvGetDisinheritPriorityAfterTimeout( pxQueue );
   \   0000013C   0x0020             MOVS     R0,R4
   \   0000013E   0x.... 0x....      BL       prvGetDisinheritPriorityAfterTimeout
   \   00000142   0x0007             MOVS     R7,R0
   1613          							vTaskPriorityDisinheritAfterTimeout( pxQueue->u.xSemaphore.xMutexHolder, uxHighestWaitingPriority );
   \   00000144   0x0039             MOVS     R1,R7
   \   00000146   0x68A0             LDR      R0,[R4, #+8]
   \   00000148   0x.... 0x....      BL       vTaskPriorityDisinheritAfterTimeout
   1614          						}
   1615          						taskEXIT_CRITICAL();
   \   0000014C   0x.... 0x....      BL       vPortExitCritical
   1616          					}
   1617          				}
   1618          				#endif /* configUSE_MUTEXES */
   1619          
   1620          				traceQUEUE_RECEIVE_FAILED( pxQueue );
   1621          				return errQUEUE_EMPTY;
   \                     ??xQueueSemaphoreTake_22: (+1)
   \   00000150   0x2000             MOVS     R0,#+0
   \                     ??xQueueSemaphoreTake_12: (+1)
   \   00000152   0xB005             ADD      SP,SP,#+20
   \   00000154   0xBDF0             POP      {R4-R7,PC}       ;; return
   1622          			}
   1623          			else
   1624          			{
   1625          				mtCOVERAGE_TEST_MARKER();
   1626          			}
   1627          		}
   1628          	} /*lint -restore */
   1629          }
   1630          /*-----------------------------------------------------------*/
   1631          

   \                                 In section .text, align 4, keep-with-next
   1632          BaseType_t xQueuePeek( QueueHandle_t xQueue, void * const pvBuffer, TickType_t xTicksToWait )
   1633          {
   \                     xQueuePeek: (+1)
   \   00000000   0xB5F4             PUSH     {R2,R4-R7,LR}
   \   00000002   0xB084             SUB      SP,SP,#+16
   \   00000004   0x0007             MOVS     R7,R0
   \   00000006   0x000E             MOVS     R6,R1
   1634          BaseType_t xEntryTimeSet = pdFALSE;
   \   00000008   0x2500             MOVS     R5,#+0
   1635          TimeOut_t xTimeOut;
   1636          int8_t *pcOriginalReadPosition;
   1637          Queue_t * const pxQueue = xQueue;
   \   0000000A   0x003C             MOVS     R4,R7
   1638          
   1639          	/* Check the pointer is not NULL. */
   1640          	configASSERT( ( pxQueue ) );
   \   0000000C   0x2C00             CMP      R4,#+0
   \   0000000E   0xD101             BNE      ??xQueuePeek_0
   \   00000010   0xB672             cpsid i
   \                     ??xQueuePeek_1: (+1)
   \   00000012   0xE7FE             B        ??xQueuePeek_1
   1641          
   1642          	/* The buffer into which data is received can only be NULL if the data size
   1643          	is zero (so no data is copied into the buffer. */
   1644          	configASSERT( !( ( ( pvBuffer ) == NULL ) && ( ( pxQueue )->uxItemSize != ( UBaseType_t ) 0U ) ) );
   \                     ??xQueuePeek_0: (+1)
   \   00000014   0x2E00             CMP      R6,#+0
   \   00000016   0xD102             BNE      ??xQueuePeek_2
   \   00000018   0x6C20             LDR      R0,[R4, #+64]
   \   0000001A   0x2800             CMP      R0,#+0
   \   0000001C   0xD101             BNE      ??xQueuePeek_3
   \                     ??xQueuePeek_2: (+1)
   \   0000001E   0x2001             MOVS     R0,#+1
   \   00000020   0xE000             B        ??xQueuePeek_4
   \                     ??xQueuePeek_3: (+1)
   \   00000022   0x2000             MOVS     R0,#+0
   \                     ??xQueuePeek_4: (+1)
   \   00000024   0xB2C0             UXTB     R0,R0
   \   00000026   0x2800             CMP      R0,#+0
   \   00000028   0xD101             BNE      ??xQueuePeek_5
   \   0000002A   0xB672             cpsid i
   \                     ??xQueuePeek_6: (+1)
   \   0000002C   0xE7FE             B        ??xQueuePeek_6
   1645          
   1646          	/* Cannot block if the scheduler is suspended. */
   1647          	#if ( ( INCLUDE_xTaskGetSchedulerState == 1 ) || ( configUSE_TIMERS == 1 ) )
   1648          	{
   1649          		configASSERT( !( ( xTaskGetSchedulerState() == taskSCHEDULER_SUSPENDED ) && ( xTicksToWait != 0 ) ) );
   \                     ??xQueuePeek_5: (+1)
   \   0000002E   0x.... 0x....      BL       xTaskGetSchedulerState
   \   00000032   0x2800             CMP      R0,#+0
   \   00000034   0xD102             BNE      ??xQueuePeek_7
   \   00000036   0x9804             LDR      R0,[SP, #+16]
   \   00000038   0x2800             CMP      R0,#+0
   \   0000003A   0xD101             BNE      ??xQueuePeek_8
   \                     ??xQueuePeek_7: (+1)
   \   0000003C   0x2001             MOVS     R0,#+1
   \   0000003E   0xE000             B        ??xQueuePeek_9
   \                     ??xQueuePeek_8: (+1)
   \   00000040   0x2000             MOVS     R0,#+0
   \                     ??xQueuePeek_9: (+1)
   \   00000042   0xB2C0             UXTB     R0,R0
   \   00000044   0x2800             CMP      R0,#+0
   \   00000046   0xD101             BNE      ??xQueuePeek_10
   \   00000048   0xB672             cpsid i
   \                     ??xQueuePeek_11: (+1)
   \   0000004A   0xE7FE             B        ??xQueuePeek_11
   1650          	}
   1651          	#endif
   1652          
   1653          
   1654          	/*lint -save -e904  This function relaxes the coding standard somewhat to
   1655          	allow return statements within the function itself.  This is done in the
   1656          	interest of execution time efficiency. */
   1657          	for( ;; )
   1658          	{
   1659          		taskENTER_CRITICAL();
   \                     ??xQueuePeek_10: (+1)
   \   0000004C   0x.... 0x....      BL       vPortEnterCritical
   1660          		{
   1661          			const UBaseType_t uxMessagesWaiting = pxQueue->uxMessagesWaiting;
   \   00000050   0x6BA0             LDR      R0,[R4, #+56]
   \   00000052   0x9000             STR      R0,[SP, #+0]
   1662          
   1663          			/* Is there data in the queue now?  To be running the calling task
   1664          			must be the highest priority task wanting to access the queue. */
   1665          			if( uxMessagesWaiting > ( UBaseType_t ) 0 )
   \   00000054   0x9800             LDR      R0,[SP, #+0]
   \   00000056   0x2800             CMP      R0,#+0
   \   00000058   0xD016             BEQ      ??xQueuePeek_12
   1666          			{
   1667          				/* Remember the read position so it can be reset after the data
   1668          				is read from the queue as this function is only peeking the
   1669          				data, not removing it. */
   1670          				pcOriginalReadPosition = pxQueue->u.xQueue.pcReadFrom;
   \   0000005A   0x68E0             LDR      R0,[R4, #+12]
   \   0000005C   0x9001             STR      R0,[SP, #+4]
   1671          
   1672          				prvCopyDataFromQueue( pxQueue, pvBuffer );
   \   0000005E   0x0031             MOVS     R1,R6
   \   00000060   0x0020             MOVS     R0,R4
   \   00000062   0x.... 0x....      BL       prvCopyDataFromQueue
   1673          				traceQUEUE_PEEK( pxQueue );
   1674          
   1675          				/* The data is not being removed, so reset the read pointer. */
   1676          				pxQueue->u.xQueue.pcReadFrom = pcOriginalReadPosition;
   \   00000066   0x9801             LDR      R0,[SP, #+4]
   \   00000068   0x60E0             STR      R0,[R4, #+12]
   1677          
   1678          				/* The data is being left in the queue, so see if there are
   1679          				any other tasks waiting for the data. */
   1680          				if( listLIST_IS_EMPTY( &( pxQueue->xTasksWaitingToReceive ) ) == pdFALSE )
   \   0000006A   0x6A60             LDR      R0,[R4, #+36]
   \   0000006C   0x2800             CMP      R0,#+0
   \   0000006E   0xD007             BEQ      ??xQueuePeek_13
   1681          				{
   1682          					if( xTaskRemoveFromEventList( &( pxQueue->xTasksWaitingToReceive ) ) != pdFALSE )
   \   00000070   0x0020             MOVS     R0,R4
   \   00000072   0x3024             ADDS     R0,R0,#+36
   \   00000074   0x.... 0x....      BL       xTaskRemoveFromEventList
   \   00000078   0x2800             CMP      R0,#+0
   \   0000007A   0xD001             BEQ      ??xQueuePeek_13
   1683          					{
   1684          						/* The task waiting has a higher priority than this task. */
   1685          						queueYIELD_IF_USING_PREEMPTION();
   \   0000007C   0x.... 0x....      BL       vPortYield
   1686          					}
   1687          					else
   1688          					{
   1689          						mtCOVERAGE_TEST_MARKER();
   1690          					}
   1691          				}
   1692          				else
   1693          				{
   1694          					mtCOVERAGE_TEST_MARKER();
   1695          				}
   1696          
   1697          				taskEXIT_CRITICAL();
   \                     ??xQueuePeek_13: (+1)
   \   00000080   0x.... 0x....      BL       vPortExitCritical
   1698          				return pdPASS;
   \   00000084   0x2001             MOVS     R0,#+1
   \   00000086   0xE052             B        ??xQueuePeek_14
   1699          			}
   1700          			else
   1701          			{
   1702          				if( xTicksToWait == ( TickType_t ) 0 )
   \                     ??xQueuePeek_12: (+1)
   \   00000088   0x9804             LDR      R0,[SP, #+16]
   \   0000008A   0x2800             CMP      R0,#+0
   \   0000008C   0xD103             BNE      ??xQueuePeek_15
   1703          				{
   1704          					/* The queue was empty and no block time is specified (or
   1705          					the block time has expired) so leave now. */
   1706          					taskEXIT_CRITICAL();
   \   0000008E   0x.... 0x....      BL       vPortExitCritical
   1707          					traceQUEUE_PEEK_FAILED( pxQueue );
   1708          					return errQUEUE_EMPTY;
   \   00000092   0x2000             MOVS     R0,#+0
   \   00000094   0xE04B             B        ??xQueuePeek_14
   1709          				}
   1710          				else if( xEntryTimeSet == pdFALSE )
   \                     ??xQueuePeek_15: (+1)
   \   00000096   0x2D00             CMP      R5,#+0
   \   00000098   0xD104             BNE      ??xQueuePeek_16
   1711          				{
   1712          					/* The queue was empty and a block time was specified so
   1713          					configure the timeout structure ready to enter the blocked
   1714          					state. */
   1715          					vTaskInternalSetTimeOutState( &xTimeOut );
   \   0000009A   0xA802             ADD      R0,SP,#+8
   \   0000009C   0x.... 0x....      BL       vTaskInternalSetTimeOutState
   1716          					xEntryTimeSet = pdTRUE;
   \   000000A0   0x2001             MOVS     R0,#+1
   \   000000A2   0x0005             MOVS     R5,R0
   1717          				}
   1718          				else
   1719          				{
   1720          					/* Entry time was already set. */
   1721          					mtCOVERAGE_TEST_MARKER();
   1722          				}
   1723          			}
   1724          		}
   1725          		taskEXIT_CRITICAL();
   \                     ??xQueuePeek_16: (+1)
   \   000000A4   0x.... 0x....      BL       vPortExitCritical
   1726          
   1727          		/* Interrupts and other tasks can send to and receive from the queue
   1728          		now the critical section has been exited. */
   1729          
   1730          		vTaskSuspendAll();
   \   000000A8   0x.... 0x....      BL       vTaskSuspendAll
   1731          		prvLockQueue( pxQueue );
   \   000000AC   0x.... 0x....      BL       vPortEnterCritical
   \   000000B0   0x2044             MOVS     R0,#+68
   \   000000B2   0x5620             LDRSB    R0,[R4, R0]
   \   000000B4   0x2100             MOVS     R1,#+0
   \   000000B6   0x43C9             MVNS     R1,R1            ;; #-1
   \   000000B8   0x4288             CMP      R0,R1
   \   000000BA   0xD102             BNE      ??xQueuePeek_17
   \   000000BC   0x2000             MOVS     R0,#+0
   \   000000BE   0x2144             MOVS     R1,#+68
   \   000000C0   0x5460             STRB     R0,[R4, R1]
   \                     ??xQueuePeek_17: (+1)
   \   000000C2   0x2045             MOVS     R0,#+69
   \   000000C4   0x5620             LDRSB    R0,[R4, R0]
   \   000000C6   0x2100             MOVS     R1,#+0
   \   000000C8   0x43C9             MVNS     R1,R1            ;; #-1
   \   000000CA   0x4288             CMP      R0,R1
   \   000000CC   0xD102             BNE      ??xQueuePeek_18
   \   000000CE   0x2000             MOVS     R0,#+0
   \   000000D0   0x2145             MOVS     R1,#+69
   \   000000D2   0x5460             STRB     R0,[R4, R1]
   \                     ??xQueuePeek_18: (+1)
   \   000000D4   0x.... 0x....      BL       vPortExitCritical
   1732          
   1733          		/* Update the timeout state to see if it has expired yet. */
   1734          		if( xTaskCheckForTimeOut( &xTimeOut, &xTicksToWait ) == pdFALSE )
   \   000000D8   0xA904             ADD      R1,SP,#+16
   \   000000DA   0xA802             ADD      R0,SP,#+8
   \   000000DC   0x.... 0x....      BL       xTaskCheckForTimeOut
   \   000000E0   0x2800             CMP      R0,#+0
   \   000000E2   0xD119             BNE      ??xQueuePeek_19
   1735          		{
   1736          			/* Timeout has not expired yet, check to see if there is data in the
   1737          			queue now, and if not enter the Blocked state to wait for data. */
   1738          			if( prvIsQueueEmpty( pxQueue ) != pdFALSE )
   \   000000E4   0x0020             MOVS     R0,R4
   \   000000E6   0x.... 0x....      BL       prvIsQueueEmpty
   \   000000EA   0x2800             CMP      R0,#+0
   \   000000EC   0xD00E             BEQ      ??xQueuePeek_20
   1739          			{
   1740          				traceBLOCKING_ON_QUEUE_PEEK( pxQueue );
   1741          				vTaskPlaceOnEventList( &( pxQueue->xTasksWaitingToReceive ), xTicksToWait );
   \   000000EE   0x9904             LDR      R1,[SP, #+16]
   \   000000F0   0x0020             MOVS     R0,R4
   \   000000F2   0x3024             ADDS     R0,R0,#+36
   \   000000F4   0x.... 0x....      BL       vTaskPlaceOnEventList
   1742          				prvUnlockQueue( pxQueue );
   \   000000F8   0x0020             MOVS     R0,R4
   \   000000FA   0x.... 0x....      BL       prvUnlockQueue
   1743          				if( xTaskResumeAll() == pdFALSE )
   \   000000FE   0x.... 0x....      BL       xTaskResumeAll
   \   00000102   0x2800             CMP      R0,#+0
   \   00000104   0xD1A2             BNE      ??xQueuePeek_10
   1744          				{
   1745          					portYIELD_WITHIN_API();
   \   00000106   0x.... 0x....      BL       vPortYield
   \   0000010A   0xE79F             B        ??xQueuePeek_10
   1746          				}
   1747          				else
   1748          				{
   1749          					mtCOVERAGE_TEST_MARKER();
   1750          				}
   1751          			}
   1752          			else
   1753          			{
   1754          				/* There is data in the queue now, so don't enter the blocked
   1755          				state, instead return to try and obtain the data. */
   1756          				prvUnlockQueue( pxQueue );
   \                     ??xQueuePeek_20: (+1)
   \   0000010C   0x0020             MOVS     R0,R4
   \   0000010E   0x.... 0x....      BL       prvUnlockQueue
   1757          				( void ) xTaskResumeAll();
   \   00000112   0x.... 0x....      BL       xTaskResumeAll
   \   00000116   0xE799             B        ??xQueuePeek_10
   1758          			}
   1759          		}
   1760          		else
   1761          		{
   1762          			/* The timeout has expired.  If there is still no data in the queue
   1763          			exit, otherwise go back and try to read the data again. */
   1764          			prvUnlockQueue( pxQueue );
   \                     ??xQueuePeek_19: (+1)
   \   00000118   0x0020             MOVS     R0,R4
   \   0000011A   0x.... 0x....      BL       prvUnlockQueue
   1765          			( void ) xTaskResumeAll();
   \   0000011E   0x.... 0x....      BL       xTaskResumeAll
   1766          
   1767          			if( prvIsQueueEmpty( pxQueue ) != pdFALSE )
   \   00000122   0x0020             MOVS     R0,R4
   \   00000124   0x.... 0x....      BL       prvIsQueueEmpty
   \   00000128   0x2800             CMP      R0,#+0
   \   0000012A   0xD08F             BEQ      ??xQueuePeek_10
   1768          			{
   1769          				traceQUEUE_PEEK_FAILED( pxQueue );
   1770          				return errQUEUE_EMPTY;
   \   0000012C   0x2000             MOVS     R0,#+0
   \                     ??xQueuePeek_14: (+1)
   \   0000012E   0xB005             ADD      SP,SP,#+20
   \   00000130   0xBDF0             POP      {R4-R7,PC}       ;; return
   1771          			}
   1772          			else
   1773          			{
   1774          				mtCOVERAGE_TEST_MARKER();
   1775          			}
   1776          		}
   1777          	} /*lint -restore */
   1778          }
   1779          /*-----------------------------------------------------------*/
   1780          

   \                                 In section .text, align 4, keep-with-next
   1781          BaseType_t xQueueReceiveFromISR( QueueHandle_t xQueue, void * const pvBuffer, BaseType_t * const pxHigherPriorityTaskWoken )
   1782          {
   \                     xQueueReceiveFromISR: (+1)
   \   00000000   0xB5F6             PUSH     {R1,R2,R4-R7,LR}
   \   00000002   0xB083             SUB      SP,SP,#+12
   \   00000004   0x0006             MOVS     R6,R0
   1783          BaseType_t xReturn;
   1784          UBaseType_t uxSavedInterruptStatus;
   1785          Queue_t * const pxQueue = xQueue;
   \   00000006   0x0034             MOVS     R4,R6
   1786          
   1787          	configASSERT( pxQueue );
   \   00000008   0x2C00             CMP      R4,#+0
   \   0000000A   0xD101             BNE      ??xQueueReceiveFromISR_0
   \   0000000C   0xB672             cpsid i
   \                     ??xQueueReceiveFromISR_1: (+1)
   \   0000000E   0xE7FE             B        ??xQueueReceiveFromISR_1
   1788          	configASSERT( !( ( pvBuffer == NULL ) && ( pxQueue->uxItemSize != ( UBaseType_t ) 0U ) ) );
   \                     ??xQueueReceiveFromISR_0: (+1)
   \   00000010   0x9803             LDR      R0,[SP, #+12]
   \   00000012   0x2800             CMP      R0,#+0
   \   00000014   0xD102             BNE      ??xQueueReceiveFromISR_2
   \   00000016   0x6C20             LDR      R0,[R4, #+64]
   \   00000018   0x2800             CMP      R0,#+0
   \   0000001A   0xD101             BNE      ??xQueueReceiveFromISR_3
   \                     ??xQueueReceiveFromISR_2: (+1)
   \   0000001C   0x2001             MOVS     R0,#+1
   \   0000001E   0xE000             B        ??xQueueReceiveFromISR_4
   \                     ??xQueueReceiveFromISR_3: (+1)
   \   00000020   0x2000             MOVS     R0,#+0
   \                     ??xQueueReceiveFromISR_4: (+1)
   \   00000022   0xB2C0             UXTB     R0,R0
   \   00000024   0x2800             CMP      R0,#+0
   \   00000026   0xD101             BNE      ??xQueueReceiveFromISR_5
   \   00000028   0xB672             cpsid i
   \                     ??xQueueReceiveFromISR_6: (+1)
   \   0000002A   0xE7FE             B        ??xQueueReceiveFromISR_6
   1789          
   1790          	/* RTOS ports that support interrupt nesting have the concept of a maximum
   1791          	system call (or maximum API call) interrupt priority.  Interrupts that are
   1792          	above the maximum system call priority are kept permanently enabled, even
   1793          	when the RTOS kernel is in a critical section, but cannot make any calls to
   1794          	FreeRTOS API functions.  If configASSERT() is defined in FreeRTOSConfig.h
   1795          	then portASSERT_IF_INTERRUPT_PRIORITY_INVALID() will result in an assertion
   1796          	failure if a FreeRTOS API function is called from an interrupt that has been
   1797          	assigned a priority above the configured maximum system call priority.
   1798          	Only FreeRTOS functions that end in FromISR can be called from interrupts
   1799          	that have been assigned a priority at or (logically) below the maximum
   1800          	system call	interrupt priority.  FreeRTOS maintains a separate interrupt
   1801          	safe API to ensure interrupt entry is as fast and as simple as possible.
   1802          	More information (albeit Cortex-M specific) is provided on the following
   1803          	link: http://www.freertos.org/RTOS-Cortex-M3-M4.html */
   1804          	portASSERT_IF_INTERRUPT_PRIORITY_INVALID();
   1805          
   1806          	uxSavedInterruptStatus = portSET_INTERRUPT_MASK_FROM_ISR();
   \                     ??xQueueReceiveFromISR_5: (+1)
   \   0000002C   0x.... 0x....      BL       ulSetInterruptMaskFromISR
   \   00000030   0x9001             STR      R0,[SP, #+4]
   1807          	{
   1808          		const UBaseType_t uxMessagesWaiting = pxQueue->uxMessagesWaiting;
   \   00000032   0x6BA7             LDR      R7,[R4, #+56]
   1809          
   1810          		/* Cannot block in an ISR, so check there is data available. */
   1811          		if( uxMessagesWaiting > ( UBaseType_t ) 0 )
   \   00000034   0x2F00             CMP      R7,#+0
   \   00000036   0xD023             BEQ      ??xQueueReceiveFromISR_7
   1812          		{
   1813          			const int8_t cRxLock = pxQueue->cRxLock;
   \   00000038   0x2044             MOVS     R0,#+68
   \   0000003A   0x5625             LDRSB    R5,[R4, R0]
   1814          
   1815          			traceQUEUE_RECEIVE_FROM_ISR( pxQueue );
   1816          
   1817          			prvCopyDataFromQueue( pxQueue, pvBuffer );
   \   0000003C   0x9903             LDR      R1,[SP, #+12]
   \   0000003E   0x0020             MOVS     R0,R4
   \   00000040   0x.... 0x....      BL       prvCopyDataFromQueue
   1818          			pxQueue->uxMessagesWaiting = uxMessagesWaiting - ( UBaseType_t ) 1;
   \   00000044   0x1E78             SUBS     R0,R7,#+1
   \   00000046   0x63A0             STR      R0,[R4, #+56]
   1819          
   1820          			/* If the queue is locked the event list will not be modified.
   1821          			Instead update the lock count so the task that unlocks the queue
   1822          			will know that an ISR has removed data while the queue was
   1823          			locked. */
   1824          			if( cRxLock == queueUNLOCKED )
   \   00000048   0xB26D             SXTB     R5,R5
   \   0000004A   0x2000             MOVS     R0,#+0
   \   0000004C   0x43C0             MVNS     R0,R0            ;; #-1
   \   0000004E   0x4285             CMP      R5,R0
   \   00000050   0xD10F             BNE      ??xQueueReceiveFromISR_8
   1825          			{
   1826          				if( listLIST_IS_EMPTY( &( pxQueue->xTasksWaitingToSend ) ) == pdFALSE )
   \   00000052   0x6920             LDR      R0,[R4, #+16]
   \   00000054   0x2800             CMP      R0,#+0
   \   00000056   0xD010             BEQ      ??xQueueReceiveFromISR_9
   1827          				{
   1828          					if( xTaskRemoveFromEventList( &( pxQueue->xTasksWaitingToSend ) ) != pdFALSE )
   \   00000058   0x0020             MOVS     R0,R4
   \   0000005A   0x3010             ADDS     R0,R0,#+16
   \   0000005C   0x.... 0x....      BL       xTaskRemoveFromEventList
   \   00000060   0x2800             CMP      R0,#+0
   \   00000062   0xD00A             BEQ      ??xQueueReceiveFromISR_9
   1829          					{
   1830          						/* The task waiting has a higher priority than us so
   1831          						force a context switch. */
   1832          						if( pxHigherPriorityTaskWoken != NULL )
   \   00000064   0x9804             LDR      R0,[SP, #+16]
   \   00000066   0x2800             CMP      R0,#+0
   \   00000068   0xD007             BEQ      ??xQueueReceiveFromISR_9
   1833          						{
   1834          							*pxHigherPriorityTaskWoken = pdTRUE;
   \   0000006A   0x2001             MOVS     R0,#+1
   \   0000006C   0x9904             LDR      R1,[SP, #+16]
   \   0000006E   0x6008             STR      R0,[R1, #+0]
   \   00000070   0xE003             B        ??xQueueReceiveFromISR_9
   1835          						}
   1836          						else
   1837          						{
   1838          							mtCOVERAGE_TEST_MARKER();
   1839          						}
   1840          					}
   1841          					else
   1842          					{
   1843          						mtCOVERAGE_TEST_MARKER();
   1844          					}
   1845          				}
   1846          				else
   1847          				{
   1848          					mtCOVERAGE_TEST_MARKER();
   1849          				}
   1850          			}
   1851          			else
   1852          			{
   1853          				/* Increment the lock count so the task that unlocks the queue
   1854          				knows that data was removed while it was locked. */
   1855          				pxQueue->cRxLock = ( int8_t ) ( cRxLock + 1 );
   \                     ??xQueueReceiveFromISR_8: (+1)
   \   00000072   0x0028             MOVS     R0,R5
   \   00000074   0x1C40             ADDS     R0,R0,#+1
   \   00000076   0x2144             MOVS     R1,#+68
   \   00000078   0x5460             STRB     R0,[R4, R1]
   1856          			}
   1857          
   1858          			xReturn = pdPASS;
   \                     ??xQueueReceiveFromISR_9: (+1)
   \   0000007A   0x2001             MOVS     R0,#+1
   \   0000007C   0x9000             STR      R0,[SP, #+0]
   \   0000007E   0xE001             B        ??xQueueReceiveFromISR_10
   1859          		}
   1860          		else
   1861          		{
   1862          			xReturn = pdFAIL;
   \                     ??xQueueReceiveFromISR_7: (+1)
   \   00000080   0x2000             MOVS     R0,#+0
   \   00000082   0x9000             STR      R0,[SP, #+0]
   1863          			traceQUEUE_RECEIVE_FROM_ISR_FAILED( pxQueue );
   1864          		}
   1865          	}
   1866          	portCLEAR_INTERRUPT_MASK_FROM_ISR( uxSavedInterruptStatus );
   \                     ??xQueueReceiveFromISR_10: (+1)
   \   00000084   0x9801             LDR      R0,[SP, #+4]
   \   00000086   0x.... 0x....      BL       vClearInterruptMaskFromISR
   1867          
   1868          	return xReturn;
   \   0000008A   0x9800             LDR      R0,[SP, #+0]
   \   0000008C   0xB005             ADD      SP,SP,#+20
   \   0000008E   0xBDF0             POP      {R4-R7,PC}       ;; return
   1869          }
   1870          /*-----------------------------------------------------------*/
   1871          

   \                                 In section .text, align 4, keep-with-next
   1872          BaseType_t xQueuePeekFromISR( QueueHandle_t xQueue,  void * const pvBuffer )
   1873          {
   \                     xQueuePeekFromISR: (+1)
   \   00000000   0xB5F0             PUSH     {R4-R7,LR}
   \   00000002   0xB083             SUB      SP,SP,#+12
   \   00000004   0x0004             MOVS     R4,R0
   \   00000006   0x000E             MOVS     R6,R1
   1874          BaseType_t xReturn;
   1875          UBaseType_t uxSavedInterruptStatus;
   1876          int8_t *pcOriginalReadPosition;
   1877          Queue_t * const pxQueue = xQueue;
   \   00000008   0x0025             MOVS     R5,R4
   1878          
   1879          	configASSERT( pxQueue );
   \   0000000A   0x2D00             CMP      R5,#+0
   \   0000000C   0xD101             BNE      ??xQueuePeekFromISR_0
   \   0000000E   0xB672             cpsid i
   \                     ??xQueuePeekFromISR_1: (+1)
   \   00000010   0xE7FE             B        ??xQueuePeekFromISR_1
   1880          	configASSERT( !( ( pvBuffer == NULL ) && ( pxQueue->uxItemSize != ( UBaseType_t ) 0U ) ) );
   \                     ??xQueuePeekFromISR_0: (+1)
   \   00000012   0x2E00             CMP      R6,#+0
   \   00000014   0xD102             BNE      ??xQueuePeekFromISR_2
   \   00000016   0x6C28             LDR      R0,[R5, #+64]
   \   00000018   0x2800             CMP      R0,#+0
   \   0000001A   0xD101             BNE      ??xQueuePeekFromISR_3
   \                     ??xQueuePeekFromISR_2: (+1)
   \   0000001C   0x2001             MOVS     R0,#+1
   \   0000001E   0xE000             B        ??xQueuePeekFromISR_4
   \                     ??xQueuePeekFromISR_3: (+1)
   \   00000020   0x2000             MOVS     R0,#+0
   \                     ??xQueuePeekFromISR_4: (+1)
   \   00000022   0xB2C0             UXTB     R0,R0
   \   00000024   0x2800             CMP      R0,#+0
   \   00000026   0xD101             BNE      ??xQueuePeekFromISR_5
   \   00000028   0xB672             cpsid i
   \                     ??xQueuePeekFromISR_6: (+1)
   \   0000002A   0xE7FE             B        ??xQueuePeekFromISR_6
   1881          	configASSERT( pxQueue->uxItemSize != 0 ); /* Can't peek a semaphore. */
   \                     ??xQueuePeekFromISR_5: (+1)
   \   0000002C   0x6C28             LDR      R0,[R5, #+64]
   \   0000002E   0x2800             CMP      R0,#+0
   \   00000030   0xD101             BNE      ??xQueuePeekFromISR_7
   \   00000032   0xB672             cpsid i
   \                     ??xQueuePeekFromISR_8: (+1)
   \   00000034   0xE7FE             B        ??xQueuePeekFromISR_8
   1882          
   1883          	/* RTOS ports that support interrupt nesting have the concept of a maximum
   1884          	system call (or maximum API call) interrupt priority.  Interrupts that are
   1885          	above the maximum system call priority are kept permanently enabled, even
   1886          	when the RTOS kernel is in a critical section, but cannot make any calls to
   1887          	FreeRTOS API functions.  If configASSERT() is defined in FreeRTOSConfig.h
   1888          	then portASSERT_IF_INTERRUPT_PRIORITY_INVALID() will result in an assertion
   1889          	failure if a FreeRTOS API function is called from an interrupt that has been
   1890          	assigned a priority above the configured maximum system call priority.
   1891          	Only FreeRTOS functions that end in FromISR can be called from interrupts
   1892          	that have been assigned a priority at or (logically) below the maximum
   1893          	system call	interrupt priority.  FreeRTOS maintains a separate interrupt
   1894          	safe API to ensure interrupt entry is as fast and as simple as possible.
   1895          	More information (albeit Cortex-M specific) is provided on the following
   1896          	link: http://www.freertos.org/RTOS-Cortex-M3-M4.html */
   1897          	portASSERT_IF_INTERRUPT_PRIORITY_INVALID();
   1898          
   1899          	uxSavedInterruptStatus = portSET_INTERRUPT_MASK_FROM_ISR();
   \                     ??xQueuePeekFromISR_7: (+1)
   \   00000036   0x.... 0x....      BL       ulSetInterruptMaskFromISR
   \   0000003A   0x9001             STR      R0,[SP, #+4]
   1900          	{
   1901          		/* Cannot block in an ISR, so check there is data available. */
   1902          		if( pxQueue->uxMessagesWaiting > ( UBaseType_t ) 0 )
   \   0000003C   0x6BA8             LDR      R0,[R5, #+56]
   \   0000003E   0x2800             CMP      R0,#+0
   \   00000040   0xD00A             BEQ      ??xQueuePeekFromISR_9
   1903          		{
   1904          			traceQUEUE_PEEK_FROM_ISR( pxQueue );
   1905          
   1906          			/* Remember the read position so it can be reset as nothing is
   1907          			actually being removed from the queue. */
   1908          			pcOriginalReadPosition = pxQueue->u.xQueue.pcReadFrom;
   \   00000042   0x68E8             LDR      R0,[R5, #+12]
   \   00000044   0x9000             STR      R0,[SP, #+0]
   1909          			prvCopyDataFromQueue( pxQueue, pvBuffer );
   \   00000046   0x0031             MOVS     R1,R6
   \   00000048   0x0028             MOVS     R0,R5
   \   0000004A   0x.... 0x....      BL       prvCopyDataFromQueue
   1910          			pxQueue->u.xQueue.pcReadFrom = pcOriginalReadPosition;
   \   0000004E   0x9800             LDR      R0,[SP, #+0]
   \   00000050   0x60E8             STR      R0,[R5, #+12]
   1911          
   1912          			xReturn = pdPASS;
   \   00000052   0x2001             MOVS     R0,#+1
   \   00000054   0x0007             MOVS     R7,R0
   \   00000056   0xE001             B        ??xQueuePeekFromISR_10
   1913          		}
   1914          		else
   1915          		{
   1916          			xReturn = pdFAIL;
   \                     ??xQueuePeekFromISR_9: (+1)
   \   00000058   0x2000             MOVS     R0,#+0
   \   0000005A   0x0007             MOVS     R7,R0
   1917          			traceQUEUE_PEEK_FROM_ISR_FAILED( pxQueue );
   1918          		}
   1919          	}
   1920          	portCLEAR_INTERRUPT_MASK_FROM_ISR( uxSavedInterruptStatus );
   \                     ??xQueuePeekFromISR_10: (+1)
   \   0000005C   0x9801             LDR      R0,[SP, #+4]
   \   0000005E   0x.... 0x....      BL       vClearInterruptMaskFromISR
   1921          
   1922          	return xReturn;
   \   00000062   0x0038             MOVS     R0,R7
   \   00000064   0xBDFE             POP      {R1-R7,PC}       ;; return
   1923          }
   1924          /*-----------------------------------------------------------*/
   1925          

   \                                 In section .text, align 4, keep-with-next
   1926          UBaseType_t uxQueueMessagesWaiting( const QueueHandle_t xQueue )
   1927          {
   \                     uxQueueMessagesWaiting: (+1)
   \   00000000   0xB538             PUSH     {R3-R5,LR}
   \   00000002   0x0004             MOVS     R4,R0
   1928          UBaseType_t uxReturn;
   1929          
   1930          	configASSERT( xQueue );
   \   00000004   0x2C00             CMP      R4,#+0
   \   00000006   0xD101             BNE      ??uxQueueMessagesWaiting_0
   \   00000008   0xB672             cpsid i
   \                     ??uxQueueMessagesWaiting_1: (+1)
   \   0000000A   0xE7FE             B        ??uxQueueMessagesWaiting_1
   1931          
   1932          	taskENTER_CRITICAL();
   \                     ??uxQueueMessagesWaiting_0: (+1)
   \   0000000C   0x.... 0x....      BL       vPortEnterCritical
   1933          	{
   1934          		uxReturn = ( ( Queue_t * ) xQueue )->uxMessagesWaiting;
   \   00000010   0x6BA0             LDR      R0,[R4, #+56]
   \   00000012   0x0005             MOVS     R5,R0
   1935          	}
   1936          	taskEXIT_CRITICAL();
   \   00000014   0x.... 0x....      BL       vPortExitCritical
   1937          
   1938          	return uxReturn;
   \   00000018   0x0028             MOVS     R0,R5
   \   0000001A   0xBD32             POP      {R1,R4,R5,PC}    ;; return
   1939          } /*lint !e818 Pointer cannot be declared const as xQueue is a typedef not pointer. */
   1940          /*-----------------------------------------------------------*/
   1941          

   \                                 In section .text, align 4, keep-with-next
   1942          UBaseType_t uxQueueSpacesAvailable( const QueueHandle_t xQueue )
   1943          {
   \                     uxQueueSpacesAvailable: (+1)
   \   00000000   0xB570             PUSH     {R4-R6,LR}
   \   00000002   0x0004             MOVS     R4,R0
   1944          UBaseType_t uxReturn;
   1945          Queue_t * const pxQueue = xQueue;
   \   00000004   0x0026             MOVS     R6,R4
   1946          
   1947          	configASSERT( pxQueue );
   \   00000006   0x2E00             CMP      R6,#+0
   \   00000008   0xD101             BNE      ??uxQueueSpacesAvailable_0
   \   0000000A   0xB672             cpsid i
   \                     ??uxQueueSpacesAvailable_1: (+1)
   \   0000000C   0xE7FE             B        ??uxQueueSpacesAvailable_1
   1948          
   1949          	taskENTER_CRITICAL();
   \                     ??uxQueueSpacesAvailable_0: (+1)
   \   0000000E   0x.... 0x....      BL       vPortEnterCritical
   1950          	{
   1951          		uxReturn = pxQueue->uxLength - pxQueue->uxMessagesWaiting;
   \   00000012   0x6BF0             LDR      R0,[R6, #+60]
   \   00000014   0x6BB1             LDR      R1,[R6, #+56]
   \   00000016   0x1A40             SUBS     R0,R0,R1
   \   00000018   0x0005             MOVS     R5,R0
   1952          	}
   1953          	taskEXIT_CRITICAL();
   \   0000001A   0x.... 0x....      BL       vPortExitCritical
   1954          
   1955          	return uxReturn;
   \   0000001E   0x0028             MOVS     R0,R5
   \   00000020   0xBD70             POP      {R4-R6,PC}       ;; return
   1956          } /*lint !e818 Pointer cannot be declared const as xQueue is a typedef not pointer. */
   1957          /*-----------------------------------------------------------*/
   1958          

   \                                 In section .text, align 4, keep-with-next
   1959          UBaseType_t uxQueueMessagesWaitingFromISR( const QueueHandle_t xQueue )
   1960          {
   \                     uxQueueMessagesWaitingFromISR: (+1)
   \   00000000   0xB500             PUSH     {LR}
   \   00000002   0x0001             MOVS     R1,R0
   1961          UBaseType_t uxReturn;
   1962          Queue_t * const pxQueue = xQueue;
   \   00000004   0x000A             MOVS     R2,R1
   1963          
   1964          	configASSERT( pxQueue );
   \   00000006   0x2A00             CMP      R2,#+0
   \   00000008   0xD101             BNE      ??uxQueueMessagesWaitingFromISR_0
   \   0000000A   0xB672             cpsid i
   \                     ??uxQueueMessagesWaitingFromISR_1: (+1)
   \   0000000C   0xE7FE             B        ??uxQueueMessagesWaitingFromISR_1
   1965          	uxReturn = pxQueue->uxMessagesWaiting;
   \                     ??uxQueueMessagesWaitingFromISR_0: (+1)
   \   0000000E   0x6B93             LDR      R3,[R2, #+56]
   \   00000010   0x0018             MOVS     R0,R3
   1966          
   1967          	return uxReturn;
   \   00000012   0xBD00             POP      {PC}             ;; return
   1968          } /*lint !e818 Pointer cannot be declared const as xQueue is a typedef not pointer. */
   1969          /*-----------------------------------------------------------*/
   1970          

   \                                 In section .text, align 4, keep-with-next
   1971          void vQueueDelete( QueueHandle_t xQueue )
   1972          {
   \                     vQueueDelete: (+1)
   \   00000000   0xB538             PUSH     {R3-R5,LR}
   \   00000002   0x0004             MOVS     R4,R0
   1973          Queue_t * const pxQueue = xQueue;
   \   00000004   0x0025             MOVS     R5,R4
   1974          
   1975          	configASSERT( pxQueue );
   \   00000006   0x2D00             CMP      R5,#+0
   \   00000008   0xD101             BNE      ??vQueueDelete_0
   \   0000000A   0xB672             cpsid i
   \                     ??vQueueDelete_1: (+1)
   \   0000000C   0xE7FE             B        ??vQueueDelete_1
   1976          	traceQUEUE_DELETE( pxQueue );
   1977          
   1978          	#if ( configQUEUE_REGISTRY_SIZE > 0 )
   1979          	{
   1980          		vQueueUnregisterQueue( pxQueue );
   \                     ??vQueueDelete_0: (+1)
   \   0000000E   0x0028             MOVS     R0,R5
   \   00000010   0x.... 0x....      BL       vQueueUnregisterQueue
   1981          	}
   1982          	#endif
   1983          
   1984          	#if( ( configSUPPORT_DYNAMIC_ALLOCATION == 1 ) && ( configSUPPORT_STATIC_ALLOCATION == 0 ) )
   1985          	{
   1986          		/* The queue can only have been allocated dynamically - free it
   1987          		again. */
   1988          		vPortFree( pxQueue );
   \   00000014   0x0028             MOVS     R0,R5
   \   00000016   0x.... 0x....      BL       vPortFree
   1989          	}
   1990          	#elif( ( configSUPPORT_DYNAMIC_ALLOCATION == 1 ) && ( configSUPPORT_STATIC_ALLOCATION == 1 ) )
   1991          	{
   1992          		/* The queue could have been allocated statically or dynamically, so
   1993          		check before attempting to free the memory. */
   1994          		if( pxQueue->ucStaticallyAllocated == ( uint8_t ) pdFALSE )
   1995          		{
   1996          			vPortFree( pxQueue );
   1997          		}
   1998          		else
   1999          		{
   2000          			mtCOVERAGE_TEST_MARKER();
   2001          		}
   2002          	}
   2003          	#else
   2004          	{
   2005          		/* The queue must have been statically allocated, so is not going to be
   2006          		deleted.  Avoid compiler warnings about the unused parameter. */
   2007          		( void ) pxQueue;
   2008          	}
   2009          	#endif /* configSUPPORT_DYNAMIC_ALLOCATION */
   2010          }
   \   0000001A   0xBD31             POP      {R0,R4,R5,PC}    ;; return
   2011          /*-----------------------------------------------------------*/
   2012          
   2013          #if ( configUSE_TRACE_FACILITY == 1 )
   2014          
   2015          	UBaseType_t uxQueueGetQueueNumber( QueueHandle_t xQueue )
   2016          	{
   2017          		return ( ( Queue_t * ) xQueue )->uxQueueNumber;
   2018          	}
   2019          
   2020          #endif /* configUSE_TRACE_FACILITY */
   2021          /*-----------------------------------------------------------*/
   2022          
   2023          #if ( configUSE_TRACE_FACILITY == 1 )
   2024          
   2025          	void vQueueSetQueueNumber( QueueHandle_t xQueue, UBaseType_t uxQueueNumber )
   2026          	{
   2027          		( ( Queue_t * ) xQueue )->uxQueueNumber = uxQueueNumber;
   2028          	}
   2029          
   2030          #endif /* configUSE_TRACE_FACILITY */
   2031          /*-----------------------------------------------------------*/
   2032          
   2033          #if ( configUSE_TRACE_FACILITY == 1 )
   2034          
   2035          	uint8_t ucQueueGetQueueType( QueueHandle_t xQueue )
   2036          	{
   2037          		return ( ( Queue_t * ) xQueue )->ucQueueType;
   2038          	}
   2039          
   2040          #endif /* configUSE_TRACE_FACILITY */
   2041          /*-----------------------------------------------------------*/
   2042          
   2043          #if( configUSE_MUTEXES == 1 )
   2044          

   \                                 In section .text, align 2, keep-with-next
   2045          	static UBaseType_t prvGetDisinheritPriorityAfterTimeout( const Queue_t * const pxQueue )
   2046          	{
   \                     prvGetDisinheritPriorityAfterTimeout: (+1)
   \   00000000   0xB500             PUSH     {LR}
   \   00000002   0x0001             MOVS     R1,R0
   2047          	UBaseType_t uxHighestPriorityOfWaitingTasks;
   2048          
   2049          		/* If a task waiting for a mutex causes the mutex holder to inherit a
   2050          		priority, but the waiting task times out, then the holder should
   2051          		disinherit the priority - but only down to the highest priority of any
   2052          		other tasks that are waiting for the same mutex.  For this purpose,
   2053          		return the priority of the highest priority task that is waiting for the
   2054          		mutex. */
   2055          		if( listCURRENT_LIST_LENGTH( &( pxQueue->xTasksWaitingToReceive ) ) > 0U )
   \   00000004   0x6A4A             LDR      R2,[R1, #+36]
   \   00000006   0x2A00             CMP      R2,#+0
   \   00000008   0xD005             BEQ      ??prvGetDisinheritPriorityAfterTimeout_0
   2056          		{
   2057          			uxHighestPriorityOfWaitingTasks = ( UBaseType_t ) configMAX_PRIORITIES - ( UBaseType_t ) listGET_ITEM_VALUE_OF_HEAD_ENTRY( &( pxQueue->xTasksWaitingToReceive ) );
   \   0000000A   0x2205             MOVS     R2,#+5
   \   0000000C   0x6B0B             LDR      R3,[R1, #+48]
   \   0000000E   0x681B             LDR      R3,[R3, #+0]
   \   00000010   0x1AD2             SUBS     R2,R2,R3
   \   00000012   0x0010             MOVS     R0,R2
   \   00000014   0xE001             B        ??prvGetDisinheritPriorityAfterTimeout_1
   2058          		}
   2059          		else
   2060          		{
   2061          			uxHighestPriorityOfWaitingTasks = tskIDLE_PRIORITY;
   \                     ??prvGetDisinheritPriorityAfterTimeout_0: (+1)
   \   00000016   0x2200             MOVS     R2,#+0
   \   00000018   0x0010             MOVS     R0,R2
   2062          		}
   2063          
   2064          		return uxHighestPriorityOfWaitingTasks;
   \                     ??prvGetDisinheritPriorityAfterTimeout_1: (+1)
   \   0000001A   0xBD00             POP      {PC}             ;; return
   2065          	}
   2066          
   2067          #endif /* configUSE_MUTEXES */
   2068          /*-----------------------------------------------------------*/
   2069          

   \                                 In section .text, align 2, keep-with-next
   2070          static BaseType_t prvCopyDataToQueue( Queue_t * const pxQueue, const void *pvItemToQueue, const BaseType_t xPosition )
   2071          {
   \                     prvCopyDataToQueue: (+1)
   \   00000000   0xB5F6             PUSH     {R1,R2,R4-R7,LR}
   \   00000002   0xB083             SUB      SP,SP,#+12
   \   00000004   0x0004             MOVS     R4,R0
   2072          BaseType_t xReturn = pdFALSE;
   \   00000006   0x2600             MOVS     R6,#+0
   2073          UBaseType_t uxMessagesWaiting;
   2074          
   2075          	/* This function is called from a critical section. */
   2076          
   2077          	uxMessagesWaiting = pxQueue->uxMessagesWaiting;
   \   00000008   0x6BA0             LDR      R0,[R4, #+56]
   \   0000000A   0x0005             MOVS     R5,R0
   2078          
   2079          	if( pxQueue->uxItemSize == ( UBaseType_t ) 0 )
   \   0000000C   0x6C20             LDR      R0,[R4, #+64]
   \   0000000E   0x2800             CMP      R0,#+0
   \   00000010   0xD109             BNE      ??prvCopyDataToQueue_0
   2080          	{
   2081          		#if ( configUSE_MUTEXES == 1 )
   2082          		{
   2083          			if( pxQueue->uxQueueType == queueQUEUE_IS_MUTEX )
   \   00000012   0x6820             LDR      R0,[R4, #+0]
   \   00000014   0x2800             CMP      R0,#+0
   \   00000016   0xD13A             BNE      ??prvCopyDataToQueue_1
   2084          			{
   2085          				/* The mutex is no longer being held. */
   2086          				xReturn = xTaskPriorityDisinherit( pxQueue->u.xSemaphore.xMutexHolder );
   \   00000018   0x68A0             LDR      R0,[R4, #+8]
   \   0000001A   0x.... 0x....      BL       xTaskPriorityDisinherit
   \   0000001E   0x0006             MOVS     R6,R0
   2087          				pxQueue->u.xSemaphore.xMutexHolder = NULL;
   \   00000020   0x2000             MOVS     R0,#+0
   \   00000022   0x60A0             STR      R0,[R4, #+8]
   \   00000024   0xE033             B        ??prvCopyDataToQueue_1
   2088          			}
   2089          			else
   2090          			{
   2091          				mtCOVERAGE_TEST_MARKER();
   2092          			}
   2093          		}
   2094          		#endif /* configUSE_MUTEXES */
   2095          	}
   2096          	else if( xPosition == queueSEND_TO_BACK )
   \                     ??prvCopyDataToQueue_0: (+1)
   \   00000026   0x9804             LDR      R0,[SP, #+16]
   \   00000028   0x2800             CMP      R0,#+0
   \   0000002A   0xD114             BNE      ??prvCopyDataToQueue_2
   2097          	{
   2098          		( void ) memcpy( ( void * ) pxQueue->pcWriteTo, pvItemToQueue, ( size_t ) pxQueue->uxItemSize ); /*lint !e961 !e418 !e9087 MISRA exception as the casts are only redundant for some ports, plus previous logic ensures a null pointer can only be passed to memcpy() if the copy size is 0.  Cast to void required by function signature and safe as no alignment requirement and copy length specified in bytes. */
   \   0000002C   0x6C20             LDR      R0,[R4, #+64]
   \   0000002E   0x9000             STR      R0,[SP, #+0]
   \   00000030   0x9803             LDR      R0,[SP, #+12]
   \   00000032   0x9001             STR      R0,[SP, #+4]
   \   00000034   0x6867             LDR      R7,[R4, #+4]
   \   00000036   0x9A00             LDR      R2,[SP, #+0]
   \   00000038   0x9901             LDR      R1,[SP, #+4]
   \   0000003A   0x0038             MOVS     R0,R7
   \   0000003C   0x.... 0x....      BL       __aeabi_memcpy
   2099          		pxQueue->pcWriteTo += pxQueue->uxItemSize; /*lint !e9016 Pointer arithmetic on char types ok, especially in this use case where it is the clearest way of conveying intent. */
   \   00000040   0x6860             LDR      R0,[R4, #+4]
   \   00000042   0x6C21             LDR      R1,[R4, #+64]
   \   00000044   0x1840             ADDS     R0,R0,R1
   \   00000046   0x6060             STR      R0,[R4, #+4]
   2100          		if( pxQueue->pcWriteTo >= pxQueue->u.xQueue.pcTail ) /*lint !e946 MISRA exception justified as comparison of pointers is the cleanest solution. */
   \   00000048   0x6860             LDR      R0,[R4, #+4]
   \   0000004A   0x68A1             LDR      R1,[R4, #+8]
   \   0000004C   0x4288             CMP      R0,R1
   \   0000004E   0xD31E             BCC      ??prvCopyDataToQueue_1
   2101          		{
   2102          			pxQueue->pcWriteTo = pxQueue->pcHead;
   \   00000050   0x6820             LDR      R0,[R4, #+0]
   \   00000052   0x6060             STR      R0,[R4, #+4]
   \   00000054   0xE01B             B        ??prvCopyDataToQueue_1
   2103          		}
   2104          		else
   2105          		{
   2106          			mtCOVERAGE_TEST_MARKER();
   2107          		}
   2108          	}
   2109          	else
   2110          	{
   2111          		( void ) memcpy( ( void * ) pxQueue->u.xQueue.pcReadFrom, pvItemToQueue, ( size_t ) pxQueue->uxItemSize ); /*lint !e961 !e9087 !e418 MISRA exception as the casts are only redundant for some ports.  Cast to void required by function signature and safe as no alignment requirement and copy length specified in bytes.  Assert checks null pointer only used when length is 0. */
   \                     ??prvCopyDataToQueue_2: (+1)
   \   00000056   0x6C20             LDR      R0,[R4, #+64]
   \   00000058   0x9001             STR      R0,[SP, #+4]
   \   0000005A   0x9803             LDR      R0,[SP, #+12]
   \   0000005C   0x9000             STR      R0,[SP, #+0]
   \   0000005E   0x68E7             LDR      R7,[R4, #+12]
   \   00000060   0x9A01             LDR      R2,[SP, #+4]
   \   00000062   0x9900             LDR      R1,[SP, #+0]
   \   00000064   0x0038             MOVS     R0,R7
   \   00000066   0x.... 0x....      BL       __aeabi_memcpy
   2112          		pxQueue->u.xQueue.pcReadFrom -= pxQueue->uxItemSize;
   \   0000006A   0x68E0             LDR      R0,[R4, #+12]
   \   0000006C   0x6C21             LDR      R1,[R4, #+64]
   \   0000006E   0x1A40             SUBS     R0,R0,R1
   \   00000070   0x60E0             STR      R0,[R4, #+12]
   2113          		if( pxQueue->u.xQueue.pcReadFrom < pxQueue->pcHead ) /*lint !e946 MISRA exception justified as comparison of pointers is the cleanest solution. */
   \   00000072   0x68E0             LDR      R0,[R4, #+12]
   \   00000074   0x6821             LDR      R1,[R4, #+0]
   \   00000076   0x4288             CMP      R0,R1
   \   00000078   0xD203             BCS      ??prvCopyDataToQueue_3
   2114          		{
   2115          			pxQueue->u.xQueue.pcReadFrom = ( pxQueue->u.xQueue.pcTail - pxQueue->uxItemSize );
   \   0000007A   0x68A0             LDR      R0,[R4, #+8]
   \   0000007C   0x6C21             LDR      R1,[R4, #+64]
   \   0000007E   0x1A40             SUBS     R0,R0,R1
   \   00000080   0x60E0             STR      R0,[R4, #+12]
   2116          		}
   2117          		else
   2118          		{
   2119          			mtCOVERAGE_TEST_MARKER();
   2120          		}
   2121          
   2122          		if( xPosition == queueOVERWRITE )
   \                     ??prvCopyDataToQueue_3: (+1)
   \   00000082   0x9804             LDR      R0,[SP, #+16]
   \   00000084   0x2802             CMP      R0,#+2
   \   00000086   0xD102             BNE      ??prvCopyDataToQueue_1
   2123          		{
   2124          			if( uxMessagesWaiting > ( UBaseType_t ) 0 )
   \   00000088   0x2D00             CMP      R5,#+0
   \   0000008A   0xD000             BEQ      ??prvCopyDataToQueue_1
   2125          			{
   2126          				/* An item is not being added but overwritten, so subtract
   2127          				one from the recorded number of items in the queue so when
   2128          				one is added again below the number of recorded items remains
   2129          				correct. */
   2130          				--uxMessagesWaiting;
   \   0000008C   0x1E6D             SUBS     R5,R5,#+1
   2131          			}
   2132          			else
   2133          			{
   2134          				mtCOVERAGE_TEST_MARKER();
   2135          			}
   2136          		}
   2137          		else
   2138          		{
   2139          			mtCOVERAGE_TEST_MARKER();
   2140          		}
   2141          	}
   2142          
   2143          	pxQueue->uxMessagesWaiting = uxMessagesWaiting + ( UBaseType_t ) 1;
   \                     ??prvCopyDataToQueue_1: (+1)
   \   0000008E   0x0028             MOVS     R0,R5
   \   00000090   0x1C40             ADDS     R0,R0,#+1
   \   00000092   0x63A0             STR      R0,[R4, #+56]
   2144          
   2145          	return xReturn;
   \   00000094   0x0030             MOVS     R0,R6
   \   00000096   0xB005             ADD      SP,SP,#+20
   \   00000098   0xBDF0             POP      {R4-R7,PC}       ;; return
   2146          }
   2147          /*-----------------------------------------------------------*/
   2148          

   \                                 In section .text, align 2, keep-with-next
   2149          static void prvCopyDataFromQueue( Queue_t * const pxQueue, void * const pvBuffer )
   2150          {
   \                     prvCopyDataFromQueue: (+1)
   \   00000000   0xB5F8             PUSH     {R3-R7,LR}
   \   00000002   0x0004             MOVS     R4,R0
   \   00000004   0x000D             MOVS     R5,R1
   2151          	if( pxQueue->uxItemSize != ( UBaseType_t ) 0 )
   \   00000006   0x6C20             LDR      R0,[R4, #+64]
   \   00000008   0x2800             CMP      R0,#+0
   \   0000000A   0xD010             BEQ      ??prvCopyDataFromQueue_0
   2152          	{
   2153          		pxQueue->u.xQueue.pcReadFrom += pxQueue->uxItemSize; /*lint !e9016 Pointer arithmetic on char types ok, especially in this use case where it is the clearest way of conveying intent. */
   \   0000000C   0x68E0             LDR      R0,[R4, #+12]
   \   0000000E   0x6C21             LDR      R1,[R4, #+64]
   \   00000010   0x1840             ADDS     R0,R0,R1
   \   00000012   0x60E0             STR      R0,[R4, #+12]
   2154          		if( pxQueue->u.xQueue.pcReadFrom >= pxQueue->u.xQueue.pcTail ) /*lint !e946 MISRA exception justified as use of the relational operator is the cleanest solutions. */
   \   00000014   0x68E0             LDR      R0,[R4, #+12]
   \   00000016   0x68A1             LDR      R1,[R4, #+8]
   \   00000018   0x4288             CMP      R0,R1
   \   0000001A   0xD301             BCC      ??prvCopyDataFromQueue_1
   2155          		{
   2156          			pxQueue->u.xQueue.pcReadFrom = pxQueue->pcHead;
   \   0000001C   0x6820             LDR      R0,[R4, #+0]
   \   0000001E   0x60E0             STR      R0,[R4, #+12]
   2157          		}
   2158          		else
   2159          		{
   2160          			mtCOVERAGE_TEST_MARKER();
   2161          		}
   2162          		( void ) memcpy( ( void * ) pvBuffer, ( void * ) pxQueue->u.xQueue.pcReadFrom, ( size_t ) pxQueue->uxItemSize ); /*lint !e961 !e418 !e9087 MISRA exception as the casts are only redundant for some ports.  Also previous logic ensures a null pointer can only be passed to memcpy() when the count is 0.  Cast to void required by function signature and safe as no alignment requirement and copy length specified in bytes. */
   \                     ??prvCopyDataFromQueue_1: (+1)
   \   00000020   0x6C26             LDR      R6,[R4, #+64]
   \   00000022   0x68E7             LDR      R7,[R4, #+12]
   \   00000024   0x0032             MOVS     R2,R6
   \   00000026   0x0039             MOVS     R1,R7
   \   00000028   0x0028             MOVS     R0,R5
   \   0000002A   0x.... 0x....      BL       __aeabi_memcpy
   2163          	}
   2164          }
   \                     ??prvCopyDataFromQueue_0: (+1)
   \   0000002E   0xBDF1             POP      {R0,R4-R7,PC}    ;; return
   2165          /*-----------------------------------------------------------*/
   2166          

   \                                 In section .text, align 2, keep-with-next
   2167          static void prvUnlockQueue( Queue_t * const pxQueue )
   2168          {
   \                     prvUnlockQueue: (+1)
   \   00000000   0xB570             PUSH     {R4-R6,LR}
   \   00000002   0x0004             MOVS     R4,R0
   2169          	/* THIS FUNCTION MUST BE CALLED WITH THE SCHEDULER SUSPENDED. */
   2170          
   2171          	/* The lock counts contains the number of extra data items placed or
   2172          	removed from the queue while the queue was locked.  When a queue is
   2173          	locked items can be added or removed, but the event lists cannot be
   2174          	updated. */
   2175          	taskENTER_CRITICAL();
   \   00000004   0x.... 0x....      BL       vPortEnterCritical
   2176          	{
   2177          		int8_t cTxLock = pxQueue->cTxLock;
   \   00000008   0x2045             MOVS     R0,#+69
   \   0000000A   0x5625             LDRSB    R5,[R4, R0]
   2178          
   2179          		/* See if data was added to the queue while it was locked. */
   2180          		while( cTxLock > queueLOCKED_UNMODIFIED )
   \                     ??prvUnlockQueue_0: (+1)
   \   0000000C   0xB26D             SXTB     R5,R5
   \   0000000E   0x2D01             CMP      R5,#+1
   \   00000010   0xDB0C             BLT      ??prvUnlockQueue_1
   2181          		{
   2182          			/* Data was posted while the queue was locked.  Are any tasks
   2183          			blocked waiting for data to become available? */
   2184          			#if ( configUSE_QUEUE_SETS == 1 )
   2185          			{
   2186          				if( pxQueue->pxQueueSetContainer != NULL )
   2187          				{
   2188          					if( prvNotifyQueueSetContainer( pxQueue, queueSEND_TO_BACK ) != pdFALSE )
   2189          					{
   2190          						/* The queue is a member of a queue set, and posting to
   2191          						the queue set caused a higher priority task to unblock.
   2192          						A context switch is required. */
   2193          						vTaskMissedYield();
   2194          					}
   2195          					else
   2196          					{
   2197          						mtCOVERAGE_TEST_MARKER();
   2198          					}
   2199          				}
   2200          				else
   2201          				{
   2202          					/* Tasks that are removed from the event list will get
   2203          					added to the pending ready list as the scheduler is still
   2204          					suspended. */
   2205          					if( listLIST_IS_EMPTY( &( pxQueue->xTasksWaitingToReceive ) ) == pdFALSE )
   2206          					{
   2207          						if( xTaskRemoveFromEventList( &( pxQueue->xTasksWaitingToReceive ) ) != pdFALSE )
   2208          						{
   2209          							/* The task waiting has a higher priority so record that a
   2210          							context	switch is required. */
   2211          							vTaskMissedYield();
   2212          						}
   2213          						else
   2214          						{
   2215          							mtCOVERAGE_TEST_MARKER();
   2216          						}
   2217          					}
   2218          					else
   2219          					{
   2220          						break;
   2221          					}
   2222          				}
   2223          			}
   2224          			#else /* configUSE_QUEUE_SETS */
   2225          			{
   2226          				/* Tasks that are removed from the event list will get added to
   2227          				the pending ready list as the scheduler is still suspended. */
   2228          				if( listLIST_IS_EMPTY( &( pxQueue->xTasksWaitingToReceive ) ) == pdFALSE )
   \   00000012   0x6A60             LDR      R0,[R4, #+36]
   \   00000014   0x2800             CMP      R0,#+0
   \   00000016   0xD009             BEQ      ??prvUnlockQueue_2
   2229          				{
   2230          					if( xTaskRemoveFromEventList( &( pxQueue->xTasksWaitingToReceive ) ) != pdFALSE )
   \   00000018   0x0020             MOVS     R0,R4
   \   0000001A   0x3024             ADDS     R0,R0,#+36
   \   0000001C   0x.... 0x....      BL       xTaskRemoveFromEventList
   \   00000020   0x2800             CMP      R0,#+0
   \   00000022   0xD001             BEQ      ??prvUnlockQueue_3
   2231          					{
   2232          						/* The task waiting has a higher priority so record that
