###############################################################################
#
# IAR ANSI C/C++ Compiler V7.40.7.9843/W32 for ARM        20/Dec/2019  17:18:58
# Copyright 1999-2015 IAR Systems AB.
#
#    Cpu mode     =  thumb
#    Endian       =  little
#    Source file  =  
#        C:\Users\Ian\Desktop\Projects\hub project\hub\clang\source\state1.c
#    Command line =  
#        "C:\Users\Ian\Desktop\Projects\hub project\hub\clang\source\state1.c"
#        -D RESISTANCE_TRIMS -D AFE_TRIMS -D USB_TRIMS -D USE_DEBUG_GPIOS -D
#        USE_PD -lC "C:\Users\Ian\Desktop\Projects\hub
#        project\hub\toolchain\iar\project\Debug\List" -o
#        "C:\Users\Ian\Desktop\Projects\hub
#        project\hub\toolchain\iar\project\Debug\Obj" --no_cse --no_unroll
#        --no_inline --no_code_motion --no_tbaa --no_clustering --no_scheduling
#        --debug --endian=little --cpu=Cortex-M0 -e --fpu=None --dlib_config
#        "C:\Program Files (x86)\IAR Systems\Embedded Workbench
#        7.2\arm\INC\c\DLib_Config_Normal.h" -I
#        "C:\Users\Ian\Desktop\Projects\hub
#        project\hub\toolchain\iar\project\..\..\..\clang\include\" -I
#        "C:\Users\Ian\Desktop\Projects\hub
#        project\hub\toolchain\iar\project\..\..\..\clang\include\superior\clough\"
#        -I "C:\Users\Ian\Desktop\Projects\hub
#        project\hub\toolchain\iar\project\..\..\..\clang\include\superior\sfr\"
#        -I "C:\Users\Ian\Desktop\Projects\hub
#        project\hub\toolchain\iar\project\..\..\..\clang\include\superior\" -I
#        "C:\Users\Ian\Desktop\Projects\hub
#        project\hub\toolchain\iar\project\..\SEGGER_RTT_V640\RTT\" -I
#        "C:\Users\Ian\Desktop\Projects\hub
#        project\hub\toolchain\iar\project\..\..\..\clang\source\FreeRTOS\" -On
#        -I "C:\Program Files (x86)\IAR Systems\Embedded Workbench
#        7.2\arm\CMSIS\Include\"
#    List file    =  
#        C:\Users\Ian\Desktop\Projects\hub
#        project\hub\toolchain\iar\project\Debug\List\state1.lst
#    Object file  =  
#        C:\Users\Ian\Desktop\Projects\hub
#        project\hub\toolchain\iar\project\Debug\Obj\state1.o
#
###############################################################################

C:\Users\Ian\Desktop\Projects\hub project\hub\clang\source\state1.c
      1          #include "states.h"
      2          

   \                                 In section .text, align 4, keep-with-next
      3          void *state_1( PD_Port_t *p_Context, Event_t *event )
      4          {
   \                     state_1: (+1)
   \   00000000   0xB538             PUSH     {R3-R5,LR}
   \   00000002   0x0004             MOVS     R4,R0
   \   00000004   0x000D             MOVS     R5,R1
      5          	switch( event->Event_ID )
   \   00000006   0x7828             LDRB     R0,[R5, #+0]
   \   00000008   0x2800             CMP      R0,#+0
   \   0000000A   0xD003             BEQ      ??state_1_0
   \   0000000C   0x2802             CMP      R0,#+2
   \   0000000E   0xD00E             BEQ      ??state_1_1
   \   00000010   0xD30B             BCC      ??state_1_2
   \   00000012   0xE00E             B        ??state_1_3
      6          	{
      7          	case ENTRANCE:
      8                          v_Start_Timer( p_Context, 2000 );
                                 ^
Warning[Pe223]: function "v_Start_Timer" declared implicitly
   \                     ??state_1_0: (+1)
   \   00000014   0x21FA             MOVS     R1,#+250
   \   00000016   0x00C9             LSLS     R1,R1,#+3        ;; #+2000
   \   00000018   0x0020             MOVS     R0,R4
   \   0000001A   0x.... 0x....      BL       v_Start_Timer
      9                          v_Set_Debug_GPIO( 0, GPIO10_DEBUG );
   \   0000001E   0x2102             MOVS     R1,#+2
   \   00000020   0x2000             MOVS     R0,#+0
   \   00000022   0x.... 0x....      BL       _v_Set_Debug_GPIO
     10          		return (void *)0;
   \   00000026   0x2000             MOVS     R0,#+0
   \   00000028   0xE004             B        ??state_1_4
     11          		break;
     12          
     13          	case EXIT:
     14          		return (void *)0;
   \                     ??state_1_2: (+1)
   \   0000002A   0x2000             MOVS     R0,#+0
   \   0000002C   0xE002             B        ??state_1_4
     15          		break;
     16                          
     17                  case TIMEOUT_EVENT:
     18                          return (void *)state_2;
   \                     ??state_1_1: (+1)
   \   0000002E   0x4802             LDR      R0,??state_1_5
   \   00000030   0xE000             B        ??state_1_4
     19                          break;
     20          
     21          	default:
     22          		break;
     23          
     24          	}
     25          	return (void *)state_1;
   \                     ??state_1_3: (+1)
   \   00000032   0x4802             LDR      R0,??state_1_5+0x4
   \                     ??state_1_4: (+1)
   \   00000034   0xBD32             POP      {R1,R4,R5,PC}    ;; return
   \   00000036   0xBF00             Nop      
   \                     ??state_1_5:
   \   00000038   0x........         DC32     state_2
   \   0000003C   0x........         DC32     state_1
     26          }

   Maximum stack usage in bytes:

   .cstack Function
   ------- --------
      16   state_1
        16   -> _v_Set_Debug_GPIO
        16   -> v_Start_Timer


   Section sizes:

   Bytes  Function/Label
   -----  --------------
      64  state_1

 
 64 bytes in section .text
 
 64 bytes of CODE memory

Errors: none
Warnings: 1
