###############################################################################
#
# IAR ANSI C/C++ Compiler V7.40.7.9843/W32 for ARM        20/Dec/2019  17:18:58
# Copyright 1999-2015 IAR Systems AB.
#
#    Cpu mode     =  thumb
#    Endian       =  little
#    Source file  =  
#        C:\Users\Ian\Desktop\Projects\hub
#        project\hub\clang\source\FreeRTOS\timers.c
#    Command line =  
#        "C:\Users\Ian\Desktop\Projects\hub
#        project\hub\clang\source\FreeRTOS\timers.c" -D RESISTANCE_TRIMS -D
#        AFE_TRIMS -D USB_TRIMS -D USE_DEBUG_GPIOS -D USE_PD -lC
#        "C:\Users\Ian\Desktop\Projects\hub
#        project\hub\toolchain\iar\project\Debug\List" -o
#        "C:\Users\Ian\Desktop\Projects\hub
#        project\hub\toolchain\iar\project\Debug\Obj" --no_cse --no_unroll
#        --no_inline --no_code_motion --no_tbaa --no_clustering --no_scheduling
#        --debug --endian=little --cpu=Cortex-M0 -e --fpu=None --dlib_config
#        "C:\Program Files (x86)\IAR Systems\Embedded Workbench
#        7.2\arm\INC\c\DLib_Config_Normal.h" -I
#        "C:\Users\Ian\Desktop\Projects\hub
#        project\hub\toolchain\iar\project\..\..\..\clang\include\" -I
#        "C:\Users\Ian\Desktop\Projects\hub
#        project\hub\toolchain\iar\project\..\..\..\clang\include\superior\clough\"
#        -I "C:\Users\Ian\Desktop\Projects\hub
#        project\hub\toolchain\iar\project\..\..\..\clang\include\superior\sfr\"
#        -I "C:\Users\Ian\Desktop\Projects\hub
#        project\hub\toolchain\iar\project\..\..\..\clang\include\superior\" -I
#        "C:\Users\Ian\Desktop\Projects\hub
#        project\hub\toolchain\iar\project\..\SEGGER_RTT_V640\RTT\" -I
#        "C:\Users\Ian\Desktop\Projects\hub
#        project\hub\toolchain\iar\project\..\..\..\clang\source\FreeRTOS\" -On
#        -I "C:\Program Files (x86)\IAR Systems\Embedded Workbench
#        7.2\arm\CMSIS\Include\"
#    List file    =  
#        C:\Users\Ian\Desktop\Projects\hub
#        project\hub\toolchain\iar\project\Debug\List\timers.lst
#    Object file  =  
#        C:\Users\Ian\Desktop\Projects\hub
#        project\hub\toolchain\iar\project\Debug\Obj\timers.o
#
###############################################################################

C:\Users\Ian\Desktop\Projects\hub project\hub\clang\source\FreeRTOS\timers.c
      1          /*
      2           * FreeRTOS Kernel V10.2.0
      3           * Copyright (C) 2019 Amazon.com, Inc. or its affiliates.  All Rights Reserved.
      4           *
      5           * Permission is hereby granted, free of charge, to any person obtaining a copy of
      6           * this software and associated documentation files (the "Software"), to deal in
      7           * the Software without restriction, including without limitation the rights to
      8           * use, copy, modify, merge, publish, distribute, sublicense, and/or sell copies of
      9           * the Software, and to permit persons to whom the Software is furnished to do so,
     10           * subject to the following conditions:
     11           *
     12           * The above copyright notice and this permission notice shall be included in all
     13           * copies or substantial portions of the Software.
     14           *
     15           * THE SOFTWARE IS PROVIDED "AS IS", WITHOUT WARRANTY OF ANY KIND, EXPRESS OR
     16           * IMPLIED, INCLUDING BUT NOT LIMITED TO THE WARRANTIES OF MERCHANTABILITY, FITNESS
     17           * FOR A PARTICULAR PURPOSE AND NONINFRINGEMENT. IN NO EVENT SHALL THE AUTHORS OR
     18           * COPYRIGHT HOLDERS BE LIABLE FOR ANY CLAIM, DAMAGES OR OTHER LIABILITY, WHETHER
     19           * IN AN ACTION OF CONTRACT, TORT OR OTHERWISE, ARISING FROM, OUT OF OR IN
     20           * CONNECTION WITH THE SOFTWARE OR THE USE OR OTHER DEALINGS IN THE SOFTWARE.
     21           *
     22           * http://www.FreeRTOS.org
     23           * http://aws.amazon.com/freertos
     24           *
     25           * 1 tab == 4 spaces!
     26           */
     27          
     28          /* Standard includes. */
     29          #include <stdlib.h>
     30          
     31          /* Defining MPU_WRAPPERS_INCLUDED_FROM_API_FILE prevents task.h from redefining
     32          all the API functions to use the MPU wrappers.  That should only be done when
     33          task.h is included from an application file. */
     34          #define MPU_WRAPPERS_INCLUDED_FROM_API_FILE
     35          
     36          #include "FreeRTOS.h"
     37          #include "task.h"
     38          #include "queue.h"
     39          #include "timers.h"
     40          
     41          #if ( INCLUDE_xTimerPendFunctionCall == 1 ) && ( configUSE_TIMERS == 0 )
     42          	#error configUSE_TIMERS must be set to 1 to make the xTimerPendFunctionCall() function available.
     43          #endif
     44          
     45          /* Lint e9021, e961 and e750 are suppressed as a MISRA exception justified
     46          because the MPU ports require MPU_WRAPPERS_INCLUDED_FROM_API_FILE to be defined
     47          for the header files above, but not in this file, in order to generate the
     48          correct privileged Vs unprivileged linkage and placement. */
     49          #undef MPU_WRAPPERS_INCLUDED_FROM_API_FILE /*lint !e9021 !e961 !e750. */
     50          
     51          
     52          /* This entire source file will be skipped if the application is not configured
     53          to include software timer functionality.  This #if is closed at the very bottom
     54          of this file.  If you want to include software timer functionality then ensure
     55          configUSE_TIMERS is set to 1 in FreeRTOSConfig.h. */
     56          #if ( configUSE_TIMERS == 1 )
     57          
     58          /* Misc definitions. */
     59          #define tmrNO_DELAY		( TickType_t ) 0U
     60          
     61          /* The name assigned to the timer service task.  This can be overridden by
     62          defining trmTIMER_SERVICE_TASK_NAME in FreeRTOSConfig.h. */
     63          #ifndef configTIMER_SERVICE_TASK_NAME
     64          	#define configTIMER_SERVICE_TASK_NAME "Tmr Svc"
     65          #endif
     66          
     67          /* Bit definitions used in the ucStatus member of a timer structure. */
     68          #define tmrSTATUS_IS_ACTIVE					( ( uint8_t ) 0x01 )
     69          #define tmrSTATUS_IS_STATICALLY_ALLOCATED	( ( uint8_t ) 0x02 )
     70          #define tmrSTATUS_IS_AUTORELOAD				( ( uint8_t ) 0x04 )
     71          
     72          /* The definition of the timers themselves. */
     73          typedef struct tmrTimerControl /* The old naming convention is used to prevent breaking kernel aware debuggers. */
     74          {
     75          	const char				*pcTimerName;		/*<< Text name.  This is not used by the kernel, it is included simply to make debugging easier. */ /*lint !e971 Unqualified char types are allowed for strings and single characters only. */
     76          	ListItem_t				xTimerListItem;		/*<< Standard linked list item as used by all kernel features for event management. */
     77          	TickType_t				xTimerPeriodInTicks;/*<< How quickly and often the timer expires. */
     78          	void 					*pvTimerID;			/*<< An ID to identify the timer.  This allows the timer to be identified when the same callback is used for multiple timers. */
     79          	TimerCallbackFunction_t	pxCallbackFunction;	/*<< The function that will be called when the timer expires. */
     80          	#if( configUSE_TRACE_FACILITY == 1 )
     81          		UBaseType_t			uxTimerNumber;		/*<< An ID assigned by trace tools such as FreeRTOS+Trace */
     82          	#endif
     83          	uint8_t 				ucStatus;			/*<< Holds bits to say if the timer was statically allocated or not, and if it is active or not. */
     84          } xTIMER;
     85          
     86          /* The old xTIMER name is maintained above then typedefed to the new Timer_t
     87          name below to enable the use of older kernel aware debuggers. */
     88          typedef xTIMER Timer_t;
     89          
     90          /* The definition of messages that can be sent and received on the timer queue.
     91          Two types of message can be queued - messages that manipulate a software timer,
     92          and messages that request the execution of a non-timer related callback.  The
     93          two message types are defined in two separate structures, xTimerParametersType
     94          and xCallbackParametersType respectively. */
     95          typedef struct tmrTimerParameters
     96          {
     97          	TickType_t			xMessageValue;		/*<< An optional value used by a subset of commands, for example, when changing the period of a timer. */
     98          	Timer_t *			pxTimer;			/*<< The timer to which the command will be applied. */
     99          } TimerParameter_t;
    100          
    101          
    102          typedef struct tmrCallbackParameters
    103          {
    104          	PendedFunction_t	pxCallbackFunction;	/* << The callback function to execute. */
    105          	void *pvParameter1;						/* << The value that will be used as the callback functions first parameter. */
    106          	uint32_t ulParameter2;					/* << The value that will be used as the callback functions second parameter. */
    107          } CallbackParameters_t;
    108          
    109          /* The structure that contains the two message types, along with an identifier
    110          that is used to determine which message type is valid. */
    111          typedef struct tmrTimerQueueMessage
    112          {
    113          	BaseType_t			xMessageID;			/*<< The command being sent to the timer service task. */
    114          	union
    115          	{
    116          		TimerParameter_t xTimerParameters;
    117          
    118          		/* Don't include xCallbackParameters if it is not going to be used as
    119          		it makes the structure (and therefore the timer queue) larger. */
    120          		#if ( INCLUDE_xTimerPendFunctionCall == 1 )
    121          			CallbackParameters_t xCallbackParameters;
    122          		#endif /* INCLUDE_xTimerPendFunctionCall */
    123          	} u;
    124          } DaemonTaskMessage_t;
    125          
    126          /*lint -save -e956 A manual analysis and inspection has been used to determine
    127          which static variables must be declared volatile. */
    128          
    129          /* The list in which active timers are stored.  Timers are referenced in expire
    130          time order, with the nearest expiry time at the front of the list.  Only the
    131          timer service task is allowed to access these lists.
    132          xActiveTimerList1 and xActiveTimerList2 could be at function scope but that
    133          breaks some kernel aware debuggers, and debuggers that reply on removing the
    134          static qualifier. */

   \                                 In section .bss, align 4
    135          PRIVILEGED_DATA static List_t xActiveTimerList1;
   \                     xActiveTimerList1:
   \   00000000                      DS8 20

   \                                 In section .bss, align 4
    136          PRIVILEGED_DATA static List_t xActiveTimerList2;
   \                     xActiveTimerList2:
   \   00000000                      DS8 20

   \                                 In section .bss, align 4
    137          PRIVILEGED_DATA static List_t *pxCurrentTimerList;
   \                     pxCurrentTimerList:
   \   00000000                      DS8 4

   \                                 In section .bss, align 4
    138          PRIVILEGED_DATA static List_t *pxOverflowTimerList;
   \                     pxOverflowTimerList:
   \   00000000                      DS8 4
    139          
    140          /* A queue that is used to send commands to the timer service task. */

   \                                 In section .bss, align 4
    141          PRIVILEGED_DATA static QueueHandle_t xTimerQueue = NULL;
   \                     xTimerQueue:
   \   00000000                      DS8 4

   \                                 In section .bss, align 4
    142          PRIVILEGED_DATA static TaskHandle_t xTimerTaskHandle = NULL;
   \                     xTimerTaskHandle:
   \   00000000                      DS8 4
    143          
    144          /*lint -restore */
    145          
    146          /*-----------------------------------------------------------*/
    147          
    148          #if( configSUPPORT_STATIC_ALLOCATION == 1 )
    149          
    150          	/* If static allocation is supported then the application must provide the
    151          	following callback function - which enables the application to optionally
    152          	provide the memory that will be used by the timer task as the task's stack
    153          	and TCB. */
    154          	extern void vApplicationGetTimerTaskMemory( StaticTask_t **ppxTimerTaskTCBBuffer, StackType_t **ppxTimerTaskStackBuffer, uint32_t *pulTimerTaskStackSize );
    155          
    156          #endif
    157          
    158          /*
    159           * Initialise the infrastructure used by the timer service task if it has not
    160           * been initialised already.
    161           */
    162          static void prvCheckForValidListAndQueue( void ) PRIVILEGED_FUNCTION;
    163          
    164          /*
    165           * The timer service task (daemon).  Timer functionality is controlled by this
    166           * task.  Other tasks communicate with the timer service task using the
    167           * xTimerQueue queue.
    168           */
    169          static portTASK_FUNCTION_PROTO( prvTimerTask, pvParameters ) PRIVILEGED_FUNCTION;
    170          
    171          /*
    172           * Called by the timer service task to interpret and process a command it
    173           * received on the timer queue.
    174           */
    175          static void prvProcessReceivedCommands( void ) PRIVILEGED_FUNCTION;
    176          
    177          /*
    178           * Insert the timer into either xActiveTimerList1, or xActiveTimerList2,
    179           * depending on if the expire time causes a timer counter overflow.
    180           */
    181          static BaseType_t prvInsertTimerInActiveList( Timer_t * const pxTimer, const TickType_t xNextExpiryTime, const TickType_t xTimeNow, const TickType_t xCommandTime ) PRIVILEGED_FUNCTION;
    182          
    183          /*
    184           * An active timer has reached its expire time.  Reload the timer if it is an
    185           * auto reload timer, then call its callback.
    186           */
    187          static void prvProcessExpiredTimer( const TickType_t xNextExpireTime, const TickType_t xTimeNow ) PRIVILEGED_FUNCTION;
    188          
    189          /*
    190           * The tick count has overflowed.  Switch the timer lists after ensuring the
    191           * current timer list does not still reference some timers.
    192           */
    193          static void prvSwitchTimerLists( void ) PRIVILEGED_FUNCTION;
    194          
    195          /*
    196           * Obtain the current tick count, setting *pxTimerListsWereSwitched to pdTRUE
    197           * if a tick count overflow occurred since prvSampleTimeNow() was last called.
    198           */
    199          static TickType_t prvSampleTimeNow( BaseType_t * const pxTimerListsWereSwitched ) PRIVILEGED_FUNCTION;
    200          
    201          /*
    202           * If the timer list contains any active timers then return the expire time of
    203           * the timer that will expire first and set *pxListWasEmpty to false.  If the
    204           * timer list does not contain any timers then return 0 and set *pxListWasEmpty
    205           * to pdTRUE.
    206           */
    207          static TickType_t prvGetNextExpireTime( BaseType_t * const pxListWasEmpty ) PRIVILEGED_FUNCTION;
    208          
    209          /*
    210           * If a timer has expired, process it.  Otherwise, block the timer service task
    211           * until either a timer does expire or a command is received.
    212           */
    213          static void prvProcessTimerOrBlockTask( const TickType_t xNextExpireTime, BaseType_t xListWasEmpty ) PRIVILEGED_FUNCTION;
    214          
    215          /*
    216           * Called after a Timer_t structure has been allocated either statically or
    217           * dynamically to fill in the structure's members.
    218           */
    219          static void prvInitialiseNewTimer(	const char * const pcTimerName,			/*lint !e971 Unqualified char types are allowed for strings and single characters only. */
    220          									const TickType_t xTimerPeriodInTicks,
    221          									const UBaseType_t uxAutoReload,
    222          									void * const pvTimerID,
    223          									TimerCallbackFunction_t pxCallbackFunction,
    224          									Timer_t *pxNewTimer ) PRIVILEGED_FUNCTION;
    225          /*-----------------------------------------------------------*/
    226          

   \                                 In section .text, align 4, keep-with-next
    227          BaseType_t xTimerCreateTimerTask( void )
    228          {
   \                     xTimerCreateTimerTask: (+1)
   \   00000000   0xB51C             PUSH     {R2-R4,LR}
    229          BaseType_t xReturn = pdFAIL;
   \   00000002   0x2400             MOVS     R4,#+0
    230          
    231          	/* This function is called when the scheduler is started if
    232          	configUSE_TIMERS is set to 1.  Check that the infrastructure used by the
    233          	timer service task has been created/initialised.  If timers have already
    234          	been created then the initialisation will already have been performed. */
    235          	prvCheckForValidListAndQueue();
   \   00000004   0x.... 0x....      BL       prvCheckForValidListAndQueue
    236          
    237          	if( xTimerQueue != NULL )
   \   00000008   0x....             LDR      R0,??DataTable6
   \   0000000A   0x6800             LDR      R0,[R0, #+0]
   \   0000000C   0x2800             CMP      R0,#+0
   \   0000000E   0xD00A             BEQ      ??xTimerCreateTimerTask_0
    238          	{
    239          		#if( configSUPPORT_STATIC_ALLOCATION == 1 )
    240          		{
    241          			StaticTask_t *pxTimerTaskTCBBuffer = NULL;
    242          			StackType_t *pxTimerTaskStackBuffer = NULL;
    243          			uint32_t ulTimerTaskStackSize;
    244          
    245          			vApplicationGetTimerTaskMemory( &pxTimerTaskTCBBuffer, &pxTimerTaskStackBuffer, &ulTimerTaskStackSize );
    246          			xTimerTaskHandle = xTaskCreateStatic(	prvTimerTask,
    247          													configTIMER_SERVICE_TASK_NAME,
    248          													ulTimerTaskStackSize,
    249          													NULL,
    250          													( ( UBaseType_t ) configTIMER_TASK_PRIORITY ) | portPRIVILEGE_BIT,
    251          													pxTimerTaskStackBuffer,
    252          													pxTimerTaskTCBBuffer );
    253          
    254          			if( xTimerTaskHandle != NULL )
    255          			{
    256          				xReturn = pdPASS;
    257          			}
    258          		}
    259          		#else
    260          		{
    261          			xReturn = xTaskCreate(	prvTimerTask,
    262          									configTIMER_SERVICE_TASK_NAME,
    263          									configTIMER_TASK_STACK_DEPTH,
    264          									NULL,
    265          									( ( UBaseType_t ) configTIMER_TASK_PRIORITY ) | portPRIVILEGE_BIT,
    266          									&xTimerTaskHandle );
   \   00000010   0x....             LDR      R0,??DataTable6_1
   \   00000012   0x9001             STR      R0,[SP, #+4]
   \   00000014   0x2002             MOVS     R0,#+2
   \   00000016   0x9000             STR      R0,[SP, #+0]
   \   00000018   0x2300             MOVS     R3,#+0
   \   0000001A   0x2250             MOVS     R2,#+80
   \   0000001C   0x....             LDR      R1,??DataTable6_2
   \   0000001E   0x....             LDR      R0,??DataTable7
   \   00000020   0x.... 0x....      BL       xTaskCreate
   \   00000024   0x0004             MOVS     R4,R0
    267          		}
    268          		#endif /* configSUPPORT_STATIC_ALLOCATION */
    269          	}
    270          	else
    271          	{
    272          		mtCOVERAGE_TEST_MARKER();
    273          	}
    274          
    275          	configASSERT( xReturn );
   \                     ??xTimerCreateTimerTask_0: (+1)
   \   00000026   0x2C00             CMP      R4,#+0
   \   00000028   0xD101             BNE      ??xTimerCreateTimerTask_1
   \   0000002A   0xB672             cpsid i
   \                     ??xTimerCreateTimerTask_2: (+1)
   \   0000002C   0xE7FE             B        ??xTimerCreateTimerTask_2
    276          	return xReturn;
   \                     ??xTimerCreateTimerTask_1: (+1)
   \   0000002E   0x0020             MOVS     R0,R4
   \   00000030   0xBD16             POP      {R1,R2,R4,PC}    ;; return
    277          }
    278          /*-----------------------------------------------------------*/
    279          
    280          #if( configSUPPORT_DYNAMIC_ALLOCATION == 1 )
    281          

   \                                 In section .text, align 2, keep-with-next
    282          	TimerHandle_t xTimerCreate(	const char * const pcTimerName,			/*lint !e971 Unqualified char types are allowed for strings and single characters only. */
    283          								const TickType_t xTimerPeriodInTicks,
    284          								const UBaseType_t uxAutoReload,
    285          								void * const pvTimerID,
    286          								TimerCallbackFunction_t pxCallbackFunction )
    287          	{
   \                     xTimerCreate: (+1)
   \   00000000   0xB5F6             PUSH     {R1,R2,R4-R7,LR}
   \   00000002   0xB083             SUB      SP,SP,#+12
   \   00000004   0x0005             MOVS     R5,R0
   \   00000006   0x001F             MOVS     R7,R3
   \   00000008   0x9C0A             LDR      R4,[SP, #+40]
    288          	Timer_t *pxNewTimer;
    289          
    290          		pxNewTimer = ( Timer_t * ) pvPortMalloc( sizeof( Timer_t ) ); /*lint !e9087 !e9079 All values returned by pvPortMalloc() have at least the alignment required by the MCU's stack, and the first member of Timer_t is always a pointer to the timer's mame. */
   \   0000000A   0x2028             MOVS     R0,#+40
   \   0000000C   0x.... 0x....      BL       pvPortMalloc
   \   00000010   0x0006             MOVS     R6,R0
    291          
    292          		if( pxNewTimer != NULL )
   \   00000012   0x2E00             CMP      R6,#+0
   \   00000014   0xD00A             BEQ      ??xTimerCreate_0
    293          		{
    294          			/* Status is thus far zero as the timer is not created statically
    295          			and has not been started.  The autoreload bit may get set in
    296          			prvInitialiseNewTimer. */
    297          			pxNewTimer->ucStatus = 0x00;
   \   00000016   0x2000             MOVS     R0,#+0
   \   00000018   0x2124             MOVS     R1,#+36
   \   0000001A   0x5470             STRB     R0,[R6, R1]
    298          			prvInitialiseNewTimer( pcTimerName, xTimerPeriodInTicks, uxAutoReload, pvTimerID, pxCallbackFunction, pxNewTimer );
   \   0000001C   0x9601             STR      R6,[SP, #+4]
   \   0000001E   0x9400             STR      R4,[SP, #+0]
   \   00000020   0x003B             MOVS     R3,R7
   \   00000022   0x9A04             LDR      R2,[SP, #+16]
   \   00000024   0x9903             LDR      R1,[SP, #+12]
   \   00000026   0x0028             MOVS     R0,R5
   \   00000028   0x.... 0x....      BL       prvInitialiseNewTimer
    299          		}
    300          
    301          		return pxNewTimer;
   \                     ??xTimerCreate_0: (+1)
   \   0000002C   0x0030             MOVS     R0,R6
   \   0000002E   0xB005             ADD      SP,SP,#+20
   \   00000030   0xBDF0             POP      {R4-R7,PC}       ;; return
    302          	}
    303          
    304          #endif /* configSUPPORT_DYNAMIC_ALLOCATION */
    305          /*-----------------------------------------------------------*/
    306          
    307          #if( configSUPPORT_STATIC_ALLOCATION == 1 )
    308          
    309          	TimerHandle_t xTimerCreateStatic(	const char * const pcTimerName,		/*lint !e971 Unqualified char types are allowed for strings and single characters only. */
    310          										const TickType_t xTimerPeriodInTicks,
    311          										const UBaseType_t uxAutoReload,
    312          										void * const pvTimerID,
    313          										TimerCallbackFunction_t pxCallbackFunction,
    314          										StaticTimer_t *pxTimerBuffer )
    315          	{
    316          	Timer_t *pxNewTimer;
    317          
    318          		#if( configASSERT_DEFINED == 1 )
    319          		{
    320          			/* Sanity check that the size of the structure used to declare a
    321          			variable of type StaticTimer_t equals the size of the real timer
    322          			structure. */
    323          			volatile size_t xSize = sizeof( StaticTimer_t );
    324          			configASSERT( xSize == sizeof( Timer_t ) );
    325          			( void ) xSize; /* Keeps lint quiet when configASSERT() is not defined. */
    326          		}
    327          		#endif /* configASSERT_DEFINED */
    328          
    329          		/* A pointer to a StaticTimer_t structure MUST be provided, use it. */
    330          		configASSERT( pxTimerBuffer );
    331          		pxNewTimer = ( Timer_t * ) pxTimerBuffer; /*lint !e740 !e9087 StaticTimer_t is a pointer to a Timer_t, so guaranteed to be aligned and sized correctly (checked by an assert()), so this is safe. */
    332          
    333          		if( pxNewTimer != NULL )
    334          		{
    335          			/* Timers can be created statically or dynamically so note this
    336          			timer was created statically in case it is later deleted.  The
    337          			autoreload bit may get set in prvInitialiseNewTimer(). */
    338          			pxNewTimer->ucStatus = tmrSTATUS_IS_STATICALLY_ALLOCATED;
    339          
    340          			prvInitialiseNewTimer( pcTimerName, xTimerPeriodInTicks, uxAutoReload, pvTimerID, pxCallbackFunction, pxNewTimer );
    341          		}
    342          
    343          		return pxNewTimer;
    344          	}
    345          
    346          #endif /* configSUPPORT_STATIC_ALLOCATION */
    347          /*-----------------------------------------------------------*/
    348          

   \                                 In section .text, align 4, keep-with-next
    349          static void prvInitialiseNewTimer(	const char * const pcTimerName,			/*lint !e971 Unqualified char types are allowed for strings and single characters only. */
    350          									const TickType_t xTimerPeriodInTicks,
    351          									const UBaseType_t uxAutoReload,
    352          									void * const pvTimerID,
    353          									TimerCallbackFunction_t pxCallbackFunction,
    354          									Timer_t *pxNewTimer )
    355          {
   \                     prvInitialiseNewTimer: (+1)
   \   00000000   0xB5F7             PUSH     {R0-R2,R4-R7,LR}
   \   00000002   0x0004             MOVS     R4,R0
   \   00000004   0x001F             MOVS     R7,R3
   \   00000006   0x9D08             LDR      R5,[SP, #+32]
   \   00000008   0x9E09             LDR      R6,[SP, #+36]
    356          	/* 0 is not a valid value for xTimerPeriodInTicks. */
    357          	configASSERT( ( xTimerPeriodInTicks > 0 ) );
   \   0000000A   0x9801             LDR      R0,[SP, #+4]
   \   0000000C   0x2800             CMP      R0,#+0
   \   0000000E   0xD101             BNE      ??prvInitialiseNewTimer_0
   \   00000010   0xB672             cpsid i
   \                     ??prvInitialiseNewTimer_1: (+1)
   \   00000012   0xE7FE             B        ??prvInitialiseNewTimer_1
    358          
    359          	if( pxNewTimer != NULL )
   \                     ??prvInitialiseNewTimer_0: (+1)
   \   00000014   0x2E00             CMP      R6,#+0
   \   00000016   0xD013             BEQ      ??prvInitialiseNewTimer_2
    360          	{
    361          		/* Ensure the infrastructure used by the timer service task has been
    362          		created/initialised. */
    363          		prvCheckForValidListAndQueue();
   \   00000018   0x.... 0x....      BL       prvCheckForValidListAndQueue
    364          
    365          		/* Initialise the timer structure members using the function
    366          		parameters. */
    367          		pxNewTimer->pcTimerName = pcTimerName;
   \   0000001C   0x6034             STR      R4,[R6, #+0]
    368          		pxNewTimer->xTimerPeriodInTicks = xTimerPeriodInTicks;
   \   0000001E   0x9801             LDR      R0,[SP, #+4]
   \   00000020   0x61B0             STR      R0,[R6, #+24]
    369          		pxNewTimer->pvTimerID = pvTimerID;
   \   00000022   0x61F7             STR      R7,[R6, #+28]
    370          		pxNewTimer->pxCallbackFunction = pxCallbackFunction;
   \   00000024   0x6235             STR      R5,[R6, #+32]
    371          		vListInitialiseItem( &( pxNewTimer->xTimerListItem ) );
   \   00000026   0x0030             MOVS     R0,R6
   \   00000028   0x1D00             ADDS     R0,R0,#+4
   \   0000002A   0x.... 0x....      BL       vListInitialiseItem
    372          		if( uxAutoReload != pdFALSE )
   \   0000002E   0x9802             LDR      R0,[SP, #+8]
   \   00000030   0x2800             CMP      R0,#+0
   \   00000032   0xD005             BEQ      ??prvInitialiseNewTimer_2
    373          		{
    374          			pxNewTimer->ucStatus |= tmrSTATUS_IS_AUTORELOAD;
   \   00000034   0x2024             MOVS     R0,#+36
   \   00000036   0x5C30             LDRB     R0,[R6, R0]
   \   00000038   0x2104             MOVS     R1,#+4
   \   0000003A   0x4301             ORRS     R1,R1,R0
   \   0000003C   0x2024             MOVS     R0,#+36
   \   0000003E   0x5431             STRB     R1,[R6, R0]
    375          		}
    376          		traceTIMER_CREATE( pxNewTimer );
    377          	}
    378          }
   \                     ??prvInitialiseNewTimer_2: (+1)
   \   00000040   0xBDF7             POP      {R0-R2,R4-R7,PC}  ;; return
    379          /*-----------------------------------------------------------*/
    380          

   \                                 In section .text, align 4, keep-with-next
    381          BaseType_t xTimerGenericCommand( TimerHandle_t xTimer, const BaseType_t xCommandID, const TickType_t xOptionalValue, BaseType_t * const pxHigherPriorityTaskWoken, const TickType_t xTicksToWait )
    382          {
   \                     xTimerGenericCommand: (+1)
   \   00000000   0xB5FC             PUSH     {R2-R7,LR}
   \   00000002   0xB083             SUB      SP,SP,#+12
   \   00000004   0x0006             MOVS     R6,R0
   \   00000006   0x000D             MOVS     R5,R1
   \   00000008   0x9F0A             LDR      R7,[SP, #+40]
    383          BaseType_t xReturn = pdFAIL;
   \   0000000A   0x2400             MOVS     R4,#+0
    384          DaemonTaskMessage_t xMessage;
    385          
    386          	configASSERT( xTimer );
   \   0000000C   0x2E00             CMP      R6,#+0
   \   0000000E   0xD101             BNE      ??xTimerGenericCommand_0
   \   00000010   0xB672             cpsid i
   \                     ??xTimerGenericCommand_1: (+1)
   \   00000012   0xE7FE             B        ??xTimerGenericCommand_1
    387          
    388          	/* Send a message to the timer service task to perform a particular action
    389          	on a particular timer definition. */
    390          	if( xTimerQueue != NULL )
   \                     ??xTimerGenericCommand_0: (+1)
   \   00000014   0x....             LDR      R0,??DataTable6
   \   00000016   0x6800             LDR      R0,[R0, #+0]
   \   00000018   0x2800             CMP      R0,#+0
   \   0000001A   0xD023             BEQ      ??xTimerGenericCommand_2
    391          	{
    392          		/* Send a command to the timer service task to start the xTimer timer. */
    393          		xMessage.xMessageID = xCommandID;
   \   0000001C   0x9500             STR      R5,[SP, #+0]
    394          		xMessage.u.xTimerParameters.xMessageValue = xOptionalValue;
   \   0000001E   0x9803             LDR      R0,[SP, #+12]
   \   00000020   0x9001             STR      R0,[SP, #+4]
    395          		xMessage.u.xTimerParameters.pxTimer = xTimer;
   \   00000022   0x9602             STR      R6,[SP, #+8]
    396          
    397          		if( xCommandID < tmrFIRST_FROM_ISR_COMMAND )
   \   00000024   0x2D06             CMP      R5,#+6
   \   00000026   0xDA15             BGE      ??xTimerGenericCommand_3
    398          		{
    399          			if( xTaskGetSchedulerState() == taskSCHEDULER_RUNNING )
   \   00000028   0x.... 0x....      BL       xTaskGetSchedulerState
   \   0000002C   0x2802             CMP      R0,#+2
   \   0000002E   0xD108             BNE      ??xTimerGenericCommand_4
    400          			{
    401          				xReturn = xQueueSendToBack( xTimerQueue, &xMessage, xTicksToWait );
   \   00000030   0x2300             MOVS     R3,#+0
   \   00000032   0x003A             MOVS     R2,R7
   \   00000034   0x4669             MOV      R1,SP
   \   00000036   0x....             LDR      R0,??DataTable6
   \   00000038   0x6800             LDR      R0,[R0, #+0]
   \   0000003A   0x.... 0x....      BL       xQueueGenericSend
   \   0000003E   0x0004             MOVS     R4,R0
   \   00000040   0xE010             B        ??xTimerGenericCommand_2
    402          			}
    403          			else
    404          			{
    405          				xReturn = xQueueSendToBack( xTimerQueue, &xMessage, tmrNO_DELAY );
   \                     ??xTimerGenericCommand_4: (+1)
   \   00000042   0x2300             MOVS     R3,#+0
   \   00000044   0x2200             MOVS     R2,#+0
   \   00000046   0x4669             MOV      R1,SP
   \   00000048   0x....             LDR      R0,??DataTable6
   \   0000004A   0x6800             LDR      R0,[R0, #+0]
   \   0000004C   0x.... 0x....      BL       xQueueGenericSend
   \   00000050   0x0004             MOVS     R4,R0
   \   00000052   0xE007             B        ??xTimerGenericCommand_2
    406          			}
    407          		}
    408          		else
    409          		{
    410          			xReturn = xQueueSendToBackFromISR( xTimerQueue, &xMessage, pxHigherPriorityTaskWoken );
   \                     ??xTimerGenericCommand_3: (+1)
   \   00000054   0x2300             MOVS     R3,#+0
   \   00000056   0x9A04             LDR      R2,[SP, #+16]
   \   00000058   0x4669             MOV      R1,SP
   \   0000005A   0x....             LDR      R0,??DataTable6
   \   0000005C   0x6800             LDR      R0,[R0, #+0]
   \   0000005E   0x.... 0x....      BL       xQueueGenericSendFromISR
   \   00000062   0x0004             MOVS     R4,R0
    411          		}
    412          
    413          		traceTIMER_COMMAND_SEND( xTimer, xCommandID, xOptionalValue, xReturn );
    414          	}
    415          	else
    416          	{
    417          		mtCOVERAGE_TEST_MARKER();
    418          	}
    419          
    420          	return xReturn;
   \                     ??xTimerGenericCommand_2: (+1)
   \   00000064   0x0020             MOVS     R0,R4
   \   00000066   0xB005             ADD      SP,SP,#+20
   \   00000068   0xBDF0             POP      {R4-R7,PC}       ;; return
    421          }
    422          /*-----------------------------------------------------------*/
    423          

   \                                 In section .text, align 4, keep-with-next
    424          TaskHandle_t xTimerGetTimerDaemonTaskHandle( void )
    425          {
   \                     xTimerGetTimerDaemonTaskHandle: (+1)
   \   00000000   0xB500             PUSH     {LR}
    426          	/* If xTimerGetTimerDaemonTaskHandle() is called before the scheduler has been
    427          	started, then xTimerTaskHandle will be NULL. */
    428          	configASSERT( ( xTimerTaskHandle != NULL ) );
   \   00000002   0x....             LDR      R0,??DataTable6_1
   \   00000004   0x6800             LDR      R0,[R0, #+0]
   \   00000006   0x2800             CMP      R0,#+0
   \   00000008   0xD101             BNE      ??xTimerGetTimerDaemonTaskHandle_0
   \   0000000A   0xB672             cpsid i
   \                     ??xTimerGetTimerDaemonTaskHandle_1: (+1)
   \   0000000C   0xE7FE             B        ??xTimerGetTimerDaemonTaskHandle_1
    429          	return xTimerTaskHandle;
   \                     ??xTimerGetTimerDaemonTaskHandle_0: (+1)
   \   0000000E   0x....             LDR      R0,??DataTable6_1
   \   00000010   0x6800             LDR      R0,[R0, #+0]
   \   00000012   0xBD00             POP      {PC}             ;; return
    430          }
    431          /*-----------------------------------------------------------*/
    432          

   \                                 In section .text, align 4, keep-with-next
    433          TickType_t xTimerGetPeriod( TimerHandle_t xTimer )
    434          {
   \                     xTimerGetPeriod: (+1)
   \   00000000   0xB500             PUSH     {LR}
   \   00000002   0x0001             MOVS     R1,R0
    435          Timer_t *pxTimer = xTimer;
   \   00000004   0x0008             MOVS     R0,R1
    436          
    437          	configASSERT( xTimer );
   \   00000006   0x2900             CMP      R1,#+0
   \   00000008   0xD101             BNE      ??xTimerGetPeriod_0
   \   0000000A   0xB672             cpsid i
   \                     ??xTimerGetPeriod_1: (+1)
   \   0000000C   0xE7FE             B        ??xTimerGetPeriod_1
    438          	return pxTimer->xTimerPeriodInTicks;
   \                     ??xTimerGetPeriod_0: (+1)
   \   0000000E   0x6980             LDR      R0,[R0, #+24]
   \   00000010   0xBD00             POP      {PC}             ;; return
    439          }
    440          /*-----------------------------------------------------------*/
    441          

   \                                 In section .text, align 4, keep-with-next
    442          void vTimerSetReloadMode( TimerHandle_t xTimer, const UBaseType_t uxAutoReload )
    443          {
   \                     vTimerSetReloadMode: (+1)
   \   00000000   0xB570             PUSH     {R4-R6,LR}
   \   00000002   0x0005             MOVS     R5,R0
   \   00000004   0x000C             MOVS     R4,R1
    444          Timer_t * pxTimer =  xTimer;
   \   00000006   0x002E             MOVS     R6,R5
    445          
    446          	configASSERT( xTimer );
   \   00000008   0x2D00             CMP      R5,#+0
   \   0000000A   0xD101             BNE      ??vTimerSetReloadMode_0
   \   0000000C   0xB672             cpsid i
   \                     ??vTimerSetReloadMode_1: (+1)
   \   0000000E   0xE7FE             B        ??vTimerSetReloadMode_1
    447          	taskENTER_CRITICAL();
   \                     ??vTimerSetReloadMode_0: (+1)
   \   00000010   0x.... 0x....      BL       vPortEnterCritical
    448          	{
    449          		if( uxAutoReload != pdFALSE )
   \   00000014   0x2C00             CMP      R4,#+0
   \   00000016   0xD006             BEQ      ??vTimerSetReloadMode_2
    450          		{
    451          			pxTimer->ucStatus |= tmrSTATUS_IS_AUTORELOAD;
   \   00000018   0x2024             MOVS     R0,#+36
   \   0000001A   0x5C30             LDRB     R0,[R6, R0]
   \   0000001C   0x2104             MOVS     R1,#+4
   \   0000001E   0x4301             ORRS     R1,R1,R0
   \   00000020   0x2024             MOVS     R0,#+36
   \   00000022   0x5431             STRB     R1,[R6, R0]
   \   00000024   0xE005             B        ??vTimerSetReloadMode_3
    452          		}
    453          		else
    454          		{
    455          			pxTimer->ucStatus &= ~tmrSTATUS_IS_AUTORELOAD;
   \                     ??vTimerSetReloadMode_2: (+1)
   \   00000026   0x2024             MOVS     R0,#+36
   \   00000028   0x5C30             LDRB     R0,[R6, R0]
   \   0000002A   0x21FB             MOVS     R1,#+251
   \   0000002C   0x4001             ANDS     R1,R1,R0
   \   0000002E   0x2024             MOVS     R0,#+36
   \   00000030   0x5431             STRB     R1,[R6, R0]
    456          		}
    457          	}
    458          	taskEXIT_CRITICAL();
   \                     ??vTimerSetReloadMode_3: (+1)
   \   00000032   0x.... 0x....      BL       vPortExitCritical
    459          }
   \   00000036   0xBD70             POP      {R4-R6,PC}       ;; return
    460          /*-----------------------------------------------------------*/
    461          

   \                                 In section .text, align 4, keep-with-next
    462          TickType_t xTimerGetExpiryTime( TimerHandle_t xTimer )
    463          {
   \                     xTimerGetExpiryTime: (+1)
   \   00000000   0xB500             PUSH     {LR}
   \   00000002   0x0001             MOVS     R1,R0
    464          Timer_t * pxTimer =  xTimer;
   \   00000004   0x000A             MOVS     R2,R1
    465          TickType_t xReturn;
    466          
    467          	configASSERT( xTimer );
   \   00000006   0x2900             CMP      R1,#+0
   \   00000008   0xD101             BNE      ??xTimerGetExpiryTime_0
   \   0000000A   0xB672             cpsid i
   \                     ??xTimerGetExpiryTime_1: (+1)
   \   0000000C   0xE7FE             B        ??xTimerGetExpiryTime_1
    468          	xReturn = listGET_LIST_ITEM_VALUE( &( pxTimer->xTimerListItem ) );
   \                     ??xTimerGetExpiryTime_0: (+1)
   \   0000000E   0x6853             LDR      R3,[R2, #+4]
   \   00000010   0x0018             MOVS     R0,R3
    469          	return xReturn;
   \   00000012   0xBD00             POP      {PC}             ;; return
    470          }
    471          /*-----------------------------------------------------------*/
    472          

   \                                 In section .text, align 4, keep-with-next
    473          const char * pcTimerGetName( TimerHandle_t xTimer ) /*lint !e971 Unqualified char types are allowed for strings and single characters only. */
    474          {
   \                     pcTimerGetName: (+1)
   \   00000000   0xB500             PUSH     {LR}
   \   00000002   0x0001             MOVS     R1,R0
    475          Timer_t *pxTimer = xTimer;
   \   00000004   0x0008             MOVS     R0,R1
    476          
    477          	configASSERT( xTimer );
   \   00000006   0x2900             CMP      R1,#+0
   \   00000008   0xD101             BNE      ??pcTimerGetName_0
   \   0000000A   0xB672             cpsid i
   \                     ??pcTimerGetName_1: (+1)
   \   0000000C   0xE7FE             B        ??pcTimerGetName_1
    478          	return pxTimer->pcTimerName;
   \                     ??pcTimerGetName_0: (+1)
   \   0000000E   0x6800             LDR      R0,[R0, #+0]
   \   00000010   0xBD00             POP      {PC}             ;; return
    479          }
    480          /*-----------------------------------------------------------*/
    481          

   \                                 In section .text, align 4, keep-with-next
    482          static void prvProcessExpiredTimer( const TickType_t xNextExpireTime, const TickType_t xTimeNow )
    483          {
   \                     prvProcessExpiredTimer: (+1)
   \   00000000   0xB5F8             PUSH     {R3-R7,LR}
   \   00000002   0x0005             MOVS     R5,R0
   \   00000004   0x000E             MOVS     R6,R1
    484          BaseType_t xResult;
    485          Timer_t * const pxTimer = ( Timer_t * ) listGET_OWNER_OF_HEAD_ENTRY( pxCurrentTimerList ); /*lint !e9087 !e9079 void * is used as this macro is used with tasks and co-routines too.  Alignment is known to be fine as the type of the pointer stored and retrieved is the same. */
   \   00000006   0x....             LDR      R0,??DataTable8
   \   00000008   0x6800             LDR      R0,[R0, #+0]
   \   0000000A   0x68C0             LDR      R0,[R0, #+12]
   \   0000000C   0x68C4             LDR      R4,[R0, #+12]
    486          
    487          	/* Remove the timer from the list of active timers.  A check has already
    488          	been performed to ensure the list is not empty. */
    489          	( void ) uxListRemove( &( pxTimer->xTimerListItem ) );
   \   0000000E   0x0020             MOVS     R0,R4
   \   00000010   0x1D00             ADDS     R0,R0,#+4
   \   00000012   0x.... 0x....      BL       uxListRemove
    490          	traceTIMER_EXPIRED( pxTimer );
    491          
    492          	/* If the timer is an auto reload timer then calculate the next
    493          	expiry time and re-insert the timer in the list of active timers. */
    494          	if( ( pxTimer->ucStatus & tmrSTATUS_IS_AUTORELOAD ) != 0 )
   \   00000016   0x2024             MOVS     R0,#+36
   \   00000018   0x5C20             LDRB     R0,[R4, R0]
   \   0000001A   0x0740             LSLS     R0,R0,#+29
   \   0000001C   0xD516             BPL      ??prvProcessExpiredTimer_0
    495          	{
    496          		/* The timer is inserted into a list using a time relative to anything
    497          		other than the current time.  It will therefore be inserted into the
    498          		correct list relative to the time this task thinks it is now. */
    499          		if( prvInsertTimerInActiveList( pxTimer, ( xNextExpireTime + pxTimer->xTimerPeriodInTicks ), xTimeNow, xNextExpireTime ) != pdFALSE )
   \   0000001E   0x002B             MOVS     R3,R5
   \   00000020   0x0032             MOVS     R2,R6
   \   00000022   0x69A0             LDR      R0,[R4, #+24]
   \   00000024   0x1829             ADDS     R1,R5,R0
   \   00000026   0x0020             MOVS     R0,R4
   \   00000028   0x.... 0x....      BL       prvInsertTimerInActiveList
   \   0000002C   0x2800             CMP      R0,#+0
   \   0000002E   0xD013             BEQ      ??prvProcessExpiredTimer_1
    500          		{
    501          			/* The timer expired before it was added to the active timer
    502          			list.  Reload it now.  */
    503          			xResult = xTimerGenericCommand( pxTimer, tmrCOMMAND_START_DONT_TRACE, xNextExpireTime, NULL, tmrNO_DELAY );
   \   00000030   0x2000             MOVS     R0,#+0
   \   00000032   0x9000             STR      R0,[SP, #+0]
   \   00000034   0x2300             MOVS     R3,#+0
   \   00000036   0x002A             MOVS     R2,R5
   \   00000038   0x2100             MOVS     R1,#+0
   \   0000003A   0x0020             MOVS     R0,R4
   \   0000003C   0x.... 0x....      BL       xTimerGenericCommand
   \   00000040   0x0007             MOVS     R7,R0
    504          			configASSERT( xResult );
   \   00000042   0x2F00             CMP      R7,#+0
   \   00000044   0xD101             BNE      ??prvProcessExpiredTimer_2
   \   00000046   0xB672             cpsid i
   \                     ??prvProcessExpiredTimer_3: (+1)
   \   00000048   0xE7FE             B        ??prvProcessExpiredTimer_3
    505          			( void ) xResult;
   \                     ??prvProcessExpiredTimer_2: (+1)
   \   0000004A   0xE005             B        ??prvProcessExpiredTimer_1
    506          		}
    507          		else
    508          		{
    509          			mtCOVERAGE_TEST_MARKER();
    510          		}
    511          	}
    512          	else
    513          	{
    514          		pxTimer->ucStatus &= ~tmrSTATUS_IS_ACTIVE;
   \                     ??prvProcessExpiredTimer_0: (+1)
   \   0000004C   0x2024             MOVS     R0,#+36
   \   0000004E   0x5C20             LDRB     R0,[R4, R0]
   \   00000050   0x21FE             MOVS     R1,#+254
   \   00000052   0x4001             ANDS     R1,R1,R0
   \   00000054   0x2024             MOVS     R0,#+36
   \   00000056   0x5421             STRB     R1,[R4, R0]
    515          		mtCOVERAGE_TEST_MARKER();
    516          	}
    517          
    518          	/* Call the timer callback. */
    519          	pxTimer->pxCallbackFunction( ( TimerHandle_t ) pxTimer );
   \                     ??prvProcessExpiredTimer_1: (+1)
   \   00000058   0x0020             MOVS     R0,R4
   \   0000005A   0x6A21             LDR      R1,[R4, #+32]
   \   0000005C   0x4788             BLX      R1
    520          }
   \   0000005E   0xBDF1             POP      {R0,R4-R7,PC}    ;; return
    521          /*-----------------------------------------------------------*/
    522          

   \                                 In section .text, align 2, keep-with-next
    523          static portTASK_FUNCTION( prvTimerTask, pvParameters )
    524          {
   \                     prvTimerTask: (+1)
   \   00000000   0xB538             PUSH     {R3-R5,LR}
   \   00000002   0x0004             MOVS     R4,R0
    525          TickType_t xNextExpireTime;
    526          BaseType_t xListWasEmpty;
    527          
    528          	/* Just to avoid compiler warnings. */
    529          	( void ) pvParameters;
    530          
    531          	#if( configUSE_DAEMON_TASK_STARTUP_HOOK == 1 )
    532          	{
    533          		extern void vApplicationDaemonTaskStartupHook( void );
    534          
    535          		/* Allow the application writer to execute some code in the context of
    536          		this task at the point the task starts executing.  This is useful if the
    537          		application includes initialisation code that would benefit from
    538          		executing after the scheduler has been started. */
    539          		vApplicationDaemonTaskStartupHook();
    540          	}
    541          	#endif /* configUSE_DAEMON_TASK_STARTUP_HOOK */
    542          
    543          	for( ;; )
    544          	{
    545          		/* Query the timers list to see if it contains any timers, and if so,
    546          		obtain the time at which the next timer will expire. */
    547          		xNextExpireTime = prvGetNextExpireTime( &xListWasEmpty );
   \                     ??prvTimerTask_0: (+1)
   \   00000004   0x4668             MOV      R0,SP
   \   00000006   0x.... 0x....      BL       prvGetNextExpireTime
   \   0000000A   0x0005             MOVS     R5,R0
    548          
    549          		/* If a timer has expired, process it.  Otherwise, block this task
    550          		until either a timer does expire, or a command is received. */
    551          		prvProcessTimerOrBlockTask( xNextExpireTime, xListWasEmpty );
   \   0000000C   0x9900             LDR      R1,[SP, #+0]
   \   0000000E   0x0028             MOVS     R0,R5
   \   00000010   0x.... 0x....      BL       prvProcessTimerOrBlockTask
    552          
    553          		/* Empty the command queue. */
    554          		prvProcessReceivedCommands();
   \   00000014   0x.... 0x....      BL       prvProcessReceivedCommands
   \   00000018   0xE7F4             B        ??prvTimerTask_0
    555          	}
    556          }
    557          /*-----------------------------------------------------------*/
    558          

   \                                 In section .text, align 2, keep-with-next
    559          static void prvProcessTimerOrBlockTask( const TickType_t xNextExpireTime, BaseType_t xListWasEmpty )
    560          {
   \                     prvProcessTimerOrBlockTask: (+1)
   \   00000000   0xB570             PUSH     {R4-R6,LR}
   \   00000002   0xB082             SUB      SP,SP,#+8
   \   00000004   0x0004             MOVS     R4,R0
   \   00000006   0x000D             MOVS     R5,R1
    561          TickType_t xTimeNow;
    562          BaseType_t xTimerListsWereSwitched;
    563          
    564          	vTaskSuspendAll();
   \   00000008   0x.... 0x....      BL       vTaskSuspendAll
    565          	{
    566          		/* Obtain the time now to make an assessment as to whether the timer
    567          		has expired or not.  If obtaining the time causes the lists to switch
    568          		then don't process this timer as any timers that remained in the list
    569          		when the lists were switched will have been processed within the
    570          		prvSampleTimeNow() function. */
    571          		xTimeNow = prvSampleTimeNow( &xTimerListsWereSwitched );
   \   0000000C   0x4668             MOV      R0,SP
   \   0000000E   0x.... 0x....      BL       prvSampleTimeNow
   \   00000012   0x0006             MOVS     R6,R0
    572          		if( xTimerListsWereSwitched == pdFALSE )
   \   00000014   0x9800             LDR      R0,[SP, #+0]
   \   00000016   0x2800             CMP      R0,#+0
   \   00000018   0xD121             BNE      ??prvProcessTimerOrBlockTask_0
    573          		{
    574          			/* The tick count has not overflowed, has the timer expired? */
    575          			if( ( xListWasEmpty == pdFALSE ) && ( xNextExpireTime <= xTimeNow ) )
   \   0000001A   0x2D00             CMP      R5,#+0
   \   0000001C   0xD108             BNE      ??prvProcessTimerOrBlockTask_1
   \   0000001E   0x42A6             CMP      R6,R4
   \   00000020   0xD306             BCC      ??prvProcessTimerOrBlockTask_1
    576          			{
    577          				( void ) xTaskResumeAll();
   \   00000022   0x.... 0x....      BL       xTaskResumeAll
    578          				prvProcessExpiredTimer( xNextExpireTime, xTimeNow );
   \   00000026   0x0031             MOVS     R1,R6
   \   00000028   0x0020             MOVS     R0,R4
   \   0000002A   0x.... 0x....      BL       prvProcessExpiredTimer
   \   0000002E   0xE018             B        ??prvProcessTimerOrBlockTask_2
    579          			}
    580          			else
    581          			{
    582          				/* The tick count has not overflowed, and the next expire
    583          				time has not been reached yet.  This task should therefore
    584          				block to wait for the next expire time or a command to be
    585          				received - whichever comes first.  The following line cannot
    586          				be reached unless xNextExpireTime > xTimeNow, except in the
    587          				case when the current timer list is empty. */
    588          				if( xListWasEmpty != pdFALSE )
   \                     ??prvProcessTimerOrBlockTask_1: (+1)
   \   00000030   0x2D00             CMP      R5,#+0
   \   00000032   0xD007             BEQ      ??prvProcessTimerOrBlockTask_3
    589          				{
    590          					/* The current timer list is empty - is the overflow list
    591          					also empty? */
    592          					xListWasEmpty = listLIST_IS_EMPTY( pxOverflowTimerList );
   \   00000034   0x....             LDR      R0,??DataTable10
   \   00000036   0x6800             LDR      R0,[R0, #+0]
   \   00000038   0x6800             LDR      R0,[R0, #+0]
   \   0000003A   0x2800             CMP      R0,#+0
   \   0000003C   0xD101             BNE      ??prvProcessTimerOrBlockTask_4
   \   0000003E   0x2501             MOVS     R5,#+1
   \   00000040   0xE000             B        ??prvProcessTimerOrBlockTask_3
   \                     ??prvProcessTimerOrBlockTask_4: (+1)
   \   00000042   0x2500             MOVS     R5,#+0
    593          				}
    594          
    595          				vQueueWaitForMessageRestricted( xTimerQueue, ( xNextExpireTime - xTimeNow ), xListWasEmpty );
   \                     ??prvProcessTimerOrBlockTask_3: (+1)
   \   00000044   0x002A             MOVS     R2,R5
   \   00000046   0x1BA1             SUBS     R1,R4,R6
   \   00000048   0x....             LDR      R0,??DataTable6
   \   0000004A   0x6800             LDR      R0,[R0, #+0]
   \   0000004C   0x.... 0x....      BL       vQueueWaitForMessageRestricted
    596          
    597          				if( xTaskResumeAll() == pdFALSE )
   \   00000050   0x.... 0x....      BL       xTaskResumeAll
   \   00000054   0x2800             CMP      R0,#+0
   \   00000056   0xD104             BNE      ??prvProcessTimerOrBlockTask_2
    598          				{
    599          					/* Yield to wait for either a command to arrive, or the
    600          					block time to expire.  If a command arrived between the
    601          					critical section being exited and this yield then the yield
    602          					will not cause the task to block. */
    603          					portYIELD_WITHIN_API();
   \   00000058   0x.... 0x....      BL       vPortYield
   \   0000005C   0xE001             B        ??prvProcessTimerOrBlockTask_2
    604          				}
    605          				else
    606          				{
    607          					mtCOVERAGE_TEST_MARKER();
    608          				}
    609          			}
    610          		}
    611          		else
    612          		{
    613          			( void ) xTaskResumeAll();
   \                     ??prvProcessTimerOrBlockTask_0: (+1)
   \   0000005E   0x.... 0x....      BL       xTaskResumeAll
    614          		}
    615          	}
    616          }
   \                     ??prvProcessTimerOrBlockTask_2: (+1)
   \   00000062   0xBD73             POP      {R0,R1,R4-R6,PC}  ;; return
    617          /*-----------------------------------------------------------*/
    618          

   \                                 In section .text, align 2, keep-with-next
    619          static TickType_t prvGetNextExpireTime( BaseType_t * const pxListWasEmpty )
    620          {
   \                     prvGetNextExpireTime: (+1)
   \   00000000   0xB500             PUSH     {LR}
   \   00000002   0x0001             MOVS     R1,R0
    621          TickType_t xNextExpireTime;
    622          
    623          	/* Timers are listed in expiry time order, with the head of the list
    624          	referencing the task that will expire first.  Obtain the time at which
    625          	the timer with the nearest expiry time will expire.  If there are no
    626          	active timers then just set the next expire time to 0.  That will cause
    627          	this task to unblock when the tick count overflows, at which point the
    628          	timer lists will be switched and the next expiry time can be
    629          	re-assessed.  */
    630          	*pxListWasEmpty = listLIST_IS_EMPTY( pxCurrentTimerList );
   \   00000004   0x....             LDR      R2,??DataTable8
   \   00000006   0x6812             LDR      R2,[R2, #+0]
   \   00000008   0x6812             LDR      R2,[R2, #+0]
   \   0000000A   0x2A00             CMP      R2,#+0
   \   0000000C   0xD101             BNE      ??prvGetNextExpireTime_0
   \   0000000E   0x2201             MOVS     R2,#+1
   \   00000010   0xE000             B        ??prvGetNextExpireTime_1
   \                     ??prvGetNextExpireTime_0: (+1)
   \   00000012   0x2200             MOVS     R2,#+0
   \                     ??prvGetNextExpireTime_1: (+1)
   \   00000014   0x600A             STR      R2,[R1, #+0]
    631          	if( *pxListWasEmpty == pdFALSE )
   \   00000016   0x680A             LDR      R2,[R1, #+0]
   \   00000018   0x2A00             CMP      R2,#+0
   \   0000001A   0xD105             BNE      ??prvGetNextExpireTime_2
    632          	{
    633          		xNextExpireTime = listGET_ITEM_VALUE_OF_HEAD_ENTRY( pxCurrentTimerList );
   \   0000001C   0x....             LDR      R2,??DataTable8
   \   0000001E   0x6812             LDR      R2,[R2, #+0]
   \   00000020   0x68D2             LDR      R2,[R2, #+12]
   \   00000022   0x6812             LDR      R2,[R2, #+0]
   \   00000024   0x0010             MOVS     R0,R2
   \   00000026   0xE001             B        ??prvGetNextExpireTime_3
    634          	}
    635          	else
    636          	{
    637          		/* Ensure the task unblocks when the tick count rolls over. */
    638          		xNextExpireTime = ( TickType_t ) 0U;
   \                     ??prvGetNextExpireTime_2: (+1)
   \   00000028   0x2200             MOVS     R2,#+0
   \   0000002A   0x0010             MOVS     R0,R2
    639          	}
    640          
    641          	return xNextExpireTime;
   \                     ??prvGetNextExpireTime_3: (+1)
   \   0000002C   0xBD00             POP      {PC}             ;; return
    642          }
    643          /*-----------------------------------------------------------*/
    644          

   \                                 In section .text, align 2, keep-with-next
    645          static TickType_t prvSampleTimeNow( BaseType_t * const pxTimerListsWereSwitched )
    646          {
   \                     prvSampleTimeNow: (+1)
   \   00000000   0xB538             PUSH     {R3-R5,LR}
   \   00000002   0x0004             MOVS     R4,R0
    647          TickType_t xTimeNow;
    648          PRIVILEGED_DATA static TickType_t xLastTime = ( TickType_t ) 0U; /*lint !e956 Variable is only accessible to one task. */
    649          
    650          	xTimeNow = xTaskGetTickCount();
   \   00000004   0x.... 0x....      BL       xTaskGetTickCount
   \   00000008   0x0005             MOVS     R5,R0
    651          
    652          	if( xTimeNow < xLastTime )
   \   0000000A   0x....             LDR      R0,??DataTable10_1
   \   0000000C   0x6800             LDR      R0,[R0, #+0]
   \   0000000E   0x4285             CMP      R5,R0
   \   00000010   0xD204             BCS      ??prvSampleTimeNow_0
    653          	{
    654          		prvSwitchTimerLists();
   \   00000012   0x.... 0x....      BL       prvSwitchTimerLists
    655          		*pxTimerListsWereSwitched = pdTRUE;
   \   00000016   0x2001             MOVS     R0,#+1
   \   00000018   0x6020             STR      R0,[R4, #+0]
   \   0000001A   0xE001             B        ??prvSampleTimeNow_1
    656          	}
    657          	else
    658          	{
    659          		*pxTimerListsWereSwitched = pdFALSE;
   \                     ??prvSampleTimeNow_0: (+1)
   \   0000001C   0x2000             MOVS     R0,#+0
   \   0000001E   0x6020             STR      R0,[R4, #+0]
    660          	}
    661          
    662          	xLastTime = xTimeNow;
   \                     ??prvSampleTimeNow_1: (+1)
   \   00000020   0x....             LDR      R0,??DataTable10_1
   \   00000022   0x6005             STR      R5,[R0, #+0]
    663          
    664          	return xTimeNow;
   \   00000024   0x0028             MOVS     R0,R5
   \   00000026   0xBD32             POP      {R1,R4,R5,PC}    ;; return
    665          }

   \                                 In section .bss, align 4
   \                     ??xLastTime:
   \   00000000                      DS8 4
    666          /*-----------------------------------------------------------*/
    667          

   \                                 In section .text, align 2, keep-with-next
    668          static BaseType_t prvInsertTimerInActiveList( Timer_t * const pxTimer, const TickType_t xNextExpiryTime, const TickType_t xTimeNow, const TickType_t xCommandTime )
    669          {
   \                     prvInsertTimerInActiveList: (+1)
   \   00000000   0xB5F4             PUSH     {R2,R4-R7,LR}
   \   00000002   0x0004             MOVS     R4,R0
   \   00000004   0x000E             MOVS     R6,R1
   \   00000006   0x001F             MOVS     R7,R3
    670          BaseType_t xProcessTimerNow = pdFALSE;
   \   00000008   0x2500             MOVS     R5,#+0
    671          
    672          	listSET_LIST_ITEM_VALUE( &( pxTimer->xTimerListItem ), xNextExpiryTime );
   \   0000000A   0x6066             STR      R6,[R4, #+4]
    673          	listSET_LIST_ITEM_OWNER( &( pxTimer->xTimerListItem ), pxTimer );
   \   0000000C   0x6124             STR      R4,[R4, #+16]
    674          
    675          	if( xNextExpiryTime <= xTimeNow )
   \   0000000E   0x9800             LDR      R0,[SP, #+0]
   \   00000010   0x42B0             CMP      R0,R6
   \   00000012   0xD30E             BCC      ??prvInsertTimerInActiveList_0
    676          	{
    677          		/* Has the expiry time elapsed between the command to start/reset a
    678          		timer was issued, and the time the command was processed? */
    679          		if( ( ( TickType_t ) ( xTimeNow - xCommandTime ) ) >= pxTimer->xTimerPeriodInTicks ) /*lint !e961 MISRA exception as the casts are only redundant for some ports. */
   \   00000014   0x9800             LDR      R0,[SP, #+0]
   \   00000016   0x1BC0             SUBS     R0,R0,R7
   \   00000018   0x69A1             LDR      R1,[R4, #+24]
   \   0000001A   0x4288             CMP      R0,R1
   \   0000001C   0xD302             BCC      ??prvInsertTimerInActiveList_1
    680          		{
    681          			/* The time between a command being issued and the command being
    682          			processed actually exceeds the timers period.  */
    683          			xProcessTimerNow = pdTRUE;
   \   0000001E   0x2001             MOVS     R0,#+1
   \   00000020   0x0005             MOVS     R5,R0
   \   00000022   0xE014             B        ??prvInsertTimerInActiveList_2
    684          		}
    685          		else
    686          		{
    687          			vListInsert( pxOverflowTimerList, &( pxTimer->xTimerListItem ) );
   \                     ??prvInsertTimerInActiveList_1: (+1)
   \   00000024   0x0021             MOVS     R1,R4
   \   00000026   0x1D09             ADDS     R1,R1,#+4
   \   00000028   0x....             LDR      R0,??DataTable10
   \   0000002A   0x6800             LDR      R0,[R0, #+0]
   \   0000002C   0x.... 0x....      BL       vListInsert
   \   00000030   0xE00D             B        ??prvInsertTimerInActiveList_2
    688          		}
    689          	}
    690          	else
    691          	{
    692          		if( ( xTimeNow < xCommandTime ) && ( xNextExpiryTime >= xCommandTime ) )
   \                     ??prvInsertTimerInActiveList_0: (+1)
   \   00000032   0x9800             LDR      R0,[SP, #+0]
   \   00000034   0x42B8             CMP      R0,R7
   \   00000036   0xD204             BCS      ??prvInsertTimerInActiveList_3
   \   00000038   0x42BE             CMP      R6,R7
   \   0000003A   0xD302             BCC      ??prvInsertTimerInActiveList_3
    693          		{
    694          			/* If, since the command was issued, the tick count has overflowed
    695          			but the expiry time has not, then the timer must have already passed
    696          			its expiry time and should be processed immediately. */
    697          			xProcessTimerNow = pdTRUE;
   \   0000003C   0x2001             MOVS     R0,#+1
   \   0000003E   0x0005             MOVS     R5,R0
   \   00000040   0xE005             B        ??prvInsertTimerInActiveList_2
    698          		}
    699          		else
    700          		{
    701          			vListInsert( pxCurrentTimerList, &( pxTimer->xTimerListItem ) );
   \                     ??prvInsertTimerInActiveList_3: (+1)
   \   00000042   0x0021             MOVS     R1,R4
   \   00000044   0x1D09             ADDS     R1,R1,#+4
   \   00000046   0x....             LDR      R0,??DataTable8
   \   00000048   0x6800             LDR      R0,[R0, #+0]
   \   0000004A   0x.... 0x....      BL       vListInsert
    702          		}
    703          	}
    704          
    705          	return xProcessTimerNow;
   \                     ??prvInsertTimerInActiveList_2: (+1)
   \   0000004E   0x0028             MOVS     R0,R5
   \   00000050   0xBDF2             POP      {R1,R4-R7,PC}    ;; return
    706          }
    707          /*-----------------------------------------------------------*/
    708          

   \                                 In section .text, align 4, keep-with-next
    709          static void	prvProcessReceivedCommands( void )
    710          {
   \                     prvProcessReceivedCommands: (+1)
   \   00000000   0xB570             PUSH     {R4-R6,LR}
   \   00000002   0xB086             SUB      SP,SP,#+24
    711          DaemonTaskMessage_t xMessage;
    712          Timer_t *pxTimer;
    713          BaseType_t xTimerListsWereSwitched, xResult;
    714          TickType_t xTimeNow;
    715          
    716          	while( xQueueReceive( xTimerQueue, &xMessage, tmrNO_DELAY ) != pdFAIL ) /*lint !e603 xMessage does not have to be initialised as it is passed out, not in, and it is not used unless xQueueReceive() returns pdTRUE. */
   \                     ??prvProcessReceivedCommands_0: (+1)
   \   00000004   0x2200             MOVS     R2,#+0
   \   00000006   0xA901             ADD      R1,SP,#+4
   \   00000008   0x....             LDR      R0,??DataTable10_2
   \   0000000A   0x6800             LDR      R0,[R0, #+0]
   \   0000000C   0x.... 0x....      BL       xQueueReceive
   \   00000010   0x2800             CMP      R0,#+0
   \   00000012   0xD074             BEQ      ??prvProcessReceivedCommands_1
    717          	{
    718          		#if ( INCLUDE_xTimerPendFunctionCall == 1 )
    719          		{
    720          			/* Negative commands are pended function calls rather than timer
    721          			commands. */
    722          			if( xMessage.xMessageID < ( BaseType_t ) 0 )
    723          			{
    724          				const CallbackParameters_t * const pxCallback = &( xMessage.u.xCallbackParameters );
    725          
    726          				/* The timer uses the xCallbackParameters member to request a
    727          				callback be executed.  Check the callback is not NULL. */
    728          				configASSERT( pxCallback );
    729          
    730          				/* Call the function. */
    731          				pxCallback->pxCallbackFunction( pxCallback->pvParameter1, pxCallback->ulParameter2 );
    732          			}
    733          			else
    734          			{
    735          				mtCOVERAGE_TEST_MARKER();
    736          			}
    737          		}
    738          		#endif /* INCLUDE_xTimerPendFunctionCall */
    739          
    740          		/* Commands that are positive are timer commands rather than pended
    741          		function calls. */
    742          		if( xMessage.xMessageID >= ( BaseType_t ) 0 )
   \   00000014   0x9801             LDR      R0,[SP, #+4]
   \   00000016   0x2800             CMP      R0,#+0
   \   00000018   0xD4F4             BMI      ??prvProcessReceivedCommands_0
    743          		{
    744          			/* The messages uses the xTimerParameters member to work on a
    745          			software timer. */
    746          			pxTimer = xMessage.u.xTimerParameters.pxTimer;
   \   0000001A   0x9803             LDR      R0,[SP, #+12]
   \   0000001C   0x0004             MOVS     R4,R0
    747          
    748          			if( listIS_CONTAINED_WITHIN( NULL, &( pxTimer->xTimerListItem ) ) == pdFALSE ) /*lint !e961. The cast is only redundant when NULL is passed into the macro. */
   \   0000001E   0x6960             LDR      R0,[R4, #+20]
   \   00000020   0x2800             CMP      R0,#+0
   \   00000022   0xD003             BEQ      ??prvProcessReceivedCommands_2
    749          			{
    750          				/* The timer is in a list, remove it. */
    751          				( void ) uxListRemove( &( pxTimer->xTimerListItem ) );
   \   00000024   0x0020             MOVS     R0,R4
   \   00000026   0x1D00             ADDS     R0,R0,#+4
   \   00000028   0x.... 0x....      BL       uxListRemove
    752          			}
    753          			else
    754          			{
    755          				mtCOVERAGE_TEST_MARKER();
    756          			}
    757          
    758          			traceTIMER_COMMAND_RECEIVED( pxTimer, xMessage.xMessageID, xMessage.u.xTimerParameters.xMessageValue );
    759          
    760          			/* In this case the xTimerListsWereSwitched parameter is not used, but
    761          			it must be present in the function call.  prvSampleTimeNow() must be
    762          			called after the message is received from xTimerQueue so there is no
    763          			possibility of a higher priority task adding a message to the message
    764          			queue with a time that is ahead of the timer daemon task (because it
    765          			pre-empted the timer daemon task after the xTimeNow value was set). */
    766          			xTimeNow = prvSampleTimeNow( &xTimerListsWereSwitched );
   \                     ??prvProcessReceivedCommands_2: (+1)
   \   0000002C   0xA804             ADD      R0,SP,#+16
   \   0000002E   0x.... 0x....      BL       prvSampleTimeNow
   \   00000032   0x0005             MOVS     R5,R0
    767          
    768          			switch( xMessage.xMessageID )
   \   00000034   0x9801             LDR      R0,[SP, #+4]
   \   00000036   0x2800             CMP      R0,#+0
   \   00000038   0xD00E             BEQ      ??prvProcessReceivedCommands_3
   \   0000003A   0x2802             CMP      R0,#+2
   \   0000003C   0xD00C             BEQ      ??prvProcessReceivedCommands_3
   \   0000003E   0xD30B             BCC      ??prvProcessReceivedCommands_3
   \   00000040   0x2804             CMP      R0,#+4
   \   00000042   0xD037             BEQ      ??prvProcessReceivedCommands_4
   \   00000044   0xD32F             BCC      ??prvProcessReceivedCommands_5
   \   00000046   0x2806             CMP      R0,#+6
   \   00000048   0xD006             BEQ      ??prvProcessReceivedCommands_3
   \   0000004A   0xD348             BCC      ??prvProcessReceivedCommands_6
   \   0000004C   0x2808             CMP      R0,#+8
   \   0000004E   0xD02A             BEQ      ??prvProcessReceivedCommands_5
   \   00000050   0xD302             BCC      ??prvProcessReceivedCommands_3
   \   00000052   0x2809             CMP      R0,#+9
   \   00000054   0xD02E             BEQ      ??prvProcessReceivedCommands_4
   \   00000056   0xE051             B        ??prvProcessReceivedCommands_7
    769          			{
    770          				case tmrCOMMAND_START :
    771          				case tmrCOMMAND_START_FROM_ISR :
    772          				case tmrCOMMAND_RESET :
    773          				case tmrCOMMAND_RESET_FROM_ISR :
    774          				case tmrCOMMAND_START_DONT_TRACE :
    775          					/* Start or restart a timer. */
    776          					pxTimer->ucStatus |= tmrSTATUS_IS_ACTIVE;
   \                     ??prvProcessReceivedCommands_3: (+1)
   \   00000058   0x2024             MOVS     R0,#+36
   \   0000005A   0x5C20             LDRB     R0,[R4, R0]
   \   0000005C   0x2101             MOVS     R1,#+1
   \   0000005E   0x4301             ORRS     R1,R1,R0
   \   00000060   0x2024             MOVS     R0,#+36
   \   00000062   0x5421             STRB     R1,[R4, R0]
    777          					if( prvInsertTimerInActiveList( pxTimer,  xMessage.u.xTimerParameters.xMessageValue + pxTimer->xTimerPeriodInTicks, xTimeNow, xMessage.u.xTimerParameters.xMessageValue ) != pdFALSE )
   \   00000064   0x9B02             LDR      R3,[SP, #+8]
   \   00000066   0x002A             MOVS     R2,R5
   \   00000068   0x9802             LDR      R0,[SP, #+8]
   \   0000006A   0x69A1             LDR      R1,[R4, #+24]
   \   0000006C   0x1841             ADDS     R1,R0,R1
   \   0000006E   0x0020             MOVS     R0,R4
   \   00000070   0x.... 0x....      BL       prvInsertTimerInActiveList
   \   00000074   0x2800             CMP      R0,#+0
   \   00000076   0xD015             BEQ      ??prvProcessReceivedCommands_8
    778          					{
    779          						/* The timer expired before it was added to the active
    780          						timer list.  Process it now. */
    781          						pxTimer->pxCallbackFunction( ( TimerHandle_t ) pxTimer );
   \   00000078   0x0020             MOVS     R0,R4
   \   0000007A   0x6A21             LDR      R1,[R4, #+32]
   \   0000007C   0x4788             BLX      R1
    782          						traceTIMER_EXPIRED( pxTimer );
    783          
    784          						if( ( pxTimer->ucStatus & tmrSTATUS_IS_AUTORELOAD ) != 0 )
   \   0000007E   0x2024             MOVS     R0,#+36
   \   00000080   0x5C20             LDRB     R0,[R4, R0]
   \   00000082   0x0740             LSLS     R0,R0,#+29
   \   00000084   0xD50E             BPL      ??prvProcessReceivedCommands_8
    785          						{
    786          							xResult = xTimerGenericCommand( pxTimer, tmrCOMMAND_START_DONT_TRACE, xMessage.u.xTimerParameters.xMessageValue + pxTimer->xTimerPeriodInTicks, NULL, tmrNO_DELAY );
   \   00000086   0x2000             MOVS     R0,#+0
   \   00000088   0x9000             STR      R0,[SP, #+0]
   \   0000008A   0x2300             MOVS     R3,#+0
   \   0000008C   0x9802             LDR      R0,[SP, #+8]
   \   0000008E   0x69A1             LDR      R1,[R4, #+24]
   \   00000090   0x1842             ADDS     R2,R0,R1
   \   00000092   0x2100             MOVS     R1,#+0
   \   00000094   0x0020             MOVS     R0,R4
   \   00000096   0x.... 0x....      BL       xTimerGenericCommand
   \   0000009A   0x0006             MOVS     R6,R0
    787          							configASSERT( xResult );
   \   0000009C   0x2E00             CMP      R6,#+0
   \   0000009E   0xD101             BNE      ??prvProcessReceivedCommands_9
   \   000000A0   0xB672             cpsid i
   \                     ??prvProcessReceivedCommands_10: (+1)
   \   000000A2   0xE7FE             B        ??prvProcessReceivedCommands_10
    788          							( void ) xResult;
    789          						}
    790          						else
    791          						{
    792          							mtCOVERAGE_TEST_MARKER();
    793          						}
    794          					}
    795          					else
    796          					{
    797          						mtCOVERAGE_TEST_MARKER();
    798          					}
    799          					break;
   \                     ??prvProcessReceivedCommands_9: (+1)
   \                     ??prvProcessReceivedCommands_8: (+1)
   \   000000A4   0xE7AE             B        ??prvProcessReceivedCommands_0
    800          
    801          				case tmrCOMMAND_STOP :
    802          				case tmrCOMMAND_STOP_FROM_ISR :
    803          					/* The timer has already been removed from the active list. */
    804          					pxTimer->ucStatus &= ~tmrSTATUS_IS_ACTIVE;
   \                     ??prvProcessReceivedCommands_5: (+1)
   \   000000A6   0x2024             MOVS     R0,#+36
   \   000000A8   0x5C20             LDRB     R0,[R4, R0]
   \   000000AA   0x21FE             MOVS     R1,#+254
   \   000000AC   0x4001             ANDS     R1,R1,R0
   \   000000AE   0x2024             MOVS     R0,#+36
   \   000000B0   0x5421             STRB     R1,[R4, R0]
    805          					break;
   \   000000B2   0xE7A7             B        ??prvProcessReceivedCommands_0
    806          
    807          				case tmrCOMMAND_CHANGE_PERIOD :
    808          				case tmrCOMMAND_CHANGE_PERIOD_FROM_ISR :
    809          					pxTimer->ucStatus |= tmrSTATUS_IS_ACTIVE;
   \                     ??prvProcessReceivedCommands_4: (+1)
   \   000000B4   0x2024             MOVS     R0,#+36
   \   000000B6   0x5C20             LDRB     R0,[R4, R0]
   \   000000B8   0x2101             MOVS     R1,#+1
   \   000000BA   0x4301             ORRS     R1,R1,R0
   \   000000BC   0x2024             MOVS     R0,#+36
   \   000000BE   0x5421             STRB     R1,[R4, R0]
    810          					pxTimer->xTimerPeriodInTicks = xMessage.u.xTimerParameters.xMessageValue;
   \   000000C0   0x9802             LDR      R0,[SP, #+8]
   \   000000C2   0x61A0             STR      R0,[R4, #+24]
    811          					configASSERT( ( pxTimer->xTimerPeriodInTicks > 0 ) );
   \   000000C4   0x69A0             LDR      R0,[R4, #+24]
   \   000000C6   0x2800             CMP      R0,#+0
   \   000000C8   0xD101             BNE      ??prvProcessReceivedCommands_11
   \   000000CA   0xB672             cpsid i
   \                     ??prvProcessReceivedCommands_12: (+1)
   \   000000CC   0xE7FE             B        ??prvProcessReceivedCommands_12
    812          
    813          					/* The new period does not really have a reference, and can
    814          					be longer or shorter than the old one.  The command time is
    815          					therefore set to the current time, and as the period cannot
    816          					be zero the next expiry time can only be in the future,
    817          					meaning (unlike for the xTimerStart() case above) there is
    818          					no fail case that needs to be handled here. */
    819          					( void ) prvInsertTimerInActiveList( pxTimer, ( xTimeNow + pxTimer->xTimerPeriodInTicks ), xTimeNow, xTimeNow );
   \                     ??prvProcessReceivedCommands_11: (+1)
   \   000000CE   0x002B             MOVS     R3,R5
   \   000000D0   0x002A             MOVS     R2,R5
   \   000000D2   0x69A0             LDR      R0,[R4, #+24]
   \   000000D4   0x1829             ADDS     R1,R5,R0
   \   000000D6   0x0020             MOVS     R0,R4
   \   000000D8   0x.... 0x....      BL       prvInsertTimerInActiveList
    820          					break;
   \   000000DC   0xE792             B        ??prvProcessReceivedCommands_0
    821          
    822          				case tmrCOMMAND_DELETE :
    823          					#if ( configSUPPORT_DYNAMIC_ALLOCATION == 1 )
    824          					{
    825          						/* The timer has already been removed from the active list,
    826          						just free up the memory if the memory was dynamically
    827          						allocated. */
    828          						if( ( pxTimer->ucStatus & tmrSTATUS_IS_STATICALLY_ALLOCATED ) == ( uint8_t ) 0 )
   \                     ??prvProcessReceivedCommands_6: (+1)
   \   000000DE   0x2024             MOVS     R0,#+36
   \   000000E0   0x5C20             LDRB     R0,[R4, R0]
   \   000000E2   0x0780             LSLS     R0,R0,#+30
   \   000000E4   0xD403             BMI      ??prvProcessReceivedCommands_13
    829          						{
    830          							vPortFree( pxTimer );
   \   000000E6   0x0020             MOVS     R0,R4
   \   000000E8   0x.... 0x....      BL       vPortFree
   \   000000EC   0xE005             B        ??prvProcessReceivedCommands_14
    831          						}
    832          						else
    833          						{
    834          							pxTimer->ucStatus &= ~tmrSTATUS_IS_ACTIVE;
   \                     ??prvProcessReceivedCommands_13: (+1)
   \   000000EE   0x2024             MOVS     R0,#+36
   \   000000F0   0x5C20             LDRB     R0,[R4, R0]
   \   000000F2   0x21FE             MOVS     R1,#+254
   \   000000F4   0x4001             ANDS     R1,R1,R0
   \   000000F6   0x2024             MOVS     R0,#+36
   \   000000F8   0x5421             STRB     R1,[R4, R0]
    835          						}
    836          					}
    837          					#else
    838          					{
    839          						/* If dynamic allocation is not enabled, the memory
    840          						could not have been dynamically allocated. So there is
    841          						no need to free the memory - just mark the timer as
    842          						"not active". */
    843          						pxTimer->ucStatus &= ~tmrSTATUS_IS_ACTIVE;
    844          					}
    845          					#endif /* configSUPPORT_DYNAMIC_ALLOCATION */
    846          					break;
   \                     ??prvProcessReceivedCommands_14: (+1)
   \   000000FA   0xE783             B        ??prvProcessReceivedCommands_0
    847          
    848          				default	:
    849          					/* Don't expect to get here. */
    850          					break;
   \                     ??prvProcessReceivedCommands_7: (+1)
   \   000000FC   0xE782             B        ??prvProcessReceivedCommands_0
    851          			}
    852          		}
    853          	}
    854          }
   \                     ??prvProcessReceivedCommands_1: (+1)
   \   000000FE   0xB006             ADD      SP,SP,#+24
   \   00000100   0xBD70             POP      {R4-R6,PC}       ;; return
    855          /*-----------------------------------------------------------*/
    856          

   \                                 In section .text, align 4, keep-with-next
    857          static void prvSwitchTimerLists( void )
    858          {
   \                     prvSwitchTimerLists: (+1)
   \   00000000   0xB5F0             PUSH     {R4-R7,LR}
   \   00000002   0xB083             SUB      SP,SP,#+12
    859          TickType_t xNextExpireTime, xReloadTime;
    860          List_t *pxTemp;
    861          Timer_t *pxTimer;
    862          BaseType_t xResult;
    863          
    864          	/* The tick count has overflowed.  The timer lists must be switched.
    865          	If there are any timers still referenced from the current timer list
    866          	then they must have expired and should be processed before the lists
    867          	are switched. */
    868          	while( listLIST_IS_EMPTY( pxCurrentTimerList ) == pdFALSE )
   \                     ??prvSwitchTimerLists_0: (+1)
   \   00000004   0x....             LDR      R0,??DataTable10_3
   \   00000006   0x6800             LDR      R0,[R0, #+0]
   \   00000008   0x6800             LDR      R0,[R0, #+0]
   \   0000000A   0x2800             CMP      R0,#+0
   \   0000000C   0xD030             BEQ      ??prvSwitchTimerLists_1
    869          	{
    870          		xNextExpireTime = listGET_ITEM_VALUE_OF_HEAD_ENTRY( pxCurrentTimerList );
   \   0000000E   0x....             LDR      R0,??DataTable10_3
   \   00000010   0x6800             LDR      R0,[R0, #+0]
   \   00000012   0x68C0             LDR      R0,[R0, #+12]
   \   00000014   0x6800             LDR      R0,[R0, #+0]
   \   00000016   0x0005             MOVS     R5,R0
    871          
    872          		/* Remove the timer from the list. */
    873          		pxTimer = ( Timer_t * ) listGET_OWNER_OF_HEAD_ENTRY( pxCurrentTimerList ); /*lint !e9087 !e9079 void * is used as this macro is used with tasks and co-routines too.  Alignment is known to be fine as the type of the pointer stored and retrieved is the same. */
   \   00000018   0x....             LDR      R0,??DataTable10_3
   \   0000001A   0x6800             LDR      R0,[R0, #+0]
   \   0000001C   0x68C0             LDR      R0,[R0, #+12]
   \   0000001E   0x68C0             LDR      R0,[R0, #+12]
   \   00000020   0x0004             MOVS     R4,R0
    874          		( void ) uxListRemove( &( pxTimer->xTimerListItem ) );
   \   00000022   0x0020             MOVS     R0,R4
   \   00000024   0x1D00             ADDS     R0,R0,#+4
   \   00000026   0x.... 0x....      BL       uxListRemove
    875          		traceTIMER_EXPIRED( pxTimer );
    876          
    877          		/* Execute its callback, then send a command to restart the timer if
    878          		it is an auto-reload timer.  It cannot be restarted here as the lists
    879          		have not yet been switched. */
    880          		pxTimer->pxCallbackFunction( ( TimerHandle_t ) pxTimer );
   \   0000002A   0x0020             MOVS     R0,R4
   \   0000002C   0x6A21             LDR      R1,[R4, #+32]
   \   0000002E   0x4788             BLX      R1
    881          
    882          		if( ( pxTimer->ucStatus & tmrSTATUS_IS_AUTORELOAD ) != 0 )
   \   00000030   0x2024             MOVS     R0,#+36
   \   00000032   0x5C20             LDRB     R0,[R4, R0]
   \   00000034   0x0740             LSLS     R0,R0,#+29
   \   00000036   0xD5E5             BPL      ??prvSwitchTimerLists_0
    883          		{
    884          			/* Calculate the reload value, and if the reload value results in
    885          			the timer going into the same timer list then it has already expired
    886          			and the timer should be re-inserted into the current list so it is
    887          			processed again within this loop.  Otherwise a command should be sent
    888          			to restart the timer to ensure it is only inserted into a list after
    889          			the lists have been swapped. */
    890          			xReloadTime = ( xNextExpireTime + pxTimer->xTimerPeriodInTicks );
   \   00000038   0x69A0             LDR      R0,[R4, #+24]
   \   0000003A   0x1828             ADDS     R0,R5,R0
   \   0000003C   0x0006             MOVS     R6,R0
    891          			if( xReloadTime > xNextExpireTime )
   \   0000003E   0x42B5             CMP      R5,R6
   \   00000040   0xD208             BCS      ??prvSwitchTimerLists_2
    892          			{
    893          				listSET_LIST_ITEM_VALUE( &( pxTimer->xTimerListItem ), xReloadTime );
   \   00000042   0x6066             STR      R6,[R4, #+4]
    894          				listSET_LIST_ITEM_OWNER( &( pxTimer->xTimerListItem ), pxTimer );
   \   00000044   0x6124             STR      R4,[R4, #+16]
    895          				vListInsert( pxCurrentTimerList, &( pxTimer->xTimerListItem ) );
   \   00000046   0x0021             MOVS     R1,R4
   \   00000048   0x1D09             ADDS     R1,R1,#+4
   \   0000004A   0x....             LDR      R0,??DataTable10_3
   \   0000004C   0x6800             LDR      R0,[R0, #+0]
   \   0000004E   0x.... 0x....      BL       vListInsert
   \   00000052   0xE7D7             B        ??prvSwitchTimerLists_0
    896          			}
    897          			else
    898          			{
    899          				xResult = xTimerGenericCommand( pxTimer, tmrCOMMAND_START_DONT_TRACE, xNextExpireTime, NULL, tmrNO_DELAY );
   \                     ??prvSwitchTimerLists_2: (+1)
   \   00000054   0x2000             MOVS     R0,#+0
   \   00000056   0x9000             STR      R0,[SP, #+0]
   \   00000058   0x2300             MOVS     R3,#+0
   \   0000005A   0x002A             MOVS     R2,R5
   \   0000005C   0x2100             MOVS     R1,#+0
   \   0000005E   0x0020             MOVS     R0,R4
   \   00000060   0x.... 0x....      BL       xTimerGenericCommand
   \   00000064   0x0007             MOVS     R7,R0
    900          				configASSERT( xResult );
   \   00000066   0x2F00             CMP      R7,#+0
   \   00000068   0xD101             BNE      ??prvSwitchTimerLists_3
   \   0000006A   0xB672             cpsid i
   \                     ??prvSwitchTimerLists_4: (+1)
   \   0000006C   0xE7FE             B        ??prvSwitchTimerLists_4
    901          				( void ) xResult;
   \                     ??prvSwitchTimerLists_3: (+1)
   \   0000006E   0xE7C9             B        ??prvSwitchTimerLists_0
    902          			}
    903          		}
    904          		else
    905          		{
    906          			mtCOVERAGE_TEST_MARKER();
    907          		}
    908          	}
    909          
    910          	pxTemp = pxCurrentTimerList;
   \                     ??prvSwitchTimerLists_1: (+1)
   \   00000070   0x....             LDR      R0,??DataTable10_3
   \   00000072   0x6800             LDR      R0,[R0, #+0]
   \   00000074   0x9001             STR      R0,[SP, #+4]
    911          	pxCurrentTimerList = pxOverflowTimerList;
   \   00000076   0x....             LDR      R0,??DataTable10
   \   00000078   0x6800             LDR      R0,[R0, #+0]
   \   0000007A   0x....             LDR      R1,??DataTable10_3
   \   0000007C   0x6008             STR      R0,[R1, #+0]
    912          	pxOverflowTimerList = pxTemp;
   \   0000007E   0x9801             LDR      R0,[SP, #+4]
   \   00000080   0x....             LDR      R1,??DataTable10
   \   00000082   0x6008             STR      R0,[R1, #+0]
    913          }
   \   00000084   0xBDF7             POP      {R0-R2,R4-R7,PC}  ;; return
    914          /*-----------------------------------------------------------*/
    915          

   \                                 In section .text, align 2, keep-with-next
    916          static void prvCheckForValidListAndQueue( void )
    917          {
   \                     prvCheckForValidListAndQueue: (+1)
   \   00000000   0xB580             PUSH     {R7,LR}
    918          	/* Check that the list from which active timers are referenced, and the
    919          	queue used to communicate with the timer service, have been
    920          	initialised. */
    921          	taskENTER_CRITICAL();
   \   00000002   0x.... 0x....      BL       vPortEnterCritical
    922          	{
    923          		if( xTimerQueue == NULL )
   \   00000006   0x....             LDR      R0,??DataTable10_2
   \   00000008   0x6800             LDR      R0,[R0, #+0]
   \   0000000A   0x2800             CMP      R0,#+0
   \   0000000C   0xD11B             BNE      ??prvCheckForValidListAndQueue_0
    924          		{
    925          			vListInitialise( &xActiveTimerList1 );
   \   0000000E   0x....             LDR      R0,??DataTable10_4
   \   00000010   0x.... 0x....      BL       vListInitialise
    926          			vListInitialise( &xActiveTimerList2 );
   \   00000014   0x....             LDR      R0,??DataTable10_5
   \   00000016   0x.... 0x....      BL       vListInitialise
    927          			pxCurrentTimerList = &xActiveTimerList1;
   \   0000001A   0x....             LDR      R0,??DataTable10_4
   \   0000001C   0x....             LDR      R1,??DataTable10_3
   \   0000001E   0x6008             STR      R0,[R1, #+0]
    928          			pxOverflowTimerList = &xActiveTimerList2;
   \   00000020   0x....             LDR      R0,??DataTable10_5
   \   00000022   0x....             LDR      R1,??DataTable10
   \   00000024   0x6008             STR      R0,[R1, #+0]
    929          
    930          			#if( configSUPPORT_STATIC_ALLOCATION == 1 )
    931          			{
    932          				/* The timer queue is allocated statically in case
    933          				configSUPPORT_DYNAMIC_ALLOCATION is 0. */
    934          				static StaticQueue_t xStaticTimerQueue; /*lint !e956 Ok to declare in this manner to prevent additional conditional compilation guards in other locations. */
    935          				static uint8_t ucStaticTimerQueueStorage[ ( size_t ) configTIMER_QUEUE_LENGTH * sizeof( DaemonTaskMessage_t ) ]; /*lint !e956 Ok to declare in this manner to prevent additional conditional compilation guards in other locations. */
    936          
    937          				xTimerQueue = xQueueCreateStatic( ( UBaseType_t ) configTIMER_QUEUE_LENGTH, ( UBaseType_t ) sizeof( DaemonTaskMessage_t ), &( ucStaticTimerQueueStorage[ 0 ] ), &xStaticTimerQueue );
    938          			}
    939          			#else
    940          			{
    941          				xTimerQueue = xQueueCreate( ( UBaseType_t ) configTIMER_QUEUE_LENGTH, sizeof( DaemonTaskMessage_t ) );
   \   00000026   0x2200             MOVS     R2,#+0
   \   00000028   0x210C             MOVS     R1,#+12
   \   0000002A   0x2005             MOVS     R0,#+5
   \   0000002C   0x.... 0x....      BL       xQueueGenericCreate
   \   00000030   0x....             LDR      R1,??DataTable10_2
   \   00000032   0x6008             STR      R0,[R1, #+0]
    942          			}
    943          			#endif
    944          
    945          			#if ( configQUEUE_REGISTRY_SIZE > 0 )
    946          			{
    947          				if( xTimerQueue != NULL )
   \   00000034   0x....             LDR      R0,??DataTable10_2
   \   00000036   0x6800             LDR      R0,[R0, #+0]
   \   00000038   0x2800             CMP      R0,#+0
   \   0000003A   0xD004             BEQ      ??prvCheckForValidListAndQueue_0
    948          				{
    949          					vQueueAddToRegistry( xTimerQueue, "TmrQ" );
   \   0000003C   0x....             LDR      R1,??DataTable10_6
   \   0000003E   0x....             LDR      R0,??DataTable10_2
   \   00000040   0x6800             LDR      R0,[R0, #+0]
   \   00000042   0x.... 0x....      BL       vQueueAddToRegistry
    950          				}
    951          				else
    952          				{
    953          					mtCOVERAGE_TEST_MARKER();
    954          				}
    955          			}
    956          			#endif /* configQUEUE_REGISTRY_SIZE */
    957          		}
    958          		else
    959          		{
    960          			mtCOVERAGE_TEST_MARKER();
    961          		}
    962          	}
    963          	taskEXIT_CRITICAL();
   \                     ??prvCheckForValidListAndQueue_0: (+1)
   \   00000046   0x.... 0x....      BL       vPortExitCritical
    964          }
   \   0000004A   0xBD01             POP      {R0,PC}          ;; return
    965          /*-----------------------------------------------------------*/
    966          

   \                                 In section .text, align 4, keep-with-next
    967          BaseType_t xTimerIsTimerActive( TimerHandle_t xTimer )
    968          {
   \                     xTimerIsTimerActive: (+1)
   \   00000000   0xB570             PUSH     {R4-R6,LR}
   \   00000002   0x0004             MOVS     R4,R0
    969          BaseType_t xReturn;
    970          Timer_t *pxTimer = xTimer;
   \   00000004   0x0026             MOVS     R6,R4
    971          
    972          	configASSERT( xTimer );
   \   00000006   0x2C00             CMP      R4,#+0
   \   00000008   0xD101             BNE      ??xTimerIsTimerActive_0
   \   0000000A   0xB672             cpsid i
   \                     ??xTimerIsTimerActive_1: (+1)
   \   0000000C   0xE7FE             B        ??xTimerIsTimerActive_1
    973          
    974          	/* Is the timer in the list of active timers? */
    975          	taskENTER_CRITICAL();
   \                     ??xTimerIsTimerActive_0: (+1)
   \   0000000E   0x.... 0x....      BL       vPortEnterCritical
    976          	{
    977          		if( ( pxTimer->ucStatus & tmrSTATUS_IS_ACTIVE ) == 0 )
   \   00000012   0x2024             MOVS     R0,#+36
   \   00000014   0x5C30             LDRB     R0,[R6, R0]
   \   00000016   0x07C0             LSLS     R0,R0,#+31
   \   00000018   0xD402             BMI      ??xTimerIsTimerActive_2
    978          		{
    979          			xReturn = pdFALSE;
   \   0000001A   0x2000             MOVS     R0,#+0
   \   0000001C   0x0005             MOVS     R5,R0
   \   0000001E   0xE001             B        ??xTimerIsTimerActive_3
    980          		}
    981          		else
    982          		{
    983          			xReturn = pdTRUE;
   \                     ??xTimerIsTimerActive_2: (+1)
   \   00000020   0x2001             MOVS     R0,#+1
   \   00000022   0x0005             MOVS     R5,R0
    984          		}
    985          	}
    986          	taskEXIT_CRITICAL();
   \                     ??xTimerIsTimerActive_3: (+1)
   \   00000024   0x.... 0x....      BL       vPortExitCritical
    987          
    988          	return xReturn;
   \   00000028   0x0028             MOVS     R0,R5
   \   0000002A   0xBD70             POP      {R4-R6,PC}       ;; return
    989          } /*lint !e818 Can't be pointer to const due to the typedef. */
    990          /*-----------------------------------------------------------*/
    991          

   \                                 In section .text, align 4, keep-with-next
    992          void *pvTimerGetTimerID( const TimerHandle_t xTimer )
    993          {
   \                     pvTimerGetTimerID: (+1)
   \   00000000   0xB570             PUSH     {R4-R6,LR}
   \   00000002   0x0004             MOVS     R4,R0
    994          Timer_t * const pxTimer = xTimer;
   \   00000004   0x0025             MOVS     R5,R4
    995          void *pvReturn;
    996          
    997          	configASSERT( xTimer );
   \   00000006   0x2C00             CMP      R4,#+0
   \   00000008   0xD101             BNE      ??pvTimerGetTimerID_0
   \   0000000A   0xB672             cpsid i
   \                     ??pvTimerGetTimerID_1: (+1)
   \   0000000C   0xE7FE             B        ??pvTimerGetTimerID_1
    998          
    999          	taskENTER_CRITICAL();
   \                     ??pvTimerGetTimerID_0: (+1)
   \   0000000E   0x.... 0x....      BL       vPortEnterCritical
   1000          	{
   1001          		pvReturn = pxTimer->pvTimerID;
   \   00000012   0x69E8             LDR      R0,[R5, #+28]
   \   00000014   0x0006             MOVS     R6,R0
   1002          	}
   1003          	taskEXIT_CRITICAL();
   \   00000016   0x.... 0x....      BL       vPortExitCritical
   1004          
   1005          	return pvReturn;
   \   0000001A   0x0030             MOVS     R0,R6
   \   0000001C   0xBD70             POP      {R4-R6,PC}       ;; return
   1006          }
   1007          /*-----------------------------------------------------------*/
   1008          

   \                                 In section .text, align 4, keep-with-next
   1009          void vTimerSetTimerID( TimerHandle_t xTimer, void *pvNewID )
   1010          {
   \                     vTimerSetTimerID: (+1)
   \   00000000   0xB570             PUSH     {R4-R6,LR}
   \   00000002   0x0005             MOVS     R5,R0
   \   00000004   0x000C             MOVS     R4,R1
   1011          Timer_t * const pxTimer = xTimer;
   \   00000006   0x002E             MOVS     R6,R5
   1012          
   1013          	configASSERT( xTimer );
   \   00000008   0x2D00             CMP      R5,#+0
   \   0000000A   0xD101             BNE      ??vTimerSetTimerID_0
   \   0000000C   0xB672             cpsid i
   \                     ??vTimerSetTimerID_1: (+1)
   \   0000000E   0xE7FE             B        ??vTimerSetTimerID_1
   1014          
   1015          	taskENTER_CRITICAL();
   \                     ??vTimerSetTimerID_0: (+1)
   \   00000010   0x.... 0x....      BL       vPortEnterCritical
   1016          	{
   1017          		pxTimer->pvTimerID = pvNewID;
   \   00000014   0x61F4             STR      R4,[R6, #+28]
   1018          	}
   1019          	taskEXIT_CRITICAL();
   \   00000016   0x.... 0x....      BL       vPortExitCritical
   1020          }
   \   0000001A   0xBD70             POP      {R4-R6,PC}       ;; return

   \                                 In section .text, align 4, keep-with-next
   \                     ??DataTable6:
   \   00000000   0x........         DC32     xTimerQueue

   \                                 In section .text, align 4, keep-with-next
   \                     ??DataTable6_1:
   \   00000000   0x........         DC32     xTimerTaskHandle

   \                                 In section .text, align 4, keep-with-next
   \                     ??DataTable6_2:
   \   00000000   0x........         DC32     ?_0

   \                                 In section .text, align 4, keep-with-next
   \                     ??DataTable7:
   \   00000000   0x........         DC32     prvTimerTask

   \                                 In section .text, align 4, keep-with-next
   \                     ??DataTable8:
   \   00000000   0x........         DC32     pxCurrentTimerList

   \                                 In section .text, align 4, keep-with-next
   \                     ??DataTable10:
   \   00000000   0x........         DC32     pxOverflowTimerList

   \                                 In section .text, align 4, keep-with-next
   \                     ??DataTable10_1:
   \   00000000   0x........         DC32     ??xLastTime

   \                                 In section .text, align 4, keep-with-next
   \                     ??DataTable10_2:
   \   00000000   0x........         DC32     xTimerQueue

   \                                 In section .text, align 4, keep-with-next
   \                     ??DataTable10_3:
   \   00000000   0x........         DC32     pxCurrentTimerList

   \                                 In section .text, align 4, keep-with-next
   \                     ??DataTable10_4:
   \   00000000   0x........         DC32     xActiveTimerList1

   \                                 In section .text, align 4, keep-with-next
   \                     ??DataTable10_5:
   \   00000000   0x........         DC32     xActiveTimerList2

   \                                 In section .text, align 4, keep-with-next
   \                     ??DataTable10_6:
   \   00000000   0x........         DC32     ?_1

   \                                 In section .rodata, align 4
   \                     ?_0:
   \   00000000   0x54 0x6D          DC8 "Tmr Svc"
   \              0x72 0x20    
   \              0x53 0x76    
   \              0x63 0x00    

   \                                 In section .rodata, align 4
   \                     ?_1:
   \   00000000   0x54 0x6D          DC8 "TmrQ"
   \              0x72 0x51    
   \              0x00         
   \   00000005   0x00 0x00          DC8 0, 0, 0
   \              0x00         
   1021          /*-----------------------------------------------------------*/
   1022          
   1023          #if( INCLUDE_xTimerPendFunctionCall == 1 )
   1024          
   1025          	BaseType_t xTimerPendFunctionCallFromISR( PendedFunction_t xFunctionToPend, void *pvParameter1, uint32_t ulParameter2, BaseType_t *pxHigherPriorityTaskWoken )
   1026          	{
   1027          	DaemonTaskMessage_t xMessage;
   1028          	BaseType_t xReturn;
   1029          
   1030          		/* Complete the message with the function parameters and post it to the
   1031          		daemon task. */
   1032          		xMessage.xMessageID = tmrCOMMAND_EXECUTE_CALLBACK_FROM_ISR;
   1033          		xMessage.u.xCallbackParameters.pxCallbackFunction = xFunctionToPend;
   1034          		xMessage.u.xCallbackParameters.pvParameter1 = pvParameter1;
   1035          		xMessage.u.xCallbackParameters.ulParameter2 = ulParameter2;
   1036          
   1037          		xReturn = xQueueSendFromISR( xTimerQueue, &xMessage, pxHigherPriorityTaskWoken );
   1038          
   1039          		tracePEND_FUNC_CALL_FROM_ISR( xFunctionToPend, pvParameter1, ulParameter2, xReturn );
   1040          
   1041          		return xReturn;
   1042          	}
   1043          
   1044          #endif /* INCLUDE_xTimerPendFunctionCall */
   1045          /*-----------------------------------------------------------*/
   1046          
   1047          #if( INCLUDE_xTimerPendFunctionCall == 1 )
   1048          
   1049          	BaseType_t xTimerPendFunctionCall( PendedFunction_t xFunctionToPend, void *pvParameter1, uint32_t ulParameter2, TickType_t xTicksToWait )
   1050          	{
   1051          	DaemonTaskMessage_t xMessage;
   1052          	BaseType_t xReturn;
   1053          
   1054          		/* This function can only be called after a timer has been created or
   1055          		after the scheduler has been started because, until then, the timer
   1056          		queue does not exist. */
   1057          		configASSERT( xTimerQueue );
   1058          
   1059          		/* Complete the message with the function parameters and post it to the
   1060          		daemon task. */
   1061          		xMessage.xMessageID = tmrCOMMAND_EXECUTE_CALLBACK;
   1062          		xMessage.u.xCallbackParameters.pxCallbackFunction = xFunctionToPend;
   1063          		xMessage.u.xCallbackParameters.pvParameter1 = pvParameter1;
   1064          		xMessage.u.xCallbackParameters.ulParameter2 = ulParameter2;
   1065          
   1066          		xReturn = xQueueSendToBack( xTimerQueue, &xMessage, xTicksToWait );
   1067          
   1068          		tracePEND_FUNC_CALL( xFunctionToPend, pvParameter1, ulParameter2, xReturn );
   1069          
   1070          		return xReturn;
   1071          	}
   1072          
   1073          #endif /* INCLUDE_xTimerPendFunctionCall */
   1074          /*-----------------------------------------------------------*/
   1075          
   1076          #if ( configUSE_TRACE_FACILITY == 1 )
   1077          
   1078          	UBaseType_t uxTimerGetTimerNumber( TimerHandle_t xTimer )
   1079          	{
   1080          		return ( ( Timer_t * ) xTimer )->uxTimerNumber;
   1081          	}
   1082          
   1083          #endif /* configUSE_TRACE_FACILITY */
   1084          /*-----------------------------------------------------------*/
   1085          
   1086          #if ( configUSE_TRACE_FACILITY == 1 )
   1087          
   1088          	void vTimerSetTimerNumber( TimerHandle_t xTimer, UBaseType_t uxTimerNumber )
   1089          	{
   1090          		( ( Timer_t * ) xTimer )->uxTimerNumber = uxTimerNumber;
   1091          	}
   1092          
   1093          #endif /* configUSE_TRACE_FACILITY */
   1094          /*-----------------------------------------------------------*/
   1095          
   1096          /* This entire source file will be skipped if the application is not configured
   1097          to include software timer functionality.  If you want to include software timer
   1098          functionality then ensure configUSE_TIMERS is set to 1 in FreeRTOSConfig.h. */
   1099          #endif /* configUSE_TIMERS == 1 */
   1100          
   1101          
   1102          

   Maximum stack usage in bytes:

   .cstack Function
   ------- --------
       4   pcTimerGetName
       8   prvCheckForValidListAndQueue
         8   -> vListInitialise
         8   -> vPortEnterCritical
         8   -> vPortExitCritical
         8   -> vQueueAddToRegistry
         8   -> xQueueGenericCreate
       4   prvGetNextExpireTime
      32   prvInitialiseNewTimer
        32   -> prvCheckForValidListAndQueue
        32   -> vListInitialiseItem
      24   prvInsertTimerInActiveList
        24   -> vListInsert
      24   prvProcessExpiredTimer
        24   -- Indirect call
        24   -> prvInsertTimerInActiveList
        24   -> uxListRemove
        24   -> xTimerGenericCommand
      40   prvProcessReceivedCommands
        40   -- Indirect call
        40   -> prvInsertTimerInActiveList
        40   -> prvSampleTimeNow
        40   -> uxListRemove
        40   -> vPortFree
        40   -> xQueueReceive
        40   -> xTimerGenericCommand
      24   prvProcessTimerOrBlockTask
        24   -> prvProcessExpiredTimer
        24   -> prvSampleTimeNow
        24   -> vPortYield
        24   -> vQueueWaitForMessageRestricted
        24   -> vTaskSuspendAll
        24   -> xTaskResumeAll
      16   prvSampleTimeNow
        16   -> prvSwitchTimerLists
        16   -> xTaskGetTickCount
      32   prvSwitchTimerLists
        32   -- Indirect call
        32   -> uxListRemove
        32   -> vListInsert
        32   -> xTimerGenericCommand
      16   prvTimerTask
        16   -> prvGetNextExpireTime
        16   -> prvProcessReceivedCommands
        16   -> prvProcessTimerOrBlockTask
      16   pvTimerGetTimerID
        16   -> vPortEnterCritical
        16   -> vPortExitCritical
      16   vTimerSetReloadMode
        16   -> vPortEnterCritical
        16   -> vPortExitCritical
      16   vTimerSetTimerID
        16   -> vPortEnterCritical
        16   -> vPortExitCritical
      40   xTimerCreate
        40   -> prvInitialiseNewTimer
        40   -> pvPortMalloc
      16   xTimerCreateTimerTask
        16   -> prvCheckForValidListAndQueue
        16   -> xTaskCreate
      40   xTimerGenericCommand
        40   -> xQueueGenericSend
        40   -> xQueueGenericSendFromISR
        40   -> xTaskGetSchedulerState
       4   xTimerGetExpiryTime
       4   xTimerGetPeriod
       4   xTimerGetTimerDaemonTaskHandle
      16   xTimerIsTimerActive
        16   -> vPortEnterCritical
        16   -> vPortExitCritical


   Section sizes:

   Bytes  Function/Label
   -----  --------------
       4  ??DataTable10
       4  ??DataTable10_1
       4  ??DataTable10_2
       4  ??DataTable10_3
       4  ??DataTable10_4
       4  ??DataTable10_5
       4  ??DataTable10_6
       4  ??DataTable6
       4  ??DataTable6_1
       4  ??DataTable6_2
       4  ??DataTable7
       4  ??DataTable8
       8  ?_0
       8  ?_1
      18  pcTimerGetName
      76  prvCheckForValidListAndQueue
      46  prvGetNextExpireTime
      66  prvInitialiseNewTimer
      82  prvInsertTimerInActiveList
      96  prvProcessExpiredTimer
     258  prvProcessReceivedCommands
     100  prvProcessTimerOrBlockTask
      40  prvSampleTimeNow
     134  prvSwitchTimerLists
      26  prvTimerTask
      30  pvTimerGetTimerID
       4  pxCurrentTimerList
       4  pxOverflowTimerList
      56  vTimerSetReloadMode
      28  vTimerSetTimerID
      20  xActiveTimerList1
      20  xActiveTimerList2
       4  xLastTime
      50  xTimerCreate
      50  xTimerCreateTimerTask
     106  xTimerGenericCommand
      20  xTimerGetExpiryTime
      18  xTimerGetPeriod
      20  xTimerGetTimerDaemonTaskHandle
      44  xTimerIsTimerActive
       4  xTimerQueue
       4  xTimerTaskHandle

 
    60 bytes in section .bss
    16 bytes in section .rodata
 1 412 bytes in section .text
 
 1 412 bytes of CODE  memory
    16 bytes of CONST memory
    60 bytes of DATA  memory

Errors: none
Warnings: none
